:020000040800F2
:1000000018BC01209D010008F55F0008614400084C
:10001000B55F0008011C00085BB900080000000083
:10002000000000000000000000000000FD85000846
:100030001933000800000000A1600008D18A000800
:10004000B7010008B7010008B70100087968000887
:10005000B7010008B7010008B7010008B7010008A0
:10006000B7010008B7010008B7010008B701000890
:10007000B7010008B7010008B7010008BD2F00084C
:10008000B7010008B7010008B7010008B701000870
:10009000B7010008B7010008B7010008B53A000829
:1000A000B7010008B7010008B7010008B701000850
:1000B000718F0008B9900008E5900008B7010008AA
:1000C000B7010008B7010008B7010008B701000830
:1000D000B701000811A300084DA4000879A4000886
:1000E000B7010008E1620008B7010008B701000885
:1000F000B7010008B7010008B7010008B701000800
:10010000B7010008CD6B0008B7010008B70100086F
:10011000B7010008B7010008E5910008B701000821
:10012000B7010008E92F0008B7010008B70100086F
:10013000B7010008F1390008B7010008B70100084D
:10014000B7010008B7010008B70100088560000882
:10015000B7010008B7010008B7010008B70100089F
:10016000B7010008B7010008B7010008B70100088F
:10017000B7010008B7010008812F0008B701000887
:10018000B7010008B7010008DFF80CD000F0A0FBB1
:10019000004800476DFB000818BC01200648804756
:1001A00006480047FEE7FEE7FEE7FEE7FEE7FEE75C
:1001B000FEE7FEE7FEE7FEE7118B00088901000875
:1001C0002DE9F05F0546002092469B46884606468C
:1001D000814640241BE0284641464746224600F01F
:1001E0008EFA53465A46C01A914110D3114618460A
:1001F000224600F075FA2D1A67EB01084F46224699
:100200000120002100F06CFA17EB00094E41201E7E
:10021000A4F10104DFDC484631462A464346BDE8E6
:10022000F09F2DE9F0410024061B254671F10006E0
:1002300005DA01240027D0EB070067EB0101161E49
:1002400073F1000605DA0027D2EB0702012567EB00
:100250000303FFF7B5FF86460E4617469C46AC42A1
:1002600004D00025D0EB050E65EB010624B100207B
:10027000D2EB000760EB030C704631463A4663460A
:10028000BDE8F08140EA01039B0703D009E008C9FB
:10029000121F08C0042AFAD203E011F8013B00F84B
:1002A000013B521EF9D27047421E12F8013F002B4B
:1002B000FBD111F8013B02F8013B002BF9D170474B
:1002C000034611F8012B00F8012B002AF9D118463A
:1002D00070472DE9FE4F804681EA0300C00F0C46AF
:1002E000009021F0004123F00045B8EB0200A94145
:1002F00005D24046214690461C460B46024623F056
:100300000040104347D0270DC7F30A00C3F30A513A
:100310000290401A019040286BDAC3F3130040F4B6
:10032000801B0098924620B10023D2EB030A63EBB6
:100330000B0B01985946C0F14002504600F0D0F92D
:1003400006460D4650465946019A00F0E8F910EB72
:1003500008006141002487EA115284EAE7731A43D6
:1003600040D0009A62B3019A012A4FEA075215DC85
:10037000001B61EB02014FF0004202EA0752CDE997
:100380000042001C41F5801132462B4600F0E8F98E
:1003900003B0BDE8F08F40462146F9E7001B61EB52
:1003A0000201001C41F5801300185B412018A2F5E2
:1003B000001747EB030140EAD570B6196D4111E013
:1003C0006D084FEA360645EAC0754FEA0752001B32
:1003D00061EB0201001C41F5801149084FEA300031
:1003E0000019514132462B4603B0BDE8F04F00F0F2
:1003F000A8B90098012240000023D0EB020263EB71
:10040000E073009821464FEAE074B8EB000061EB1E
:100410000401E9E783F000435BE781F0004158E71E
:100420002DE9FE4F81EA030404F0004421F000416D
:1004300000944FF0000B23F0004350EA01045ED01B
:1004400052EA03045BD0C3F30A54C1F30A552C44A7
:10045000A4F2F3340194A0FB0254C1F3130141F45C
:100460008011C3F3130343F4801301FB024400FB28
:10047000034E840A970A44EA815447EA8357A4FB4F
:10048000076802958D0A05FB07854FEA932C04FB4C
:100490000C542705029D4FEA065847EA1637B5EB7C
:1004A00008056EEB070C870E920E47EA811742EAA9
:1004B0008312A7FB0201B6EB0B0164EB00042B0DCA
:1004C00043EA0C335E1844EB1C50DA465146E7FB16
:1004D0000201C5F313044FEA0B3343EA14534FEA06
:1004E0000432019C43EA0603A4F10C040294009C2C
:1004F000CDE900B400F034F903B0BDE8F08F00207E
:100500000146F9E72DE9F04D81EA030404F0004BC0
:1005100021F0004514464FF0000A23F0004150EA54
:10052000050220D054EA01021DD0C5F30A57024645
:10053000C5F31303C1F31300C1F30A5640F4801549
:1005400043F48013A7EB0608101BD64608F2FD38CB
:1005500073EB050002D308F1010801E092185B413A
:10056000B8F1000F03DA00200146BDE8F08D00204D
:100570004FF48011064684460EE0171B73EB050707
:1005800005D3121B63EB050306434CEA010C490833
:100590004FEA300092185B4150EA0107EDD152EA70
:1005A000030012D082EA040083EA0501084305D063
:1005B000101BAB4106D20122002306E000224FF0BF
:1005C000004302E06FF0010253101AEB06004CEBFF
:1005D000085110EB0A0041EB0B01BDE8F04D00F0B3
:1005E000B0B80EB540F2334102910021CDE90011BF
:1005F0000A460B4600F0B4F803B000BDC1F30A523E
:1006000010B5C1F3130140F2FF3341F480119A4257
:1006100001DA002010BD40F233439A42A2F2334285
:1006200003DC524200F06BF810BD904010BD00F0AA
:10063000004230F000400AD0C10D01F56071C0F3F6
:10064000160042EA0151C2084007114370470020DA
:100650000146704730B5041E71F1000404DB4FF011
:100660000044404264EB0101141E73F1000405DBF9
:100670001C464FF00043524263EB04038B4208BF19
:10068000824230BD30B5041E71F1000404DB4FF02E
:100690000044404264EB0101141E73F1000405DBC9
:1006A0001C464FF00043524263EB0403994208BFDB
:1006B000904230BD30B50B46014600202022012477
:1006C00009E021FA02F59D4205D303FA02F5491B20
:1006D00004FA02F52844151EA2F10102F1DC30BD36
:1006E000202A04DB203A00FA02F1002070479140F2
:1006F000C2F1200320FA03F3194390407047202AE7
:1007000004DB203A21FA02F00021704721FA02F3BB
:10071000D040C2F120029140084319467047202A78
:1007200006DBCB17203A41FA02F043EAE07306E019
:1007300041FA02F3D040C2F1200291400843194629
:10074000704710B5141E73F1000408DA401C41F123
:10075000000192185B411A4301D120F0010010BD45
:100760002DE9F04D92469B4611B1B1FA81F202E0BB
:10077000B0FA80F220329046FFF7B2FF04460F46EF
:1007800040EA0A0041EA0B0153465A46084313D097
:10079000114653EA010019D0C8F140025046FFF754
:1007A000AEFF05460E46504659464246FFF798FFB3
:1007B000084305D0012004E020463946BDE8F08D0D
:1007C0000020054346EAE0762C4337430A98630548
:1007D000E40AA0EB08000022FD0A44EA47540A306C
:1007E00002D500200146E9E7010510196941DDE95C
:1007F000084500196941BDE8F04DA2E72DE9F04D2B
:1008000000231A461B1A8A4103DB00200146BDE87B
:10081000F08DC1F30A52C1F3130141F480154FF07A
:10082000000BD10702D100186D41521E002704466B
:1008300040F2FF11384601EB620A3E46804602460E
:1008400000204FF48011FFF75AFFC2197141BB1805
:1008500046EB0100B4EB030C75EB000C04D3E41A77
:1008600065EB000517460E46241908F101006D419D
:1008700080463428E3DDF91946EB0600091BA84140
:1008800003D24FF0FF32134601E0002213461BEB68
:10089000070046EB0A51BDE8F04DFFF752BFC1F328
:1008A0000A52C1F3130140F2FF3341F480119A421E
:1008B00002DA00200146704740F233439A42A2F226
:1008C000334202DC5242FFF71ABFFFF709BF0000B4
:1008D000064C074D06E0E06840F0010394E807008D
:1008E00098471034AC42F6D3FFF752FC3C8B030818
:1008F0005C8B030870B58C1810F8015B15F00703CA
:1009000001D110F8013B2A1106D110F8012B03E0A8
:1009100010F8016B01F8016B5B1EF9D12B0705D4B0
:100920000023521E0DD401F8013BFAE710F8013BF9
:10093000CB1A921C03E013F8015B01F8015B521E15
:10094000F9D5A142D8D3002070BD21B1826842F010
:100950000102826003E0826822F001028260704737
:100960000021084A1168084A1140D0E900231A43BF
:1009700083681A43C3681A431143044AC2F8041334
:100980007047000004230140E030FCFF00200140DC
:1009900030B50246002000235068104C20400D79ED
:1009A0000C6844EA05242043506090680C4C2040B9
:1009B000D1E903542C438D682C434D7944EA450416
:1009C00020439060D06A20F470000C7D641EE4B275
:1009D000234340EA0350D06230BD0000FFFEFFFC1D
:1009E000FDF7FFC038B10849096841F40001074A22
:1009F000C2F8041306E00449096821F40001034A1F
:100A0000C2F8041370470000042301400020014095
:100A100000B58BB00121080205F074FB0120FFF73F
:100A2000E1FF002007900A9009904FF48030089071
:100A300007A8FFF795FF002001908DF808008DF8BA
:100A400009000390059001208DF8180001A90448C1
:100A5000FFF79EFF01210248FFF777FF0BB000BDB3
:100A60000020014010B5FF2000F02DF80446362C80
:100A700001D1002010BD3621FF2000F065F8FF20D5
:100A800000F021F80446362C01D10020F2E70120C5
:100A9000F0E710B504F074FB10BD2DE9F0410746F6
:100AA0000C460026002509E036023919491B491E6B
:100AB00088B200F008F80644681CC5B2A542F3DB12
:100AC0003046BDE8F08170B50446002604F0F8FB1E
:100AD0002546E11704EB11610912A02202EB410146
:100AE000C8B204F0BBFB04F023FCE11704EB116176
:100AF0000912A4EB0121C8B204F0B0FB04F018FC09
:100B000004F0DEFBA12004F0A9FB04F011FC00209E
:100B100004F078FB064604F0EFFB304670BD2DE98B
:100B2000F04105460E461746002409E0E20026FA89
:100B300002F2D1B22A1990B200F006F8601CC4B2D9
:100B4000BC42F3DBBDE8F08170B504460E4604F00C
:100B5000B7FB2546E11704EB11610912A02202EB55
:100B60004101C8B204F07AFB04F0E2FBE11704EBA8
:100B700011610912A4EB0121C8B204F06FFB04F06B
:100B8000D7FB304604F06AFB04F0D2FB04F0B4FB60
:100B90000A200CF02BF970BD10B5094840680949CE
:100BA00009680C1AB4F5967F09D30548007A30B964
:100BB000214605A00AF0A4FF01200149087210BDDA
:100BC000E8160020600000205B4172626974657263
:100BD0005D20486561727462656174206C6F737426
:100BE000212028256C75206D73290D0A0000000056
:100BF0000146B1F57A7F02DD4FF47A70704711F546
:100C00007A7F01DA0148F9E70846F7E718FCFFFFA9
:100C100010B5012000F0FCFD002000F0BFFD002019
:100C200000F020FE01A00AF06BFF10BD5B41726274
:100C3000697465725D2043414E206D6F6465206567
:100C40006E61626C65642C20726561647920746FDA
:100C500020636F6E74726F6C206368617373697365
:100C60000D0A00002DE9F04F87B006460F46002020
:100C7000019080465148B0F92850B0F92A000690FA
:100C800004A800F09DF8BDF91010BDF914208818D3
:100C900000EBD071491009B20391BDF91210BDF9F2
:100CA0001620881800EBD071491009B20291DDE9D5
:100CB0000210401A0FFA80F9BDF9100001F0F0FAA5
:100CC0008346BDF9120001F0EBFA8344BDF914002C
:100CD00001F0E6FA8344BDF9160001F0E1FA0BEBEE
:100CE000000A4FEAEA700AEB9070801004B23348B1
:100CF00090F83E00022809D0069801F0D1FA322877
:100D00000BDD284601F0CCFA322806DA03200190E8
:100D1000069801F0C5FA804646E0284601F0C0FA80
:100D20000A2805DC0A2C03DC0020019080463BE009
:100D3000B9F1320F11DD284601F0B2FA0A2801DCC0
:100D4000322C0ADD01200190284601F0A9FA8046E4
:100D5000B8F10A0F28DAA04626E019F1320F11DAAD
:100D6000284601F09DFA0A2801DC322C0ADD022017
:100D70000190284601F094FA8046B8F10A0F13DA80
:100D8000A04611E00A2D03DD04200190A8460BE0E7
:100D900015F10A0F05DA0520019068420FFA80F874
:100DA00002E000200190A0460EB1019830700FB112
:100DB000A7F8008007B0BDE8F08F0000E81600201B
:100DC00000B970470649C98E81800549098F0180A5
:100DD0000349498F41800249898FC18000BFF0E7F4
:100DE000E816002010B5002012490870124800686B
:100DF000486000200872C860088200210D484182C6
:100E00000175417500200B49C88200210948018302
:100E10008176C1764FF6FF70064988830020887777
:100E200008460078054A52F8201005A00AF068FE2E
:100E300010BD0000E8160020600000207C010020AA
:100E40005B417262697465725D20496E69746961A3
:100E50006C697A65642C206D6F64653A2025730D8A
:100E60000A000000014606290ED2DFE801F00D035A
:100E70000507090B05A0704706A0FCE707A0FAE7E5
:100E800008A0F8E708A0F6E709A0F4E74C454654A7
:100E90000000000052494748540000005350494E9A
:100EA00000000000465744004241434B0000000050
:100EB00053544F5000000000042900D070470278BE
:100EC000094B83F8D4204378074A82F8D5308378D9
:100ED00082F8D630C37882F8D7300122024B83F8EB
:100EE000D82000BFEAE70000E8160020082900D05B
:100EF00070470278114B83F8CC2043780F4A82F870
:100F0000CD30C278837842EA03230C4AA2F8CE306F
:100F10004279037942EA032213B2084AA2F8D03098
:100F2000C279837942EA032213B2044AA2F8D2308A
:100F30000122024B83F8D82000BFD9E7E816002031
:100F400070B504460D46082D00D070BD617820783C
:100F500001F0AEF909490885E178A07801F0A8F917
:100F600006494885E179A07901F0A2F9034988850D
:100F7000012081F8D80000BFE7E70000E816002054
:100F8000032900D070470278074B83F83E2043784E
:100F9000054A82F83F30837882F840300122024BC4
:100FA00083F8D82000BFEDE7E816002030B51346DF
:100FB000082B03D1012801DB082800DD30BD441EC9
:100FC000E2B24C780D7844EA052425B2104C24F89E
:100FD0003250CC788D7844EA052425B20C4C04EBD1
:100FE000C20465800C7924064D7944EA05448D7964
:100FF00044EA0524CD792C43054D05EBC2056C6010
:101000000124034D443D85F8D84000BFD6E70000D9
:101010002C17002070B50346082A03D1012B01DBF1
:10102000082B00DD70BD5C1EE0B24C780D7844EA00
:10103000052500EB4006124C24F81650CC788D782C
:1010400044EA052425B200EB40060D4C04EB4604AF
:1010500065800C7965B200EB4006094C04EB460450
:1010600025714D7900EB4006054C04EB4604657193
:101070000124034D843D85F8D84000BFD2E700002D
:101080006C170020082900D07047027812064378B8
:1010900042EA0342837842EA0322C3781A430A4BA6
:1010A000C3F8BC2002791206437942EA03428379ED
:1010B00042EA0322C3791A43034BC3F8C02001223A
:1010C00083F8D82000BFDFE7E8160020082900D009
:1010D000704702781206437842EA0342837842EA74
:1010E0000322C3781A430A4BC3F8C42002791206BC
:1010F000437942EA0342837942EA0322C3791A43DD
:10110000034BC3F8C820012283F8D82000BFDFE7D3
:10111000E8160020082900D070470278104B83F8A9
:10112000B420427853B20E4A82F8B530827853B276
:101130000B4A82F8B630C27853B2094A82F8B73007
:10114000027953B2064A82F8B830427953B2044A5F
:1011500082F8B9300122024B83F8D82000BFDBE7C8
:10116000E8160020082900D0704702780E4B83F85B
:10117000202043780C4A82F82130C278837842EAF2
:101180000323094A538402791206437942EA03424F
:10119000837942EA0322C3791A43034B5A6201223C
:1011A00083F8D82000BFDFE7E8160020082900D028
:1011B00070474278037842EA032212B20E4BDA8576
:1011C000C278837842EA032213B20B4A138642792B
:1011D000037942EA032213B2074A5386C27983791C
:1011E00042EA032213B2044A93860122024B83F897
:1011F000D82000BFDCE70000E816002070B50446E8
:101200000D46082D00D070BD6178207801F050F8AF
:101210000C49C886E178A07801F04AF809490887A6
:101220006179207901F044F806494887E179A0798D
:1012300001F03EF803498887012081F8D80000BFFB
:10124000E1E70000E816002030B589B007A908A83A
:10125000FFF708FD05A8FFF7B3FD9DF82000FFF795
:1012600001FE044616480078164951F82000009007
:101270001348B0F91630BDF91C20214612A00AF01F
:101280003FFC0F48408C0A2190FBF1F201FB120455
:101290000B48408C90FBF1F5BDF91A00BDF9181010
:1012A000CDE90254CDE90010BDF91630BDF9142086
:1012B0000348B0F928100EA00AF022FC09B030BD96
:1012C000E81600207C0100205B43414E2046425D31
:1012D000204449523D2573205350443D256420430A
:1012E0004D443D2564204D4F44453D25730D0A0076
:1012F0005B43414E2046425D20563D2564204C46CE
:101300003D25642052463D2564204C523D256420F5
:1013100052523D2564204241543D25642E25645699
:101320000D0A000010B5FFF737FC0F4800780528BC
:1013300013D2DFE800F00306090C0F0000F022F9D9
:101340000FE000F073F90CE000F0BEF809E000F0E7
:1013500005F906E000F03EF903E0002000F0C0FAD5
:1013600000BF00BF10BD0000E81600203EB5694672
:1013700002A800F0BFFC044604B93EBD40F2622260
:101380000298811A904267D029DC40F25322A0EBE8
:101390000201904251D013DC40F24122A0EB020145
:1013A000904243D007DCA0F2112098B3102837D028
:1013B00020286FD139E010293DD011297FD13BE0A1
:1013C00004293ED006DC012938D0022937D0032970
:1013D00075D135E0052935D00E2970D13BE00F29B4
:1013E00049D007DC07296AD2DFE801F069373839CC
:1013F0003A3B3C00B02953D006DC1F2940D02F29AE
:1014000043D0AF295BD146E0FF294ED0B1F5807FB4
:1014100055D14FE0FFE721466846FFF7A3FE4FE0B6
:1014200021466846FFF78CFD4AE049E021466846C0
:10143000FFF770FE44E000BF00BF00BF00BF00BF69
:1014400000BF00BF0299A1F51471C8B222466946D7
:10145000FFF7ACFD34E000BF00BF00BF00BF00BF1E
:1014600000BF00BF0299A1F51871C8B222466946B3
:10147000FFF7D0FD24E021466846FFF797FE1FE006
:1014800021466846FFF7BAFE1AE021466846FFF794
:1014900077FD15E013E021466846FFF7F3FD0FE006
:1014A00021466846FFF712FE0AE021466846FFF72C
:1014B0001DFD05E021466846FFF7FEFC00E000BF89
:1014C00000BF00BF59E7000010B52248808B1E28DE
:1014D00003DA032000F004FA10BD1E48007A88B930
:1014E0001C48407D70B11B48C08A58B91948C06873
:1014F00019490968081AB0F57A7F03D3042000F06F
:10150000EFF9E9E71348808B1E2808DA002011491B
:10151000C88200210F4801830121C17615E00D48E2
:10152000808B962809DAC8200A49C8824FF4FA71DC
:10153000084801830021C17607E04FF49670054901
:10154000C882002103480183C176022101488176C7
:1015500000BFC1E7E81600206000002010B50020A1
:101560000749C882002106480183032181760121B1
:10157000C176808B1E2802DB042000F0B1F910BD7B
:10158000E816002010B51248808B1E2803DA0320CD
:1015900000F0A6F910BD0E48007A18B1022000F044
:1015A0009FF9F7E70A48807F18B1012000F098F909
:1015B000F0E70749B1F91000FFF71AFB0449C882A8
:1015C0000846418A018300218176C17600BFE1E7A8
:1015D000E816002010B51348808B1E2803DA03207C
:1015E00000F07EF910BD0F48007A18B1022000F01B
:1015F00077F9F7E70B48C0680B490968081AB0F596
:101600007A7F03D3002000F06BF9EBE70020054957
:10161000C882002103480183042181760021C1761C
:1016200000BFDFE7E81600206000002010B52DEDB8
:10163000028B2A48808B1E2805DA032000F050F91F
:10164000BDEC028B10BD2548007A18B1022000F0D5
:1016500047F9F5E72148807F18B9002000F040F9EC
:10166000EEE79FED1F8A1D48808B1E2804DC9FED4E
:101670001C0AB0EE408A15E01848808B962804DBDF
:10168000B7EE000AB0EE408A0CE01448808B1E389A
:1016900000EE100AB8EEC00ADFED120A80EE201A42
:1016A000B0EE418A0D48B0F9100000EE100AB8EE15
:1016B000C00A20EE080ABDEEC00A10EE100A04B2FD
:1016C0002046FFF795FA0549C8820846418A0183FA
:1016D000012181760021C17600BFB1E7E816002024
:1016E000000000000000F04270B58AB000200890B1
:1016F00009902648B0F91640008B642110FB01F0D8
:1017000005B20026200A8DF82000E0B28DF82100F5
:10171000280A8DF82200E8B28DF8230000208DF809
:1017200024008DF82500300A8DF826008DF82760FA
:10173000082208A940F2111000F000FB14480068CC
:1017400014490968401AB0F5FA7F1CD310480068A4
:10175000104908609DF827009DF8261004AA31C2A0
:1017600003919DF825109DF824009DF82320CDE9D4
:10177000002002919DF822309DF821209DF8201034
:1017800005480AF0BDF90AB070BD0000E816002057
:1017900060000020900100201C88030838B5044632
:1017A00000940122694640F2234000F0C7FA0CB9C8
:1017B00003A000E004A0014605A00AF0A1F938BD8D
:1017C00043555252454E5400564F4C5441474500E4
:1017D0005B417262697465725D2053657420647246
:1017E000697665206D6F64653A2025730D0A0000E7
:1017F00000B502460B46054802824382AA210175C4
:101800000121417500F09EF800BD0000E81600209F
:1018100038B5044600940122694640F2214000F0A8
:101820008DFA0CB903A000E004A0014606A00AF05E
:1018300067F938BD5354414E4442590043414E5F0D
:101840004354524C000000005B417262697465723F
:101850005D20536574206D6F64653A2025730D0A11
:101860000000000038B5044600940122694640F2A9
:10187000411000F063FA214601A00AF041F938BD99
:101880005B417262697465725D20536574206D6F8F
:1018900074696F6E206D6F64653A2025640D0A00CF
:1018A0004EF66021884206DB4FF6FF710B4A9183AA
:1018B000002191777047094988831E2803DA0121A6
:1018C000064A917708E0962803DA0121034A9177C6
:1018D00002E00021014A917700BFEBE7E816002003
:1018E00010B504460B480078A04212D00A4850F8C0
:1018F000242008480078084B53F8201007A00AF06D
:10190000FFF804480470042C03D10D480068014915
:10191000C86010BDE81600207C0100205B417262A7
:10192000697465725D204D6F6465207377697463B7
:10193000683A202573202D3E2025730D0A000000F3
:1019400060000020034800680349486000200872D6
:101950007047000060000020E81600201CB501213F
:10196000202004F09FFB01208DF80400000200906D
:1019700003208DF8050000208DF8060001208DF869
:10198000070069460E4802F063FC4FF480710C4872
:1019900002F0D2FC01200B49087000200A490870AF
:1019A0000A4908804FF48071054802F0C7FC6420A2
:1019B0000BF01CFA4FF48071014802F0BDFC1CBD15
:1019C0000014024058000020590000205A00002056
:1019D00010B54548007810B14448007828B94FF454
:1019E0008071434802F0A8FC10BD42480088401CAA
:1019F000404908803D480078142814DC08460088D7
:101A0000142190FBF1F201FB1200012805DA4FF4DA
:101A10008071374802F092FC64E04FF480713448E2
:101A200002F08AFC5EE031480078282814DC314856
:101A300000880A2190FBF1F201FB1200032805DA6D
:101A40004FF480712A4802F079FC4BE04FF480712A
:101A5000274802F071FC45E0244800783C2814DC5B
:101A600024480088052190FBF1F201FB12000328B5
:101A700005DA4FF480711E4802F060FC32E04FF44A
:101A800080711B4802F058FC2CE018480078502860
:101A900014DC18480088052190FBF1F201FB1200CC
:101AA000042805DA4FF48071114802F047FC19E070
:101AB0004FF480710E4802F03FFC13E00D4800889F
:101AC0000A2190FBF1F201FB1200092805DA4FF41C
:101AD0008071074802F032FC04E04FF48071044842
:101AE00002F02AFC00BF7FE75800002059000020C8
:101AF000001402405A00002010B50446084800783F
:101B000000B910BD642C00DD64240648047024B9BB
:101B10004FF48071044802F00FFC00BFF1E70000B1
:101B200058000020590000200014024010B5002089
:101B300003F09AFC0446032C1DD10F48007808B925
:101B4000012000E000200C4908700846007810B918
:101B50000020FFF7D1FF01200849087006480078EF
:101B600008B107A000E007A0014607A009F0C8FFE0
:101B7000C8200BF03BF910BD1F0000202200002000
:101B80004F4E00004F4646005B424545505D2044A5
:101B9000697374616E636520616C6572742025736E
:101BA00020284B45593120746F67676C65290D0AF1
:101BB0000000000070B504461048007818B14FF6D8
:101BC000FF70844203D10020FFF796FF70BD962C72
:101BD00001DB00250DE0322C01DA642509E0C4F1B7
:101BE0009600C0EB00108000642190FBF1F01430EF
:101BF000C5B22846FFF780FF00BFE7E71F000020BF
:101C000000BFFEE708B5002007230522042100904D
:101C100000F002F808BD00002DE9F0418AB004464A
:101C20000D4616461F46DDF840800121084604F0A7
:101C300039FA0121480604F055FA09220B212B48F4
:101C400002F04EFB09220C21284802F049FB4FF418
:101C5000C050089002208DF8240000208DF8260046
:101C600003208DF8250001208DF8270008A91F48C2
:101C700002F0EEFA00208DF81A0001208DF81B000A
:101C800000208DF81C0001208DF81D0000208DF82B
:101C90001E008DF81F008DF816808DF817408DF806
:101CA00018608DF81950ADF8147005A9104800F0AF
:101CB00003F900208DF80E008DF80F0001208DF83B
:101CC00010000020ADF80400ADF80600ADF80800E3
:101CD000ADF80A00ADF80C0001208DF8110001A844
:101CE00000F066F80AB0BDE8F08100000000024094
:101CF0000064004070B586B005460E4600210E48CF
:101D000000F064F910B9002006B070BD01AA0021EE
:101D1000094800F06AF901982860002404E00DF1F8
:101D20000F00005D3055641C9DF80E00A042F6D8EF
:101D30009DF80E00E8E70000006400402DE9F04146
:101D400086B0074688461546002401970020029079
:101D50008DF80C008DF80D008DF80E5000BF06E0D8
:101D600018F804100DF10F000155601C84B2AC424C
:101D7000F6DB01A90D4800F0B0F90646002401E0A9
:101D8000601C84B23146094800F03AFA18B940F6AE
:101D9000FF708442F4DB40F6FF70844203DB0120D5
:101DA00006B0BDE8F0810020FAE7000000640040C2
:101DB00010B50021837A012202FA03F13D4A12682C
:101DC00042F001023B4B1A603A4A1C3212688A43C5
:101DD000384B1C331A60027BCAB9364A0C3212687F
:101DE0008A43344B0C331A604288C38842EA034367
:101DF000304A4032847A42F834300288838842EA9A
:101E000003432C4A4032847A02EBC4025360027BC3
:101E1000012A19D1274A0C3212680A43254B0C3388
:101E20001A604288038842EA0343224A4032847A95
:101E300042F83430C288838842EA03431D4A403264
:101E4000847A02EBC4025360C27A3AB9194A121D6D
:101E500012688A43174B1B1D1A6006E0154A121DB3
:101E600012680A43134B1B1D1A60028932B9114ACA
:101E7000143212688A430F4B14331A600289012A04
:101E800006D10C4A143212680A430A4B14331A6002
:101E9000427B012A06D1074A1C3212680A43054BCD
:101EA0001C331A60034A126822F00102014B1A60C7
:101EB00010BD00000066004030B50246002000233F
:101EC000146824F002041460146844F001041460DF
:101ED00000E05B1C546804F001041CB94FF6FF7469
:101EE000A342F6D1546804F001040CB900206CE060
:101EF0008C79012C04D1146844F08004146003E050
:101F0000146824F080041460CC79012C04D1146886
:101F100044F04004146003E0146824F040041460AA
:101F20000C7A012C04D1146844F02004146003E0FE
:101F3000146824F0200414604C7A012C04D1146835
:101F400044F01004146003E0146824F010041460DA
:101F50008C7A012C04D1146844F00804146003E066
:101F6000146824F008041460CC7A012C04D114689D
:101F700044F00404146003E0146824F004041460C2
:101F80008C78A407CD7844EA05640D7944EA0544C9
:101F90004D7944EA05540D886D1E2C43D4611468B4
:101FA00024F001041460002300E05B1C546804F07A
:101FB00001041CB14FF6FF74A342F6D1546804F03B
:101FC00001040CB1002000E0012030BD02460020D9
:101FD00019B9D36803F0030006E0012903D113699E
:101FE00003F0030000E00020704710B500F5D8733F
:101FF00003EB01131B6803F004031372137A53B944
:1020000000F5D87303EB01131B6840F2FF7404EA78
:102010005353136009E000F5D87303EB01131B68F9
:102020006FF0604404EAD303536000F5D87303EB08
:1020300001131B6803F00203537200F5D87303EB1E
:1020400001135B6803F00F03937200F5D87303EB81
:1020500001135B681B0AD37400F5D87303EB0113FB
:102060009B68D37200F5D87303EB01139B681C0ABD
:10207000147300F5D87303EB01139B681C0C5473A5
:1020800000F5D87303EB01139B681B0E937300F5E7
:10209000D87303EB0113DB68D37300F5D87303EB3C
:1020A0000113DB681C0A147400F5D87303EB0113E9
:1020B000DB681C0C547400F5D87303EB0113DB6868
:1020C0001B0E937421B9C36843F02003C36003E07F
:1020D000036943F02003036110BD10B502460020E0
:1020E000936803F08063B3F1806F00D110E09368D0
:1020F00003F00063B3F1006F01D1012008E09368A1
:1021000003F08053B3F1805F01D1022000E004208E
:10211000042874D002F5C07303EB00131B6803F0AE
:10212000010402F5C07303EB00131C600B7A7BB94A
:102130004B7A0C8843EA445302F5C07404EB001454
:102140002468234302F5C07404EB0014236010E0FC
:102150000B7A4C6843EAC4034C7A234302F5C074FB
:1021600004EB00142468234302F5C07404EB00144C
:1021700023608B7A03F00F038B7202F5C07303EBBD
:1021800000135B6823F00F0402F5C07303EB001328
:102190005C6002F5C07303EB00135B688C7A234329
:1021A00002F5C07404EB001463608B7B1C064B7B50
:1021B00044EA03440B7B44EA0323CC7A234302F52D
:1021C000C07404EB0014A3608B7C1C064B7C44EAB7
:1021D00003440B7C44EA0323CC7B234302F5C07405
:1021E00004EB0014E36002F5C07303EB00131B68FB
:1021F00043F0010402F5C07303EB00131C6010BD33
:1022000010B50246002321B1012907D002290FD1C0
:1022100009E090681D4C00EA04030BE090681C4C38
:1022200000EA040306E090681A4C00EA040301E0A7
:10223000002300BF00BF184C181BA34216D007DCB8
:1022400083B16FF08060184470B1022818D111E09A
:10225000B0F5007F10D0114C204448B1B0F5003FDC
:102260000ED10BE002230DE000230BE0002309E078
:10227000002307E0012305E0012303E0012301E03F
:10228000002300BF00BFD8B210BD0000030000044F
:102290000003000800000310000100080001FFF720
:1022A0000146002902DA484200B270470846FCE7BE
:1022B000024641EA022000B27047000000B58FB02C
:1022C0000DA90EA8FEF7CEFC9DF83800062827D2EF
:1022D000DFE800F026030A11181FBDF9342017A10A
:1022E00001A809F01DFC21E0BDF9342019A101A8C5
:1022F00009F016FC1AE0BDF934201CA101A809F070
:102300000FFC13E0BDF934201EA101A809F008FC60
:102310000CE0BDF9342021A101A809F001FC05E081
:10232000002224A101A809F0FBFB00BF00BF01A906
:10233000A62006F009FB0FB000BD0000D4CBB6AF5D
:102340003ACFF2D7F320CBD9B6C83A2534646D6DB5
:102350002F730000D4CBB6AF3ACFF2D3D220CBD973
:10236000B6C83A2534646D6D2F730000D4CBB6AF78
:102370003AD7D4D7AA20CBD9B6C83A25346420207E
:1023800020200000D4CBB6AF3AC7B0BDF820CBD9DF
:10239000B6C83A2534646D6D2F730000D4CBB6AF48
:1023A0003ABAF3CDCB20CBD9B6C83A2534646D6D9B
:1023B0002F730000D4CBB6AF3ACDA3D6B920CBD97A
:1023C000B6C83A25346420202020000070B58CB0B7
:1023D000FFF774FF00F05CF81E48408C0A2190FB68
:1023E000F1F201FB12061B48408C90FBF1F51948F5
:1023F00090F8210033462A4617A1009002A809F060
:102400008FFB02A9D62006F085FA124890F8CC007E
:1024100000281DDD0F48B0F8CE40B4F57A7F03DD0B
:102420000A2094FBF0F084B20A2094FBF0F100FB48
:10243000114594FBF0F60748009590F8CC20334600
:102440000CA102A809F06CFB02A9F62006F062FAC2
:102450000CB070BDE8160020426174743A253264F5
:102460002E25316456204D6F64653A307825303220
:1024700058000000424D5320534F433A2532642503
:102480002520563A2532642E25316456000000007E
:1024900000B58FB001A8FEF793FCBDF90630BDF979
:1024A00004200BA103A809F03BFB03A9B62006F00A
:1024B0004BFABDF90A30BDF908200AA103A809F0BA
:1024C0002FFB03A9C62006F03FFA0FB000BD0000A5
:1024D000D7F3C7B03A25346420D3D2C7B03A2534F5
:1024E00064000000D7F3BAF33A25346420D3D2BA9B
:1024F000F33A25346400000070B500254FF48034B1
:1025000004E0802004F04EFB00B103E0201EA4F1A3
:102510000104F6D100BF0CB9032070BD40F2FF509A
:1025200004F016FB2846F8E770B5044605E01648A7
:10253000056805F0450000B100E0F8E700BF0420A1
:1025400004F030FB20B1042004F002FB032070BD36
:10255000012004F027FB20B1012004F0F9FA01204A
:10256000F5E7094824380068A04201D01020EEE7C2
:1025700040F2FF5004F0ECFA0348203800680821CC
:102580000840C0B2E3E70000342C014070B50026DB
:102590004FF4803505E01148046804F0450000B1AF
:1025A00003E0281EA5F10105F5D100BF15B104F027
:1025B000040028B10326042004F0CAFA304670BD96
:1025C000012004F0EFFA18B10126012004F0C0FA4E
:1025D00040F2FF5004F0BCFA3046F0E7342C0140E2
:1025E00010B505E00B48046804F0450000B100E0B8
:1025F000F8E700BF042004F0D5FA20B1042004F06D
:10260000A7FA032010BD40F2FF5004F0A1FA002009
:10261000F8E70000342C01402DE9F04105460E4654
:102620004FF0000805E02048076807F0450000B1BA
:1026300000E0F8E700BF042004F0B4FA28B1042059
:1026400004F086FA0320BDE8F081012004F0AAFA24
:1026500020B1012004F07CFA0120F4E7124824386C
:102660000068A84201D01020EDE740F2FF5004F0CE
:102670006FFA0D482038046804F4604018B9200C43
:1026800030804046DFE704F4005008B11320DAE759
:1026900004F4804008B11020D5E704F4004008B1EC
:1026A0000F20D0E74046CEE7342C014070B500261D
:1026B0004FF4803505E00F48046804F0450000B190
:1026C00003E0281EA5F10105F5D100BF15B104F006
:1026D000040028B10326042004F03AFA304670BD05
:1026E00004F0400018B10026402004F031FA3046D2
:1026F000F5E70000342C014070B506460C4604F0A6
:102700008000802808D104F07F0000EB800106F5EE
:102710008E7000EBC10505E004EB840106F55D70E9
:1027200000EBC1050020A87004F07F002870C4F3FE
:10273000C01068702946304608F00FFF002070BDB9
:102740002DE9F04106460D4690461F4605F08000F3
:10275000802808D105F07F0000EB800106F58E701F
:1027600000EBC10407E005F07F0000EB800106F5F7
:102770005D7000EBC10405F07F00207005F0800063
:10278000C0096070C4F80880E770607808B12078EC
:10279000E080022F01D1002020712146304608F050
:1027A00090FE0020BDE8F0812DE9F04105460E467F
:1027B0001746984606F07F0000EB800105F55D7036
:1027C00000EBC104E760C4F814800020A0616070D1
:1027D00006F07F002070E878012800D1276120787A
:1027E00020B92146284608F090FD03E021462846FE
:1027F00008F00DFF0020BDE8F08108B5002200922E
:10280000009A61F30A12009202691268009B1A434F
:1028100003691A6008BD70B506460C4604F08000D6
:10282000802808D104F07F0000EB800106F58E704F
:1028300000EBC10505E004EB840106F55D7000EBDB
:10284000C1050120A87004F07F002870C4F3C010F7
:1028500068702946304608F0A8FE002070BD2DE9BA
:10286000F04107460D461646984605F07F0000EBFE
:10287000800107F58E7000EBC1040120607005F047
:102880007F002070E66026610020A061C4F81480FB
:10289000207820B92146384608F037FD03E021466C
:1028A000384608F0B4FE0020BDE8F0811CB50446AF
:1028B000204608F0F5FCE068C0680090204608F06B
:1028C000CBFF03280BD10020A0704FF40070A08034
:1028D000009820F4705000F51050009009E001209D
:1028E000A0704020A080009820F4705000F5A05007
:1028F00000900098E168C86000200190019820F4E1
:10290000005000F5005001900198E16848610120F5
:102910001CBD0000F8B505460024002000902846A4
:1029200008F0CDFF064690E006F0010000287DD0BB
:10293000E1B2284600F0B4FA0090009800F00100DF
:1029400030B3012000FA04F72869406BB8432969C5
:10295000486300200090009820F00100401C009087
:1029600005F1180050F8240000998160E1B239485F
:102970000068426828469047E878012808D13CB9A9
:1029800040F21110405D042802D1284608F068FD8D
:102990000098C0F3C00060B100200090009820F0C3
:1029A00008000830009005F1180050F82400009944
:1029B00081600098C0F3001060B100200090009882
:1029C00020F010001030009005F1180050F824009D
:1029D000009981600098C0F3801060B100200090E1
:1029E000009820F040004030009005F1180050F8A9
:1029F0002400009981600098C0F3400060B100207D
:102A00000090009820F00200801C009005F1180052
:102A100050F82400009981600098C0F3C01028B1DC
:102A20002146284600F050FA002000E00BE000901C
:102A3000009820F080008030009005F1180050F8D8
:102A4000240000998160641C7608002E7FF46CAF2E
:102A50000120F8BD1C0200207CB5044600250020A2
:102A60000190204608F033FF06466FE006F00100B3
:102A7000002869D0E9B2204608F031FF01900198A2
:102A800000F00100C8B300200190019820F001007F
:102A9000401C019004F1540050F825000199816018
:102AA000E078012817D104F1540050F8250000699E
:102AB000009005EB850104F55D7000EBC1008068B6
:102AC0000099C1F31201411A05EB850204F55D700E
:102AD00000EBC2008161E9B21E480068026820462E
:102AE0009047E078012808D13DB940F21110005D0F
:102AF000052802D1204608F0B3FC0198C0F340003D
:102B000060B100200190019820F00200801C01902B
:102B100004F1540050F82500019981600198C0F338
:102B2000C00088B10B4800688168204688470020B3
:102B30000190019820F008000830019004F1540041
:102B400050F82500019981606D1C7608002E8DD10A
:102B500001207CBD1C0200203EB50446A07A70B165
:102B6000D4F80C010090009820F00200009000982A
:102B700020F0010000900099D4F80C0101600020C1
:102B80000190019820F00100401C019020694068EC
:102B90000199884321694860084800688169204696
:102BA000884700200290029820F0004000F1004089
:102BB00002900298E168486101203EBD1C0200209D
:102BC0007CB5044600200190019820F010001030E0
:102BD0000190E068806901998843E1688861E06854
:102BE000006A0090009800F00F0000EB800104F5EF
:102BF0005D7000EBC1050098C0F3434007282DD25B
:102C0000DFE800F02C04051D1E2C1F0027E00098B3
:102C1000C0F30A1090B10098C0F30A122046E96888
:102C200008F067FEE8680099C1F30A110844E860FB
:102C3000A8690099C1F30A110844A8610FE00EE0E9
:102C40000DE0082204F2CC51204608F052FEA8699B
:102C50000099C1F30A110844A86100E000BF00BF59
:102C6000E068806901990843E168886101207CBDC2
:102C700038B5044608480068C168204688470020E7
:102C80000090009820F00800083000900098E1685B
:102C90004861012038BD00001C0200201FB5044619
:102CA000002000904FF48970005D00902348006878
:102CB0004169204688472069806801900020039080
:102CC000039820F4006000F5006003900398E16829
:102CD0004861A07A70B3019800F0010050B340F24F
:102CE0001510005D012825D19DF80000032821D191
:102CF00000200290029820F00100401C0290D4F8BD
:102D00000C01006802990843D4F80C11086002987D
:102D100020F00200801C0290D4F80C010068029997
:102D20000843D4F80C1108600548006840F006001C
:102D300003490860012004B010BD00001C020020FF
:102D400010ED00E030B587B00446002002900690F8
:102D50000590049003900190029820F00100401C1F
:102D600002902069406802998843216948600021E7
:102D7000204608F047FD00250BE0FF2104F1180074
:102D800050F82500816004F1540050F8250081605E
:102D90006D1C6078A842F0D84FF0FF312069816146
:102DA00006986FF30F00401C0690069880B200F55D
:102DB0008030069006992069C161059820F00800CE
:102DC00008300590059820F00100401C05900598FA
:102DD00020F00200801C059005992069416104984B
:102DE00020F00100401C0490049820F008000830F6
:102DF0000490049820F00200801C0490049920693B
:102E00000161206900680390039820F4FE6003903C
:102E1000039920690160204608F022FB0020019000
:102E2000019820F4805000F5805001900198E168ED
:102E3000486104480068016920468847012007B0BE
:102E400030BD00001C02002038B504460020009070
:102E500007480068C16920468847009820F4801020
:102E600000F5801000900098E1684861012038BDAD
:102E70001C02002038B50446002000900748006876
:102E8000016A20468847009820F4001000F50010E1
:102E900000900098E1684861012038BD1C020020C4
:102EA00030B5024615692B6915696C6B24FA01F57A
:102EB00005F0010543EAC51302F1180555F8215044
:102EC000AD6805EA030030BD2DE9F84307460E461C
:102ED00000250020009006EB860107F58E7000EBC0
:102EE000C104D4E90501451AA068A84200D2A5682A
:102EF000E81C4FEA900807F1180050F82600806996
:102F000000901BE0D4E90501451AA068A84200D250
:102F1000A568E81C4FEA9008ABB2F2B23846E16807
:102F200008F0FBFCE0682844E060A0692844A06148
:102F300007F1180050F8260080690090009880B2D0
:102F4000404506D9D4E90510884202D260690028BC
:102F5000D8D10120BDE8F8830149486170470000DD
:102F600000000550014600200022044B1B6903EAC3
:102F700001020AB1012000E0002070470000055066
:102F800010B50120FFF7EEFF012811D10CF058FC1D
:102F90000120FFF7E1FF0748006808B9012000E0C1
:102FA00000200449086004480078401C0249087069
:102FB00010BD0000A48242426001002010B5074904
:102FC000074800F04BF9012806D10449044800F0F5
:102FD0003BF804480068804710BD000020800020B6
:102FE000706002405C01002010B50749074800F0FE
:102FF00013F9012806D10449044800F00BF80448ED
:103000000068804710BD00000008001028640240DE
:10301000640100200246094B9A4201D2084801E0AF
:103020000648103801F000531BB1064B0B40C3603B
:1030300002E0044B0B4083607047000010640240C4
:10304000006002407D0F7D0F0246094B9A4201D27B
:10305000084801E00648103801F000531BB1064B48
:103060000B40C36002E0044B0B40836070470000DC
:1030700010640240006002407D0F7D0F21B10268A4
:1030800042F00102026003E0026822F001020260E5
:1030900070470000016821F001010160002101601A
:1030A00041608160C1600161212141614A498842DA
:1030B00004D13D21484A103A91608CE046491831CC
:1030C000884205D14FF47461434A103A916082E01E
:1030D00041493031884205D14FF474113E4A103ACB
:1030E000916078E03C494831884205D14FF07461E5
:1030F000394A103A91606EE037496031884204D114
:103100003649354A103AD16065E033497831884212
:1031100004D13349304A103AD1605CE02E499031F5
:10312000884204D12F492C4A103AD16053E02A49F1
:10313000A831884205D14FF03D51274A103AD1605D
:1031400049E02949884204D13D21274A083A1160C3
:1031500041E025491831884205D14FF47461224A73
:10316000083A116037E020493031884205D14FF4E8
:1031700074111D4A083A11602DE01B4948318842FC
:1031800005D14FF07461184A083A116023E01649DE
:103190006031884204D11149134A121F11601AE0AC
:1031A00011497831884204D10D490F4A121F11602C
:1031B00011E00D499031884204D10A490A4A121F90
:1031C000116008E00849A831884204D14FF03D5110
:1031D000054A121F11607047106002403D00002038
:1031E000400F002000003D201064024021B1026821
:1031F00042F02002026003E0026822F02002026036
:103200007047014600200A6802F001020AB101205D
:1032100000E000207047000030B503460A46002059
:1032200000240B4DAB4201D20A4901E00849103994
:1032300002F000550DB14C6800E00C68064D2C40C2
:1032400004EA02050DB1012000E0002030BD0000BD
:1032500010640240006002407D0F7D0F70B5024691
:10326000002000240025124EB24201D2114B01E091
:103270000F4B103B104E0E4036B11E2606EAD124ED
:10328000166806EA040502E0566906F0800501F0BA
:1032900000560EB15C6800E01C68084E344004EA39
:1032A000010616B10DB1012000E0002070BD000044
:1032B00010640240006002403C0F3C0F7D0F7D0F08
:1032C00010B500220268134B1A40CC680B682343E8
:1032D0004C6923438C692343CC6923430C6A234301
:1032E0004C6A23438C6A23434C6B23438C6B2343EC
:1032F0001A430260426922F00702D1E90B342343EA
:103300001A4342610B6943604B6883608B68C360FA
:1033100010BD00003F801CF070470000004870475F
:10332000B01600204FF6FF720F48007A08B9104619
:103330007047002114E00C480930405C70B90A481D
:1033400030F811004EF66023984207DA064830F84C
:103350001100904202DA044830F81120481CC1B232
:103360000429E8DB1046E3E7B016002000B587B07B
:103370000121022002F096FE0121880402F0B2FE33
:1033800007220A21274800F0ABFF07220B2125481E
:1033900000F0A6FF4FF44060059002208DF8180061
:1033A0008DF8190000208DF81A0001208DF81B00FF
:1033B00005A91C4800F04CFF4FF416500190002066
:1033C000ADF80800ADF80A00ADF80C00ADF810003B
:1033D0000C20ADF80E0001A9134807F095F927203D
:1033E0008DF8000001208DF8010000208DF802000A
:1033F00001208DF80300684602F0FEFD012240F234
:103400002551094807F05BF90121074807F014F935
:10341000002006490870064908700649087207B07E
:1034200000BD000000040240004800406801002088
:1034300069010020B01600200448007820B1002067
:1034400002490870012070470020FCE76901002054
:1034500010B51648007A18B915A008F051FB10BD38
:1034600000241CE011480930005D012804D1611CD2
:1034700016A008F045FB10E00C480930005D02285A
:1034800004D1611C17A008F03BFB06E0074830F8A8
:103490001420611C19A008F033FB601CC4B2042C7A
:1034A000E0DB1BA008F02CFB00BFD8E7B016002023
:1034B0005B44535D2057616974696E6720666F7263
:1034C00020646174612E2E2E0D0A00005B44535D52
:1034D00020494625643A2054494D454F55540D0A1C
:1034E000000000005B44535D20494625643A2043B8
:1034F000484B204552520D0A000000005B44535DCA
:1035000020494625643A202564206D6D0D0A00008F
:103510002D2D2D0D0A0000001CB538480068401CF8
:1035200036490860084600686421B0FBF1F201FBEF
:10353000120030BB00203249087032490870002266
:1035400040F22551304807F0BAF84FF480600090FF
:1035500001208DF8040000208DF8060002208DF86F
:10356000050000208DF807006946284800F070FE2D
:103570004FF48061254800F0DFFE012024490870E7
:1035800026E02348007818B307220A211F4800F0DC
:10359000A7FE4FF48060009002208DF80400002008
:1035A0008DF8060002208DF8050001208DF8070037
:1035B0006946164800F04CFE0020154908700122AB
:1035C00040F22551104807F07AF812A008F098FA56
:1035D0000B480078002810DD0A480078401C094993
:1035E0000870084600780A2807DD054801780FA012
:1035F00008F086FA0020024908701CBD6C0100200A
:10360000680100206A0100200048004000040240D8
:10361000700100205B44535D20545249472070756F
:103620006C736520646F6E650D0A00005B44535D2A
:103630002052582074696D656F75742C2072657303
:103640006574206964783D25640D0A0010B500F0AA
:1036500051F900F0E9F8002005490860C72004F09E
:1036600065FF01200349C1F8B80200F0DDF810BD84
:10367000B88240420080404210B50446214610A066
:1036800008F03EFA240300F035F900F0CDF80020F0
:103690000D490860202004F049FFC4F3074004F0FE
:1036A00045FFC4F3072004F041FFE0B204F03EFF01
:1036B00001200649C1F8B80200F0B6F810BD0000BC
:1036C00066653A25780D0A00B88240420080404283
:1036D0001CB50121022002F0E5FC0121402002F08E
:1036E000E1FC4FF48040009001208DF804000020A0
:1036F0008DF8060003208DF8050001208DF80700E5
:1037000069460F4800F0A4FD8020009069460D48EE
:1037100000F09EFD80210B4800F010FE01200A49B8
:10372000086004F0A1FE002004F01CFF00F042F845
:10373000064908800846018805A008F0E1F91CBD8B
:103740000004024000180240B88240425C000020A1
:10375000454E32355158585F545950453D25580D06
:103760000A0000002DE9F04106460C4617460020ED
:103770000F490860032004F0D9FEC4F3074004F0A9
:10378000D5FEC4F3072004F0D1FEE0B204F0CEFE73
:10379000002505E0FF2004F0C9FE7055681C85B2C5
:1037A000BD42F7DB012002490860BDE8F08100005E
:1037B000B882404210B5002400200E4908609020D5
:1037C00004F0B4FE002004F0B1FE002004F0AEFED0
:1037D000002004F0ABFEFF2004F0A8FE44EA002421
:1037E000FF2004F0A3FE044301200349C1F8B802FE
:1037F000204610BDB88240420080404210B50024EF
:10380000002007490860052004F090FEFF2004F026
:103810008DFE044601200349C1F8B802204610BDC0
:10382000B88240420080404210B500BFFFF7E6FF7B
:1038300000F001000028F9D110BD00002DE9F05F73
:1038400081460F461646DFF8A8B04FEA1738C7F38F
:103850000B0ACAF58054A64200DC344644E04FEA25
:1038600008314FF480525846FFF77CFF002508E0EE
:103870000AEB05001BF80000FF2800D003E0681CDD
:1038800085B2A542F4DB00BFA54216DA4046FFF739
:10389000F3FE002507E019F8050005EB0A010BF817
:1038A0000100681C85B2A542F5DB4FEA08314FF4F0
:1038B0008052584600F02EF804E022463946484629
:1038C00000F028F8A64200D10FE008F101084FF0FF
:1038D000000AA1442744301B86B2B6F5805F02DDA2
:1038E0004FF4805400E03446B9E700BFBDE8F09FD4
:1038F000BC03002010B5002004490860062004F035
:1039000015FE01200249C1F8B80210BDB88240423C
:10391000008040422DE9F04107460E461446F0B2C1
:10392000C0F58075AC4200DC254612E02A463146DF
:10393000384600F013F8AC4200D10BE02F442E447F
:10394000601B84B2B4F5807F02DD4FF4807500E027
:103950002546EBE700BFBDE8F08100002DE9F0410E
:1039600006460C461746FFF7C5FF00200F490860C2
:10397000022004F0DBFDC4F3074004F0D7FDC4F3DC
:10398000072004F0D3FDE0B204F0D0FD002504E0F0
:10399000705D04F0CBFD681C85B2BD42F8DB0120F0
:1039A00002490860FFF740FFBDE8F081B88240425D
:1039B00001494861704700000090024001460868D4
:1039C000C0F30D40704700B502460023106800F0B8
:1039D000004058B9106800F4004038B9106800F48D
:1039E000807018B11046FFF7E9FF0346184600BD86
:1039F00010B501E00CF0B2F806480068FFF7E3FFED
:103A00000028F7D14020FFF7D3FF4FF48030FFF7B5
:103A1000CFFF10BD440000201EB5002100220092FF
:103A200001920292214A1268126802F0004282B1A9
:103A3000002200921E4A526902F0800222B18022C6
:103A40001B4B5A6100229A609DE81C0080E81C0014
:103A50001EBD164A1268126802F40042B2B9134A37
:103A60001268126802F4807282B1104A12681268F9
:103A700002F4007252B10D4A12681268C2F30D428C
:103A8000111F0A4A12689268019200E00021009119
:103A9000064A12680292054A1268D268034B1A60FD
:103AA0009DE81C0080E81C0000BFD1E74400002016
:103AB000009002402DE9F04100240026002530E06E
:103AC0004FF480711B4800F02EFC012829D100F032
:103AD000AFFC0446FA2C00DB24E0C82C03DBFA2CF4
:103AE00001DA01260AE03C2C03DB5A2C01DA01271B
:103AF00004E00A2C02DB322C00DA0027012E0ED162
:103B00000D48006840000C490860084600683844C9
:103B10000860202D03DB01200849087002E0681CC2
:103B2000C5B2CDE700BF4FF4807000F009F8BDE8E2
:103B3000F081000000000240880000208C0000207E
:103B40000149086070470000143C014000212349EE
:103B50008279002A3AD00A46126803689A430B46D3
:103B60001A600A1D126803689A430B1D1A600279D5
:103B700011440A6803681A430A60184A0832126836
:103B800003689A43154B08331A601A1D12680368BC
:103B90009A43124B0C331A604279102A0ED11A1F25
:103BA000126803681A430D4B08331A601A1D126815
:103BB00003681A43094B0C331A600DE00749427938
:103BC00011440A6803681A430A6005E00279114447
:103BD0000A6803689A430A6070470000003C01408D
:103BE00010B500240EE04FF40D7100200CF02AFCFB
:103BF000184941F82400084650F8240000B903E0B1
:103C0000601CC4B2032CEEDB00BF4FF41471002023
:103C10000CF018FC104908604FF4147100200CF0EF
:103C200011FC0E4908604FF4007100200CF00AFCF2
:103C30000B490860032C0AD10748006838B10748CF
:103C4000006820B10846006808B1002010BD0120BE
:103C5000FCE70000B0AB0120BC010020C001002047
:103C6000CC01002051B18200A2F1C042126842F0A2
:103C700001038200A2F1C042136009E08200A2F1B8
:103C8000C0421268034B1A408300A3F1C0431A607C
:103C900070470000FEFF0F0030B500210022002316
:103CA0000468A400A4F1C0442168444C2140D0E938
:103CB00001452C43C5682C4305692C4345692C43B9
:103CC00085692C43C5692C43056A2C43456A2C43FE
:103CD000856A2C43C56A2C43056B2C432143046839
:103CE000A400A4F1C04421608468082C0BD10468AE
:103CF000A400A4F1C044246844F040050468A40072
:103D0000A4F1C04425600468641CA400A4F1C0446C
:103D1000226802F04042446B2468456B6D6844EAB7
:103D20000514456BAD6844EA0524456BAD8944EA4A
:103D30000544456B2D8A44EA0554456B2D7D44EAC4
:103D40000564456BAD692C4322430468641CA400E0
:103D5000A4F1C0442260C46AB4F5804F24D1046841
:103D6000A400A4F1C044D4F8043103F04043846BB0
:103D70002468856B6D6844EA0514856BAD6844EA78
:103D80000524856B2D8A44EA0554856B2D7D44EA14
:103D90000564856BAD692C4323430468A400A4F13A
:103DA000C044C4F8043107E06FF070450468A40013
:103DB000A4F1C044C4F8045130BD00008000F7FFF6
:103DC00000B599B001217A2002F06CF90121084672
:103DD00002F078F90C220021A74800F081FA0C22A9
:103DE0000121A54800F07CFA0C220421A24800F031
:103DF00077FA0C220521A04800F072FA0C22082163
:103E00009D4800F06DFA0C2209219B4800F068FAE9
:103E10000C220A21984800F063FA0C220B219648E4
:103E200000F05EFA0C221146934800F059FA0C2279
:103E30000D21914800F054FA0C220E218E4800F01A
:103E40004FFA0C220F218C4800F04AFA0C22002174
:103E50008A4800F045FA0C220121884800F040FA17
:103E60000C220721854800F03BFA0C2208218348E8
:103E700000F036FA0C220921804800F031FA0C22B9
:103E80000A217E4800F02CFA0C220B217B4800F01E
:103E900027FA0C221146794800F022FA0C220D2153
:103EA000764800F01DFA0C220E21744800F018FA32
:103EB0000C220F21714800F013FA0C2200217048E7
:103EC00000F00EFA0C2201216D4800F009FA0C22D4
:103ED00002216B4800F004FA0C220321684800F02C
:103EE000FFF90C220421664800F0FAF90C220521A2
:103EF000634800F0F5F90C221146614800F0F0F932
:103F00000C220D215E4800F0EBF90C220E215C48DA
:103F100000F0E6F90C220F21594800F0E1F90C22DB
:103F20000021584800F0DCF90C220121554800F02E
:103F3000D7F90C220221534800F0D2F90C220321B8
:103F4000504800F0CDF90C2204214E4800F0C8F989
:103F50000C2205214B4800F0C3F90C220A214948E4
:103F600000F0BEF94FF40040179001208DF860007A
:103F700000208DF8620002208DF8610001208DF88C
:103F8000630017A9404800F063F94FF633701790AB
:103F900002208DF8600000208DF8620003208DF86B
:103FA000610001208DF8630017A9334800F050F933
:103FB0004FF68370179002208DF8600000208DF876
:103FC000620003208DF8610001208DF8630017A9BD
:103FD0002A4800F03DF94FF23F00179002208DF87B
:103FE000600000208DF8620003208DF86100012040
:103FF0008DF8630017A9224800F02AF940F23F40EB
:10400000179002208DF8600000208DF862000320D8
:104010008DF8610001208DF8630017A9194800F0A0
:1040200017F90020019002901820039000200490BE
:1040300005900690079004200890002009900A90AF
:1040400010200B9000200C900E900D900F9010906F
:104050004FF480501190002012901390149001A8FA
:104060001590169008A8FFF717FE01210420FFF70E
:10407000F9FD19B000BD0000000C02400010024024
:1040800000140240001802400004024006E04FF015
:10409000D0435B5C00F8013B491C521E002AF6D15C
:1040A000704710B506E010F8014B4FF0D0435C5458
:1040B000491C521E002AF6D110BD00002DE9FC411A
:1040C00007460D460026002400200090019008209D
:1040D0005B49086010204860402088600020C8606C
:1040E0004FF480600861084602F0A8FD1020FEF73A
:1040F0001BFA044614B12046BDE8FC8151480088F3
:1041000000044F4908603720486040208860002044
:10411000C8604FF480600861084602F08FFD3720C8
:10412000FEF702FA04460CB12046E5E74FF0FF30F7
:104130004549086008204860302088600220C86037
:104140000020086101204861084602F011FD0020AE
:104150003B49086033204860402088600020C860E8
:104160004FF480600861084602F068FD3320FEF7D6
:10417000DBF904460CB12046BEE70CE04FF400101A
:1041800002F010FD38B1314800684DF82600761C69
:10419000022E00D307E02D484C38006840F22A6117
:1041A00008400028EAD000BF082002F0FBFC20B144
:1041B000082002F0CDFC04209EE7022002F0F2FC71
:1041C00020B1022002F0C4FC022095E7202002F07A
:1041D000E9FC20B1202002F0BBFC06208CE74FF464
:1041E000007002F0DFFC28B14FF4007002F0B0FC68
:1041F000072081E740F2FF5002F0AAFC0098000679
:10420000009901F47F4140EA0120009901F47F0107
:1042100040EA1120009940EA1160686001980006A8
:10422000019901F47F4140EA0120019901F47F01E5
:1042300040EA1120019940EA1160286020465BE7BE
:10424000081400207C0000201C140020802C014059
:10425000F0B50A4600210023002400BF3DE00125FF
:1042600005FA01F3156805EA03049C4234D1056898
:104270004F000326BE40B543056015794E00B5409A
:104280000668354305601579012D02D01579022D98
:1042900016D185684F000326BE40B5438560557929
:1042A0004E00B540866835438560456801268E40DE
:1042B000B5434560456896798E40B6B23543456052
:1042C000C5684F000326BE40B543C560D5794E0092
:1042D000B540C6683543C560491C1029BFD3F0BD41
:1042E000F0B5002300244D07ED0E02FA05F3CE10C1
:1042F00000F1200555F826504E07F70E0F26BE4058
:10430000B543CF1000F1200646F82750CE1000F13B
:10431000200555F8265045EA0304CE1000F120058B
:1043200045F82640F0BD0246002013690B400BB152
:10433000012000E0002070474183704701837047EF
:104340002DE9F05F8246884614462046E21704EBCA
:104350005272D2102146E31704EB5373DB10A4EB27
:10436000C3030BB1012300E000231A44624302F0AF
:10437000FF099AF800600AF1010082460578812E53
:1043800005DB402D03DBFF2D01D0FF2E0DD14FF0BB
:10439000000B06E0002008F8010B0BF1010000F013
:1043A000FF0BCB45F6DBBDE8F09F7F2D03DAA5F1CF
:1043B0004000C5B202E0A5F14100C5B2A6F18100FE
:1043C000C6B2BE2010FB065000FB09F70C2C06D02D
:1043D000102C0DD0182C14D0202C24D11AE0134806
:1043E000D0F80900C1194A464046FFF7BBF91AE068
:1043F0000E48D0F81100C1194A464046FFF7B2F9FD
:1044000011E00A48D0F81900C1194A464046FFF7A2
:10441000A9F908E00548D0F82100C1194A464046EC
:10442000FFF7A0F900BF00BF00BFBCE728AD012027
:1044300010B5002408E0601CC4B2142008F018FD78
:10444000FA2C01DB204610BD4FF480710348FFF7C2
:104450006AFF0128EFD02046F5E700000000024087
:1044600000BFFEE700B58FB0A2200E9000200D9097
:104470000C900B90079000BFA82004F02BFB4FF48A
:10448000A06001F0F5FD4FF4E13005F085FF01F08B
:104490005DFC04F08DFCFDF761FA00F0C3FFFFF74F
:1044A0008FFCFCF7F6FAFFF713F901F07BFCFCF741
:1044B000AFFA00200BF014FF02200BF011FF05F003
:1044C000F5FC0CF02DFB0BF067F9FFF789FB0020E2
:1044D00001F01AF84FF6FF70FE4908800020FE49EF
:1044E00008800C9002200D90FC480088B0F5887F71
:1044F00004DC10200690BE200E9013E0F7480088E0
:10450000B0F5A07F04D110200690FA200E9009E0AB
:10451000F2480088B0F5F07F04D1182006904FF4DF
:10452000B9700E90EEA10698CDE90001EB484088E5
:104530000590EA48008804900C98411C89B20C91BF
:10454000069A0D9902FB001080B2039001460520E7
:10455000DDE9042301F0E9FAE5490698CDE9000117
:10456000DE4840880590DD48008804900C98411C86
:1045700089B20C91069A0D9902FB001080B203904B
:1045800001460520DDE9042301F0CFFA07F0FEF92A
:104590000021084607F0E3F9002007F075FA002033
:1045A000D4490860D449C1F8A802D4A10698CDE93D
:1045B0000001CA4840880590C848008804900C98BB
:1045C000411C89B20C91069A0D9902FB001080B231
:1045D000039001460520DDE9042301F0A6FACEA1EF
:1045E0000698CDE90001BD4840880590BB48008889
:1045F00004900C98411C89B20C91069A0D9902FB0B
:10460000001080B2039001460520DDE9042301F08B
:104610008CFADDE90C20069901FB020080B20A4603
:104620000146059005200CF01BFE60B1069ADDE9FD
:104630000C0102FB001080B21346BEA20146059099
:1046400005200CF0E5FDC0A10698CDE90001A348C6
:1046500040880590A148008804900C98411C89B2BC
:104660000C91069A0D9902FB001080B203900E98EF
:10467000401D80B2029003A90EC901F056FA012034
:104680000BF02EFEFFF796F818B1FFF793F8FF280E
:104690000CD1069ADDE90C0102FB001080B2134632
:1046A000AAA20146059005200CF0B2FD4FF480400F
:1046B0000B90ABA10698CDE9000188484088059091
:1046C000864800880490DDE90C20069901FB020071
:1046D00080B2039001460520DDE9042301F025FAAC
:1046E00000210698CDE90001059000EBD070401044
:1046F00000EBC000401D80B20390DDE90C2106985C
:1047000000FB021080B20523049001460B9A039827
:1047100001F0A4FA8CA10698CDE900016F48408809
:1047200005906E48008804900C98411C89B20C9149
:10473000069A0D9902FB001080B203900E98401D5E
:1047400080B2029003A90EC901F0EFF9012000F038
:104750008BFE0A900A9801280FD1DDE90C200699FA
:1047600001FB020080B20A460146059005200CF0CC
:10477000EDFD0A900A9800B17EE67EA10698CDE98B
:104780000001564840880590544800880490DDE9AF
:104790000C20069901FB020080B20390014605201F
:1047A000DDE9042301F0C1F901F0E0FD68B1DDE9C4
:1047B0000C01401C069A02FB001080B2134671A245
:1047C0000146059005200CF023FD0021042002F095
:1047D00019F86F49002001F07BFE6E49002001F0BE
:1047E0003DFE59A10698CDE900013C48408805905E
:1047F0003A48008804900C98411C89B20C91069AA2
:104800000D9902FB001080B203900E98401D80B2FB
:10481000029003A90EC901F088F95FA10698CDE9BD
:1048200000012E48408805902C4800880490DDE95E
:104830000C20069901FB020080B20390014605207E
:10484000DDE9042301F071F957480068012257A1FE
:10485000059009F02BFC54484068012254A10590B2
:1048600009F024FC38A10698CDE900011B484088D6
:1048700005901A48008804900C98411C89B20C914C
:10488000069A0D9902FB001080B203900E98401D0D
:1048900080B2029003A90EC901F047F945A106981C
:1048A000CDE900010D48408805900C48008804902F
:1048B000DDE90C20069901FB020080B2039001465D
:1048C0000520DDE9042301F030F900200B9000BF42
:1048D0000B9877E08E0000209000002092000020CE
:1048E0002D2D2D5052454348494E2D2D2D000000B1
:1048F00000000020A4824242008042424350553AC8
:1049000053544D3332463430375A475436203136BB
:10491000384D687A00000000464C4153483A313027
:1049200032344B4220205352414D3A3139324B42BE
:10493000000000004558204D656D6F72792045726A
:10494000726F7221000000004F4B00004578204636
:104950006C617368204572726F7221210000000043
:10496000457820466C6173683A20202020204B4215
:104970000000000052544320436865636B2E2E2EC6
:1049800000000000525443204572726F72210000F3
:1049900070000020740000204641544653204368B4
:1049A00065636B2E2E2E0000B0AB0120303A000064
:1049B000313A0000534420436172643A20202020A1
:1049C000204D4200401C80B20B9008AA09A9AFF20A
:1049D00024000AF04FF90A90C82008F007FA0A9854
:1049E00018B10B980528FFF673AF0A9878B9FB4801
:1049F000B0F8010040F00100F849A1F80100099861
:104A0000C0F38F200B90AFF2C000079003E00020AE
:104A10000B90F3A0079000210698CDE900010590C6
:104A200000EBD0704010C000401D80B20390DDE963
:104A30000C21069800FB021080B205230490014669
:104A40000B9A039801F00AF9DDE90601CDE90001AE
:104A5000E54840880590E448008804900C98411C83
:104A600089B20C91069A0D9902FB001080B2039056
:104A70000E98401D80B2029003A90EC901F055F8AE
:104A800000200B9000BF0B98401C80B20B9008AA2E
:104A900009A9AFF2E4000AF0EDF80A90C82008F086
:104AA000A5F90A9810B10B981428ECDB0A980D2888
:104AB00047D1CEA10698CDE90001CB4840880590AA
:104AC000C94800880490DDE90C20069901FB02002A
:104AD00080B2039001460520DDE9042301F025F8AA
:104AE0004FF480520121AFF2381009F027F80A90F4
:104AF0000A9830BBC4A009F079FDAFF2B411069852
:104B0000CDE90001B84840880590B7480088049076
:104B10000C98411C89B20C91069A0D9902FB001069
:104B200080B203900E98401D80B2029003A90EC976
:104B300000F0FBFF08AA09A9AFF28C100AF09AF85E
:104B40000A900A9810BBA548B0F8010040F0020096
:104B5000A249A1F80100AFA10698CDE90001A24841
:104B600040880590A04800880490DDE90C20069953
:104B700001FB020080B2039001460520DDE9042319
:104B800000F0D3FF099880B20B900DE0DDE90C0234
:104B9000401C069901FB002080B20B46A2A20146F0
:104BA000059005200CF034FB00210698CDE90001AA
:104BB000059000EBD070401000EB400101EBC0000D
:104BC000401D80B20390DDE90C20069901FB020034
:104BD00080B20523049001460B9A039801F03EF839
:104BE000AFF29C210698CDE900017F4840880590EE
:104BF0007D48008804900C98411C89B20C91069A5B
:104C00000D9902FB001080B203900E98401D80B2F7
:104C1000029003A90EC900F088FF88A10698CDE98B
:104C200000017148408805906F4800880490DDE9D4
:104C30000C20069901FB020080B20390014605207A
:104C4000DDE9042300F071FFAFF204310698CDE9ED
:104C500000016548408805906348008804900C98DE
:104C6000411C89B20C91069A0D9902FB001080B28A
:104C700003900E98401D80B2029003A90EC900F067
:104C800054FF72A10698CDE900015748408805906D
:104C9000554800880490DDE90C20069901FB0200CC
:104CA00080B2039001460520DDE9042300F03DFFBA
:104CB000FBF7D8FE68B1DDE90C02401C069901FB48
:104CC000002080B20B4665A20146059005200CF03D
:104CD0009FFAAFF28C310698CDE900014248408836
:104CE00005904148008804900C98411C89B20C91B1
:104CF000069A0D9902FB001080B203900E98401D99
:104D000080B2029003A90EC900F00FFF57A10698C8
:104D1000CDE900013448408805903348008804906C
:104D2000DDE90C20069901FB020080B203900146E8
:104D30000520DDE9042300F0F8FE01F075F860B10C
:104D4000069ADDE90C0102FB001080B213464CA26A
:104D50000146059005200CF05BFAAFF2144106986D
:104D6000CDE900012048408805901F480088049044
:104D70000C98411C89B20C91069A0D9902FB001007
:104D800080B203900E98401D80B2029003A90EC914
:104D900000F0CBFE3EA10698CDE900011248408804
:104DA0000590114800880490DDE90C20069901FB6C
:104DB000020080B2039001460520DDE9042300F0E3
:104DC000B4FE06F0E3FD40B1DDE90C01401C069A9B
:104DD00002FB001080B2134662E067E000AE0120E3
:104DE0004552524F5200000092000020466C617301
:104DF00068204469736B20466F726D617474696ECC
:104E0000672E2E2E00000000313A5052454348498B
:104E10004E000000466C617368204469736B3A2051
:104E2000202020204B420000466C617368204661C0
:104E300074204572726F722100000000545041448A
:104E400020436865636B2E2E2E0000003234433001
:104E50003220436865636B2E2E2E000032344330BF
:104E600032204572726F7221000000004D5055369D
:104E700030353020436865636B2E2E2E0000000015
:104E80004D505536303530204572726F722100001A
:104E9000574D3839373820436865636B2E2E2E0006
:104EA00091A20146059005200CF0B2F9AFF26851CD
:104EB0000698CDE900019048408805908E4800880A
:104EC00004900C98411C89B20C91069A0D9902FB32
:104ED000001080B203900E98401D80B2029003A98A
:104EE0000EC900F022FE0021084606F038FD002021
:104EF00006F0CAFD81A10698CDE900017E484088F0
:104F000005907D4800880490DDE90C20069901FB9E
:104F1000020080B2039001460520DDE9042300F081
:104F200004FE012000F0A0FA0A900A9803280ED18E
:104F3000DDE90C02401C069901FB002080B20A4604
:104F40000146059005200CF0AFFA0A9001E0002020
:104F50000A900AF037FA10B90A98012822D10020E5
:104F60000A90DDE90C20069901FB020080B2AFF245
:104F7000C4530A460146059005200CF0C3FB68B1F6
:104F8000DDE90C02401C069901FB002080B20B46B3
:104F90005EA20146059005200CF03AF900200D9024
:104FA000FFF76ABAAFF260610698CDE90001524896
:104FB000408805905048008804900C98411C89B2A4
:104FC0000C91069A0D9902FB001080B203900E9886
:104FD000401D80B2029003A90EC900F0A6FD4EA1AB
:104FE0000698CDE900014448408805904248008871
:104FF0000490DDE90C20069901FB020080B20390C9
:1050000001460520DDE9042300F08FFD012000F0BA
:105010002BFA0A9004F04AFF40B90A9802280DD1F1
:10502000414890F8440000F0800038B90A980228FE
:1050300001D104F029FA00200A90B1E7AFF2F8613B
:105040000698CDE900012C48408805902A48008840
:1050500004900C98411C89B20C91069A0D9902FBA0
:10506000001080B203900E98401D80B2029003A9F8
:105070000EC900F05AFD2DA10698CDE900011E4889
:10508000408805901C4800880490DDE90C200699B2
:1050900001FB020080B2039001460520DDE90423F4
:1050A00000F043FD0120264908602649C1F8A80206
:1050B0002349091F0860642007F098FE0020214959
:1050C000C1F8A0024FF4FA7007F090FE42F2CF014F
:1050D000C82004F055F842F2CF014FF47A7003F083
:1050E000A1FF0FB000BD0000574D383937382045BB
:1050F00072726F722100000092000020466F6E7481
:1051000020436865636B2E2E2E000000466F6E7480
:10511000204572726F722100546F75636820436876
:1051200065636B2E2E2E00009C00002053595354B3
:10513000454D205374617274696E672E2E2E0000E7
:10514000A48242420080424210B500200A49086011
:1051500001F090FC00200949C1F8A402022007F0E8
:1051600087FE012004490860052007F081FE002029
:105170000249C1F8A00210BDA08240420080404216
:105180001CB50121022000F08DFF4FF4407000900B
:1051900001208DF8040000208DF8060003208DF812
:1051A000050001208DF8070069460548FFF750F813
:1051B0000120044908600449C1F8A4021CBD000094
:1051C00000040240A08240420080404210B500200E
:1051D0000A49086001F04EFC01200949C1F8A40207
:1051E000022007F045FE012004490860052007F071
:1051F0003FFE00200249C1F8A00210BDA08240423B
:105200000080404270B50546002401F021FC0026D4
:1052100016E000200F490860022007F029FE012057
:105220000D49C1F8A0026006040E0A487C380068E7
:1052300008B1601CC4B2012007F01AFE701CC6B28F
:10524000082EE6DB15B9FFF7C1FF01E0FFF77CFF91
:10525000204670BDA08240420080404270B50446A6
:1052600001F008FC002014490860002520E004F04B
:105270008000002804DD01200F49091D086003E0BB
:1052800000200D49091D08606006040E022007F089
:10529000EFFD012008490860022007F0E9FD002029
:1052A0000649C1F8A002022007F0E2FD681CC5B261
:1052B000082DDCDB70BD0000A0824042008040422F
:1052C00010B501F0D7FB0120094908600949C1F870
:1052D000A002052007F0CCFD00200549086006204B
:1052E00007F0C6FD00200349C1F8A00210BD000070
:1052F000A48240420080404210B501F0BBFB002078
:10530000094908600949C1F8A4020120064908605A
:10531000062007F0ADFD01200449C1F8A4020620D3
:1053200007F0A6FD10BD0000A08240420080404270
:1053300010B5002401F08CFB01200E49086007F035
:1053400097FD01200C49C1F8A00207F091FD07E08C
:10535000601CC4B2FA2C03DDFFF7CEFF012010BDA4
:105360000448803800680028F2D10249091F08600B
:1053700000BFF4E7A48240420080404272B670470A
:1053800062B670471CB50446002001900090224888
:1053900000880004214908600D2048604020886092
:1053A0000020C8604FF480600861084601F046FCA8
:1053B0001B480068009002E01948006800900098BF
:1053C00000F045000028F7D0012001F0EBFB20B1F0
:1053D000012001F0BDFB01201CBD042001F0E2FB17
:1053E00020B1042001F0B4FB0320F5E70C48243879
:1053F00000680D2801D01020EEE740F2FF5001F0C8
:10540000A7FB07482038006801900198C0F34320AB
:1054100020700020E0E700007C000020081400203D
:10542000342C01401CB50121112000F03BFE00206E
:105430008DF804001C20009001208DF807006946BB
:105440000748FEF705FF00208DF8040001200090BA
:1054500002208DF8070069460248FEF7F9FE1CBDE0
:10546000001002400000024010B50446012C01D19A
:10547000224908702148007801282AD12048006874
:1054800001280AD01F48006838B11E48001F006874
:1054900018B11C4808380068D8B90A2007F0A6FCE3
:1054A00000201649087016480068012800D110BD78
:1054B0001448006808B90220F9E71248001F006884
:1054C00008B90320F3E70F4808380068A0B90420A2
:1054D000EDE70B48006878B90A48006801280BD14D
:1054E0000848001F0068012806D1064808380068EF
:1054F000012801D1014908700020D8E7560000209A
:10550000000240421002424270B506460F484088F1
:10551000401E83B20D480088401E82B2002108461A
:1055200000F09EF900240CE0002504E0304600F075
:1055300001FC681C85B205484088A842F6DC601C66
:1055400084B202480088A042EEDC70BD92000020C8
:105550002DE9F84F06460F4690469946DDF828B0EB
:10556000A8EB0600401C1FFA80FAA9EB0700401CBC
:1055700080B20090002415E000250FE03A1991B2A6
:10558000721990B24B46424600F06AF904FB0A5188
:105590003BF8110000F0CEFB681C85B25545EDDBF1
:1055A000601C84B200988442E6DBBDE8F88F0000FE
:1055B00000B502460F4882716AB9362000F0AEFB92
:1055C0004C2000F0B1FB4FF4F0700A4948804FF4D2
:1055D000A07008800CE0362000F0A0FB2C2000F02A
:1055E000A3FB4FF4A070034948804FF4F07008808B
:1055F00000BD00009200002070B504460D4616461E
:105600002B4622462946204600F02AF9304600F073
:1056100091FB70BD2DE9FF4F84B081468A46002082
:10562000039002900698A0EB09050798A0EB0A06E4
:10563000CDF80490CDF800A0002D01DD012705E094
:105640000DB9002702E04FF0FF376D42002E02DD5A
:105650004FF0010806E016B94FF0000802E04FF0E5
:10566000FF387642B54201DD2C4600E034464FF06B
:10567000000B21E0009A91B2019A90B200F022F85A
:105680000398284403900298304402900398A04263
:1056900005DD0398001B039001983844019002989F
:1056A000A04205DD0298001B029000984044009043
:1056B0000BF101001FFA80FB601C8345DADD08B0A6
:1056C000BDE8F08F30B504460D462B4622462946EC
:1056D000204600F0C5F80248008800F02BFB30BDE2
:1056E0008E0000202DE9F04306460F469046002428
:1056F00045460320A0EB48093CE07A1B91B23219E1
:1057000090B2FFF7DFFF3A1B91B2721990B2FFF728
:10571000D9FF3A1991B2721990B2FFF7D3FF7A19F3
:1057200091B2321990B2FFF7CDFF7A1991B2321BC4
:1057300090B2FFF7C7FF3A1991B2721B90B2FFF710
:10574000C1FF7A1B91B2321B90B2FFF7BBFF3A1B2D
:1057500091B2721B90B2FFF7B5FF641CB9F1000F54
:1057600003DAA000801D814404E0601B80000A3041
:1057700081446D1EAC42C0DDBDE8F0832DE9F043ED
:1057800004460D4616461F46DDF81C80B44201DC77
:10579000BD4201DDBDE8F0833B4632462946204646
:1057A00000F05EF8301B401C84B2781B401C85B2B0
:1057B0000BE0A94602E0404600F0BCFAB9F1000057
:1057C000A9F101011FFA81F9F5D1201EA4F101010F
:1057D0008CB2EED100BFDDE710B50246012000E03B
:1057E00050430B1EA1F10104E1B2F9D110BD00003C
:1057F00001480088704700008000006C2DE9F041EE
:1058000004460D4600260027B04613480088A042F3
:1058100003DD11484088A84202DC0020BDE8F08189
:105820002B4622462946204600F01AF82E2000F08A
:1058300075FA0A4806884FF0D840B0F880600748EB
:1058400007884FF0D840B0F88080384666F31F20B4
:1058500086B23046E2E70000920000208000006C33
:1058600030B504460D462A2000F058FA201200F008
:105870005BFAE0B200F058FA101200F055FAD0B21C
:1058800000F052FA2B2000F049FA281200F04CFAEE
:10589000E8B200F049FA181200F046FAD8B200F067
:1058A00043FA2C2000F03AFA30BD00002DE9F84F01
:1058B00080460E4617461C46B3462046E31704EBC7
:1058C0005373DB1021464FEAE47C04EB5C7C4FEA27
:1058D000EC0CA4EBCC0CBCF1000F02D04FF0010C8F
:1058E00001E04FF0000C6344224604EBD27C4FEA07
:1058F0006C0C03FB0CF3DBB20093A7F12000C7B2E2
:10590000002556E00C2C07D107EB47002B4901EB93
:10591000800010F8059013E0102C05D1284800EB0A
:10592000071010F805900BE0182C07D107EBC70003
:10593000244901EB800010F8059001E0BDE8F88FE4
:105940004FF0000A2FE009F0800030B11E480288B5
:1059500031464046FFF750FE07E00A9828B91B4839
:10596000028831464046FFF747FE4FEA49604FEA5A
:105970001069701C86B216484088B04200DCDDE732
:10598000A6EB0B00A0420AD15E4608F101001FFA07
:1059900080F80F480088404500DCCFE706E00AF1B8
:1059A000010000F0FF0ABAF1080FCCDB00BF681C51
:1059B000C5B200988542A5DB00BFBFE724190108E6
:1059C000981D0108882301088E0000209000002007
:1059D000920000202DE9FE4F07460E4691469A465A
:1059E000DDE90D4B0C9DB8460296002001904CE07D
:1059F000019870BB2878802802DD0120019044E0E6
:105A000004EBD47108EB0902A2EB6101B94202DA9E
:105A1000301986B2474602985044001BB04200DA63
:105A200036E028780D2804D1301986B247466D1C1F
:105A300007E0CDF800B02A78234631463846FFF714
:105A400035FF6D1C204604EBD07107EB61018FB26E
:105A50001BE0FFE70020019008EB0900001BB842A3
:105A600002DA301986B2474602985044001BB04211
:105A700000DA0DE023462A4631463846CDF800B01C
:105A800000F086F8AD1C381987B228780028AFD10D
:105A900000BFBDE8FE8F2DE9FF4F81B0074691465C
:105AA0001E460E9D4FF0000A002439E0301B401EB8
:105AB000C1B20A20FFF790FEB9FBF0F00A21B0FB5B
:105AC000F1F201FB1208BAF1000F16D1701EA042CC
:105AD00013DDB8F1000F0ED10020AB4605EBDB71F2
