:020000040800F2
:1000000038F601209D010008B5AD00086D790008A3
:1000100021A90008CD1B0008454A01080000000086
:100020000000000000000000000000001D0A0108A0
:100030008D5400080000000005C10008810B010874
:10004000B7010008B7010008B701000879E000080F
:10005000B7010008B7010008B7010008B7010008A0
:10006000B7010008B7010008B7010008B701000890
:10007000B7010008B7010008B70100086D4E00087D
:10008000B7010008B7010008B7010008B701000870
:10009000B7010008B7010008B7010008F5610008C2
:1000A000B7010008B7010008B7010008B701000850
:1000B0002110010869110108F1110108B7010008B8
:1000C000B7010008B7010008B7010008B701000830
:1000D000B70100080524010841250108B7010008FF
:1000E000B7010008E1DA0008B7010008B70100080D
:1000F000B7010008B7010008B7010008B701000800
:10010000B7010008A9EE0008B7010008B701000810
:10011000B7010008B70100087D120108B701000807
:10012000B7010008994E0008B7010008B7010008A0
:10013000B7010008FD590008B7010008B701000821
:10014000B7010008B7010008B7010008A1B700080F
:10015000B7010008B7010008B7010008B70100089F
:10016000B7010008B7010008B7010008B70100088F
:10017000B7010008B7010008714D0008B701000879
:10018000B7010008B7010008DFF80CD000F0D6FE78
:10019000004800471596030838F6012006488047B6
:1001A00006480047FEE7FEE7FEE7FEE7FEE7FEE75C
:1001B000FEE7FEE7FEE7FEE7C10B01088901000844
:1001C0002DE9F05F0546002092469B46884606468C
:1001D000814640241BE0284641464746224600F01F
:1001E000AFFC53465A46C01A914110D311461846E7
:1001F000224600F096FC2D1A67EB01084F46224676
:100200000120002100F08DFC17EB00094E41201E5B
:10021000A4F10104DFDC484631462A464346BDE8E6
:10022000F09F2DE9F0410024061B254671F10006E0
:1002300005DA01240027D0EB070067EB0101161E49
:1002400073F1000605DA0027D2EB0702012567EB00
:100250000303FFF7B5FF86460E4617469C46AC42A1
:1002600004D00025D0EB050E65EB010624B100207B
:10027000D2EB000760EB030C704631463A4663460A
:10028000BDE8F08140EA01039B0703D009E008C9FB
:10029000121F08C0042AFAD203E011F8013B00F84B
:1002A000013B521EF9D27047D2B201E000F8012B97
:1002B000491EFBD270470022F6E710B513460A46E6
:1002C00004461946FFF7F0FF204610BD421E12F803
:1002D000013F002BFBD111F8013B02F8013B002B41
:1002E000F9D1704730B505462A460B4612F8010B86
:1002F00013F8014B08B1A042F8D01CB1002802D07D
:100300006D1CF1E7284630BD10B5044604E00B78BB
:1003100000F8013B03B1491C521EF8D2204610BD23
:10032000CAB2401E10F8011F8A4202D00029F9D13A
:1003300000207047421C10F8011B0029FBD1801AD5
:10034000704710B5002200E0521C835C8C5CA34215
:1003500001D1002BF8D1D8B2E1B2401A10BD30B5AE
:1003600004460020034600E05B1C934203D2E05C9D
:10037000CD5C401BF8D030BD034611F8012B00F8CE
:10038000012B002AF9D11846704730B505460020E8
:10039000034600E05B1C934205D2EC5CC85C201A6B
:1003A00001D1002CF6D130BD0FB400B58DB010A92D
:1003B00009900B9000914FF0FF300A9000200C90B4
:1003C00005480690054807906A4609A80F9900F06D
:1003D000EDFB0DB05DF814FBC90B0008E70B00083E
:1003E0002DE9FF5F1D464FF0FF3BD5E901469146E1
:1003F0005F464FF00008A9697F1C01988847296A69
:10040000824688470028F6D1BAF1FF3F0CD024F489
:10041000C064002E19DD600614D5BAF12B0F09D087
:10042000BAF12D0F0ED103E0584604B0BDE8F09F9D
:1004300044F48064A9697F1C01988847761E82462F
:10044000002E02DDBAF1300F03D0B9F1000F26D033
:1004500032E0A969761E44F400747F1C0198884735
:100460008246002E05DDBAF1780F06D0BAF1580F9A
:1004700003D0B9F1000F10D01EE0B9F1000F02D087
:10048000B9F1100F18D1A969761E24F400747F1CED
:10049000019888478246102002E0082000E00A20E8
:1004A000814609E008FB0908A969761E44F4007436
:1004B0007F1C019888478246002E05DD494650463C
:1004C00000F060FB0028EDDAE96901988847A00593
:1004D00002D46FF00100A8E7E00725D1600613D52C
:1004E000600502D5C8F1000000E0404629680A1DF9
:1004F0002A600968220501D5087015E0220701D598
:10050000088011E008600FE02868011D296000687C
:10051000210502D580F8008006E0210702D5A0F869
:10052000008001E0C0F8008038467EE72DE9FF5FDB
:10053000D2E901A74FF00008916999461446DDF809
:1005400038B0464601988847054659EA0B0005D061
:1005500009E0A169761C019888470546216A28466A
:1005600088470028F5D1681C03D05FEACA7005D01F
:1005700015E04FF0FF3004B0BDE8F09F2068011D8A
:100580002160D0F800800AE05FEACA7001D108F863
:10059000015BA169761C7F1E019888470546002FE4
:1005A0001ADD681C18D0B9F1000F0DD0E81705EB63
:1005B000D060421120F01F0059F822102A1A0120A1
:1005C00090400142E0D107E0BBF1000FDCD1216A8D
:1005D000284688470028D7D0E16901988847BBF1B1
:1005E000000F07D1002E05DD5FEACA7002D100219D
:1005F00088F80010A068B84203DDBBF1000F03D0FB
:1006000017B16FF00100B6E73046B4E770B50646A3
:1006100014F0F8FE046805460A220021304600F076
:1006200041FB2C6070BD2DE9FE4F804681EA03003E
:10063000C00F0C46009021F0004123F00045B8EBBC
:100640000200A94105D24046214690461C460B4671
:10065000024623F00040104347D0270DC7F30A009D
:10066000C3F30A510290401A019040286BDAC3F399
:10067000130040F4801B0098924620B10023D2EB77
:10068000030A63EB0B0B01985946C0F14002504638
:1006900000F047FA06460D4650465946019A00F0CA
:1006A0005FFA10EB08006141002487EA115284EAE6
:1006B000E7731A4340D0009A62B3019A012A4FEAC5
:1006C000075215DC001B61EB02014FF0004202EA09
:1006D0000752CDE90042001C41F5801132462B46FD
:1006E00000F05EFB03B0BDE8F08F40462146F9E71D
:1006F000001B61EB0201001C41F5801300185B41F7
:100700002018A2F5001747EB030140EAD570B6198F
:100710006D4111E06D084FEA360645EAC0754FEAB3
:100720000752001B61EB0201001C41F580114908D2
:100730004FEA30000019514132462B4603B0BDE864
:10074000F04F00F01EBB0098012240000023D0EBC8
:10075000020263EBE073009821464FEAE074B8EBC5
:10076000000061EB0401E9E783F000435BE781F0FF
:10077000004158E72DE9FE4F81EA030404F00044EC
:1007800021F0004100944FF0000B23F0004350EAA9
:1007900001045ED052EA03045BD0C3F30A54C1F3F0
:1007A0000A552C44A4F2F3340194A0FB0254C1F383
:1007B000130141F48011C3F3130343F4801301FBCD
:1007C000024400FB034E840A970A44EA815447EA34
:1007D0008357A4FB076802958D0A05FB07854FEA3E
:1007E000932C04FB0C542705029D4FEA065847EA58
:1007F0001637B5EB08056EEB070C870E920E47EA2D
:10080000811742EA8312A7FB0201B6EB0B0164EBEE
:1008100000042B0D43EA0C335E1844EB1C50DA46FF
:100820005146E7FB0201C5F313044FEA0B3343EAD9
:1008300014534FEA0432019C43EA0603A4F10C046A
:100840000294009CCDE900B400F0AAFA03B0BDE820
:10085000F08F00200146F9E72DE9F04D81EA03040D
:1008600004F0004B21F0004514464FF0000A23F03D
:10087000004150EA050220D054EA01021DD0C5F320
:100880000A570246C5F31303C1F31300C1F30A5616
:1008900040F4801543F48013A7EB0608101BD646DE
:1008A00008F2FD3873EB050002D308F1010801E0FE
:1008B00092185B41B8F1000F03DA00200146BDE851
:1008C000F08D00204FF48011064684460EE0171B81
:1008D00073EB050705D3121B63EB050306434CEAD4
:1008E000010C49084FEA300092185B4150EA0107B9
:1008F000EDD152EA030012D082EA040083EA050136
:10090000084305D0101BAB4106D20122002306E0AC
:1009100000224FF0004302E06FF0010253101AEB87
:1009200006004CEB085110EB0A0041EB0B01BDE84F
:10093000F04D00F026BA0EB5C10F80EAE070084411
:10094000CA07002140F233438DE80E000A460B46E9
:1009500000F026FA03B000BD0EB540F2334102911B
:100960000021CDE900110A460B4600F019FA03B048
:1009700000BD0EB540F2334202920022CDE90022C2
:10098000134600F00DFA03B000BD70B5C1F30A5272
:1009900001F000450024C1F3130140F2FF3341F49C
:1009A00080119A4201DA002070BD40F233439A422E
:1009B000A2F2334203DC524200F0C2F800E0904061
:1009C0002C43F1D0404270BDC1F30A5210B5C1F3BF
:1009D000130140F2FF3341F480119A4201DA002002
:1009E00010BD40F233439A42A2F2334203DC52423A
:1009F00000F0A6F810BD904010BD00F0004230F0AD
:100A000000400AD0C10D01F56071C0F3160042EA42
:100A10000151C2084007114370470020014670474A
:100A200030B5041E71F1000404DB4FF00044404275
:100A300064EB0101141E73F1000405DB1C464FF04A
:100A40000043524263EB04038B4208BF824230BD35
:100A500030B5041E71F1000404DB4FF00044404245
:100A600064EB0101141E73F1000405DB1C464FF01A
:100A70000043524263EB0403994208BF904230BDE9
:100A800001F0004330B421F0004150EA010206D0E9
:100A90000A0DA2F56072C1F31301002A02DC30BC1A
:100AA00000207047440F44EAC104C100E01830BC84
:100AB00000EBC25000F02EB9A0E8004FF0C040F8A3
:100AC00004DB01B5AFF30080BDE8024001C10020A6
:100AD000704700F12C080C4658F8040DAFF3008065
:100AE00058F8040D8546200008BF012038E9F000C1
:100AF00018E9004F704730B50B4601460020202210
:100B0000012409E021FA02F59D4205D303FA02F51A
:100B1000491B04FA02F52844151EA2F10102F1DC7A
:100B200030BD202A04DB203A00FA02F10020704791
:100B30009140C2F1200320FA03F31943904070471B
:100B4000202A04DB203A21FA02F00021704721FA22
:100B500002F3D040C2F12002914008431946704789
:100B6000202A06DBCB17203A41FA02F043EAE07371
:100B700006E041FA02F3D040C2F12002914008435E
:100B8000194670473A2800D2303820F02002412A16
:100B900001D3A2F13700884201D34FF0FF307047F4
:100BA000026811441378016018467047D160044907
:100BB00051610449116200211161114600F0DEB952
:100BC000A10B0008690F0008426842B1016811F8E2
:100BD000013B23B1521EC0E90012184670470121A3
:100BE000C160881E704742685AB1C368016843B942
:100BF00083688B4205D0491E521CC0E900120020B8
:100C000070474FF0FF3070470FB4002300B589B034
:100C10000CA900910B996FF00042CB601E4B06931C
:100C20001E4B07930423CDE901321D4A0892024668
:100C30006B46002000F0CCFB09B05DF814FB70B5EA
:100C400086B006464FF0FF300091CDE9010100204B
:100C500015460C4604903246694604A8FFF7D4FFB7
:100C600002460498211825B108B1084600E0204644
:100C70002860049800280DD0002A02DD00988842E0
:100C800008D0081B0094CDE901043246694604A847
:100C9000FFF7BAFF06B070BDC90B0008E70B0008EC
:100CA000690F00082DE9F04791460F46804604463B
:100CB000002614F8015B2DB100F052F90068405D88
:100CC000C007F6D12B2D02D02D2D18D0641E4A4618
:100CD0003946204600F098FC27B13968A14201D17D
:100CE000C7F8008071054FF002040BD54042002880
:100CF00003DD14F087FB0460A007BDE8F08746F42D
:100D00008066E4E70028F8DA14F07CFB04606FF0FA
:100D10000040F2E70029A8BF7047401C490008BF07
:100D200020F00100704710B4B0FA80FC00FA0CF01B
:100D300050EA010404BF10BC704749B1CCF1200453
:100D400021FA04F411FA0CF118BF012121430843E0
:100D5000A3EB0C01CB1D4FEA00614FEA102042BF0C
:100D6000002010BC704700EBC35010440029A4BF02
:100D700010BC7047401C490008BF20F0010010BCA7
:100D8000704710B5141E73F1000408DA401C41F1DD
:100D9000000192185B411A4301D120F0010010BDFF
:100DA0002DE9F04D92469B4611B1B1FA81F202E075
:100DB000B0FA80F220329046FFF7B3FE04460F46A9
:100DC00040EA0A0041EA0B0153465A46084313D051
:100DD000114653EA010019D0C8F140025046FFF70E
:100DE000AFFE05460E46504659464246FFF799FE6D
:100DF000084305D0012004E020463946BDE8F08DC7
:100E00000020054346EAE0762C4337430A98630501
:100E1000E40AA0EB08000022FD0A44EA47540A3025
:100E200002D500200146E9E7010510196941DDE915
:100E3000084500196941BDE8F04DA2E770B521F001
:100E4000004303430CD0C1F30A550024D5EB04053D
:100E500064EB0403D617AD1AB34102DB0020014650
:100E600070BD201841EB025170BD2DE9F04D0023FB
:100E70001A461B1A8A4103DB00200146BDE8F08DAB
:100E8000C1F30A52C1F3130141F480154FF0000B76
:100E9000D10702D100186D41521E0027044640F2CE
:100EA000FF11384601EB620A3E46804602460020AA
:100EB0004FF48011FFF744FEC2197141BB1846EB95
:100EC0000100B4EB030C75EB000C04D3E41A65EBE2
:100ED000000517460E46241908F101006D418046B1
:100EE0003428E3DDF91946EB0600091BA84103D2BB
:100EF0004FF0FF32134601E0002213461BEB0700C0
:100F000046EB0A51BDE8F04DFFF73BBFC1F30A5273
:100F1000C1F3130140F2FF3341F480119A4202DA27
:100F200000200146704740F233439A42A2F2334216
:100F300002DC5242FFF704BEFFF7F3BD064C074D3B
:100F400006E0E06840F0010394E807009847103499
:100F5000AC42F6D3FFF71CF9340809085408090815
:100F600000487047DCD9080810B50446FFF7F8FFC1
:100F70000068005D00F0010010BD00002DE9F34F96
:100F80008BB04FF0000801F10C000C464FF0010B44
:100F900046460DF1080A01906269012101989047C7
:100FA000051E2DD0252D2CD0216A8847C0B162693D
:100FB000012101989047216A88470028F7D1411EF6
:100FC00062690198904700E0761CA1690B988847F8
:100FD000216A88470028F7D1E1690B988847DBE749
:100FE000A1690B9888470746A84201D1761CD3E730
:100FF000E1690B9888477F1C02D1B8F1000F6FD0D0
:1010000046E1002762693D463946019890472A2803
:1010100004D162690121019890470125DFF884928B
:101020006269012101989047A0F130010A290AD292
:101030004F45E5DC07EB870100EB4107303FDFD48C
:1010400045F01005ECE7E90601D46FF000476C2885
:101050000AD04C2814D0682815D06A280DD07428DE
:101060001CD07A281AD01DE06269012101989047AE
:101070006C2802D045F0040514E045F002050DE0AF
:1010800045F020050AE0626901210198904768282F
:1010900002D045F0080505E045F4006562690121CC
:1010A00001989047C4E9015765283DD019DC5828BC
:1010B0007AD00CDC452837D004DC252826D04128FE
:1010C00031D131E046282FD047282CD12CE05B28A5
:1010D00077D0612828D063287CD0642823D15AE0B7
:1010E000D0E06F2848D008DC66281DD067281BD0C8
:1010F000692821D06E2816D127E0702845D07328A2
:1011000068D0752847D078280DD14DE0A1690B989B
:101110008847054625283FF469AFE1690B98884761
:101120006D1C3FF46AAFB3E023466A466FF00100DE
:101130000B9900F04DF99EE045F040006060A80773
:1011400023464FF0000236D43EE0E8077FF447AF75
:101150002068011D21600068290501D506701BE784
:10116000290701D5068017E7A90703D5F117C0E9BC
:10117000006111E706600FE745F040006060A807D6
:1011800023464FF0080216D41EE040F60E0125EA71
:101190000100606016E045F040006060A80723464B
:1011A0004FF00A0207D40FE045F040006060A80746
:1011B00008D5234610226FF001000B99AFF3008091
:1011C00059E007E0234610226FF001000B99FFF76A
:1011D00007F950E04FF000094F464B46632802D014
:1011E0005B2806D040E0E80601D40120A06001277A
:1011F0003AE062690121019890475E2805D14FF0DD
:1012000001096269494601989047216939B900216D
:101210000A46534643F82120491C0829FADBB0B39B
:10122000216969B9C11700EBD16253110AEB83013F
:1012300022F01F02821A01200B68904003430B60CA
:1012400062690121019890475D28E8D1B9F1000F4A
:1012500009D00020514651F82020D24341F82020E7
:10126000401C0828F7DB02AB224600976FF0010014
:101270000B99FFF75BF900280CDA401C08D1BBF191
:10128000000F05D04FF0FF300DB0BDE8F08FFFE745
:101290004046F9E7E90701D108F1010806444FF09B
:1012A000000B79E6CCCCCC0C2DE9FF4F087883B04D
:1012B0009946FF2805D0491C2D2804D00024002081
:1012C00008E000200BE00124F9E700EB800003EBCD
:1012D0004000491C0B78FF2BF7D104B1404200239A
:1012E0000293147819461D462D2C01D02B2C04D1C5
:1012F000521C2D2C13D000240294AA461478FF2CE3
:101300000FD00A25A3FB057801FB05814FF0000CE7
:1013100003FB0C11521CE3194AEB0101EEE7012417
:10132000EAE7814453EA010002D019F5C87F06DAE2
:1013300003980021C0E9001107B0BDE8F08F002537
:10134000AE4E2F46DFF8B8821846FFF712FBCDE904
:101350000001B9F1000002DAC9F1000400E004461E
:101360000023A74A1AEB030B42EB045A12E0E007F2
:1013700007D02A46334638464146FFF7FBF9074671
:1013800088462A46334610461946FFF7F3F90546C4
:101390000E466410002CEAD1DDE90001B9F1000F1E
:1013A0005A46534606DAFFF757FA3A464346FFF7DE
:1013B00053FA05E0FFF7DEF93A464346FFF7DAF95C
:1013C000029A0AB181F00041039AC2E90001B3E731
:1013D0002DE9FF4F1F468DB0D7E901464FF0FF388A
:1013E0002E2045464FF000090B90B9696D1C0E98F0
:1013F0008847396A824688470028F6D1BAF1FF3F0C
:101400000AD024F4D064002E11DDBAF12B0F08D0DD
:10141000BAF12D0F0BD102E0404611B08DE744F434
:101420008064B9696D1C0E9888478246761E6946AD
:10143000600501D52D2000E02B208DF8000001F182
:10144000010B0DF1200809E0B9696D1C0E98884761
:1014500082460F9844F40074761E0560002E02DD6B
:10146000BAF1300FF0D00B998A453ED144F0800498
:1014700006E00F99681CA9F1010944F400740860A2
:10148000B9696D1C761E0E98884782463028F0D0C8
:101490002BE00B998A4505D1200603D444F0800443
:1014A000761E18E0504616F099FC08B30DF11301B2
:1014B000761E44F400748B4508D2AAF130000BF874
:1014C000010B200607D5A9F1010003E0200602D494
:1014D00009F101008146A00502D50F99681C08603A
:1014E000B9696D1C0E9888478246002ED1DC53E006
:1014F000002E51DDBAF1650F02D0BAF1450F4BD184
:10150000A00549D5B9696D1C24F44074761E0E9867
:1015100088478246002E0CDD2B2804D0BAF12D0F0F
:1015200007D144F48074B9696D1C0E9888478246CF
:10153000761EE00501D52D2100E02B2108F8011BC6
:10154000CDF82C8021E00DF12901761E44F40074C1
:1015500088450CD2AAF1300010F0FF0088F8000096
:1015600002D10B99884509D908F1010806E0E00588
:1015700001D5244801E042F20F708146B9696D1C23
:101580000E98884782460F980560002E04DD50466D
:1015900016F024FC0028D6D1F9690E988847FF2060
:1015A0008BF8000088F800000020069007904B465A
:1015B0006A4608A906A8FFF777FEA00502D46FF0D7
:1015C00001002AE714F0240F0AD0E00714D1DDE966
:1015D00006123868031D3B600068C0E900120BE08A
:1015E000DDE90601FFF74CFA0146E00704D138684F
:1015F000021D3A600068016028460EE700001440B2
:101600000000F03FF1D8FFFF2DE9F05F824600783F
:10161000002715468B460AF10104B946302801D04F
:101620009DB113E014F8010B0127782803D0582846
:1016300001D045B10AE00DB1102D07D100271025CA
:1016400014F8010B02E0082500E00A250026B04648
:101650000EE005FB080005FB06F1012701EB104633
:101660001FFA80F8B6F5803F00D3B94614F8010B95
:101670002946FFF787FA0028EBDABBF1000F05D007
:101680000FB1641E00E05446CBF80040B9F1000FE2
:1016900006D013F0B7FE02210160C81EBDE8F09F1E
:1016A00048EA0640FAE770B58C1810F8015B15F0AF
:1016B000070301D110F8013B2A1106D110F8012BC4
:1016C00003E010F8016B01F8016B5B1EF9D12B07E9
:1016D00005D40023521E0DD401F8013BFAE710F89F
:1016E000013BCB1A921C03E013F8015B01F8015B8C
:1016F000521EF9D5A142D8D3002070BD21B1826815
:1017000042F00102826003E0826822F001028260FE
:10171000704700000021084A1168084A1140D0E9CA
:1017200000231A4383681A43C3681A431143044AC7
:10173000C2F804137047000004230140E030FCFFAE
:10174000002001400146C86C80B27047024600206C
:1017500013680B400BB1012000E00020704700002F
:101760002DE9F05F82460C469346BAF1000F51D145
:1017700000BF00BF00BF00BF00BF274800680128AE
:1017800004D100F017F90020234908600A21012044
:1017900005F0CAFC064640F6E4407043060B4FF4E1
:1017A0007A70B6FBF0F0C5B205EB4500C0EBC51092
:1017B000A6EBC0006421B0FBF1F0C7B24FF47A7021
:1017C00015FB00F007EBC70101EB071100EB8100EF
:1017D000301A0A21B0FBF1F8E82015FB00F007EB06
:1017E000C70101EB071100EB810008EB880100EB5A
:1017F0004100A6EB000905F13000207007F1300030
:10180000607008F13000A07009F13000E070042031
:10181000BDE8F09F0020FBE74402002030B50246FF
:10182000002000235068104C20400D790C6844EAD9
:1018300005242043506090680C4C2040D1E90354AB
:101840002C438D682C434D7944EA45042043906035
:10185000D06A20F470000C7D641EE4B2234340EA99
:101860000350D06230BD0000FFFEFFFCFDF7FFC05B
:10187000F0B504460D4600200021092D11DDE06879
:10188000A5F10A0606EB4607072606FA07F1884384
:10189000A5F10A0606EB460603FA06F10843E060E6
:1018A0000CE0206905EB4507072606FA07F1884397
:1018B00005EB450603FA06F108432061072A0FDA13
:1018C000606B561E06EB86071F2606FA07F1884353
:1018D000561E06EB860605FA06F10843606322E011
:1018E0000D2A0FDA206BD61F06EB86071F2606FA95
:1018F00007F18843D61F06EB860605FA06F1084372
:10190000206310E0E06AA2F10D0606EB86071F26B1
:1019100006FA07F18843A2F10D0606EB860605FAE2
:1019200006F10843E062F0BD816841F080418160CA
:101930007047000038B10849096841F40001074ABE
:10194000C2F8041306E00449096821F40001034ABF
:10195000C2F8041370470000042301400020014036
:1019600000B58BB0012108020BF046F80120FFF70B
:10197000E1FF002007900A9009904FF48030089012
:1019800007A8FFF7C7FE002001908DF808008DF82A
:1019900009000390059001208DF8180001A9044862
:1019A000FFF73CFF01210248FFF7A8FE0BB000BD86
:1019B0000020014000B58DB0012108460AF0BCFFAF
:1019C000012108020BF018F803208DF830002020C8
:1019D0000B9000208DF833000BA9114805F0EAFAAE
:1019E000002007900A9009904FF48030089007A8D3
:1019F000FFF790FE002001908DF808008DF8090097
:101A00000390059001208DF8180001A90548FFF703
:101A100005FF01210348FFF771FE0DB000BD000076
:101A2000000002400020014010B5FF2000F02DF81A
:101A30000446362C01D1002010BD3621FF2000F0D5
:101A400065F8FF2000F021F80446362C01D1002073
:101A5000F2E70120F0E710B507F090F810BD2DE98E
:101A6000F04107460C460026002509E036023919E8
:101A7000491B491E88B200F008F80644681CC5B22C
:101A8000A542F3DB3046BDE8F08170B50446002680
:101A900007F014F92546E11704EB11610912A022A1
:101AA00002EB4101C8B207F0D7F807F03FF9E117A0
:101AB00004EB11610912A4EB0121C8B207F0CCF8C4
:101AC00007F034F907F0FAF8A12007F0C5F807F09D
:101AD0002DF9002007F094F8064607F00BF9304680
:101AE00070BD2DE9F04105460E461746002409E079
:101AF000E20026FA02F2D1B22A1990B200F006F8FA
:101B0000601CC4B2BC42F3DBBDE8F08170B5044692
:101B10000E4607F0D3F82546E11704EB11610912D0
:101B2000A02202EB4101C8B207F096F807F0FEF8D8
:101B3000E11704EB11610912A4EB0121C8B207F00F
:101B40008BF807F0F3F8304607F086F807F0EEF868
:101B500007F0D0F80A201EF0CDFA70BD10B564244D
:101B60000AE00848006808B9012000E000200549A3
:101B7000086001201EF0BEFA201EA4F10101CCB2C3
:101B8000EFD110BDA08242421CB5012120200AF0F5
:101B900033FF01208DF804000002009003208DF82F
:101BA000050000208DF8060001208DF80700694629
:101BB000044805F0FFF94FF48071034805F06EFA10
:101BC0001CBD0000001402400004024000BFFEE7FC
:101BD00008B50020072305220421009000F002F838
:101BE00008BD00002DE9F0418AB004460D461646B6
:101BF0001F46DDF84080012108460AF09DFE0121C4
:101C000048060AF0D9FE09220B212A4805F01AFAE3
:101C100009220C21274805F015FA4FF4C05008900E
:101C200002208DF8240000208DF8260003208DF876
:101C3000250001208DF8270008A91E4805F0BAF9F3
:101C400000208DF81A008DF81B008DF81C00012073
:101C50008DF81D0000208DF81E008DF81F008DF8F6
:101C600016808DF817408DF818608DF81950ADF872
:101C7000147005A9104800F039F900208DF80E0005
:101C80008DF80F0001208DF810000020ADF8040041
:101C9000ADF80600ADF80800ADF80A00ADF80C008C
:101CA00001208DF8110001A800F09CF80AB0BDE8F1
:101CB000F0810000000002400064004070B586B072
:101CC00005460E4600210E4800F09AF910B9002092
:101CD00006B070BD01AA0021094800F0A0F90198E2
:101CE0002860002404E00DF10F00005D3055641CF5
:101CF0009DF80E00A042F6D89DF80E00E8E700001F
:101D00000064004030B52DED028B83B00446B0EE88
:101D1000408A002001900290200A8DF80400E0B271
:101D20008DF805009FED0C0A28EE000ABDEEC00AF2
:101D300010EE100A05B2280A8DF80A00E8B28DF8F4
:101D40000B00082201A940F2111000F011F803B0B5
:101D5000BDEC028B30BD000000007A4438B504466B
:101D600000940122694640F2214000F001F838BD9C
:101D70002DE9F04186B007468846154600240197B4
:101D8000002002908DF80C008DF80D008DF80E509B
:101D900000BF06E018F804100DF10F000155601C9B
:101DA00084B2AC42F6DB01A90D4800F04FFC0646B8
:101DB000002401E0601C84B23146094800F0DAFCDE
:101DC00018B940F6FF708442F4DB40F6FF7084429D
:101DD00003DB012006B0BDE8F0810020FAE7000037
:101DE0000064004010B50021837A012202FA03F159
:101DF0003D4A126842F001023B4B1A603A4A1C32DB
:101E000012688A43384B1C331A60027BCAB9364ABF
:101E10000C3212688A43344B0C331A604288C388F0
:101E200042EA0343304A4032847A42F8343002882E
:101E3000838842EA03432C4A4032847A02EBC4028C
:101E40005360027B012A19D1274A0C3212680A43D7
:101E5000254B0C331A604288038842EA0343224A26
:101E60004032847A42F83430C288838842EA03439D
:101E70001D4A4032847A02EBC4025360C27A3AB9F6
:101E8000194A121D12688A43174B1B1D1A6006E07F
:101E9000154A121D12680A43134B1B1D1A60028952
:101EA00032B9114A143212688A430F4B14331A6044
:101EB0000289012A06D10C4A143212680A430A4BDD
:101EC00014331A60427B012A06D1074A1C32126879
:101ED0000A43054B1C331A60034A126822F00102C0
:101EE000014B1A6010BD00000066004030B502468C
:101EF00000200023146824F002041460146844F0E5
:101F00000104146000E05B1C546804F001041CB977
:101F10004FF6FF74A342F6D1546804F001040CB9E3
:101F200000206CE08C79012C04D1146844F080040A
:101F3000146003E0146824F080041460CC79012C50
:101F400004D1146844F04004146003E0146824F0E1
:101F5000400414600C7A012C04D1146844F020046D
:101F6000146003E0146824F0200414604C7A012CFF
:101F700004D1146844F01004146003E0146824F0E1
:101F8000100414608C7A012C04D1146844F0080405
:101F9000146003E0146824F008041460CC7A012C67
:101FA00004D1146844F00404146003E0146824F0BD
:101FB000040414608C78A407CD7844EA05640D7994
:101FC00044EA05444D7944EA05540D886D1E2C43BE
:101FD000D461146824F001041460002300E05B1C49
:101FE000546804F001041CB14FF6FF74A342F6D10B
:101FF000546804F001040CB1002000E0012030BD61
:102000000246002019B9D36803F0030006E0012955
:1020100003D1136903F0030000E00020704710B5FE
:1020200000F5D87303EB01131B6803F0040313726C
:10203000137A53B900F5D87303EB01131B6840F210
:10204000FF7404EA5353136009E000F5D87303EBFF
:1020500001131B686FF0604404EAD303536000F57A
:10206000D87303EB01131B6803F00203537200F5EE
:10207000D87303EB01135B6803F00F03937200F551
:10208000D87303EB01135B681B0AD37400F5D87394
:1020900003EB01139B68D37200F5D87303EB0113B4
:1020A0009B681C0A147300F5D87303EB01139B683B
:1020B0001C0C547300F5D87303EB01139B681B0EC3
:1020C000937300F5D87303EB0113DB68D37300F54A
:1020D000D87303EB0113DB681C0A147400F5D87382
:1020E00003EB0113DB681C0C547400F5D87303EB8D
:1020F0000113DB681B0E937421B9C36843F02003FE
:10210000C36003E0036943F02003036110BD0000D6
:102110002DE9F04F2DED048B93B00024002500260F
:1021200000201290834610900F900490FFF750FD0E
:102130004FF6FF70FA49088048F23040F9490880AC
:102140000846008806F072FF0521F7A016F0D0FDC2
:1021500001200090F9484088DFF8E4C39CF804C0EF
:10216000A0EB0C0081B2F6480379F4480288002005
:1021700016F020FE03200021CDE90010EF48408832
:10218000DFF8BCC39CF804C0A0EB0C0081B2EB48A4
:102190000088DFF8ACC39CF803C04FF0020E0EFBC2
:1021A0001C00093880B20390E5480079401E83B2D4
:1021B000E348C078400000F10802039818F0FFF9E6
:1021C000044614B90120129011E0DD480078DD4981
:1021D00051F8200044F80B0FD948C07820714FF611
:1021E000FF702081E0800B3C204618F089FA4FF602
:1021F000FF70CC490880102000210091CDE901102A
:10220000CF48007900F10A01142394220A201FF01C
:10221000D9FA074627B913B0BDEC048BBDE8F08F9F
:102220004FF47840F882C8A0C7F80B0038461FF07A
:1022300020FB02200021CDE90010C148007900F107
:102240000A011E235022A82018F0B9F9064616B933
:10225000012012900CE0BEA046F80B0F0C2030714C
:102260004FF6FF703081F0800B3E304618F048FA90
:102270001F2010210091CDE90110B0480388B0481B
:10228000007900F132020A21B4A028F00BFF1020DF
:1022900000210091CDE90110A948007900F1320137
:1022A00014235422AA201FF08DFA8146B9F1000FA1
:1022B00000D1B0E7ADA0C9F80B004FF47840A9F801
:1022C000160048461FF0D5FA1F2010210091CDE9D5
:1022D00001109A4803889A48007900F150020A21B7
:1022E000A3A028F0DFFE102000210091CDE901100D
:1022F0009348007900F15001142354229A201FF0D2
:1023000061FA8246BAF1000F00D184E79BA0CAF8B7
:102310000B004FF47840AAF8160050461FF0A9FAB7
:1023200002200021854ACDE900101288039202EBB9
:10233000D2725210233A90B2814A127902F1780196
:102340001E23462218F03BF9054615B901201290CC
:102350000CE08BA045F80B0F102028714FF6FF7092
:102360002881E8800B3D284618F0CAF91F2010216B
:102370000091CDE90110714803887148007900F19E
:10238000AA020A2181A028F08DFE102000210091D0
:10239000CDE9011069480088D43882B268480079D4
:1023A00000F1AA011423CA201FF00CFA8046B8F1EC
:1023B000000F00D12FE74FF47840A8F8160077A05F
:1023C000C8F80B0040461FF054FA4FF4FC600C2193
:1023D0000091CDE901105948038840881E3882B227
:1023E0000A2171A028F05EFE25E17A4841680020AC
:1023F00088477948026800217648904705201DF0FB
:1024000079FE7549204618F055F811901198E8B1F9
:10241000A07A00F08000C8B9A07A00F04000A8B10E
:10242000204618F058F9304618F055F9284618F0AB
:1024300052F938461FF013FA48461FF010FA50467A
:102440001FF00DFA40461FF00AFAE4E662493046F2
:1024500018F030F811901198F8B1B07A00F08000BF
:10246000D8B9B07A00F04000B8B1109808B901208E
:1024700000E000201090109830B10120FFF76EFCB2
:1024800056A0C7F80B0005E00020FFF767FC2EA060
:10249000C7F80B0038461FF0ECF94F49284618F0F2
:1024A00009F81190119858B3A87A00F0800038BB51
:1024B000A87A00F0400018B3D9F80B00FEF7A6F890
:1024C00080B20390DAF80B0013F0B6FBB0EE409A3E
:1024D000F0EE609A51EC190BFEF7D2FA08EE100AF2
:1024E0009FED410A28EE000ADFED400A80EE201A37
:1024F000F0EE418AB0EE680A0398FFF703FC00BFD4
:102500000DA904A8FFF7DAFB0F900F9838B138A196
:1025100005A8049A12F04AFF4FF0000B7BE08AE016
:10252000880000208A00002043414E20434F4D2D5B
:1025300052414E474552204D494E49008C000020E3
:10254000C8E7012008B206085243204D6F646500B9
:10255000537769746368204D6F64650053706565D7
:1025600064286D6D2F73293A00000000313530006A
:10257000416E676C6528646567293A003000000089
:1025800053656E6420436D640000000052656376FD
:102590002849443A44415441293A0000576169743A
:1025A000696E672E2E2E0000426175643A35303018
:1025B0004B6270732049443A307831313128547875
:1025C000292030783231312F307832323128527828
:1025D00029000000940000203D04002043414E20CB
:1025E0004D6F646500000000DA0F4940000034437D
:1025F0003078253033583A000DA911F80B200BEB39
:102600004B01891D05ABC8180EA112F0CFFE0BF1CE
:10261000010000F0FF0B0F988345EDDB00210F98C0
:1026200000EB4000801D05AA115405A8C8F80B0056
:1026300040461FF01EF9129800283FF4D6AE00BFA6
:10264000E9E50000253032582000000010B50246B0
:102650000020936803F08063B3F1806F00D110E035
:10266000936803F00063B3F1006F01D1012008E02B
:10267000936803F08053B3F1805F01D1022000E042
:102680000420042874D002F5C07303EB00131B6808
:1026900003F0010402F5C07303EB00131C600B7A16
:1026A0007BB94B7A0C8843EA445302F5C07404EBBF
:1026B00000142468234302F5C07404EB0014236063
:1026C00010E00B7A4C6843EAC4034C7A234302F5CA
:1026D000C07404EB00142468234302F5C07404EBB7
:1026E000001423608B7A03F00F038B7202F5C07322
:1026F00003EB00135B6823F00F0402F5C07303EBD8
:1027000000135C6002F5C07303EB00135B688C7A06
:10271000234302F5C07404EB001463608B7B1C063A
:102720004B7B44EA03440B7B44EA0323CC7A2343E8
:1027300002F5C07404EB0014A3608B7C1C064B7C78
:1027400044EA03440B7C44EA0323CC7B234302F595
:10275000C07404EB0014E36002F5C07303EB0013D4
:102760001B6843F0010402F5C07303EB00131C6007
:1027700010BD000010B50246002321B1012907D089
:1027800002290FD109E090681D4C00EA04030BE018
:1027900090681C4C00EA040306E090681A4C00EABA
:1027A000040301E0002300BF00BF184C181BA34224
:1027B00016D007DC83B16FF08060184470B1022836
:1027C00018D111E0B0F5007F10D0114C204448B171
:1027D000B0F5003F0ED10BE002230DE000230BE02B
:1027E000002309E0002307E0012305E0012303E0C3
:1027F000012301E0002300BF00BFD8B210BD0000DC
:10280000030000040003000800000310000100089A
:102810000001FFF72DE9F04385B0002500270024D3
:102820004FF6FF709649088048F23040954908807D
:102830000846008806F0FAFB052193A016F058FA26
:102840000120009095484088DFF854C29CF804C0ED
:10285000A0EB0C0081B292480379904802880020D6
:1028600016F0A8FA03200021DFF830C2CDE90010ED
:10287000BCF802C0DFF8288298F80480ACEB080CA2
:102880001FFA8CF1DFF814C2BCF800C0DFF8108228
:1028900098F803804FF0020909FB18CCACF1090C41
:1028A0001FFA8CF0DFF8F8C19CF804C0ACF1010C01
:1028B0001FFA8CF3DFF8E8C19CF803C04FEA4C0C18
:1028C0000CF1080217F07BFE05460DB9012711E057
:1028D00073480078734951F8200045F80B0F704891
:1028E000C07828714FF6FF702881E8800B3D28469C
:1028F00017F006FF00243EE002200021684ACDE9DF
:102900000010127914323C2303FB0421634AB2F80D
:10291000008008EBD8725210323A90B22823642219
:1029200017F04DFE02A941F8240002A850F8240037
:1029300008B901271DE05C4850F8240002A951F8AD
:102940002410C1F80B00102002A951F82410C873FC
:102950004FF6FF7002A951F82410A1F8130002A944
:1029600051F82410A1F8110002A951F8240017F021
:10297000C7FE601CC4B2032CBEDB7CE04B48416840
:10298000002088474A480268002148489047484943
:10299000284617F08FFD06467EB1A87A00F0800029
:1029A00058B9A87A00F0400038B1284617F093FED5
:1029B00006F04CF805B0BDE8F083002459E002A908
:1029C00051F824003A4917F075FD0646002E4ED006
:1029D00002A850F82400807A00F08000002846D138
:1029E00002A850F82400807A00F0400000283ED071
:1029F00024B1012C15D0022C39D125E0FFF788FB3A
:102A0000284617F068FE002406E002A951F82400C9
:102A100017F061FE601CC4B2032CF6DB06F016F85A
:102A2000C8E70AF055F9284617F055FE002406E0DD
:102A300002A951F8240017F04EFE601CC4B2032C0A
:102A4000F6DB06F003F8B5E70AF03AFC284617F083
:102A500042FE002406E002A951F8240017F03BFED4
:102A6000601CC4B2032CF6DB05F0F0FFA2E7601C8B
:102A7000C4B2032CA3DB002F80D000BF9AE7000074
:102A8000880000208A000020CDA8EFBFBDEFBFBDA9
:102A9000D3A6EFBFBDEFBFBD000000008C0000203B
:102AA000C8E7012008B206083C0500209400002079
:102AB0003D0400202DE9F04FADB000202C900A908D
:102AC00080460C2009900020089007900690002571
:102AD0001E2005904FF6FF70FE49088048F23040F6
:102AE000FD4908800846008806F0A0FA0521FBA0F1
:102AF00016F0FEF801200090FB484088DFF8ECC398
:102B00009CF804C0A0EB0C0081B2F8480379F648A9
:102B10000288002016F04EF903200021CDE90010B4
:102B2000F1484088DFF8C4C39CF804C0A0EB0C0057
:102B300081B2ED480088DFF8B4C39CF803C04FF0C1
:102B4000020E0EFB1C00093880B20490E7480079A1
:102B5000401E83B2E548C078400000F108020498A6
:102B600017F02DFD2C902C9810B90120089016E03C
:102B7000DE480078DE4951F820102C98C0F80B1080
:102B8000DA48C1782C98C1734FF6FF712C98A0F8E1
:102B900013102C98A0F811102C9817F0B1FD0E20EE
:102BA00027F059FF0746142027F055FFD149086048
:102BB0000E2027F050FFD04908600B2027F04BFF74
:102BC000CE49086047B1CB48006828B1CA480068C0
:102BD00010B10846006808B901200890089800283C
:102BE0007ED1C1480088B0F5887F18DC0520C34934
:102BF00009684880EC20C149096888803220BF49B3
:102C00000968C8800C20BD49096888724FF02C0AF9
:102C10001E200E9014200D9004200C903CE0B24831
:102C20000088B0F5A07F19D10520B4490968488013
:102C30004FF49670B149096888804620AF49096809
:102C4000C8801020AD49096888724FF03C0A2820DE
:102C50000E901E200D900A200C901DE0A2480088C6
:102C6000B0F5F07F18D10520A449096848804FF4D9
:102C7000E670A249096888806E20A0490968C8806A
:102C800010209E49096888724FF05A0A3C200E9025
:102C900028200D900A200C9093490988974A1268C1
:102CA0009288881A00EBD071C1F34F01934A1268E1
:102CB0001180924A1268927A110101EBD1728F4B06
:102CC0001B689B88A3EB620000EBD072C2F3470243
:102CD0008A4B1B681A7289490968C988874A00E0CB
:102CE000BAE11268927A891AA1F10C0000EBD07156
:102CF000C1F34701814A126851727B48008805215F
:102D000001FB1A0090FBF1F000F0FF0900267CE1C6
:102D10004FF0000B72E106EB86005844C4B2022E5D
:102D20004CDA02200021714ACDE9001092F804C06B
:102D30000C9B0E9A1A4406FB02C3704A1268528812
:102D400003EB42026D4B1B68DB8802EB030CDDE9F1
:102D50000D32D21A049202EBD2720CEB620291B2E3
:102D600009EBD97252100AEB09030BFB032290B254
:102D7000CDF80C9052460D9B17F021FC0FA941F89D
:102D80002400002051F82410D1F81510088048F2D2
:102D900010400FA951F82410D1F8151048800FA940
:102DA00051F82410D1F81510888046F20C300FA984
:102DB00051F82410D1F81510C880CCE0052E4BD165
:102DC000BBF1030F48D102200021CDE90010474894
:102DD00090F804C00C9B0E98184406FB00C34748AB
:102DE0000068408803EB4000444B1B68DB881844B4
:102DF00081B209EBD97040100AEB09030BFB030009
:102E00001FFA80FE09EB4A02CDF8109070460E9B27
:102E100017F0D5FB0FA941F82400002051F8241029
:102E2000D1F81510088044F649200FA951F8241054
:102E3000D1F8151048800FA951F82410D1F81510B9
:102E4000888043F286100FA951F82410D1F815108C
:102E5000C8804FF0040B7EE002200021234ACDE918
:102E6000001092F804C00C9B0E9A1A4406FB02C391
:102E7000224A1268528803EB4202204B1B68DB880F
:102E80001A4491B209EBD97252100AEB09030BFBF9
:102E9000032290B2CDF8109052460E9B17F08FFB94
:102EA0000FA941F82400022E38D1BBF1030F02D044
:102EB000BBF1040F32D100200FA951F82410D1F832
:102EC000151008804FF478400FA951F82410D1F85C
:102ED000151015E0880000208A000020BCC6CBE356
:102EE000C6F7D3A6D3C300008C000020C8E701209A
:102EF00008B20608280500202C0500203005002017
:102F000048800FA951F82410D1F8151088800FA916
:102F100051F82410D1F81510C8801CE000200FA92A
:102F200051F82410D1F81510088044F649200FA953
:102F300051F82410D1F8151048800FA951F8241029
:102F4000D1F81510888043F286100FA951F824108B
:102F5000D1F81510C880022E1CDAF3480088F0283A
:102F600005D10C200FA951F82410C87304E01020DB
:102F70000FA951F82410C87300200FA951F824108C
:102F8000A1F811004FF6FF700FA951F82410A1F815
:102F900013001BE0E4480088F02805D110200FA999
:102FA00051F82410C87304E018200FA951F8241018
:102FB000C8734FF6FF700FA951F82410A1F8110043
:102FC00000200FA951F82410A1F813000FA850F801
:102FD000240010B90120089014E0D44850F82400CF
:102FE0000FA951F82410C1F80B0000200FA951F8C7
:102FF000241088720BF1010000F0FF0BBBF1050FEC
:10300000FFF689AE00BF701CC6B2062EFFF680AE7A
:10301000C74890ED000B51EC100BFDF7D5FC80B2CA
:1030200004900146C348069A006818F0B5F90026D6
:1030300006E00FA951F8260017F062FB701CC6B21B
:103040001D2EF6DB0E220021384627F014FDBAA112
:10305000B848006818F06AFBF8E3B84841680020F7
:103060008847B74802680021B448904705201DF002
:1030700041F8B3492C9817F01DFA0B900B9878B1D2
:103080002C98807A00F0800050B92C98807A00F05B
:10309000400028B12C9817F01EFB05F0D7FCD9E3AF
:1030A0000026D0E30FA951F82600A54917F002FA2F
:1030B0000446002C7DD00FA850F82600807A00F03E
:1030C0008000002875D10FA850F82600807A00F003
:1030D00040000028EED0FEF741FD9DF8280000F0EA
:1030E0000F04092E28D0B8F10E0F25D1002006902C
:1030F0009FED940B8E4880ED000B9FED920B934853
:1031000080ED000B00200A909FED8E0B904880ED23
:10311000000B012007904FF00008854890ED000B50
:1031200051EC100BFDF750FC80B204900146814831
:10313000069A006818F030F91D2E41D2DFE806F03B
:103140000F10111213144115165A8E8F90BEF2F102
:10315000F0EFEEEDECEBEAE9E8E7E6E5E40000BFCE
:1031600000BF00BF00BF00BF00BF00BF062E03DAD4
:10317000B01D00F0FF0802E0701D00F0FF080AA873
:103180003B46724A6A49CDE900806A48006817F0F8
:103190004DFF9DF8280000F0F0000A900E2200215B
:1031A000384627F068FC0C200990414661480068C9
:1031B00000E041E317F0BCFE4FF00008002007904C
:1031C00039E30AA83B46614A5949CDE9008059488C
:1031D000006817F02BFF9DF8280000F0F0000A901F
:1031E0000E220021384627F046FC0C2009904FF0B3
:1031F000050820E30698401CC0B2069006980228F5
:1032000001DD002006909DF8280000F0800050B9F4
:10321000384612F011FD464880ED000B9DF828005D
:1032200040F080000A90F0200A900E2200213846DB
:1032300027F021FC0C2009904FF00E083C4890ED3F
:10324000000B51EC100BFDF7BFFB80B20490014660
:103250003848069A006818F09FF8ECE200BF00BFFB
:10326000012C03D13878302800D1002409988442F9
:1032700006DA06F12D00C2B22046611CCCB23A54E7
:1032800023463A460AA92B48006818F061F9012D37
:1032900004D130480078302800D1002505988542B7
:1032A00003DA06F12D002B4948552A48425D29468C
:1032B00029A012F06BF8681CC5B2BCE2012C09DD34
:1032C000601EC4B2385D2E2801D10C200990002068
:1032D000385504E03878302801D030203870234643
:1032E0003A460AA91348006818F032F9012D3FDD6B
:1032F000681EC5B21748405D2E2801D11E200590DA
:103300000020144948553AE0E8E1B1E197E16CE169
:1033100046E120E1F0E0EEE0ECE0C6E0A0E070E0A5
:103320006EE06CE033E000008C00002044D308081D
:10333000100500203005002030000000940000201F
:103340003D040020000000000000000018050020DF
:1033500020050020FCE70120696E6275665F7072CF
:103360006F636573735B25645D3D25630D0A000023
:10337000F7480078302802D03020F5490870F4482A
:10338000425D2946AFF2300012F000F853E20C2003
:1033900009900E220021384627F06DFB00200A908C
:1033A000AFF26C01EB48006818F0C0F99DF82800F6
:1033B00000F04001E748006818F062F90021E54894
:1033C000006818F0E5F81FED210BE34880ED000BD5
:1033D0001FED240BE14880ED000B1FED260BE048AC
:1033E00080ED000B012007904FF000081E20059093
:1033F0001E220021D64827F03EFB00251BE200BF1D
:1034000000BF012C03D13878302800D1002409985E
:10341000844206DA06F12500C2B22046611CCCB215
:103420003A5423463A460AA9CA48006818F090F868
:10343000012D04D1C6480078302800D10025059818
:10344000854203DA06F12500C1494855C048425D6E
:103450002946AFF2FC0011F099FF681CC5B2EAE101
:103460000AA83B46BD4ABC49CDE90080B94800687E
:1034700017F0DCFD9DF8280000F0F0000A900E2205
:103480000021384627F0F7FA0C2009904FF0010888
:103490002B20AF4948550846425D2946AFF24810F7
:1034A00011F074FF681CC5B2C5E10AA83B46AB4ADF
:1034B000A949CDE90080A748006817F0B7FD9DF83D
:1034C000280000F0F0000A900E220021384627F074
:1034D000D2FA0C2009904FF002082D209C49485543
:1034E0000846425D2946AFF2901011F04FFF681C6C
:1034F000C5B2A0E100BF00BF012C03D1387830284D
:1035000000D100240998844206DA06F11D00C2B2F7
:103510002046611CCCB23A5423463A460AA98D484B
:10352000006818F015F8012D04D18948007830287A
:1035300000D100250598854203DA06F11D00844973
:1035400048558348425D2946AFF2F41011F01EFF42
:10355000681CC5B26FE10AA83B46804A7E49CDE9A6
:1035600000807C48006817F061FD9DF8280000F09D
:10357000F0000A900E220021384627F07CFA0C2039
:1035800009904FF003082A20714948550846425DCA
:103590002946AFF23C2011F0F9FE681CC5B24AE1A1
:1035A0000AA83B466D4A6C49CDE90080694800682D
:1035B00017F03CFD9DF8280000F0F0000A900E2264
:1035C0000021384627F057FA0C2009904FF00408E4
:1035D0002F205F4948550846425D2946AFF28820B2
:1035E00011F0D4FE681CC5B225E1012C02D1387857
:1035F000302807D00998844204DA30222146601C22
:10360000C4B27A5423463A460AA95248006817F0D1
:103610009FFF012D03D14E480078302805D0059832
:10362000854202DA30204A4948554948425D2946D8
:10363000AFF2DC2011F0AAFE681CC5B2FBE09DF8D9
:10364000280000F0400028B19DF8280020F040003C
:103650000A9004E09DF8280040F040000A909DF890
:10366000280000F040013B48006818F009F8E2E04B
:1036700009980C280FD1099884420CDA24B9302219
:103680002046611CCCB23A542E222046611CCCB29A
:103690003A540D20099023463A460AA92D4800685D
:1036A00017F056FF05981E280ED1059885420BDAB3
:1036B0002DB930222946681CC5B2254842542E2017
:1036C000234948551F2005902148425D2946AFF205
:1036D000783011F05BFE681CC5B2ACE09DF82800A4
:1036E00000F08000B0B184B99DF8280000F010000F
:1036F00080B99DF8280040F010000A90164890ED1F
:10370000000B174880ED000B04E09DF8280020F026
:1037100010000A900AA83B46104A0F49CDE90080E4
:103720000C48006817F082FCD0BB9DF8280000F020
:103730001000B0B3B8F1010F14D0B8F1020F20D0CF
:10374000B8F1030F2ED0B8F1040F49D139E00000D1
:10375000FCE701203005002010050020180500209E
:10376000200500204A4890ED000B53EC102B4948EF
:1037700090ED000B51EC100BFCF755FF454A03C2CE
:103780002EE0434890ED000B53EC102B414890ED98
:10379000000B51EC100BFCF7E7FF3E4A03C21FE0A1
:1037A00038E01EE03A4890ED000B53EC102B3948FE
:1037B00090ED000B51EC100BFCF7DCFF354A03C217
:1037C0000EE0334890ED000B53EC102B314890ED98
:1037D000000B51EC100BFDF73FF82E4A03C200BF5F
:1037E00000BF2C4890ED000B2B48006817F0FEFF3F
:1037F00080B100200A909FED290B264880ED000B38
:103800009FED260B274880ED000B0E220021384645
:1038100027F031F99DF8280000F0100050B99DF80C
:10382000280040F010000A901E4890ED000B184848
:1038300080ED000B00BF00BF0798804501D0CDF898
:103840001C80701CC6B21D2EFFF62CAC08980028F8
:103850003FF403AC00BF384627F0F5F81248006883
:1038600027F0F1F81148006827F0EDF80A480068E1
:1038700027F0E9F8002606E00FA951F8260016F017
:103880002AFF701CC6B21D2EF6DB2DB0BDE8F08FEE
:103890002005002010050020300500200000000059
:1038A0000000000018050020280500202C0500203D
:1038B00000B597B0002016901490129011901090BF
:1038C0000F9001200B9000200A900C23CDE90230CC
:1038D00004900590FD480078FD4951F82000FB490F
:1038E0000978FC4A52F82110CDE90010FA484088C6
:1038F0005038099000EBD070C0F34F000790F648A5
:103900000088C838089000EBD070C0F34F005023F7
:10391000C8220690079945F07DFEEC48407800F0FB
:10392000010010B1EDA01FF03AFE08F02BF878B3BB
:1039300000200C23CDE9023004900590E348007884
:10394000E34951F82000E1490A78E2490C3151F885
:103950002210CDE90010E04840885038099000EB73
:10396000D070C0F34F000790DB480088C83808903B
:1039700000EBD070C0F34F005023C8220690079987
:1039800045F048FE4FF4FA701CF0B4FB012016908D
:10399000282027F060F81390322027F05CF80D9073
:1039A000139808B10D9808B90120169016980028B0
:1039B0007ED105F08FFB08F0EDF802208DF838007D
:1039C0008DF839008DF83A008DF83B009DF83800ED
:1039D000099007F0EDFE9DF83900099007F0FEFE12
:1039E0009DF83A00099007F015FF9DF83B000990FB
:1039F00007F030FF07F048F900204FF40053012290
:103A000001460090B74801F03DF9B348408809905D
:103A1000B14800880890099908F077F801F0F8F9A2
:103A2000C8201CF067FB0C20AF49087003E301F0CD
:103A300009FA01F0EDF9AD484068099000200999B4
:103A40008847AA4890F8340000F0800000287DD014
:103A500001F0F8F93EF0FAFA9C480178A44850F8D1
:103A600021001490902111AA06231498CDE9013267
:103A7000CDE903109548007800EB40009D4901EB2B
:103A8000C000009094484088A0F58470099000EB35
:103A9000D070C0F34F0007908F480088A03808907E
:103AA00000EBD070C0F34F004FF48473A02200E00D
:103AB000C3E20690079915F0CDF915903EF0A8FAEB
:103AC000159800287ED101F0A3F9C8201CF012FB44
:103AD00001F0B8F93EF0BAFA7C48007800EB4000FB
:103AE000844901EBC0009DF8441050F82100149067
:103AF0009DF84400062836D2DFE800F003366B6CF0
:103B00006D6E902110AA05231498CDE90132CDE9FC
:103B100003106E48007800EB8001774800EB8100CD
:103B200000906D484088E838099000EBD070C0F3F1
:103B30004F00079068480088A038089000EBD070CC
:103B4000C0F34F00E823A022069000E0A1E007990F
:103B500015F080F915903EF05BFA159818B99DF8AC
:103B6000400007F097FF91E090210FAA07231498D7
:103B7000CDE90132CDE9031054480078C0EBC00014
:103B80005E4901EB8000009053484088A0F5947096
:103B9000099000EBD070C0F34F0007904E480088AA
:103BA000A038089000EBD070C0F34F004FF494732E
:103BB000A0220690079915F04DF915903EF028FACD
:103BC000159800E063E018B99DF83C0007F0F6FF97
:103BD0005CE000BF00BF00BF9DF84400801E0EA93E
:103BE000085C1290902112AA05231498CDE90132A5
:103BF000CDE903103548007800EB8000404901EB27
:103C00008000009034484088E838099000EBD0707C
:103C1000C0F34F00079030480088A038089000EBB0
:103C2000D070C0F34F00E823A0220690079915F04A
:103C300011F915903EF0ECF9159830BB9DF848103D
:103C40009DF84400801E0EAA11549DF844000228DD
:103C500003D19DF8480007F0ABFD9DF84400032810
:103C600003D19DF8480007F0B9FD9DF844000428F1
:103C700003D19DF8480007F0CDFD9DF844000528CC
:103C800003D19DF8480007F0E5FD00BF00BF01F03B
:103C9000BFF8012005F0E6F8032800D1CCE10120AF
:103CA00005F0E0F80C900C98002872D001F0CAF8EA
:103CB00000BF012005F0D6F80028FAD10A900C9830
:103CC00001281FD004287DD146E10000C8E701206B
:103CD000FCD2080858D408088C000020303A50481C
:103CE0004F544F008000006CAD0500209400002070
:103CF00004D5080810D5080858D5080894D5080830
:103D0000E8D508080020D74908603EF09FF9002157
:103D1000139819F0D1FA0021D3484088CDE9000169
:103D2000D148008803460A460990139816F0CAFA4B
:103D30001590159800287DD01598FF282AD10020CD
:103D40000C23CDE9023004900590C8480078C8499A
:103D500051F82000C5490A78C64951F82210CDE92A
:103D60000010C14840886438099000EBD070C0F35F
:103D70004F000790BC480088C838089000EBD0700E
:103D8000C0F34F006423C8220690079945F042FC17
:103D900097E047E11598FD282CD100200C23CDE9B0
:103DA000023004900590B1480078B14951F82000E4
:103DB000AE490A78AF490C3151F82210CDE9001014
:103DC000A94800E029E140886438099000EBD070F0
:103DD000C0F34F000790A4480088C838089000EB53
:103DE000D070C0F34F006423C8220690079945F0B5
:103DF00011FC66E000200C23CDE902300490059010
:103E00009A4800789A4951F8200098490978994AC7
:103E10000C3A52F82110CDE90010934840886438DC
:103E2000099000EBD070C0F34F0007908E480088D7
:103E3000C83800E00BE0089000EBD070C0F34F00F2
:103E40006423C8220690079945F0E4FB39E08748CF
:103E50000178894850F82100014609900D98FCF737
:103E60008BFA13990D98FCF731FA00200C23CDE959
:103E70000230049005907D480078804951F8200078
:103E80000D99CDE90010784840885038099000EB32
:103E9000D070C0F34F00079073480088B438089082
:103EA00000EBD070C0F34F005023B4220690079966
:103EB00045F0B0FB01206B49091F086064201CF02D
:103EC00019F93EF0A5F801206649086000206C4908
:103ED000C1F8A0024FF4FA601CF00CF90B9848BB33
:103EE00061484088C0F59660099000EBD070C0F33F
:103EF0004F0005905C480088C0F5C860089000EB52
:103F0000D070C0F34F00049057484088079056483F
:103F1000008806900246079BDDE9040107F0D4FC07
:103F2000514840880990504800880890099907F046
:103F3000ECFD07E04FF496634FF4C8620021084699
:103F400007F0C2FC4848408809904748008808901C
:103F5000099907F0DAFD60E04A480078401C4949B9
:103F60000870084600780C2802DD002145480170E1
:103F700045484449097850F821004449414A12789B
:103F800001EB82014988CDE9001040483D4909789C
:103F900030F8210009903548017837480C3050F846
:103FA0002100089002463AA1099B0D9811F0FEF9F4
:103FB00000200C23CDE90230049005902B480078B6
:103FC0002B4951F820000D99CDE900102648408872
:103FD0005038099000EBD070C0F34F000790224892
:103FE0000088C838089000EBD070C0F34F00502311
:103FF000C8220690079945F00DFB06E00A201CF048
:1040000079F80A98401CC0B20A90012004F02AFFF7
:1040100010B90A985028F1DB00BF00BF3DF0F8FF4F
:1040200000F0F6FE1E48007828B10A201CF062F865
:1040300000201B490870FAE400BF00F003FF3EF0C7
:1040400005F8139826F0FFFC0D9826F0FCFCC8201C
:104050001CF050F8002005F03DF804F0F7FC17B014
:1040600000BD0000A48242428C000020C8E701206D
:10407000FCD20808ECD4080870D40808D4D4080886
:1040800000804242AD050020A0D4080824D40808CE
:1040900025733A25645825642825732900000000FB
:1040A000AC05002070B500254FF4803404E080207A
:1040B0000AF0E6FE00B103E0201EA4F10104F6D1EF
:1040C00000BF0CB9032070BD40F2FF500AF0AEFEF5
:1040D0002846F8E770B5044605E01648056805F07F
:1040E000450000B100E0F8E700BF04200AF0C8FE78
:1040F00020B104200AF09AFE032070BD01200AF0CE
:10410000BFFE20B101200AF091FE0120F5E7094829
:1041100024380068A04201D01020EEE740F2FF50A2
:104120000AF084FE03482038006808210840C0B225
:10413000E3E70000342C014070B500264FF48035D1
:1041400005E01148046804F0450000B103E0281EB2
:10415000A5F10105F5D100BF15B104F0040028B1A7
:10416000032604200AF062FE304670BD01200AF0EA
:1041700087FE18B1012601200AF058FE40F2FF50D8
:104180000AF054FE3046F0E7342C014010B505E04B
:104190000B48046804F0450000B100E0F8E700BFF8
:1041A00004200AF06DFE20B104200AF03FFE032037
:1041B00010BD40F2FF500AF039FE0020F8E7000081
:1041C000342C01402DE9F04105460E464FF0000821
:1041D00005E02048076807F0450000B100E0F8E777
:1041E00000BF04200AF04CFE28B104200AF01EFE95
:1041F0000320BDE8F08101200AF042FE20B1012039
:104200000AF014FE0120F4E7124824380068A8429E
:1042100001D01020EDE740F2FF500AF007FE0D48F4
:104220002038046804F4604018B9200C30804046FF
:10423000DFE704F4005008B11320DAE704F480400B
:1042400008B11020D5E704F4004008B10F20D0E7F2
:104250004046CEE7342C014070B500264FF480353F
:1042600005E00F48046804F0450000B103E0281E93
:10427000A5F10105F5D100BF15B104F0040028B186
:10428000032604200AF0D2FD304670BD04F0400041
:1042900018B1002640200AF0C9FD3046F5E70000BD
:1042A000342C014038B504462069406800900098DD
:1042B00020F00200801C00900099206941600320DA
:1042C0000FF0E4FC38BD70B506460C4604F08000E3
:1042D000802808D104F07F0000EB800106F58E7085
:1042E00000EBC10507E004F07F0000EB800106F55C
:1042F0005D7000EBC10504F07F00287004F08000C1
:10430000C00968702946304610F032F8002070BDB0
:1043100070B506460C4604F08000802808D104F0F1
:104320007F0000EB800106F58E7000EBC10505E013
:1043300004EB840106F55D7000EBC1050020A87058
:1043400004F07F002870C4F3C0106870294630461E
:104350000FF0E6FF002070BD70B505460C4604F076
:104360008000802805D104F07F01284610F0FAF97A
:1043700002E0284610F0D0F9002070BD2DE9F04190
:1043800006460D4690461F4605F08000802808D15D
:1043900005F07F0000EB800106F58E7000EBC10494
:1043A00007E005F07F0000EB800106F55D7000EB93
:1043B000C10405F07F00207005F08000C009607026
:1043C000C4F80880E770607808B12078E080022F98
:1043D00001D100202071214630460FF055FF00200A
:1043E000BDE8F0812DE9F04105460E461746984696
:1043F00006F07F0000EB800105F55D7000EBC10465
:10440000E760C4F814800020A061607006F07F00AF
:104410002070E878012800D12761207820B9214652
:1044200028460FF055FE03E02146284610F001F81B
:104430000020BDE8F08108B500220092009A61F3E7
:104440000A12009202691268009B1A4303691A60FB
:1044500008BD70B506460C4604F08000802808D1DF
:1044600004F07F0000EB800106F58E7000EBC105C3
:1044700005E004EB840106F55D7000EBC105012049
:10448000A87004F07F002870C4F3C010687029463B
:1044900030460FF09CFF002070BD2DE9F04107462B
:1044A0000D461646984605F07F0000EB800107F5A3
:1044B0008E7000EBC1040120607005F07F00207059
:1044C000E66026610020A061C4F81480207820B93D
:1044D000214638460FF0FCFD03E0214638460FF038
:1044E000A8FF0020BDE8F0811CB5044620460FF06F
:1044F000BAFDE068C0680090204610F05DF903281E
:104500000BD10020A0704FF40070A080009820F420
:10451000705000F51050009009E00120A07040207C
:10452000A080009820F4705000F5A05000900098F2
:10453000E168C86000200190019820F4005000F567
:10454000005001900198E168486101201CBD000005
:10455000F8B50546002400200090284610F06BF9BD
:10456000064690E006F0010000287DD0E1B2284622
:1045700000F002FB0090009800F0010030B3012031
:1045800000FA04F72869406BB843296948630020A2
:104590000090009820F00100401C009005F11800E8
:1045A00050F8240000998160E1B2394800684268FF
:1045B00028469047E878012808D13CB940F211100C
:1045C000405D042802D128460FF02DFE0098C0F36C
:1045D000C00060B100200090009820F00800083072
:1045E000009005F1180050F82400009981600098AF
:1045F000C0F3001060B100200090009820F010007F
:104600001030009005F1180050F8240000998160E6
:104610000098C0F3801060B100200090009820F056
:1046200040004030009005F1180050F82400009937
:1046300081600098C0F3400060B1002000900098B5
:1046400020F00200801C009005F1180050F82400B2
:10465000009981600098C0F3C01028B12146284617
:1046600000F09EFA002000E00BE00090009820F09F
:1046700080008030009005F1180050F82400009967
:104680008160641C7608002E7FF46CAF0120F8BDB9
:10469000240300207CB5044600250020019020461C
:1046A00010F0D1F806466FE006F00100002869D04E
:1046B000E9B2204610F0CFF80190019800F0010017
:1046C000C8B300200190019820F00100401C019027
:1046D00004F1540050F8250001998160E078012828
:1046E00017D104F1540050F825000069009005EB43
:1046F000850104F55D7000EBC10080680099C1F38D
:104700001201411A05EB850204F55D7000EBC20051
:104710008161E9B21E480068026820469047E0784F
:10472000012808D13DB940F21110005D052802D1E1
:1047300020460FF078FD0198C0F3400060B10020E2
:104740000190019820F00200801C019004F15400B7
:1047500050F82500019981600198C0F3C00088B12C
:104760000B48006881682046884700200190019826
:1047700020F008000830019004F1540050F82500A2
:10478000019981606D1C7608002E8DD101207CBDC1
:10479000240300203EB50446A07A70B1D4F80C0181
:1047A0000090009820F002000090009820F0010096
:1047B00000900099D4F80C0101600020019001984C
:1047C00020F00100401C0190206940680199884355
:1047D00021694860084800688169204688470020B0
:1047E0000290029820F0004000F1004002900298F0
:1047F000E168486101203EBD240300207CB50446E9
:1048000000200190019820F0100010300190E06825
:10481000806901998843E1688861E068006A0090D6
:10482000009800F00F0000EB800104F55D7000EBD4
:10483000C1050098C0F3434007282DD2DFE800F0FF
:104840002C04051D1E2C1F0027E00098C0F30A1041
:1048500090B10098C0F30A122046E96810F005F8FC
:10486000E8680099C1F30A110844E860A869009952
:10487000C1F30A110844A8610FE00EE00DE0082220
:1048800004F2CC5120460FF0F0FFA8690099C1F363
:104890000A110844A86100E000BF00BFE068806919
:1048A00001990843E168886101207CBD38B5044660
:1048B00008480068C168204688470020009000989A
:1048C00020F00800083000900098E168486101205D
:1048D00038BD0000240300201FB5044600200090CE
:1048E0004FF48970005D00902348006841692046BC
:1048F000884720698068019000200390039820F485
:10490000006000F5006003900398E1684861A07AB8
:1049100070B3019800F0010050B340F21510005D33
:10492000012825D19DF80000032821D10020029004
:10493000029820F00100401C0290D4F80C0100689D
:1049400002990843D4F80C110860029820F0020084
:10495000801C0290D4F80C01006802990843D4F836
:104960000C1108600548006840F006000349086023
:10497000012004B010BD00002403002010ED00E071
:1049800030B587B004460020029006900590049050
:1049900003900190029820F00100401C02902069D1
:1049A00040680299884321694860002120460FF041
:1049B000D9FE00250BE0FF2104F1180050F8250076
:1049C000816004F1540050F8250081606D1C60780E
:1049D000A842F0D84FF0FF312069816106986FF34B
:1049E0000F00401C0690069880B200F580300690BB
:1049F00006992069C161059820F0080008300590EB
:104A0000059820F00100401C0590059820F0020058
:104A1000801C0590059920694161049820F00100EF
:104A2000401C0490049820F008000830049004987A
:104A300020F00200801C0490049920690161206923
:104A400000680390039820F4FE60039003992069A6
:104A5000016020460FF0E7FB00200190019820F450
:104A6000805000F5805001900198E1684861044849
:104A70000068016920468847012007B030BD00006A
:104A8000240300202DE9F04106460F463946304602
:104A90000FF000FF01214FF4897081550021801C27
:104AA0008155002511E005EB850106F58E7000EBC0
:104AB000C104012060702570E5800020E070402076
:104AC000A0600020E06060616D1C7078A842EAD8A8
:104AD000002510E005EB850106F55D7000EBC104D3
:104AE000002060702570E580E0704020A06000200C
:104AF000E06060616D1C7078A842EBD830460FF022
:104B0000A1FA30460FF0CEF8002130460FF02AFF10
:104B100030460FF05AF930460FF0EDFDBDE8F08158
:104B200038B504460020009007480068C169204657
:104B30008847009820F4801000F5801000900098BD
:104B4000E1684861012038BD2403002038B50446DF
:104B50000020009007480068016A204688470098B6
:104B600020F4001000F5001000900098E168486102
:104B7000012038BD2403002030B5024615692B6999
:104B800015696C6B24FA01F505F0010543EAC513BC
:104B900002F1180555F82150AD6805EA030030BD53
:104BA0002DE9F84307460E4600250020009006EB4D
:104BB000860107F58E7000EBC104D4E90501451AA2
:104BC000A068A84200D2A568E81C4FEA900807F147
:104BD000180050F82600806900901BE0D4E9050118
:104BE000451AA068A84200D2A568E81C4FEA9008C0
:104BF000ABB2F2B23846E1680FF004FFE068284437
:104C0000E060A0692844A06107F1180050F8260070
:104C100080690090009880B2404506D9D4E905101B
:104C2000884202D260690028D8D10120BDE8F8830B
:104C300030B10749096841F00101054A116005E0FA
:104C40000349096821F00101014A11607047000021
:104C50000000055001494861704700000000055000
:104C600030B10749096841F48041054A116005E007
:104C70000349096821F48041014A1160704700002E
:104C8000000005502DE9F04190B004460D4616464F
:104C90001F46DDF858800121880507F04DFE2448A5
:104CA00000F050F900BF224800F01AFA0028FAD1AB
:104CB0004FF0007001901F48029003940020049070
:104CC00005960690CDF81C804FF480500890099707
:104CD00000110A9040020B9004200C9003200D90CC
:104CE00000200E900F9001A9114800F075FAE5B16F
:104CF00001210F4800F0D2F94FF4002229460C4858
:104D000000F096FA01221021094800F047FA3920F4
:104D10008DF8000000208DF801008DF802000120C0
:104D20008DF80300684606F009FA10B0BDE8F0817E
:104D30002864024028000550002005490860C8602A
:104D40001F20486100208861C8610862486270477E
:104D500000000550014600200022044B1B6903EAB5
:104D600001020AB1012000E0002070470000055058
:104D700010B50120FFF7EEFF012811D12BF030FE16
:104D80000120FFF767FF0748006808B9012000E02D
:104D900000200449086004480078401C024908705B
:104DA00010BD0000A48242429001002029B1074AB0
:104DB000D2680243054BDA6006E0044AD268C34376
:104DC0009BB21A40014BDA607047000000000550AA
:104DD00000210E4A126844F201039A430B4B1A60F9
:104DE0001A46116840F6F2729143028843881A43CA
:104DF00083881A43C3881A4303891A4343891A4391
:104E000083891A431143014A11607047000005501D
:104E100010B50A484088401E83B208480088401EEA
:104E200082B20021084604F0ADFA0121044800F0E6
:104E30007DF80120FFF7FCFE10BD00008C00002073
:104E40002864024010B50020FFF7F2FE00BF0548BD
:104E5000006800F001000028F9D10021024800F0AC
:104E600065F810BD000005502864024010B50749E0
:104E7000074800F061F9012806D10449044800F010
:104E80003BF804480068804710BD000020800020E7
:104E9000706002408C01002010B50749074800F0FF
:104EA00029F9012806D10449044800F00BF8044808
:104EB0000068804710BD0000000800102864024010
:104EC000940100200246094B9A4201D2084801E0B1
:104ED0000648103801F000531BB1064B0B40C3606D
:104EE00002E0044B0B4083607047000010640240F6
:104EF000006002407D0F7D0F0246094B9A4201D2AD
:104F0000084801E00648103801F000531BB1064B79
:104F10000B40C36002E0044B0B408360704700000D
:104F200010640240006002407D0F7D0F21B10268D5
:104F300042F00102026003E0026822F00102026016
:104F400070470000016821F001010160002101604B
:104F500041608160C1600161212141614A4988420B
:104F600004D13D21484A103A91608CE046491831FD
:104F7000884205D14FF47461434A103A916082E04F
:104F800041493031884205D14FF474113E4A103AFC
:104F9000916078E03C494831884205D14FF0746116
:104FA000394A103A91606EE037496031884204D145
:104FB0003649354A103AD16065E033497831884244
:104FC00004D13349304A103AD1605CE02E49903127
:104FD000884204D12F492C4A103AD16053E02A4923
:104FE000A831884205D14FF03D51274A103AD1608F
:104FF00049E02949884204D13D21274A083A1160F5
:1050000041E025491831884205D14FF47461224AA4
:10501000083A116037E020493031884205D14FF419
:1050200074111D4A083A11602DE01B49483188422D
:1050300005D14FF07461184A083A116023E016490F
:105040006031884204D11149134A121F11601AE0DD
:1050500011497831884204D10D490F4A121F11605D
:1050600011E00D499031884204D10A490A4A121FC1
:10507000116008E00849A831884204D14FF03D5141
:10508000054A121F11607047106002403D00002069
:10509000400F002000003D201064024021B1026852
:1050A00042F48022026003E0026822F4802202605F
:1050B000704722B1036843F40023036003E00368F0
:1050C00023F4002303600161704721B1026842F0BC
:1050D0002002026003E0026822F0200202607047B2
:1050E000014600200A6802F001020AB1012000E036
:1050F0000020704730B503460A46002000240B4DBF
:10510000AB4201D20A4901E00849103902F00055CA
:105110000DB14C6800E00C68064D2C4004EA020515
:105120000DB1012000E0002030BD000010640240FD
:10513000006002407D0F7D0F70B502460020002404
:105140000025124EB24201D2114B01E00F4B103B31
:10515000104E0E4036B11E2606EAD124166806EA25
:10516000040502E0566906F0800501F000560EB114
:105170005C6800E01C68084E344004EA010616B181
:105180000DB1012000E0002070BD0000106402405D
:10519000006002403C0F3C0F7D0F7D0F10B501F009
:1051A00080034BB122B1436943F08003436103E0C4
:1051B000436923F08003436180290BD02AB103683F
:1051C00001F01E042343036004E0036801F01E04A1
:1051D000A343036010BD000010B500220268134B0A
:1051E0001A40CC680B6823434C6923438C692343E2
:1051F000CC6923430C6A23434C6A23438C6A2343C0
:105200004C6B23438C6B23431A430260426922F0A8
:105210000702D1E90B3423431A4342610B6943600F
:105220004B6883608B68C36010BD00003F801CF03A
:105230000AB1016100E0C1607047000010B50024B0
:1052400000F076F804E0601CC4B201201AF094FF6C
:105250000D48006808B1C82CF5DBC82C01DB012023
:1052600010BD002404E0601CC4B201201AF084FFC9
:105270000548006808B9F02CF5DBF02C01DB0120B3
:10528000EEE70020ECE700002402434270B52DED6C
:10529000068B00F0C1F800F0A9F8FFF7CFFFCC2093
:1052A00000F0C6F8BE2000F0C3F800F08DF8064606
:1052B00000F08AF805462C4606EB042084B204F47C
:1052C0007840B0F5784F14D1E043401C84B22046BA
:1052D000FBF742FB41EC1A0B9FED110B53EC102B2B
:1052E000FBF748FA41EC190BFBF7CAFB08EE100A72
:1052F00010E02046FBF730FB41EC1A0B9FED0A0B48
:1053000053EC102BFBF736FA41EC190BFBF7B8FB0B
:1053100008EE100AB0EE480ABDEC068B70BD000026
:10532000000000000000B0BF000000000000B03F1F
:105330001CB54FF40070009000208DF8040001208F
:105340008DF807006946024801F034FE1CBD0000DC
:10535000001802401CB54FF40070009001208DF839
:10536000040000208DF8060002208DF805000120C1
:105370008DF807006946024801F01CFE1CBD0000C4
:105380000018024010B5FFF7E5FF00200C49086047
:1053900002201AF0F1FE01200A49C1F8A402FFF729
:1053A000C7FF0C201AF0E8FE05488038006808B1F5
:1053B000012400E0002432201AF0DEFE204610BD59
:1053C000A40243420000434270B50026012508E0D4
:1053D000FFF7D8FF0446E00140EA6600C6B2681C49
:1053E000C5B2082DF4DD304670BD000010B5FFF7E2
:1053F000B1FF00200649086040F2EE201AF0BCFE22
:1054000001200449C1F8A4020F201AF0B5FE10BD16
:10541000A40243420000434210B5FFF7E7FFFFF745
:105420000DFFCC2000F004F8442000F001F810BD7E
:1054300070B50446FFF78EFF012520E004F0010659
:1054400064106EB100200F49086002201AF094FE2B
:1054500001200D49C1F8A4023C201AF08DFE0CE099
:105460000020084908603C201AF086FE0120064909
:10547000C1F8A40202201AF07FFE681CC5B2082DF4
:10548000DCDD70BDA40243420000434270470000CF
:1054900010B500F051F900F0E9F800200549086066
:1054A000C7200BF0B1F901200349C1F8B80200F0A0
:1054B000DDF810BDB88240420080404210B504467D
:1054C000214610A00FF062FF240300F035F900F030
:1054D000CDF800200D49086020200BF095F9C4F3A9
:1054E00007400BF091F9C4F307200BF08DF9E0B2FF
:1054F0000BF08AF901200649C1F8B80200F0B6F8AD
:1055000010BD000066653A25780D0A00B882404259
:10551000008040421CB50121022007F00DFA012154
:10552000402007F009FA4FF48040009001208DF8E8
:10553000040000208DF8060003208DF805000120EE
:105540008DF8070069460F4801F034FD8020009077
:1055500069460D4801F02EFD80210B4801F0A0FDA9
:1055600001200A4908600BF0EDF800200BF068F903
:1055700000F042F8064908800846018805A00FF0AF
:1055800005FF1CBD0004024000180240B8824042E2
:1055900048000020454E32355158585F5459504507
:1055A0003D25580D0A0000002DE9F04106460C4645
:1055B000174600200F49086003200BF025F9C4F3BB
:1055C00007400BF021F9C4F307200BF01DF9E0B2FE
:1055D0000BF01AF9002505E0FF200BF015F97055C6
:1055E000681C85B2BD42F7DB012002490860BDE8B6
:1055F000F0810000B882404210B5002400200E491E
:10560000086090200BF000F900200BF0FDF800205E
:105610000BF0FAF800200BF0F7F8FF200BF0F4F88D
:1056200044EA0024FF200BF0EFF804430120034973
:10563000C1F8B802204610BDB88240420080404206
:1056400010B5002400200749086005200BF0DCF8A5
:10565000FF200BF0D9F8044601200349C1F8B80235
:10566000204610BDB88240420080404210B500BFC5
:10567000FFF7E6FF00F001000028F9D110BD00009F
:105680002DE9F05F81460F461646DFF8A8B04FEAD5
:105690001738C7F30B0ACAF58054A64200DC34461B
:1056A00044E04FEA08314FF480525846FFF77CFF40
:1056B000002508E00AEB05001BF80000FF2800D0D9
:1056C00003E0681C85B2A542F4DB00BFA54216DAF0
:1056D0004046FFF7F3FE002507E019F8050005EB4B
:1056E0000A010BF80100681C85B2A542F5DB4FEA00
:1056F00008314FF48052584600F02EF804E022465C
:105700003946484600F028F8A64200D10FE008F1DB
:1057100001084FF0000AA1442744301B86B2B6F5B9
:10572000805F02DD4FF4805400E03446B9E700BFEB
:10573000BDE8F09FA006002010B5002004490860D5
:1057400006200BF061F801200249C1F8B80210BD33
:10575000B8824042008040422DE9F04107460E46A3
:105760001446F0B2C0F58075AC4200DC254612E06C
:105770002A463146384600F013F8AC4200D10BE01F
:105780002F442E44601B84B2B4F5807F02DD4FF4B9
:10579000807500E02546EBE700BFBDE8F081000022
:1057A0002DE9F04106460C461746FFF7C5FF0020DD
:1057B0000F49086002200BF027F8C4F307400BF0F4
:1057C00023F8C4F307200BF01FF8E0B20BF01CF82D
:1057D000002504E0705D0BF017F8681C85B2BD422F
:1057E000F8DB012002490860FFF740FFBDE8F081C7
:1057F000B882404208B53D208DF8000000208DF8A9
:1058000001008DF8020001208DF80300684605F0C4
:1058100095FC08BD014948617047000000900240B6
:1058200029B1064AD2690243044BDA6104E0034A13
:10583000D2698243014BDA61704700000090024058
:1058400030B10749896941F00201054A916105E0DB
:105850000349896921F00201014A91617047000002
:105860000090024070B50C4613460021124D28608E
:1058700000BF18E000EB41124FF00045156044F204
:10588000F4555560C1EBC11505EB450504EB8505E5
:1058900095605D1E8D4204D900EB41152035D56021
:1058A00000E0D060491C9942E4D3044DE860044D07
:1058B000044E356070BD00003400002000900240AE
:1058C000CC0500203800002030B10749896941F437
:1058D0000051054A916105E00349896921F40051AD
:1058E000014A9161704700000090024030B50C46BB
:1058F000134600210F4D286000BF15E000EB411258
:105900004FF480151560C1EBC11505EB450504EB9F
:10591000850595605D1E8D4204D900EB411520354B
:10592000D56000E0D060491C9942E7D3024D286160
:1059300030BD0000300000200090024002680A43A1
:105940000260704710B50121480607F005F80021F4
:105950004FF0007007F000F810BD01B581B00020D5
:1059600000900198009002E00098401E009000987E
:105970000028F9D10CBD000008B5002000900848AF
:10598000806940F48010064988610846806900906B
:105990004FF6FF70FFF7E1FF01490098886108BDED
:1059A0000090024001480068806870473000002085
:1059B00001460868C0F30D40704700B50246002359
:1059C000106800F0004058B9106800F4004038B981
:1059D000106800F4807018B11046FFF7E9FF034625
:1059E000184600BD00200449096801F0010109B111
:1059F000012000E0002070470090024010B501E057
:105A000033F0F0FC06480068FFF7D7FF0028F7D115
:105A10004020FFF7FFFE4FF48030FFF7FBFE10BD84
:105A2000340000202DE9F04188B004460F464FF0C5
:105A30000008002500200790B94E02900120019037
:105A4000B848056925F01C0503A806F0F5FF049E7B
:105A5000B548864205D3B548864202D245F00805CE
:105A60001AE0B248864205D3AD48864202D245F0DC
:105A70000C0511E0AA48864203D3AD48864200D205
:105A80000AE0AB48864205D3AA48864202D245F0D6
:105A9000040501E045F01005A24805614FF40042FD
:105AA0000021384600F072FB10B9002001906AE036
:105AB000A148FFF752FF2068002850D000BF02988D
:105AC000401C02900121384600F034FA00F0040036
:105AD00018B99A4902988842F1D3984902988842A5
