:020000040800F2
:10000000D8BA01209D0100086D4A0008A5300008FB
:10001000694A0008DD0B00084BA200080000000040
:1000200000000000000000000000000075700008E3
:100030009D20000800000000194B0008057400080E
:10004000B7010008B7010008B7010008F152000825
:10005000B7010008B7010008B7010008B7010008A0
:10006000B7010008B7010008B7010008B701000890
:10007000B7010008B7010008B7010008411D0008DA
:10008000B7010008B7010008B7010008B701000870
:10009000B7010008B7010008B7010008E927000808
:1000A000B7010008B7010008B7010008B701000850
:1000B000A5780008ED790008197A0008B701000852
:1000C000B7010008B7010008B7010008B701000830
:1000D000B7010008958C0008D18D0008B701000811
:1000E000B7010008594D0008B7010008B701000822
:1000F000B7010008B7010008B7010008B701000800
:10010000B701000845560008B7010008B70100080C
:10011000B7010008B7010008697B0008B7010008B3
:10012000B70100086D1D0008B7010008B7010008FD
:10013000B701000825270008B7010008B70100082B
:10014000B7010008B7010008B7010008FD4A000820
:10015000B7010008B7010008B7010008B70100089F
:10016000B7010008B7010008B7010008B70100088F
:10017000B7010008B7010008051D0008B701000815
:10018000B7010008B7010008DFF80CD000F0A0FBB1
:10019000004800475DE40008D8BA012006488047BF
:1001A00006480047FEE7FEE7FEE7FEE7FEE7FEE75C
:1001B000FEE7FEE7FEE7FEE7457400088901000858
:1001C0002DE9F05F0546002092469B46884606468C
:1001D000814640241BE0284641464746224600F01F
:1001E0008EFA53465A46C01A914110D3114618460A
:1001F000224600F075FA2D1A67EB01084F46224699
:100200000120002100F06CFA17EB00094E41201E7E
:10021000A4F10104DFDC484631462A464346BDE8E6
:10022000F09F2DE9F0410024061B254671F10006E0
:1002300005DA01240027D0EB070067EB0101161E49
:1002400073F1000605DA0027D2EB0702012567EB00
:100250000303FFF7B5FF86460E4617469C46AC42A1
:1002600004D00025D0EB050E65EB010624B100207B
:10027000D2EB000760EB030C704631463A4663460A
:10028000BDE8F08140EA01039B0703D009E008C9FB
:10029000121F08C0042AFAD203E011F8013B00F84B
:1002A000013B521EF9D27047421E12F8013F002B4B
:1002B000FBD111F8013B02F8013B002BF9D170474B
:1002C000034611F8012B00F8012B002AF9D118463A
:1002D00070472DE9FE4F804681EA0300C00F0C46AF
:1002E000009021F0004123F00045B8EB0200A94145
:1002F00005D24046214690461C460B46024623F056
:100300000040104347D0270DC7F30A00C3F30A513A
:100310000290401A019040286BDAC3F3130040F4B6
:10032000801B0098924620B10023D2EB030A63EBB6
:100330000B0B01985946C0F14002504600F0D0F92D
:1003400006460D4650465946019A00F0E8F910EB72
:1003500008006141002487EA115284EAE7731A43D6
:1003600040D0009A62B3019A012A4FEA075215DC85
:10037000001B61EB02014FF0004202EA0752CDE997
:100380000042001C41F5801132462B4600F0E8F98E
:1003900003B0BDE8F08F40462146F9E7001B61EB52
:1003A0000201001C41F5801300185B412018A2F5E2
:1003B000001747EB030140EAD570B6196D4111E013
:1003C0006D084FEA360645EAC0754FEA0752001B32
:1003D00061EB0201001C41F5801149084FEA300031
:1003E0000019514132462B4603B0BDE8F04F00F0F2
:1003F000A8B90098012240000023D0EB020263EB71
:10040000E073009821464FEAE074B8EB000061EB1E
:100410000401E9E783F000435BE781F0004158E71E
:100420002DE9FE4F81EA030404F0004421F000416D
:1004300000944FF0000B23F0004350EA01045ED01B
:1004400052EA03045BD0C3F30A54C1F30A552C44A7
:10045000A4F2F3340194A0FB0254C1F3130141F45C
:100460008011C3F3130343F4801301FB024400FB28
:10047000034E840A970A44EA815447EA8357A4FB4F
:10048000076802958D0A05FB07854FEA932C04FB4C
:100490000C542705029D4FEA065847EA1637B5EB7C
:1004A00008056EEB070C870E920E47EA811742EAA9
:1004B0008312A7FB0201B6EB0B0164EB00042B0DCA
:1004C00043EA0C335E1844EB1C50DA465146E7FB16
:1004D0000201C5F313044FEA0B3343EA14534FEA06
:1004E0000432019C43EA0603A4F10C040294009C2C
:1004F000CDE900B400F034F903B0BDE8F08F00207E
:100500000146F9E72DE9F04D81EA030404F0004BC0
:1005100021F0004514464FF0000A23F0004150EA54
:10052000050220D054EA01021DD0C5F30A57024645
:10053000C5F31303C1F31300C1F30A5640F4801549
:1005400043F48013A7EB0608101BD64608F2FD38CB
:1005500073EB050002D308F1010801E092185B413A
:10056000B8F1000F03DA00200146BDE8F08D00204D
:100570004FF48011064684460EE0171B73EB050707
:1005800005D3121B63EB050306434CEA010C490833
:100590004FEA300092185B4150EA0107EDD152EA70
:1005A000030012D082EA040083EA0501084305D063
:1005B000101BAB4106D20122002306E000224FF0BF
:1005C000004302E06FF0010253101AEB06004CEBFF
:1005D000085110EB0A0041EB0B01BDE8F04D00F0B3
:1005E000B0B80EB540F2334102910021CDE90011BF
:1005F0000A460B4600F0B4F803B000BDC1F30A523E
:1006000010B5C1F3130140F2FF3341F480119A4257
:1006100001DA002010BD40F233439A42A2F2334285
:1006200003DC524200F06BF810BD904010BD00F0AA
:10063000004230F000400AD0C10D01F56071C0F3F6
:10064000160042EA0151C2084007114370470020DA
:100650000146704730B5041E71F1000404DB4FF011
:100660000044404264EB0101141E73F1000405DBF9
:100670001C464FF00043524263EB04038B4208BF19
:10068000824230BD30B5041E71F1000404DB4FF02E
:100690000044404264EB0101141E73F1000405DBC9
:1006A0001C464FF00043524263EB0403994208BFDB
:1006B000904230BD30B50B46014600202022012477
:1006C00009E021FA02F59D4205D303FA02F5491B20
:1006D00004FA02F52844151EA2F10102F1DC30BD36
:1006E000202A04DB203A00FA02F1002070479140F2
:1006F000C2F1200320FA03F3194390407047202AE7
:1007000004DB203A21FA02F00021704721FA02F3BB
:10071000D040C2F120029140084319467047202A78
:1007200006DBCB17203A41FA02F043EAE07306E019
:1007300041FA02F3D040C2F1200291400843194629
:10074000704710B5141E73F1000408DA401C41F123
:10075000000192185B411A4301D120F0010010BD45
:100760002DE9F04D92469B4611B1B1FA81F202E0BB
:10077000B0FA80F220329046FFF7B2FF04460F46EF
:1007800040EA0A0041EA0B0153465A46084313D097
:10079000114653EA010019D0C8F140025046FFF754
:1007A000AEFF05460E46504659464246FFF798FFB3
:1007B000084305D0012004E020463946BDE8F08D0D
:1007C0000020054346EAE0762C4337430A98630548
:1007D000E40AA0EB08000022FD0A44EA47540A306C
:1007E00002D500200146E9E7010510196941DDE95C
:1007F000084500196941BDE8F04DA2E72DE9F04D2B
:1008000000231A461B1A8A4103DB00200146BDE87B
:10081000F08DC1F30A52C1F3130141F480154FF07A
:10082000000BD10702D100186D41521E002704466B
:1008300040F2FF11384601EB620A3E46804602460E
:1008400000204FF48011FFF75AFFC2197141BB1805
:1008500046EB0100B4EB030C75EB000C04D3E41A77
:1008600065EB000517460E46241908F101006D419D
:1008700080463428E3DDF91946EB0600091BA84140
:1008800003D24FF0FF32134601E0002213461BEB68
:10089000070046EB0A51BDE8F04DFFF752BFC1F328
:1008A0000A52C1F3130140F2FF3341F480119A421E
:1008B00002DA00200146704740F233439A42A2F226
:1008C000334202DC5242FFF71ABFFFF709BF0000B4
:1008D000064C074D06E0E06840F0010394E807008D
:1008E00098471034AC42F6D3FFF752FC3873030834
:1008F0005873030870B58C1810F8015B15F00703E6
:1009000001D110F8013B2A1106D110F8012B03E0A8
:1009100010F8016B01F8016B5B1EF9D12B0705D4B0
:100920000023521E0DD401F8013BFAE710F8013BF9
:10093000CB1A921C03E013F8015B01F8015B521E15
:10094000F9D5A142D8D3002070BD21B1826842F010
:100950000102826003E0826822F001028260704737
:100960000021084A1168084A1140D0E900231A43BF
:1009700083681A43C3681A431143044AC2F8041334
:100980007047000004230140E030FCFF00200140DC
:1009900030B50246002000235068104C20400D79ED
:1009A0000C6844EA05242043506090680C4C2040B9
:1009B000D1E903542C438D682C434D7944EA450416
:1009C00020439060D06A20F470000C7D641EE4B275
:1009D000234340EA0350D06230BD0000FFFEFFFC1D
:1009E000FDF7FFC038B10849096841F40001074A22
:1009F000C2F8041306E00449096821F40001034A1F
:100A0000C2F8041370470000042301400020014095
:100A100000B58BB00121080204F0B0F80120FFF707
:100A2000E1FF002007900A9009904FF48030089071
:100A300007A8FFF795FF002001908DF808008DF8BA
:100A400009000390059001208DF8180001A90448C1
:100A5000FFF79EFF01210248FFF777FF0BB000BDB3
:100A60000020014010B5FF2000F02DF80446362C80
:100A700001D1002010BD3621FF2000F065F8FF20D5
:100A800000F021F80446362C01D10020F2E70120C5
:100A9000F0E710B503F096F910BD2DE9F0410746D7
:100AA0000C460026002509E036023919491B491E6B
:100AB00088B200F008F80644681CC5B2A542F3DB12
:100AC0003046BDE8F08170B50446002603F01AFAFE
:100AD0002546E11704EB11610912A02202EB410146
:100AE000C8B203F0DDF903F045FAE11704EB116138
:100AF0000912A4EB0121C8B203F0D2F903F03AFACB
:100B000003F000FAA12003F0CBF903F033FA002040
:100B100003F09AF9064603F011FA304670BD2DE94C
:100B2000F04105460E461746002409E0E20026FA89
:100B300002F2D1B22A1990B200F006F8601CC4B2D9
:100B4000BC42F3DBBDE8F08170B504460E4603F00D
:100B5000D9F92546E11704EB11610912A02202EB35
:100B60004101C8B203F09CF903F004FAE11704EB69
:100B700011610912A4EB0121C8B203F091F903F04D
:100B8000F9F9304603F08CF903F0F4F903F0D6F9E3
:100B90000A200AF0A3FD70BD1CB50121202003F03E
:100BA000EDFF01208DF804000002009003208DF875
:100BB000050000208DF8060001208DF80700694629
:100BC000044802F0DFF94FF48071034802F04EFA56
:100BD0001CBD0000001402400004024000BFFEE7FC
:100BE00008B50020072305220421009000F002F838
:100BF00008BD00002DE9F0418AB004460D461646B6
:100C00001F46DDF840800121084603F087FF0121DF
:100C1000480603F0A3FF09220B212B4802F0FAF942
:100C200009220C21284802F0F5F94FF4C050089031
:100C300002208DF8240000208DF8260003208DF876
:100C4000250001208DF8270008A91F4802F09AF915
:100C500000208DF81A0001208DF81B0000208DF86F
:100C60001C0001208DF81D0000208DF81E008DF85D
:100C70001F008DF816808DF817408DF818608DF8DC
:100C80001950ADF8147005A9104800F003F90020C0
:100C90008DF80E008DF80F0001208DF81000002057
:100CA000ADF80400ADF80600ADF80800ADF80A0094
:100CB000ADF80C0001208DF8110001A800F066F8D5
:100CC0000AB0BDE8F081000000000240006400406E
:100CD00070B586B005460E4600210E4800F064F956
:100CE00010B9002006B070BD01AA0021094800F02B
:100CF0006AF901982860002404E00DF10F00005DFE
:100D00003055641C9DF80E00A042F6D89DF80E00E8
:100D1000E8E70000006400402DE9F04186B0074696
:100D20008846154600240197002002908DF80C009B
:100D30008DF80D008DF80E5000BF06E018F8041075
:100D40000DF10F000155601C84B2AC42F6DB01A925
:100D50000D4800F0B0F90646002401E0601C84B2A2
:100D60003146094800F03AFA18B940F6FF7084425B
:100D7000F4DB40F6FF70844203DB012006B0BDE8DF
:100D8000F0810020FAE700000064004010B5002167
:100D9000837A012202FA03F13D4A126842F001020D
:100DA0003B4B1A603A4A1C3212688A43384B1C3358
:100DB0001A60027BCAB9364A0C3212688A43344B35
:100DC0000C331A604288C38842EA0343304A4032F7
:100DD000847A42F834300288838842EA03432C4AFA
:100DE0004032847A02EBC4025360027B012A19D19B
:100DF000274A0C3212680A43254B0C331A6042888A
:100E0000038842EA0343224A4032847A42F834306B
:100E1000C288838842EA03431D4A4032847A02EB47
:100E2000C4025360C27A3AB9194A121D12688A4341
:100E3000174B1B1D1A6006E0154A121D12680A4363
:100E4000134B1B1D1A60028932B9114A1432126801
:100E50008A430F4B14331A600289012A06D10C4AC7
:100E6000143212680A430A4B14331A60427B012A77
:100E700006D1074A1C3212680A43054B1C331A601C
:100E8000034A126822F00102014B1A6010BD0000F3
:100E90000066004030B5024600200023146824F0AC
:100EA00002041460146844F00104146000E05B1C48
:100EB000546804F001041CB94FF6FF74A342F6D144
:100EC000546804F001040CB900206CE08C79012C0A
:100ED00004D1146844F08004146003E0146824F022
:100EE00080041460CC79012C04D1146844F04004CF
:100EF000146003E0146824F0400414600C7A012CA0
:100F000004D1146844F02004146003E0146824F051
:100F1000200414604C7A012C04D1146844F01004AD
:100F2000146003E0146824F0100414608C7A012C1F
:100F300004D1146844F00804146003E0146824F039
:100F400008041460CC7A012C04D1146844F0040421
:100F5000146003E0146824F0040414608C78A4077F
:100F6000CD7844EA05640D7944EA05444D7944EAB4
:100F700005540D886D1E2C43D461146824F00104BF
:100F80001460002300E05B1C546804F001041CB1F1
:100F90004FF6FF74A342F6D1546804F001040CB17B
:100FA000002000E0012030BD0246002019B9D368BE
:100FB00003F0030006E0012903D1136903F00300E5
:100FC00000E00020704710B500F5D87303EB011363
:100FD0001B6803F004031372137A53B900F5D87336
:100FE00003EB01131B6840F2FF7404EA53531360D0
:100FF00009E000F5D87303EB01131B686FF0604440
:1010000004EAD303536000F5D87303EB01131B68A4
:1010100003F00203537200F5D87303EB01135B680E
:1010200003F00F03937200F5D87303EB01135B68B1
:101030001B0AD37400F5D87303EB01139B68D372BA
:1010400000F5D87303EB01139B681C0A147300F5B9
:10105000D87303EB01139B681C0C547300F5D87311
:1010600003EB01139B681B0E937300F5D87303EB1E
:101070000113DB68D37300F5D87303EB0113DB684E
:101080001C0A147400F5D87303EB0113DB681C0C05
:10109000547400F5D87303EB0113DB681B0E9374D3
:1010A00021B9C36843F02003C36003E0036943F040
:1010B0002003036110BD10B502460020936803F0C1
:1010C0008063B3F1806F00D110E0936803F0006398
:1010D000B3F1006F01D1012008E0936803F0805361
:1010E000B3F1805F01D1022000E00420042874D015
:1010F00002F5C07303EB00131B6803F0010402F553
:10110000C07303EB00131C600B7A7BB94B7A0C881D
:1011100043EA445302F5C07404EB001424682343EB
:1011200002F5C07404EB0014236010E00B7A4C68E5
:1011300043EAC4034C7A234302F5C07404EB001461
:101140002468234302F5C07404EB001423608B7AF7
:1011500003F00F038B7202F5C07303EB00135B689F
:1011600023F00F0402F5C07303EB00135C6002F57B
:10117000C07303EB00135B688C7A234302F5C074E1
:1011800004EB001463608B7B1C064B7B44EA034436
:101190000B7B44EA0323CC7A234302F5C07404EBAF
:1011A0000014A3608B7C1C064B7C44EA03440B7C3C
:1011B00044EA0323CC7B234302F5C07404EB001400
:1011C000E36002F5C07303EB00131B6843F00104F6
:1011D00002F5C07303EB00131C6010BD10B502468E
:1011E000002321B1012907D002290FD109E090681D
:1011F0001D4C00EA04030BE090681C4C00EA040359
:1012000006E090681A4C00EA040301E0002300BFE6
:1012100000BF184C181BA34216D007DC83B16FF037
:101220008060184470B1022818D111E0B0F5007F39
:1012300010D0114C204448B1B0F5003F0ED10BE066
:1012400002230DE000230BE0002309E0002307E068
:10125000012305E0012303E0012301E0002300BF97
:1012600000BFD8B210BD0000030000040003000856
:1012700000000310000100080001FFF770B5002511
:101280004FF4803404E0802004F0C8F900B103E09A
:10129000201EA4F10104F6D100BF0CB9032070BDDB
:1012A00040F2FF5004F090F92846F8E770B5044684
:1012B00005E01648056805F0450000B100E0F8E7D4
:1012C00000BF042004F0AAF920B1042004F07CF946
:1012D000032070BD012004F0A1F920B1012004F029
:1012E00073F90120F5E7094824380068A04201D0CD
:1012F0001020EEE740F2FF5004F066F90348203872
:10130000006808210840C0B2E3E70000342C014027
:1013100070B500264FF4803505E01148046804F0EC
:10132000450000B103E0281EA5F10105F5D100BF7D
:1013300015B104F0040028B10326042004F044F998
:10134000304670BD012004F069F918B10126012072
:1013500004F03AF940F2FF5004F036F93046F0E775
:10136000342C014010B505E00B48046804F045003A
:1013700000B100E0F8E700BF042004F04FF920B10D
:10138000042004F021F9032010BD40F2FF5004F0C6
:101390001BF90020F8E70000342C01402DE9F04152
:1013A00005460E464FF0000805E02048076807F0A4
:1013B000450000B100E0F8E700BF042004F02EF97A
:1013C00028B1042004F000F90320BDE8F0810120D9
:1013D00004F024F920B1012004F0F6F80120F4E72C
:1013E000124824380068A84201D01020EDE740F2EE
:1013F000FF5004F0E9F80D482038046804F4604018
:1014000018B9200C30804046DFE704F4005008B1E2
:101410001320DAE704F4804008B11020D5E704F483
:10142000004008B10F20D0E74046CEE7342C014001
:1014300070B500264FF4803505E00F48046804F0CD
:10144000450000B103E0281EA5F10105F5D100BF5C
:1014500015B104F0040028B10326042004F0B4F808
:10146000304670BD04F0400018B10026402004F062
:10147000ABF83046F5E70000342C014070B5064665
:101480000C4604F08000802808D104F07F0000EBB7
:10149000800106F58E7000EBC10505E004EB8401C8
:1014A00006F55D7000EBC1050020A87004F07F0018
:1014B0002870C4F3C01068702946304608F0C5FC97
:1014C000002070BD2DE9F04106460D4690461F46AE
:1014D00005F08000802808D105F07F0000EB800136
:1014E00006F58E7000EBC10407E005F07F0000EB0D
:1014F000800106F55D7000EBC10405F07F002070EF
:1015000005F08000C0096070C4F80880E77060785A
:1015100008B12078E080022F01D1002020712146FF
:10152000304608F046FC0020BDE8F0812DE9F0418E
:1015300005460E461746984606F07F0000EB8001F0
:1015400005F55D7000EBC104E760C4F8148000206D
:10155000A061607006F07F002070E878012800D15B
:101560002761207820B92146284608F046FB03E091
:101570002146284608F0C3FC0020BDE8F08108B5EC
:1015800000220092009A61F30A1200920269126826
:10159000009B1A4303691A6008BD70B506460C46E5
:1015A00004F08000802808D104F07F0000EB800167
:1015B00006F58E7000EBC10505E004EB840106F52D
:1015C0005D7000EBC1050120A87004F07F00287059
:1015D000C4F3C01068702946304608F05EFC002055
:1015E00070BD2DE9F04107460D461646984605F0B8
:1015F0007F0000EB800107F58E7000EBC104012035
:10160000607005F07F002070E66026610020A06118
:10161000C4F81480207820B92146384608F0EDFA45
:1016200003E02146384608F06AFC0020BDE8F0815E
:101630001CB50446204608F0ABFAE068C06800908C
:10164000204608F081FD03280BD10020A0704FF444
:101650000070A080009820F4705000F510500090A9
:1016600009E00120A0704020A080009820F4705074
:1016700000F5A05000900098E168C860002001903B
:10168000019820F4005000F5005001900198E168A5
:10169000486101201CBD0000F8B50546002400206B
:1016A0000090284608F083FD064690E006F0010011
:1016B00000287DD0E1B2284600F0B4FA00900098EE
:1016C00000F0010030B3012000FA04F72869406BF4
:1016D000B8432969486300200090009820F0010079
:1016E000401C009005F1180050F82400009981601A
:1016F000E1B239480068426828469047E8780128F6
:1017000008D13CB940F21110405D042802D12846AE
:1017100008F01EFB0098C0F3C00060B100200090EC
:10172000009820F008000830009005F1180050F8EB
:101730002400009981600098C0F3001060B100207F
:101740000090009820F010001030009005F1180073
:1017500050F82400009981600098C0F3801060B1B7
:1017600000200090009820F040004030009005F1EB
:10177000180050F82400009981600098C0F34000E0
:1017800060B100200090009820F00200801C0090C2
:1017900005F1180050F82400009981600098C0F30A
:1017A000C01028B12146284600F050FA002000E081
:1017B0000BE00090009820F080008030009005F150
:1017C000180050F8240000998160641C7608002EEF
:1017D0007FF46CAF0120F8BDF00100207CB5044619
:1017E000002500200190204608F0E9FC06466FE045
:1017F00006F00100002869D0E9B2204608F0E7FCB5
:101800000190019800F00100C8B3002001900198F8
:1018100020F00100401C019004F1540050F8250014
:1018200001998160E078012817D104F1540050F843
:1018300025000069009005EB850104F55D7000EB63
:10184000C10080680099C1F31201411A05EB8502BD
:1018500004F55D7000EBC2008161E9B21E480068CA
:10186000026820469047E078012808D13DB940F24F
:101870001110005D052802D1204608F069FA019890
:10188000C0F3400060B100200190019820F00200F8
:10189000801C019004F1540050F8250001998160EA
:1018A0000198C0F3C00088B10B48006881682046E9
:1018B000884700200190019820F00800083001902E
:1018C00004F1540050F82500019981606D1C7608E0
:1018D000002E8DD101207CBDF00100203EB50446D4
:1018E000A07A70B1D4F80C010090009820F00200AA
:1018F0000090009820F0010000900099D4F80C01AD
:10190000016000200190019820F00100401C01902E
:101910002069406801998843216948600848006847
:1019200081692046884700200290029820F00040FC
:1019300000F1004002900298E168486101203EBD3C
:10194000F00100207CB5044600200190019820F0B1
:10195000100010300190E068806901998843E168C7
:101960008861E068006A0090009800F00F0000EBCA
:10197000800104F55D7000EBC1050098C0F34340A1
:1019800007282DD2DFE800F02C04051D1E2C1F00B7
:1019900027E00098C0F30A1090B10098C0F30A1233
:1019A0002046E96808F01DFCE8680099C1F30A11B7
:1019B0000844E860A8690099C1F30A110844A861C5
:1019C0000FE00EE00DE0082204F2CC51204608F0B2
:1019D00008FCA8690099C1F30A110844A86100E055
:1019E00000BF00BFE068806901990843E168886131
:1019F00001207CBD38B5044608480068C16820460F
:101A0000884700200090009820F0080008300090DF
:101A10000098E1684861012038BD0000F001002015
:101A20001FB50446002000904FF48970005D0090BF
:101A300023480068416920468847206980680190F2
:101A400000200390039820F4006000F500600390EC
:101A50000398E1684861A07A70B3019800F0010032
:101A600050B340F21510005D012825D19DF800000B
:101A7000032821D100200290029820F00100401C90
:101A80000290D4F80C01006802990843D4F80C11B4
:101A90000860029820F00200801C0290D4F80C012B
:101AA000006802990843D4F80C11086005480068E2
:101AB00040F0060003490860012004B010BD00009A
:101AC000F001002010ED00E030B587B004460020A2
:101AD000029006900590049003900190029820F0E7
:101AE0000100401C029020694068029988432169E6
:101AF00048600021204608F0FDFA00250BE0FF2198
:101B000004F1180050F82500816004F1540050F8E9
:101B1000250081606D1C6078A842F0D84FF0FF313D
:101B20002069816106986FF30F00401C06900698AB
:101B300080B200F58030069006992069C161059851
:101B400020F0080008300590059820F00100401CA6
:101B50000590059820F00200801C059005992069E9
:101B60004161049820F00100401C0490049820F08A
:101B7000080008300490049820F00200801C0490B3
:101B8000049920690161206900680390039820F49A
:101B9000FE600390039920690160204608F0D8F8A0
:101BA00000200190019820F4805000F580500190B1
:101BB0000198E16848610448006801692046884747
:101BC000012007B030BD0000F001002038B5044608
:101BD0000020009007480068C169204688470098A7
:101BE00020F4801000F5801000900098E1684861B2
:101BF000012038BDF001002038B5044600200090D7
:101C000007480068016A20468847009820F40010C1
:101C100000F5001000900098E1684861012038BD8F
:101C2000F001002030B5024615692B6915696C6B0F
:101C300024FA01F505F0010543EAC51302F1180580
:101C400055F82150AD6805EA030030BD2DE9F84391
:101C500007460E4600250020009006EB860107F59A
:101C60008E7000EBC104D4E90501451AA068A842B2
:101C700000D2A568E81C4FEA900807F1180050F858
:101C80002600806900901BE0D4E90501451AA06890
:101C9000A84200D2A568E81C4FEA9008ABB2F2B2A5
:101CA0003846E16808F0B1FAE0682844E060A069CD
:101CB0002844A06107F1180050F8260080690090C0
:101CC000009880B2404506D9D4E90510884202D276
:101CD00060690028D8D10120BDE8F8830149486136
:101CE0007047000000000550014600200022044B10
:101CF0001B6903EA01020AB1012000E000207047DD
:101D00000000055010B50120FFF7EEFF012811D1AA
:101D10000CF00EFA0120FFF7E1FF0748006808B950
:101D2000012000E000200449086004480078401CBD
:101D30000249087010BD0000A482424254010020F4
:101D400010B50749074800F04BF9012806D10449AE
:101D5000044800F03BF804480068804710BD0000CC
:101D600020800020706002405001002010B507491B
:101D7000074800F013F9012806D10449044800F08F
:101D80000BF804480068804710BD000000080010F0
:101D900028640240580100200246094B9A4201D2B1
:101DA000084801E00648103801F000531BB1064B0B
:101DB0000B40C36002E0044B0B408360704700009F
:101DC00010640240006002407D0F7D0F0246094B07
:101DD0009A4201D2084801E00648103801F0005349
:101DE0001BB1064B0B40C36002E0044B0B40836009
:101DF0007047000010640240006002407D0F7D0FBC
:101E000021B1026842F00102026003E0026822F0A0
:101E10000102026070470000016821F001010160C9
:101E20000021016041608160C16001612121416147
:101E30004A49884204D13D21484A103A91608CE0D9
:101E400046491831884205D14FF47461434A103A2B
:101E5000916082E041493031884205D14FF47411DC
:101E60003E4A103A916078E03C494831884205D1B9
:101E70004FF07461394A103A91606EE03749603131
:101E8000884204D13649354A103AD16065E0334979
:101E90007831884204D13349304A103AD1605CE04D
:101EA0002E499031884204D12F492C4A103AD160F2
:101EB00053E02A49A831884205D14FF03D51274AC5
:101EC000103AD16049E02949884204D13D21274A8E
:101ED000083A116041E025491831884205D14FF494
:101EE0007461224A083A116037E020493031884253
:101EF00005D14FF474111D4A083A11602DE01B49B9
:101F00004831884205D14FF07461184A083A11608F
:101F100023E016496031884204D11149134A121F47
:101F200011601AE011497831884204D10D490F4AF5
:101F3000121F116011E00D499031884204D10A4905
:101F40000A4A121F116008E00849A831884204D1EA
:101F50004FF03D51054A121F11607047106002405A
:101F60003D000020400F002000003D201064024092
:101F700021B1026842F02002026003E0026822F010
:101F8000200202607047014600200A6802F0010248
:101F90000AB1012000E000207047000030B5034680
:101FA0000A46002000240B4DAB4201D20A4901E051
:101FB0000849103902F000550DB14C6800E00C687A
:101FC000064D2C4004EA02050DB1012000E000207E
:101FD00030BD000010640240006002407D0F7D0FA4
:101FE00070B50246002000240025124EB24201D2F4
:101FF000114B01E00F4B103B104E0E4036B11E2628
:1020000006EAD124166806EA040502E0566906F0DD
:10201000800501F000560EB15C6800E01C68084EB7
:10202000344004EA010616B10DB1012000E00020A1
:1020300070BD000010640240006002403C0F3C0F85
:102040007D0F7D0F10B500220268134B1A40CC683B
:102050000B6823434C6923438C692343CC69234396
:102060000C6A23434C6A23438C6A23434C6B2343FF
:102070008C6B23431A430260426922F00702D1E9C4
:102080000B3423431A4342610B6943604B688360FE
:102090008B68C36010BD00003F801CF070470000DB
:1020A000004870478816002000B587B00121084617
:1020B00002F034FD0121480402F050FD0722022104
:1020C000264800F0A7FF07220321244800F0A2FFC2
:1020D0000C20059002208DF818008DF819000020C2
:1020E0008DF81A0001208DF81B0005A91B4800F08F
:1020F00049FF4FF4165001900020ADF80800ADF8EC
:102100000A00ADF80C00ADF810000C20ADF80E0080
:1021100001A9134806F070FF26208DF80000012069
:102120008DF8010000208DF8020001208DF80300D9
:10213000684602F09DFC012240F22551084806F055
:1021400036FF0121064806F0EFFE00200549087021
:10215000054908700549087207B000BD000002403B
:10216000004400405C0100205D0100208816002032
:102170000448007820B1002002490870012070470F
:102180000020FCE75D01002010B51648007A18B960
:1021900015A008F02DF910BD00241CE011480930ED
:1021A000005D012804D1611C16A008F021F910E09F
:1021B0000C480930005D022804D1611C17A008F00A
:1021C00017F906E0074830F81420611C19A008F040
:1021D0000FF9601CC4B2042CE0DB1BA008F008F966
:1021E00000BFD8E7881600205B44535D2057616923
:1021F00074696E6720666F7220646174612E2E2E82
:102200000D0A00005B44535D20494625643A205482
:10221000494D454F55540D0A000000005B44535D85
:1022200020494625643A2043484B204552520D0A26
:10223000000000005B44535D20494625643A202598
:1022400064206D6D0D0A00002D2D2D0D0A0000007B
:102250001CB537480068401C3549086008460068CE
:102260006421B0FBF1F201FB120020BB00203149D8
:10227000087031490870002240F225512F4806F0BD
:1022800096FE0420009001208DF8040000208DF8B7
:10229000060002208DF8050000208DF80700694631
:1022A000274800F06FFE0421254800F0DFFE0120E2
:1022B0002449087025E02348007810B30722022142
:1022C0001F4800F0A7FE0420009002208DF80400B3
:1022D00000208DF8060002208DF8050001208DF801
:1022E00007006946164800F04DFE002015490870A9
:1022F000012240F22551114806F059FE12A008F0C3
:1023000077F80C480078002810DD0B480078401C56
:1023100009490870084600780A2807DD0548017851
:102320000FA008F065F80020024908701CBD0000ED
:10233000600100205C010020650100200044004095
:1023400000000240640100205B44535D2054524968
:10235000472070756C736520646F6E650D0A000010
:102360005B44535D2052582074696D656F75742C01
:10237000207265736574206964783D25640D0A00D8
:1023800010B500F051F900F0E9F8002005490860A7
:10239000C72004F007FE01200349C1F8B80200F08D
:1023A000DDF810BDB88240420080404210B50446BE
:1023B000214610A008F01CF8240300F035F900F0C5
:1023C000CDF800200D490860202004F0EBFDC4F397
:1023D000074004F0E7FDC4F3072004F0E3FDE0B29A
:1023E00004F0E0FD01200649C1F8B80200F0B6F89B
:1023F00010BD000066653A25780D0A00B88240429B
:10240000008040421CB50121022002F087FB01211F
:10241000402002F083FB4FF48040009001208DF8B3
:10242000040000208DF8060003208DF8050001202F
:102430008DF8070069460F4800F0A4FD8020009049
:1024400069460D4800F09EFD80210B4800F010FE0B
:1024500001200A49086004F043FD002004F0BEFD9D
:1024600000F042F8064908800846018805A007F0F8
:10247000BFFF1CBD0004024000180240B882404269
:1024800050000020454E32355158585F5459504540
:102490003D25580D0A0000002DE9F04106460C4686
:1024A000174600200F490860032004F07BFDC4F3A9
:1024B000074004F077FDC4F3072004F073FDE0B299
:1024C00004F070FD002505E0FF2004F06BFD705561
:1024D000681C85B2BD42F7DB012002490860BDE8F7
:1024E000F0810000B882404210B5002400200E495F
:1024F0000860902004F056FD002004F053FD0020F9
:1025000004F050FD002004F04DFDFF2004F04AFDD2
:1025100044EA0024FF2004F045FD04430120034960
:10252000C1F8B802204610BDB88240420080404247
:1025300010B50024002007490860052004F032FD92
:10254000FF2004F02FFD044601200349C1F8B80222
:10255000204610BDB88240420080404210B500BF06
:10256000FFF7E6FF00F001000028F9D110BD0000E0
:102570002DE9F05F81460F461646DFF8A8B04FEA16
:102580001738C7F30B0ACAF58054A64200DC34465C
:1025900044E04FEA08314FF480525846FFF77CFF81
:1025A000002508E00AEB05001BF80000FF2800D01A
:1025B00003E0681C85B2A542F4DB00BFA54216DA31
:1025C0004046FFF7F3FE002507E019F8050005EB8C
:1025D0000A010BF80100681C85B2A542F5DB4FEA41
:1025E00008314FF48052584600F02EF804E022469D
:1025F0003946484600F028F8A64200D10FE008F11D
:1026000001084FF0000AA1442744301B86B2B6F5FA
:10261000805F02DD4FF4805400E03446B9E700BF2C
:10262000BDE8F09F9003002010B500200449086029
:10263000062004F0B7FC01200249C1F8B80210BD21
:10264000B8824042008040422DE9F04107460E46E4
:102650001446F0B2C0F58075AC4200DC254612E0AD
:102660002A463146384600F013F8AC4200D10BE060
:102670002F442E44601B84B2B4F5807F02DD4FF4FA
:10268000807500E02546EBE700BFBDE8F081000063
:102690002DE9F04106460C461746FFF7C5FF00201E
:1026A0000F490860022004F07DFCC4F3074004F0E9
:1026B00079FCC4F3072004F075FCE0B204F072FC6E
:1026C000002504E0705D04F06DFC681C85B2BD421D
:1026D000F8DB012002490860FFF740FFBDE8F08108
:1026E000B8824042014948617047000000900240B2
:1026F00001460868C0F30D40704700B5024600234C
:10270000106800F0004058B9106800F4004038B973
:10271000106800F4807018B11046FFF7E9FF034617
:10272000184600BD10B501E00BF090FE06480068A9
:10273000FFF7E3FF0028F7D14020FFF7D3FF4FF466
:102740008030FFF7CFFF10BD3C0000201EB50021F8
:102750000022009201920292214A1268126802F04D
:10276000004282B1002200921E4A526902F08002A9
:1027700022B180221B4B5A6100229A609DE81C0006
:1027800080E81C001EBD164A1268126802F400425E
:10279000B2B9134A1268126802F4807282B1104A08
:1027A0001268126802F4007252B10D4A126812687F
:1027B000C2F30D42111F0A4A12689268019200E0AA
:1027C00000210091064A12680292054A1268D268F6
:1027D000034B1A609DE81C0080E81C0000BFD1E795
:1027E0003C000020009002402DE9F041002400262A
:1027F000002530E04FF480711B4800F02EFC0128CA
:1028000029D100F037FC0446FA2C00DB24E0C82C68
:1028100003DBFA2C01DA01260AE03C2C03DB5A2CFC
:1028200001DA012704E00A2C02DB322C00DA00274F
:10283000012E0ED10D48006840000C490860084682
:10284000006838440860202D03DB01200849087027
:1028500002E0681CC5B2CDE700BF4FF4807000F005
:1028600009F8BDE8F0810000000002407C00002073
:10287000800000200149086070470000143C0140BE
:10288000002123498279002A3AD00A461268036857
:102890009A430B461A600A1D126803689A430B1D7F
:1028A0001A60027911440A6803681A430A60184AD8
:1028B0000832126803689A43154B08331A601A1DD0
:1028C000126803689A43124B0C331A604279102A3B
:1028D0000ED11A1F126803681A430D4B08331A6091
:1028E0001A1D126803681A43094B0C331A600DE075
:1028F0000749427911440A6803681A430A6005E0EF
:10290000027911440A6803689A430A60704700001C
:10291000003C014010B500240EE04FF40D71002082
:102920000CF0D2F9184941F82400084650F8240068
:1029300000B903E0601CC4B2032CEEDB00BF4FF40F
:10294000147100200CF0C0F9104908604FF41471A4
:1029500000200CF0B9F90E4908604FF40071002016
:102960000CF0B2F90B490860032C0AD10748006843
:1029700038B10748006820B10846006808B1002057
:1029800010BD0120FCE7000070AA0120900100208A
:1029900094010020A001002051B18200A2F1C042A8
:1029A000126842F001038200A2F1C042136009E004
:1029B0008200A2F1C0421268034B1A408300A3F1C7
:1029C000C0431A6070470000FEFF0F0030B50021C1
:1029D000002200230468A400A4F1C0442168444CF0
:1029E0002140D0E901452C43C5682C4305692C439F
:1029F00045692C4385692C43C5692C43056A2C43E2
:102A0000456A2C43856A2C43C56A2C43056B2C43CD
:102A100021430468A400A4F1C04421608468082C08
:102A20000BD10468A400A4F1C044246844F040051C
:102A30000468A400A4F1C04425600468641CA400D8
:102A4000A4F1C044226802F04042446B2468456B04
:102A50006D6844EA0514456BAD6844EA0524456B8E
:102A6000AD8944EA0544456B2D8A44EA0554456B1B
:102A70002D7D44EA0564456BAD692C43224304680F
:102A8000641CA400A4F1C0442260C46AB4F5804F61
:102A900024D10468A400A4F1C044D4F8043103F0A4
:102AA0004043846B2468856B6D6844EA0514856B2C
:102AB000AD6844EA0524856B2D8A44EA0554856B8C
:102AC0002D7D44EA0564856BAD692C43234304687E
:102AD000A400A4F1C044C4F8043107E06FF07045CD
:102AE0000468A400A4F1C044C4F8045130BD00003F
:102AF0008000F7FF00B599B001217A2002F00EF8AE
:102B00000121084602F01AF80C220021A74800F023
:102B100081FA0C220121A54800F07CFA0C22042144
:102B2000A24800F077FA0C220521A04800F072FAC2
:102B30000C2208219D4800F06DFA0C2209219B48C7
:102B400000F068FA0C220A21984800F063FA0C227F
:102B50000B21964800F05EFA0C221146934800F0D3
:102B600059FA0C220D21914800F054FA0C220E2142
:102B70008E4800F04FFA0C220F218C4800F04AFAE0
:102B80000C2200218A4800F045FA0C2201218848D5
:102B900000F040FA0C220721854800F03BFA0C2295
:102BA0000821834800F036FA0C220921804800F001
:102BB00031FA0C220A217E4800F02CFA0C220B215B
:102BC0007B4800F027FA0C221146794800F022FADF
:102BD0000C220D21764800F01DFA0C220E217448BB
:102BE00000F018FA0C220F21714800F013FA0C22A1
:102BF0000021704800F00EFA0C2201216D4800F00F
:102C000009FA0C2202216B4800F004FA0C2203217D
:102C1000684800F0FFF90C220421664800F0FAF938
:102C20000C220521634800F0F5F90C221146614899
:102C300000F0F0F90C220D215E4800F0EBF90C22B7
:102C40000E215C4800F0E6F90C220F21594800F0F3
:102C5000E1F90C220021584800F0DCF90C22012196
:102C6000554800F0D7F90C220221534800F0D2F960
:102C70000C220321504800F0CDF90C2204214E48CB
:102C800000F0C8F90C2205214B4800F0C3F90C22D2
:102C90000A21494800F0BEF94FF400401790012086
:102CA0008DF8600000208DF8620002208DF8610030
:102CB00001208DF8630017A9404800F063F94FF632
:102CC0003370179002208DF8600000208DF86200AC
:102CD00003208DF8610001208DF8630017A93348A7
:102CE00000F050F94FF68370179002208DF86000C5
:102CF00000208DF8620003208DF8610001208DF81E
:102D0000630017A92A4800F03DF94FF23F001790E1
:102D100002208DF8600000208DF8620003208DF8FD
:102D2000610001208DF8630017A9224800F02AF9FC
:102D300040F23F40179002208DF8600000208DF88F
:102D4000620003208DF8610001208DF8630017A94F
:102D5000194800F017F90020019002901820039004
:102D60000020049005900690079004200890002011
:102D700009900A9010200B9000200C900E900D905E
:102D80000F9010904FF480501190002012901390EB
:102D9000149001A81590169008A8FFF717FE0121BE
:102DA0000420FFF7F9FD19B000BD0000000C02403F
:102DB00000100240001402400018024000040240CB
:102DC00006E04FF0D0435B5C00F8013B491C521E0B
:102DD000002AF6D1704710B506E010F8014B4FF00D
:102DE000D0435C54491C521E002AF6D110BD00008D
:102DF0002DE9FC4107460D460026002400200090E6
:102E0000019008205B4908601020486040208860DD
:102E10000020C8604FF480600861084602F04AFC58
:102E20001020FEF743FA044614B12046BDE8FC81A9
:102E30005148008800044F4908603720486040200E
:102E400088600020C8604FF480600861084602F086
:102E500031FC3720FEF72AFA04460CB12046E5E79C
:102E60004FF0FF30454908600820486030208860F6
:102E70000220C8600020086101204861084602F075
:102E8000B3FB00203B490860332048604020886045
:102E90000020C8604FF480600861084602F00AFC18
:102EA0003320FEF703FA04460CB12046BEE70CE0DF
:102EB0004FF4001002F0B2FB38B1314800684DF811
:102EC0002600761C022E00D307E02D484C380068FF
:102ED00040F22A6108400028EAD000BF082002F032
:102EE0009DFB20B1082002F06FFB04209EE702202A
:102EF00002F094FB20B1022002F066FB022095E76D
:102F0000202002F08BFB20B1202002F05DFB062088
:102F10008CE74FF4007002F081FB28B14FF4007091
:102F200002F052FB072081E740F2FF5002F04CFB19
:102F300000980006009901F47F4140EA01200099C1
:102F400001F47F0140EA1120009940EA11606860B5
:102F500001980006019901F47F4140EA012001999E
:102F600001F47F0140EA1120019940EA11602860D4
:102F700020465BE7E013002070000020F4130020DF
:102F8000802C0140F0B50A4600210023002400BF38
:102F90003DE0012505FA01F3156805EA03049C42AA
:102FA00034D105684F000326BE40B543056015794E
:102FB0004E00B5400668354305601579012D02D0F5
:102FC0001579022D16D185684F000326BE40B54302
:102FD000856055794E00B540866835438560456803
:102FE00001268E40B5434560456896798E40B6B25D
:102FF00035434560C5684F000326BE40B543C560F4
:10300000D5794E00B540C6683543C560491C1029C6
:10301000BFD3F0BDF0B5002300244D07ED0E02FA3A
:1030200005F3CE1000F1200555F826504E07F70E97
:103030000F26BE40B543CF1000F1200646F82750BA
:10304000CE1000F1200555F8265045EA0304CE10B5
:1030500000F1200545F82640F0BD02460020136926
:103060000B400BB1012000E0002070474183704706
:103070000183704710B5002408E0601CC4B214201E
:1030800008F06EFBFA2C01DB204610BD4FF4807176
:103090000348FFF7E2FF0128EFD02046F5E70000E4
:1030A0000000024000BFFEE700B58FB0A2200E90E6
:1030B00000200D900C900B90079000BFA82004F00A
:1030C000A3F94FF4A06001F00FFD4FF4E13005F0DB
:1030D00025FE01F095FB04F005FBFDF75DFD00F01A
:1030E000C3FFFFF707FDFDF7D4FCFFF78BF901F0F5
:1030F000B3FBFDF78DFC00200BF034FD02200BF03C
:1031000031FD05F095FB0CF04DF90AF0BDFFFFF71E
:1031100001FC002001F01AF84FF6FF70FE4908800C
:103120000020FE4908800C9002200D90FC48008889
:10313000B0F5887F04DC10200690BE200E9013E0CE
:10314000F7480088B0F5A07F04D110200690FA203F
:103150000E9009E0F2480088B0F5F07F04D1182005
:1031600006904FF4B9700E90EEA10698CDE90001DB
:10317000EB4840880590EA48008804900C98411C70
:1031800089B20C91069A0D9902FB001080B203904F
:1031900001460520DDE9042301F088FAE549069897
:1031A000CDE90001DE4840880590DD4800880490A4
:1031B0000C98411C89B20C91069A0D9902FB0010E3
:1031C00080B2039001460520DDE9042301F06EFA88
:1031D00007F054F80021084607F039F8002007F0FE
:1031E000CBF80020D4490860D449C1F8A802D4A182
:1031F0000698CDE90001CA4840880590C848008873
:1032000004900C98411C89B20C91069A0D9902FB0E
:10321000001080B2039001460520DDE9042301F08F
:1032200045FACEA10698CDE90001BD484088059039
:10323000BB48008804900C98411C89B20C91069AF6
:103240000D9902FB001080B2039001460520DDE9D4
:10325000042301F02BFADDE90C20069901FB0200A2
:1032600080B20A460146059005200CF03BFC60B197
:10327000069ADDE90C0102FB001080B21346BEA2E3
:103280000146059005200CF005FCC0A10698CDE98B
:103290000001A34840880590A148008804900C983C
:1032A000411C89B20C91069A0D9902FB001080B264
:1032B00003900E98401D80B2029003A90EC901F040
:1032C000F5F901200BF04EFCFFF70EF918B1FFF7EE
:1032D0000BF9FF280CD1069ADDE90C0102FB001066
:1032E00080B21346AAA20146059005200CF0D2FB3D
:1032F0004FF480400B90ABA10698CDE900018848BF
:1033000040880590864800880490DDE90C200699E5
:1033100001FB020080B2039001460520DDE9042391
:1033200001F0C4F900210698CDE90001059000EBF9
:10333000D070401000EBC000401D80B20390DDE96A
:103340000C21069800FB021080B205230490014670
:103350000B9A039801F0DDF98CA10698CDE90001E4
:103360006F48408805906E48008804900C98411C76
:1033700089B20C91069A0D9902FB001080B203905D
:103380000E98401D80B2029003A90EC901F08EF97B
:10339000012000F08BFE0A900A9801280FD1DDE988
:1033A0000C20069901FB020080B20A4601460590F6
:1033B00005200CF00DFC0A900A9800B17EE67EA173
:1033C0000698CDE900015648408805905448008889
:1033D0000490DDE90C20069901FB020080B2039005
:1033E00001460520DDE9042301F060F901F0FAFC53
:1033F00068B1DDE90C01401C069A02FB001080B2A6
:10340000134671A20146059005200CF043FB0021F4
:10341000042001F033FF6F49002001F095FD6E4953
:10342000002001F057FD59A10698CDE900013C4864
:10343000408805903A48008804900C98411C89B255
:103440000C91069A0D9902FB001080B203900E9821
:10345000401D80B2029003A90EC901F027F95FA1B7
:103460000698CDE900012E48408805902C48008838
:103470000490DDE90C20069901FB020080B2039064
:1034800001460520DDE9042301F010F957480068E2
:10349000012257A1059009F081FA544840680122A1
:1034A00054A1059009F07AFA38A10698CDE90001F7
:1034B0001B48408805901A48008804900C98411CCD
:1034C00089B20C91069A0D9902FB001080B203900C
:1034D0000E98401D80B2029003A90EC901F0E6F8D3
:1034E00045A10698CDE900010D48408805900C489B
:1034F00000880490DDE90C20069901FB020080B2EF
:10350000039001460520DDE9042301F0CFF80020F7
:103510000B9000BF0B9877E0820000208400002011
:10352000860000202D2D2D5052454348494E2D2D0B
:103530002D00000000000020A48242420080424290
:103540004350553A53544D3332463430375A47542A
:1035500036203136384D687A00000000464C415321
:10356000483A313032344B4220205352414D3A31A7
:1035700039324B42000000004558204D656D6F7296
:1035800079204572726F7221000000004F4B0000DD
:10359000457820466C617368204572726F722121F4
:1035A00000000000457820466C6173683A202020B6
:1035B00020204B42000000005254432043686563C2
:1035C0006B2E2E2E00000000525443204572726F65
:1035D000722100006400002068000020464154462B
:1035E0005320436865636B2E2E2E000070AA0120C5
:1035F000303A0000313A0000534420436172643A8B
:1036000020202020204D4200401C80B20B9008AAB0
:1036100009A9AFF2240009F0A5FF0A90C82008F01C
:103620005DF80A9818B10B980528FFF673AF0A9851
:1036300078B9FB48B0F8010040F00100F849A1F862
:1036400001000998C0F38F200B90AFF2C0000790E3
:1036500003E000200B90F3A0079000210698CDE92D
:103660000001059000EBD0704010C000401D80B2FA
:103670000390DDE90C21069800FB021080B20523BF
:10368000049001460B9A039801F043F8DDE9060126
:10369000CDE90001E54840880590E44800880490A1
:1036A0000C98411C89B20C91069A0D9902FB0010EE
:1036B00080B203900E98401D80B2029003A90EC9FB
:1036C00000F0F4FF00200B9000BF0B98401C80B26C
:1036D0000B9008AA09A9AFF2E40009F043FF0A9091
:1036E000C82007F0FBFF0A9810B10B981428ECDBF8
:1036F0000A980D2847D1CEA10698CDE90001CB4804
:1037000040880590C94800880490DDE90C2006999E
:1037100001FB020080B2039001460520DDE904238D
:1037200000F0C4FF4FF480520121AFF2381008F0CE
:103730007DFE0A900A9830BBC4A009F0CFFBAFF21F
:10374000B4110698CDE90001B84840880590B74803
:10375000008804900C98411C89B20C91069A0D992E
:1037600002FB001080B203900E98401D80B20290C0
:1037700003A90EC900F09AFF08AA09A9AFF28C109C
:1037800009F0F0FE0A900A9810BBA548B0F80100B5
:1037900040F00200A249A1F80100AFA10698CDE9CE
:1037A0000001A24840880590A04800880490DDE907
:1037B0000C20069901FB020080B20390014605200F
:1037C000DDE9042300F072FF099880B20B900DE050
:1037D000DDE90C02401C069901FB002080B20B467B
:1037E000A2A20146059005200CF054F9002106988C
:1037F000CDE90001059000EBD070401000EB4001D6
:1038000001EBC000401D80B20390DDE90C20069959
:1038100001FB020080B20523049001460B9A039835
:1038200000F077FFAFF29C210698CDE900017F48B8
:10383000408805907D48008804900C98411C89B20E
:103840000C91069A0D9902FB001080B203900E981D
:10385000401D80B2029003A90EC900F027FF88A185
:103860000698CDE900017148408805906F480088AE
:103870000490DDE90C20069901FB020080B2039060
:1038800001460520DDE9042300F010FFAFF204310A
:103890000698CDE900016548408805906348008896
:1038A00004900C98411C89B20C91069A0D9902FB68
:1038B000001080B203900E98401D80B2029003A9C0
:1038C0000EC900F0F3FE72A10698CDE90001574839
:1038D00040880590554800880490DDE90C20069941
:1038E00001FB020080B2039001460520DDE90423BC
:1038F00000F0DCFEFDF7B6F868B1DDE90C02401C13
:10390000069901FB002080B20B4665A20146059096
:1039100005200CF0BFF8AFF28C310698CDE900011C
:103920004248408805904148008804900C98411C0A
:1039300089B20C91069A0D9902FB001080B2039097
:103940000E98401D80B2029003A90EC900F0AEFE91
:1039500057A10698CDE900013448408805903348C6
:1039600000880490DDE90C20069901FB020080B27A
:10397000039001460520DDE9042300F097FE00F0E6
:10398000ADFF60B1069ADDE90C0102FB001080B2C8
:1039900013464CA20146059005200CF07BF8AFF2CF
:1039A00014410698CDE900012048408805901F4841
:1039B000008804900C98411C89B20C91069A0D99CC
:1039C00002FB001080B203900E98401D80B202905E
:1039D00003A90EC900F06AFE3EA10698CDE90001D8
:1039E000124840880590114800880490DDE90C20B9
:1039F000069901FB020080B2039001460520DDE933
:103A0000042300F053FE06F039FC40B1DDE90C015F
:103A1000401C069A02FB001080B2134662E067E089
:103A2000C0AC01204552524F5200000086000020D9
:103A3000466C617368204469736B20466F726D61D8
:103A40007474696E672E2E2E00000000313A5052B9
:103A5000454348494E000000466C61736820446944
:103A6000736B3A20202020204B420000466C61738B
:103A70006820466174204572726F72210000000058
:103A80005450414420436865636B2E2E2E00000085
:103A9000323443303220436865636B2E2E2E000093
:103AA0003234433032204572726F722100000000C0
:103AB0004D50553630353020436865636B2E2E2EC1
:103AC000000000004D505536303530204572726F81
:103AD00072210000574D3839373820436865636BD1
:103AE0002E2E2E0091A20146059005200BF0D2FF4C
:103AF000AFF268510698CDE90001904840880590E2
:103B00008E48008804900C98411C89B20C91069A4A
:103B10000D9902FB001080B203900E98401D80B2F8
:103B2000029003A90EC900F0C1FD0021084606F06D
:103B30008EFB002006F020FC81A10698CDE9000153
:103B40007E48408805907D4800880490DDE90C207F
:103B5000069901FB020080B2039001460520DDE9D1
:103B6000042300F0A3FD012000F0A0FA0A900A98B7
:103B700003280ED1DDE90C02401C069901FB002050
:103B800080B20A460146059005200CF0CFF80A9055
:103B900001E000200A900AF08DF810B90A98012877
:103BA00022D100200A90DDE90C20069901FB0200D9
:103BB00080B2AFF2C4530A460146059005200CF0CE
:103BC000E3F968B1DDE90C02401C069901FB002015
:103BD00080B20B465EA20146059005200BF05AFF0D
:103BE00000200D90FFF76ABAAFF260610698CDE948
:103BF00000015248408805905048008804900C9875
:103C0000411C89B20C91069A0D9902FB001080B2FA
:103C100003900E98401D80B2029003A90EC900F0D7
:103C200045FD4EA10698CDE9000144484088059025
:103C3000424800880490DDE90C20069901FB02004F
:103C400080B2039001460520DDE9042300F02EFD3B
:103C5000012000F02BFA0A9004F0EAFD40B90A981E
:103C600002280DD1414890F8440000F0800038B996
:103C70000A98022801D104F0C9F800200A90B1E79F
:103C8000AFF2F8610698CDE900012C484088059014
:103C90002A48008804900C98411C89B20C91069A1D
:103CA0000D9902FB001080B203900E98401D80B267
:103CB000029003A90EC900F0F9FC2DA10698CDE9E8
:103CC00000011E48408805901C4800880490DDE9EA
:103CD0000C20069901FB020080B2039001460520EA
:103CE000DDE9042300F0E2FC0120264908602649B2
:103CF000C1F8A8022349091F0860642007F0EEFC00
:103D000000202149C1F8A0024FF4FA7007F0E6FC48
:103D100042F2CF01C82003F0F5FE42F2CF014FF48A
:103D20007A7003F019FE0FB000BD0000574D38390E
:103D30003738204572726F72210000008600002023
:103D4000466F6E7420436865636B2E2E2E00000054
:103D5000466F6E74204572726F722100546F7563E6
:103D60006820436865636B2E2E2E000090000020B3
:103D700053595354454D205374617274696E672EC4
:103D80002E2E0000A48242420080424210B5002044
:103D90000A49086001F0AAFB00200949C1F8A40201
:103DA000022007F0DDFC012004490860052007F02F
:103DB000D7FC00200249C1F8A00210BDA0824042F9
:103DC000008040421CB50121022000F0A7FE4FF404
:103DD0004070009001208DF8040000208DF806004E
:103DE00003208DF8050001208DF80700694605487D
:103DF000FFF7C8F80120044908600449C1F8A4028B
:103E00001CBD000000040240A082404200804042ED
:103E100010B500200A49086001F068FB012009493B
:103E2000C1F8A402022007F09BFC012004490860AD
:103E3000052007F095FC00200249C1F8A00210BD42
:103E4000A08240420080404270B50546002401F047
:103E50003BFB002616E000200F490860022007F017
:103E60007FFC01200D49C1F8A0026006040E0A483B
:103E70007C38006808B1601CC4B2012007F070FCF7
:103E8000701CC6B2082EE6DB15B9FFF7C1FF01E0D2
:103E9000FFF77CFF204670BDA08240420080404278
:103EA00070B5044601F022FB00201449086000258B
:103EB00020E004F08000002804DD01200F49091DE6
:103EC000086003E000200D49091D08606006040E2B
:103ED000022007F045FC012008490860022007F095
:103EE0003FFC00200649C1F8A002022007F038FC80
:103EF000681CC5B2082DDCDB70BD0000A08240420A
:103F00000080404210B501F0F1FA01200949086033
:103F10000949C1F8A002052007F022FC002005494C
:103F20000860062007F01CFC00200349C1F8A0022D
:103F300010BD0000A48240420080404210B501F054
:103F4000D5FA0020094908600949C1F8A4020120F6
:103F500006490860062007F003FC01200449C1F867
:103F6000A402062007F0FCFB10BD0000A082404226
:103F70000080404210B5002401F0A6FA01200E494D
:103F8000086007F0EDFB01200C49C1F8A00207F022
:103F9000E7FB07E0601CC4B2FA2C03DDFFF7CEFF9D
:103FA000012010BD0448803800680028F2D1024981
:103FB000091F086000BFF4E7A4824042008040422D
:103FC00072B6704762B670471CB504460020019077
:103FD0000090224800880004214908600D204860B4
:103FE000402088600020C8604FF480600861084667
:103FF00001F060FB1B480068009002E0194800686F
:104000000090009800F045000028F7D0012001F052
:1040100005FB20B1012001F0D7FA01201CBD0420CE
:1040200001F0FCFA20B1042001F0CEFA0320F5E7FC
:104030000C48243800680D2801D01020EEE740F22B
:10404000FF5001F0C1FA074820380068019001983C
:10405000C0F3432020700020E0E700007000002043
:10406000E0130020342C01401CB50121112000F088
:1040700055FD00208DF804001C20009001208DF8D3
:10408000070069460748FEF77DFF00208DF8040011
:104090000120009002208DF8070069460248FEF7D3
:1040A00071FF1CBD001002400000024010B5044624
:1040B000012C01D1224908702148007801282AD119
:1040C0002048006801280AD01F48006838B11E48FF
:1040D000001F006818B11C4808380068D8B90A20C9
:1040E00007F0FCFA002016490870164800680128FD
:1040F00000D110BD1448006808B90220F9E7124841
:10410000001F006808B90320F3E70F48083800686B
:10411000A0B90420EDE70B48006878B90A480068A8
:1041200001280BD10848001F0068012806D1064865
:1041300008380068012801D1014908700020D8E73B
:104140004E000020000240421002424270B5064676
:104150000F484088401E83B20D480088401E82B23E
:104160000021084600F09EF900240CE0002504E040
:10417000304600F039FB681C85B205484088A842EB
:10418000F6DC601C84B202480088A042EEDC70BD00
:10419000860000202DE9F84F06460F4690469946C6
:1041A000DDF828B0A8EB0600401C1FFA80FAA9EB46
:1041B0000700401C80B20090002415E000250FE0AD
:1041C0003A1991B2721990B24B46424600F06AF920
:1041D00004FB0A513BF8110000F006FB681C85B295
:1041E0005545EDDB601C84B200988442E6DBBDE8F7
:1041F000F88F000000B502460F4882716AB9362078
:1042000000F0E6FA4C2000F0E9FA4FF4F0700A49A9
:1042100048804FF4A07008800CE0362000F0D8FAF7
:104220002C2000F0DBFA4FF4A070034948804FF4D3
:10423000F070088000BD00008600002070B50446C4
:104240000D4616462B4622462946204600F02AF9FE
:10425000304600F0C9FA70BD2DE9FF4F84B08146A9
:104260008A460020039002900698A0EB0905079863
:10427000A0EB0A06CDF80490CDF800A0002D01DDDA
:10428000012705E00DB9002702E04FF0FF376D422E
:10429000002E02DD4FF0010806E016B94FF00008CD
:1042A00002E04FF0FF387642B54201DD2C4600E0D7
:1042B00034464FF0000B21E0009A91B2019A90B27F
:1042C00000F022F8039828440390029830440290AA
:1042D0000398A04205DD0398001B03900198384421
:1042E00001900298A04205DD0298001B0290009800
:1042F000404400900BF101001FFA80FB601C8345D5
:10430000DADD08B0BDE8F08F30B504460D462B4627
:1043100022462946204600F0C5F80248008800F0F1
:1043200063FA30BD820000202DE9F04306460F46B7
:104330009046002445460320A0EB48093CE07A1B48
:1043400091B2321990B2FFF7DFFF3A1B91B27219A6
:1043500090B2FFF7D9FF3A1991B2721990B2FFF7F4
:10436000D3FF7A1991B2321990B2FFF7CDFF7A19C3
:1043700091B2321B90B2FFF7C7FF3A1991B2721B8C
:1043800090B2FFF7C1FF7A1B91B2321B90B2FFF7D8
:10439000BBFF3A1B91B2721B90B2FFF7B5FF641CD2
:1043A000B9F1000F03DAA000801D814404E0601B16
:1043B00080000A3081446D1EAC42C0DDBDE8F08350
:1043C0002DE9F04304460D4616461F46DDF81C80D5
:1043D000B44201DCBD4201DDBDE8F0833B4632461C
:1043E0002946204600F05EF8301B401C84B2781B42
:1043F000401C85B20BE0A94602E0404600F0F4F90B
:10440000B9F10000A9F101011FFA81F9F5D1201ECF
:10441000A4F101018CB2EED100BFDDE710B5024678
:10442000012000E050430B1EA1F10104E1B2F9D1DB
:1044300010BD000001480088704700008000006C3B
:104440002DE9F04104460D4600260027B0461348EA
:104450000088A04203DD11484088A84202DC002009
:10446000BDE8F0812B4622462946204600F01AF886
:104470002E2000F0ADF90A4806884FF0D840B0F879
:104480008060074807884FF0D840B0F880803846F1
:1044900066F31F2086B23046E2E700008600002067
:1044A0008000006C30B504460D462A2000F090F9DB
:1044B000201200F093F9E0B200F090F9101200F031
:1044C0008DF9D0B200F08AF92B2000F081F9281282
:1044D00000F084F9E8B200F081F9181200F07EF9DA
:1044E000D8B200F07BF92C2000F072F930BD00004A
:1044F0002DE9F84F80460E4617461C46B346204627
:10450000E31704EB5373DB1021464FEAE47C04EB22
:104510005C7C4FEAEC0CA4EBCC0CBCF1000F02D09D
:104520004FF0010C01E04FF0000C6344224604EB15
:10453000D27C4FEA6C0C03FB0CF3DBB20093A7F1C7
:104540002000C7B2002556E00C2C07D107EB47002E
:104550002B4901EB800010F8059013E0102C05D1D9
:10456000284800EB071010F805900BE0182C07D135
:1045700007EBC700244901EB800010F8059001E02B
:10458000BDE8F88F4FF0000A2FE009F0800030B14D
:104590001E48028831464046FFF750FE07E00A9861
:1045A00028B91B48028831464046FFF747FE4FEACC
:1045B00049604FEA1069701C86B216484088B042C4
:1045C00000DCDDE7A6EB0B00A0420AD15E4608F155
:1045D00001001FFA80F80F480088404500DCCFE753
:1045E00006E00AF1010000F0FF0ABAF1080FCCDB87
:1045F00000BF681CC5B200988542A5DB00BFBFE7BD
:10460000A001010814060108040C01088200002022
:1046100084000020860000202DE9FF4F81B007466E
:1046200091461E460E9D4FF0000A002439E0301BD3
:10463000401EC1B20A20FFF7F1FEB9FBF0F00A21DB
:10464000B0FBF1F201FB1208BAF1000F16D1701E97
:10465000A04213DDB8F1000F0ED10020AB4605EBF0
:10466000DB71491001FB0471009088B22B462022B7
:104670000299FFF73DFF12E04FF0010A0020AB4620
:1046800005EBDB71491001FB0471009088B208F161
:104690003001CAB22B460299FFF72AFF00BF601C07
:1046A000C4B2B442C3DB05B0BDE8F08F2DE9F847D2
:1046B00004460D4690469946DDE9096704F0FF0A75
:1046C00008EB04001FFA80F809EB05001FFA80F9D7
:1046D00016E0444502DB5446A81985B24D4500DB7F
:1046E00014E0002000903A78334629462046FFF730
:1046F000FFFE304606EBD07104EB61018CB27F1CEB
:1047000038787E2802DC38782028E2DA00BFBDE85D
:10471000F8872DE9FF4F82B0064692461F46DDE935
:104720000F480020019000254DE0781B401EC1B2CB
:104730000A20FFF773FEBAFBF0F00A21B0FBF1F29A
:1047400001FB1209019850BB781EA84227DDB9F180
:10475000000F22D108F0800078B108F00100A346D4
:1047600004EBDB71491001FB0561009088B2234620
:1047700030220399FFF7BCFE0EE008F00100A346CB
:1047800004EBDB71491001FB0561009088B2234600
:1047900020220399FFF7ACFE13E00120019008F0FE
:1047A0000100A34604EBDB71491001FB0561009099
:1047B00088B209F13001CAB223460399FFF798FE87
:1047C00000BF681CC5B2BD42AFDB06B0BDE8F08FCC
:1047D00001490880704700007E00006C0149088094
:1047E000704700008000006C0112044A1180C1B2C1
:1047F0004FF0D842A2F88010704700008000006C93
:104800001CB50121202000F089F901208DF8040059
:104810004002009003208DF8050000208DF806006E
:1048200001208DF8070069460A48FEF7ABFB4FF4FC
:1048300000710848FEF71CFC4FF480600090694648
:104840000448FEF79FFB4FF480610248FEF710FC1E
:104850001CBD00000014024000B58DB001212020D5
:1048600000F05CF90121880200F088F9012188023A
:1048700000F094F900214FF4806000F08FF980205F
:104880000B9003208DF8300000208DF833000BA929
:104890001048FEF777FB002007900A9009904FF42C
:1048A0008030089007A8FCF75BF8002001908DF895
:1048B00008008DF809000390059001208DF818007C
:1048C00001A90548FCF764F801210348FCF73DF80D
:1048D0000DB000BD001402400022014010B5FFF7EA
:1048E00071FA80216B2000F09DF8642006F0F6FE3E
:1048F00000216B2000F096F8032000F051F8002012
:1049000000F046F8322000F070F80021382000F066
:1049100089F800216A2000F085F80021232000F0AA
:1049200081F88021372000F07DF8752000F013F821
:104930000446682C0BD101216B2000F073F8002194
:104940006C2000F06FF8322000F04FF801E00120F9
:1049500010BD0020FCE770B50446FFF7D3FAD02065
:10496000FFF79EFAFFF706FB2046FFF799FAFFF7DD
:1049700001FBFFF7C7FAD120FFF792FAFFF7FAFA27
:104980000020FFF761FA0546FFF7D8FA284670BD08
:1049900010B50446E006010E1C2000F043F810BDDF
:1049A00010B50446E006010E1B2000F03BF810BDD8
:1049B00070B504460025BC2C01DB012510E0622CFB
:1049C00001DB02250CE02A2C01DB032508E0142C76
:1049D00001DB042504E00A2C01DB052500E00625A7
:1049E00029461A2000F01EF870BD70B50446B4F5D3
:1049F0007A7F01DD4FF47A74042C00DA04244FF43A
:104A00007A7090FBF4F0401EC5B22946192000F0E0
:104A100009F80546264604EBD671C1F34F00FFF7AF
:104A2000C7FF70BD70B505460C46FFF76BFAD02086
:104A3000FFF736FAFFF79EFA18B1FFF77FFA012069
:104A400070BD2846FFF72CFAFFF794FA2046FFF7CF
:104A500027FAFFF78FFA18B1FFF770FA0120EFE796
:104A6000FFF76CFA0020EBE700BFFEE7704700009D
:104A700070B5002100230F22C4781CB3174C2468A2
:104A800004F4E064C4F5E064C4F30721C1F1040454
:104A9000E3B20A4144789C40E1B284781440214357
:104AA0000C07210E0E4C05786155047804F01F05A3
:104AB0000124AC4005786D11AD0005F1E025C5F885
:104AC000004109E0047804F01F050124AC40054DC5
:104AD0000678761145F8264070BD00000CED00E028
:104AE00000E400E080E100E002490143024A116075
:104AF000704700000000FA050CED00E010B5024818
:104B000004F02EFD10BD0000E0AC01200149086258
:104B10007047000000000E427047000029B1064AAD
:104B200012680243044B1A6004E0034A126882438D
:104B3000014B1A60704700003038024029B1064A24
:104B400012680243044B1A6004E0034A126882436D
:104B5000014B1A60704700003838024029B1064AFC
:104B600012680243044B1A6004E0034A126882434D
:104B7000014B1A60704700004038024029B1064AD4
:104B800012680243044B1A6004E0034A126882432D
:104B9000014B1A60704700004438024029B1064AB0
:104BA00012680243044B1A6004E0034A126882430D
:104BB000014B1A607047000024380240F0B5002114
:104BC00000220024022500260223324F3F6807F00E
:104BD0000C0121B1042905D0082937D105E02E4F59
:104BE000076036E02D4F076033E02A4F3F1F3F68D4
:104BF000C7F38056274F3F1F3F6807F03F036EB152
:104C0000264FB7FBF3F7DFF88CC0ACF1040CDCF8EF
:104C100000C0CCF3881C07FB0CF40CE01E4FB7FB64
:104C2000F3F7DFF870C0ACF1040CDCF800C0CCF393
:104C3000881C07FB0CF4174F3F1F3F68C7F3014761
:104C40007F1C7D00B4FBF5F7076002E0124F0760A0
:104C500000BF00BF0F4F3F6807F0F0010909104F78
:104C60007A5C0768D74047600A4F3F6807F4E05115
:104C7000890A0B4F7A5C4768D7408760054F3F68C9
:104C800007F46041490B064F7A5C4768D740C7601C
:104C9000F0BD0000083802400024F40000127A0041
:104CA0002500002010B501460022002300204A11F3
:104CB000012A02D10A4C236808E0022A03D1084CD9
:104CC0007034236802E0064C7434236801F01F023C
:104CD000012494401C400CB1012000E0002010BDD4
:104CE000003802400021094A11701170012802D0D9
:104CF000042808D103E00121044A117004E00521D1
:104D0000024A117000E000BF00BF704770380240D7
:104D100001490860704700003C0E4742002100F442
:104D20004072B2F5407F08D1094A116821F4F811A8
:104D3000084A02401143064A1160054A6832126867
:104D4000C0F30B031A43024B68331A60704700002C
:104D500008380240FFFCFF0F10B54FF4807000F0E0
:104D6000DFF8012802D1000200F01EF84FF40030F5
:104D7000FDF780FD10BD014600BF080900EB800073
:104D8000420001F00F001044C0B2704701460022FB
:104D900004E0501CC2B2A1F10A00C1B20A29F8DA3B
:104DA000100741EA1060704781B241F08001044A67
:104DB000126802F0800262EA0101014A1160704744
:104DC0000C280040002101098AB242F08002044B05
:104DD0001B6803F0800363EA0202014B1A6070470C
:104DE0000C2800403EB541F6FF7401210807FFF78B
:104DF000B5FE0120FFF78AFE002000F031F945F2F0
:104E00005001884231D00120FFF76CFF04E0601CA4
:104E100084B20A2006F062FC4120FFF743FF00281D
:104E2000F5D00CB901203EBD4FF48070FFF776FF3E
:104E30000120FFF76DFF7F20019000200090FF20F0
:104E40000290684600F0DAF8002332221E2110207A
:104E500000F002FA04230E220B21132000F0EAF9DD
:104E600045F25001002000F021FB0020DBE70000AC
:104E700008B50022009200200021104A126802F0BA
:104E80004002CAB9421E0D4B1A6000BF0B4A12689D
:104E900002F04001009A521C0092009AB2F5803F45
:104EA00001D00029F2D0054A126802F040020AB18E
:104EB000012002E0002000E0012008BD0C28004095
:104EC0000348006820F08000014908607047000036
:104ED0000C28004070B506460C4600250E480068B8
:104EE0000E4900EA0105280CE070C5F3042060704B
:104EF00005F03F00A070C5F3423020705EB9E07845
:104F0000FFF739FFE0706078FFF735FF6070A07839
:104F1000FFF731FFA07070BD042800403FFFFF0085
:104F200010B5014600200022054B1B68054C03EA22
:104F3000040202EA01030BB1012000E0002010BDD1
:104F40000C2800407F3F010070B506460C46002546
:104F50000F4800680F4900EA0105C5F305402070BD
:104F6000C5F30620607005F07F00A07005F4800096
:104F7000000CE0705EB92078FFF7FDFE20706078CD
:104F8000FFF7F9FE6070A078FFF7F5FEA07070BD26
:104F9000002800407F7F7F00CA22174B1A605322EF
:104FA0001A6091B1144A1C3A126820F004031A43A3
:104FB000114B1C3B1A60104A1C32126800F00403AB
:104FC0001A430D4B1C331A6011E00B4A1C3A12684D
:104FD00020F004039A43084B1C3B1A60064A1C321B
:104FE000126800F004039A43034B1C331A60FF223B
:104FF000014B1A60704700002428004030B5044679
:105000000025CA201549086053200860FFF730FFCB
:1050100000B91DE011481C38006820F040000F491D
:105020001C39086008460068216808430B491C3990
:1050300008600A491439A068086008460068A18819
:1050400040EA0140054914390860FFF739FF01259E
:10505000FF2002490860284630BD00002428004097
:1050600008B501460020009004480090009800EB2D
:10507000810000900098006808BD000050280040A2
:105080002DE9F04105460C46002600274DB9607811
:1050900000F01000102804D1607820F010000A30D1
:1050A000607005B908E06078FFF765FE0646A078F5
:1050B000FFF761FE064600BF55B1E0780004617855
:1050C00040EA0120A1780843217840EA413611E006
:1050D000E078FFF75BFE4FEA00486078FFF756FE86
:1050E00048EA0028A078FFF751FE48EA0008207837
:1050F00048EA4036CA201249086053200860FFF78A
:10510000B7FE08B9002714E00E4830400C4920399A
:105110000860FFF7D5FE0A481C38006800F0200040
:1051200030B900F03FF908B9002702E0012700E09C
:105130000127FF20024908603846BDE8F0810000E1
:10514000242800403FFFFF002DE9F04105460C46B2
:10515000002600274DB92E48006800F0400000B13D
:1051600002E00020E07000BF0DE02948006800F078
:10517000400020B12078FFF7FEFD064602E0002047
:10518000E07000BF00BF55B120780004617840EAAC
:105190000120A1780843E17840EA014611E0207837
:1051A000FFF7F4FD4FEA00486078FFF7EFFD48EAAB
:1051B0000028A078FFF7EAFD48EA0008E07848EA0E
:1051C0000046CA2012491C31086053200860FFF7CE
:1051D0004FFE08B9002713E00E4830400C4908394B
:1051E0000860FFF76DFE0A48006800F0200030B943
:1051F00000F0D8F808B9002702E0012700E00127F5
:10520000FF2003491C3108603846BDE8F0810000EA
:10521000082800407F7F7F00CA21054A1160532182
:105220001160034910390860FF21116070470000C8
:1052300024280040F8B504460D4617461E468DF852
:1052400002708DF801508DF800608DF803406946BA
:105250000020FFF715FFF8BDF8B504460D461746C8
:105260001E468DF800408DF801508DF802708DF8C3
:10527000036069460020FFF767FFF8BD3EB50546AD
:105280000C46002000F0D6F8284600F0BBF8204677
:10529000FFF7C2FF4FF48040FFF794FD4FF480000A
:1052A000FDF7E8FA01218803FFF776FE012000F000
:1052B000C1F84FF48000019000208DF8080008200C
:1052C0008DF8090001208DF80A0001A8FDF7D8FA31
:1052D00003208DF8000002208DF801008DF80200F7
:1052E00001208DF803006846FFF7C2FB3EBD0000B9
:1052F0001CB54FF48060FFF713FE012834D1800203
:10530000FFF752FD1B48006808B9012000E00020AB
:105310001849086018490020FFF716FE17490020B9
:10532000FFF7D8FD1448807800901348437802783E
:1053300013A1174805F06CF816480078012813D11E
:105340004FF6FF70144908800A201449088010485D
:105350001021CDE9001012490A8809884A3988B21B
:1053600014230221FFF7A2F94FF48000FDF782FA1F
:105370001CBD0000A482424264000020680000209E
:10538000252E32643A252E32643A252E32640000EE
:10539000B813002098020020820000208400002022
:1053A0008600002008B50022009200200021CA22B9
:1053B000134B1A6053221A60114A183A126822F0ED
:1053C000A0020F4B183B1A6000BF0D4A183A126832
:1053D00002F02001009A521C0092009AB2F5003FA0
:1053E00001D00029F1D0064A183A126802F02002D2
:1053F0000AB1012000E00020FF22014B1A6008BD25
:1054000024280040CA210A4A11605321116008492A
:105410001C39096821F00701054A1C3A1160114640
:10542000096801431160FF21014A116070470000C3
:105430002428004018B501460023009300220020D4
:10544000CA23194C23605323236049B1164B1C3BDC
:105450001B6843F48063144C1C3C236001201FE054
:10546000114B1C3B1B6823F480630F4C1C3C2360D6
:1054700000BF0D4B183B1B6803F00402009B5B1C34
:105480000093009BB3F5803F01D0002AF1D0064B7A
:10549000183B1B6803F004030BB9002000E0012057
:1054A000FF23014C236018BD2428004008B50022CA
:1054B0000092044A0092009A02EB80020092009A45
:1054C000116008BD502800401CB54FF400700090DA
:1054D00000208DF8040001208DF80700694602487D
:1054E000FDF750FD1CBD0000000402401CB54FF448
:1054F0000070009001208DF8040000208DF8060057
:1055000003208DF8050001208DF807006946024848
:10551000FDF738FD1CBD0000000402407CB50546C7
:10552000002400200090019000260DB1022600E02A
:1055300000262248006800F0007008B10E207CBDF3
:105540001F49098888B26946FDF752FC04460CB130
:105550002046F4E7019800F4802060B318480088E2
:105560000004184908603720486040208860002007
:10557000C8604FF480600861084600F09BF837204F
:10558000FBF794FE04460CB12046D8E70D480660B0
:1055900006200C494860402088600020C8604FF415
:1055A00080600861084600F085F80620FBF77EFE63
:1055B00004462046C3E72520C1E70000142C014023
:1055C00070000020E01300200149086070470000CF
:1055D000382C01400146034A106820F0FF000843C0
:1055E00010607047042C014000210B4B02681A60C8
:1055F0001B1D42681A601A1D116821F0F701D0E9DD
:1056000002231A4303691A4343691A431143024AA6
:105610000832116070470000242C01400146002030
:10562000034A12680A400AB1012000E000207047D6
:10563000342C01400248006800F00300704700006D
:10564000002C014010B500F08BFC10BD00210A4A6F
:10565000116847F6FF629143027D83681A434368ED
:105660001A43C3681A4303681A4303691A43114370
:10567000014A116070470000042C014000200B49D2
:105680000860091D0860091D0860091D08600749B8
:1056900024310860091D0860091D08600448034999
:1056A000383108600020091D08607047002C014057
:1056B000FF07C0000021094B02681A601A1D11681B
:1056C0006FF30A01D0E901231A43C3681A4303693F
:1056D0001A431143014A121D11607047082C014002
:1056E0000149086070470000002C014070B590B07F
:1056F00004460E46154600BF1A48FCF744FC002835
:10570000FAD11848FCF788FB4FF00060019016486A
:105710000290039404950020059006904FF4806059
:105720000790800008908000099000200A904FF4B4
:1057300040300B9004200C9003200D904FF400009B
:105740000E9080100F9001A90648FCF77BFC2021E9
:105750000448FCF70DFC01210248FCF751FB10B096
:1057600070BD000058640240802C014070B50446B2
:10577000002516480078032802D12725284670BD49
:105780001248007838B111480078012803D00F483A
:105790000078022817D1B4F5805F02D1272528466A
:1057A000EDE7E0B2FFF7BAFE054665B908480068C4
:1057B00020F4C0500649086008460068204308608D
:1057C0000846006808602846D9E700006C00002001
:1057D000042C0140F0B5014600200022BE4B1B788E
:1057E00081F85630BD4B1B88A1F85430BC4B1B6868
:1057F0001A0E93090B70C2F383034B7002F003037C
:105800008B70B74B1B68C3F30742CA70B44B1B883D
:10581000C3F307220A71B24B1A784A715B681A0EF9
:105820001301CB80AE4B5B68C3F30742CB8843EADE
:105830001213CB8002F00F030B72A94B9B88C3F3AA
:105840000722D3094B72C2F380138B72C2F3401349
:10585000CB72C2F300130B7300234B739E4B1B7868
:105860003BB19D4B1B78012B03D09B4B1B78032B2B
:105870004FD193071B0D0B61994B1A790B6943EAC2
:1058800082030B61964B9B681A0E0B6943EA9213D5
:105890000B61C2F3C2030B7502F007034B75904B0B
:1058A0009B68C3F3074253098B75C2F38203CB7520
:1058B00093075B0F0B768A4B1B89C3F307220B7E82
:1058C00043EAD2130B760B695B1C0024C1E9123446
:1058D0000B7E9B1C012404FA03F3DC17D1E912565A
:1058E000A5FB037C06FB03C305FB0433C1E912736C
:1058F0000C7A0123A3400B650024D1E912650B6DDE
:10590000A6FB037C05FB03C306FB0433C1E912734A
:105910002EE0714B1B78022B2AD1714B1A7993061A
:105920009B0A0B616E4B9B681A0E0B6943EA0223BC
:105930000B616B4B9B68C3F307420B6913430B610D
:10594000674B1B89C3F307220B695B1C4FF4007480
:10595000A3FB04464FF480630025A4FB037C06FBF5
:1059600003C304FB0533C1E912734FF400730B65E5
:10597000C2F3801301F8193F93065B0E4B70584B2E
:105980001A7A4B7843EAD2134B7002F07F038B7084
:10599000534BDB681A0ED309CB70C2F341130B7162
:1059A000C2F382034B7193071B0F8B714C4BDB6867
:1059B000C3F307428B7943EA92138B71C2F340130E
:1059C000CB7100230B7202F001034B72444B9B8995
:1059D000C3F30722D3098B72C2F38013CB72C2F3D5
:1059E00040130B73C2F300134B73C2F381038B7329
:1059F00002F00303CB733A4B1A7B53080B74012359
:105A00004B74384B1B681A0ECA741939354B1B6816
:105A1000C3F307421402CC85324B1B88C3F3072221
:105A2000CB8D1343CB852F4B1A7814060C635B6820
:105A30001A0E0B6B43EA02440C632A4B5B68C3F3F8
:105A400007420B6B43EA02240C63264B9B88C3F38B
:105A500007220B6B13430B63224B1A7934235A54DE
:105A6000204B9B681A0E35235A541E4B9B68C3F378
:105A7000074214068C631B4B1B89C3F307228B6BF5
:105A800043EA02448C63174B1A7A8B6B43EA022475
:105A90008C63144BDB681A0E8B6B13438B63114BB7
:105AA000DB68C3F307423C235B5C43EA12143C23EC
:105AB0005C5413071C0DCC870A4B9B89C3F3072248
:105AC000CB8F1343CB87074B1A7B540840235C547E
:105AD000012441235C54F0BD6C00002070000020C4
