:020000040800F2
:1000000098B600205D020008F19B0008B57E00084C
:100010006D990008253D000873FC000800000000F1
:100020000000000000000000000000009D0100082A
:100030004D55000800000000F901000869CA0008D9
:1000400077020008770200087702000871A4000810
:10005000770200087702000877020008770200089C
:10006000770200087702000877020008770200088C
:10007000770200087702000877020008F1510008B3
:10008000770200087702000877020008770200086C
:1000900077020008770200087702000875640008FC
:1000A000770200087702000877020008770200084C
:1000B00039CF000881D00008ADD0000877020008D1
:1000C000770200087702000877020008770200082C
:1000D000770200087DE20008B9E3000879E400082F
:1000E00077020008D99E000877020008770200080E
:1000F00077020008770200087702000877020008FC
:1001000077020008FDA800087702000877020008BF
:10011000770200087702000851D100087702000832
:10012000770200081D5200087702000877020008D5
:1001300077020008B1630008770200087702000820
:10014000770200087702000877020008819C000807
:10015000770200087702000877020008EDE800083F
:10016000770200087702000877020008770200088B
:100170007702000877020008B551000877020008EE
:100180007702000877020008DFF80CD000F056FE76
:1001900000480047C13F010898B600202C4B196861
:1001A0000868B0E8F04F80F30988BFF36F8F4FF015
:1001B000000080F3118870470000000008480068C4
:1001C000006880F308884FF0000080F3148862B65E
:1001D00061B6BFF34F8FBFF36F8F00DF00BF00BF6B
:1001E00008ED00E0DFF80C00016841F470010160E7
:1001F000704700BF88ED00E0EFF30980BFF36F8F19
:10020000134B1A681EF0100F08BF20ED108A20E96A
:10021000F04F106009B44FF0500080F31188BFF325
:100220004F8FBFF36F8F16F0C9FB4FF0000080F3C4
:10023000118809BC19680868B0E8F04F1EF0100F6B
:1002400008BFB0EC108A80F30988BFF36F8F704746
:100250004C000020EFF305807047000006488047FF
:1002600006480047FEE7FEE7FEE7FEE7FEE7FEE79B
:10027000FEE7FEE7FEE7FEE7D9CA000889010008AD
:100280002DE9F05F0546002092469B4688460646CB
:10029000814640241BE0284641464746224600F05E
:1002A0009CFB53465A46C01A914110D3114618463A
:1002B000224600F083FB2D1A67EB01084F462246C9
:1002C0000120002100F07AFB17EB00094E41201EAF
:1002D000A4F10104DFDC484631462A464346BDE826
:1002E000F09F2DE9F0410024061B254671F1000620
:1002F00005DA01240027D0EB070067EB0101161E89
:1003000073F1000605DA0027D2EB0702012567EB3F
:100310000303FFF7B5FF86460E4617469C46AC42E0
:1003200004D00025D0EB050E65EB010624B10020BA
:10033000D2EB000760EB030C704631463A46634649
:10034000BDE8F08140EA01039B0703D009E008C93A
:10035000121F08C0042AFAD203E011F8013B00F88A
:10036000013B521EF9D27047D2B201E000F8012BD6
:10037000491EFBD270470022F6E710B513460A4625
:1003800004461946FFF7F0FF204610BD421E12F842
:10039000013F002BFBD111F8013B02F8013B002B80
:1003A000F9D1704710B5044604E00B7800F8013B22
:1003B00003B1491C521EF8D2204610BDCAB2401EDD
:1003C00010F8011F8A4202D00029F9D1002070479D
:1003D000421C10F8011B0029FBD1801A704710B590
:1003E000002200E0521C835C8C5CA34201D1002BF4
:1003F000F8D1D8B2E1B2401A10BD034611F8012B72
:1004000000F8012B002AF9D11846704730B505468F
:100410000020034600E05B1C934205D2EC5CC85C04
:10042000201A01D1002CF6D130BD000070B50F4D5F
:1004300000B92868002412E00A4602E09E4203D078
:10044000521C1378002BF9D1DAB2224305D02BB11C
:1004500024B1002100F8011B04E00446401C06788A
:10046000002EE9D12860204670BD0000B8030020AE
:100470002DE9F05F93460F468046044600260FF0B4
:1004800039FDD0F80090824614F8015B2DB100F0E0
:10049000C7FA0068405DC007F6D12B2D02D02D2D84
:1004A0001AD0641E0021CAF800105A463946204668
:1004B00000F0F1FA014627B13868A04201D1C7F82F
:1004C0000080DAF80000022809D0CAF80090700510
:1004D00005D54842BDE8F09F46F48066E2E708464D
:1004E000F8E770B506460FF005FD046805460A22D8
:1004F0000021304600F06CFB2C6070BD2DE9FE4FF2
:10050000804681EA0300C00F0C46009021F00041B4
:1005100023F00045B8EB0200A94105D24046214630
:1005200090461C460B46024623F00040104347D03D
:10053000270DC7F30A00C3F30A510290401A019035
:1005400040286BDAC3F3130040F4801B00989246F6
:1005500020B10023D2EB030A63EB0B0B0198594641
:10056000C0F14002504600F029FA06460D465046BA
:100570005946019A00F041FA10EB0800614100244D
:1005800087EA115284EAE7731A4340D0009A62B3B3
:10059000019A012A4FEA075215DC001B61EB0201A8
:1005A0004FF0004202EA0752CDE90042001C41F53B
:1005B000801132462B4600F089FB03B0BDE8F08F76
:1005C00040462146F9E7001B61EB0201001C41F5A2
:1005D000801300185B412018A2F5001747EB0301B8
:1005E00040EAD570B6196D4111E06D084FEA360644
:1005F00045EAC0754FEA0752001B61EB0201001C7F
:1006000041F5801149084FEA300000195141324646
:100610002B4603B0BDE8F04F00F049BB0098012223
:1006200040000023D0EB020263EBE0730098214608
:100630004FEAE074B8EB000061EB0401E9E783F0F6
:1006400000435BE781F0004158E72DE9FE4F81EA66
:10065000030404F0004421F0004100944FF0000B2B
:1006600023F0004350EA01045ED052EA03045BD059
:10067000C3F30A54C1F30A552C44A4F2F334019491
:10068000A0FB0254C1F3130141F48011C3F313031F
:1006900043F4801301FB024400FB034E840A970AD3
:1006A00044EA815447EA8357A4FB076802958D0A00
:1006B00005FB07854FEA932C04FB0C542705029D8C
:1006C0004FEA065847EA1637B5EB08056EEB070CFC
:1006D000870E920E47EA811742EA8312A7FB0201B6
:1006E000B6EB0B0164EB00042B0D43EA0C335E18F0
:1006F00044EB1C50DA465146E7FB0201C5F31304F4
:100700004FEA0B3343EA14534FEA0432019C43EAA5
:100710000603A4F10C040294009CCDE900B400F09F
:10072000D5FA03B0BDE8F08F00200146F9E72DE9C6
:10073000F04D81EA030404F0004B21F0004514461B
:100740004FF0000A23F0004150EA050220D054EA9D
:1007500001021DD0C5F30A570246C5F31303C1F3C6
:100760001300C1F30A5640F4801543F48013A7EB3D
:100770000608101BD64608F2FD3873EB050002D3BD
:1007800008F1010801E092185B41B8F1000F03DAAB
:1007900000200146BDE8F08D00204FF48011064690
:1007A00084460EE0171B73EB050705D3121B63EBA2
:1007B000050306434CEA010C49084FEA3000921841
:1007C0005B4150EA0107EDD152EA030012D082EA00
:1007D000040083EA0501084305D0101BAB4106D293
:1007E0000122002306E000224FF0004302E06FF0F8
:1007F000010253101AEB06004CEB085110EB0A00F3
:1008000041EB0B01BDE8F04D00F051BA0EB5C10F40
:1008100080EAE0700844CA07002140F233438DE8C3
:100820000E000A460B4600F051FA03B000BD0EB5AB
:1008300040F2334102910021CDE900110A460B46F6
:1008400000F044FA03B000BD0EB540F2334202920C
:100850000022CDE90022134600F038FA03B000BDB3
:1008600070B5C1F30A5201F000450024C1F3130131
:1008700040F2FF3341F480119A4201DA002070BD4A
:1008800040F233439A42A2F2334203DC524200F078
:10089000A4F800E090402C43F1D0404270BDC1F379
:1008A0000A5210B5C1F3130140F2FF3341F4801135
:1008B0009A4201DA002010BD40F233439A42A2F27C
:1008C000334203DC524200F088F810BD904010BD66
:1008D00000F0004230F000400AD0C10D01F5607117
:1008E000C0F3160042EA0151C208400711437047A5
:1008F000002001467047000030B5041E71F100046D
:1009000004DB4FF00044404264EB0101141E73F11C
:10091000000405DB1C464FF00043524263EB040326
:100920008B4208BF824230BD30B5041E71F1000415
:1009300004DB4FF00044404264EB0101141E73F1EC
:10094000000405DB1C464FF00043524263EB0403F6
:10095000994208BF904230BD01F0004330B421F00D
:10096000004150EA010206D00A0DA2F56072C1F3FF
:100970001301002A02DC30BC00207047440F44EA17
:10098000C104C100E01830BC00EBC25000F058B9FF
:1009900030B50B46014600202022012409E021FA4F
:1009A00002F59D4205D303FA02F5491B04FA02F54C
:1009B0002844151EA2F10102F1DC30BD202A04DB1F
:1009C000203A00FA02F1002070479140C2F1200362
:1009D00020FA03F3194390407047202A04DB203AA1
:1009E00021FA02F00021704721FA02F3D040C2F14F
:1009F00020029140084319467047202A06DBCB1796
:100A0000203A41FA02F043EAE07306E041FA02F3C9
:100A1000D040C2F1200291400843194670470000BF
:100A20000048704734E9030810B50446FFF7F8FFA3
:100A30000068005D00F0010010BD3A2800D2303897
:100A400020F02002412A01D3A2F13700884201D3CD
:100A50004FF0FF307047426842B1016811F8013B26
:100A600023B1521EC0E90012184670470121C1602F
:100A7000881E704742685AB1C368016843B98368E9
:100A80008B4205D0491E521CC0E90012002070475D
:100A90004FF0FF3070472DE9F05F82460078002765
:100AA00015468B460AF10104B946302801D09DB1A4
:100AB00013E014F8010B0127782803D0582801D03F
:100AC00045B10AE00DB1102D07D10027102514F80B
:100AD000010B02E0082500E00A250026B0460EE0E2
:100AE00005FB080005FB06F1012701EB10461FFA84
:100AF00080F8B6F5803F00D3B94614F8010B2946BB
:100B0000FFF79BFF0028EBDABBF1000F05D00FB118
:100B1000641E00E05446CBF80040B9F1000F06D047
:100B20000FF0E8F902210160C81EBDE8F09F48EA15
:100B30000640FAE70FB4002300B589B00CA9009174
:100B40000B996FF00042CB601E4B06931E4B079330
:100B50000423CDE901321D4A089202466B4600206B
:100B600000F012FA09B05DF814FB70B586B00646C5
:100B70004FF0FF300091CDE90101002015460C46F1
:100B800004903246694604A8FFF7D4FF0246049851
:100B9000211825B108B1084600E0204628600498D5
:100BA00000280DD0002A02DD0098884208D0081BDA
:100BB0000094CDE901043246694604A8FFF7BAFF64
:100BC00006B070BD570A0008750A0008290A000817
:100BD0002DE9F04791460F4680460446002614F85A
:100BE000015B2DB1FFF71CFF0068405DC007F6D127
:100BF0002B2D02D02D2D18D0641E4A463946204692
:100C0000FFF749FF27B13968A14201D1C7F8008039
:100C100071054FF002040BD54042002803DD0FF0B0
:100C200069F90460A007BDE8F08746F48066E4E750
:100C30000028F8DA0FF05EF904606FF00040F2E788
:100C40000029A8BF7047401C490008BF20F00100E0
:100C5000704710B4B0FA80FC00FA0CF050EA0104BE
:100C600004BF10BC704749B1CCF1200421FA04F450
:100C700011FA0CF118BF012121430843A3EB0C0129
:100C8000CB1D4FEA00614FEA102042BF002010BC8C
:100C9000704700EBC35010440029A4BF10BC70473C
:100CA000401C490008BF20F0010010BC704710B57F
:100CB000141E73F1000408DA401C41F1000192187F
:100CC0005B411A4301D120F0010010BD2DE9F04D28
:100CD00092469B4611B1B1FA81F202E0B0FA80F27D
:100CE00020329046FFF76AFE04460F4640EA0A00AB
:100CF00041EA0B0153465A46084313D0114653EAC2
:100D0000010019D0C8F140025046FFF766FE0546C3
:100D10000E46504659464246FFF750FE084305D05E
:100D2000012004E020463946BDE8F08D002005434F
:100D300046EAE0762C4337430A986305E40AA0EBC1
:100D400008000022FD0A44EA47540A3002D5002078
:100D50000146E9E7010510196941DDE90845001977
:100D60006941BDE8F04DA2E72DE9F04D00231A4698
:100D70001B1A8A4103DB00200146BDE8F08DC1F358
:100D80000A52C1F3130141F480154FF0000BD10753
:100D900002D100186D41521E0027044640F2FF1197
:100DA000384601EB620A3E468046024600204FF478
:100DB0008011FFF712FEC2197141BB1846EB01000A
:100DC000B4EB030C75EB000C04D3E41A65EB0005DF
:100DD00017460E46241908F101006D41804634285B
:100DE000E3DDF91946EB0600091BA84103D24FF0D9
:100DF000FF32134601E0002213461BEB070046EBCF
:100E00000A51BDE8F04DFFF752BFC1F30A52C1F3DA
:100E1000130140F2FF3341F480119A4202DA0020BC
:100E20000146704740F233439A42A2F2334202DC59
:100E30005242FFF7D2BDFFF7C1BD0000064C074D7F
:100E400006E0E06840F0010394E80700984710349A
:100E5000AC42F6D3FFF79CF9E0EF030800F003087B
:100E60002DE9FF4F087883B09946FF2805D0491C2B
:100E70002D2804D00024002008E000200BE00124ED
:100E8000F9E700EB800003EB4000491C0B78FF2BD7
:100E9000F7D104B1404200230293147819461D464D
:100EA0002D2C01D02B2C04D1521C2D2C13D000241E
:100EB0000294AA461478FF2C0FD00A25A3FB0578CC
:100EC00001FB05814FF0000C03FB0C11521CE319D0
:100ED0004AEB0101EEE70124EAE7814453EA01000D
:100EE00002D019F5C87F06DA03980021C0E9001185
:100EF00007B0BDE8F08F0025AE4E2F46DFF8B88270
:100F00001846FFF7A1FCCDE90001B9F1000002DAB3
:100F1000C9F1000400E004460023A74A1AEB030BC2
:100F200042EB045A12E0E00707D02A46334638461F
:100F30004146FFF78AFB074688462A463346104655
:100F40001946FFF782FB05460E466410002CEAD1D5
:100F5000DDE90001B9F1000F5A46534606DAFFF702
:100F6000E6FB3A464346FFF7E2FB05E0FFF76DFB81
:100F70003A464346FFF769FB029A0AB181F0004105
:100F8000039AC2E90001B3E72DE9FF4F1F468DB078
:100F9000D7E901464FF0FF382E2045464FF00009B3
:100FA0000B90B9696D1C0E988847396A824688474C
:100FB0000028F6D1BAF1FF3F0AD024F4D064002E05
:100FC00011DDBAF12B0F08D0BAF12D0F0BD102E0D1
:100FD000404611B08DE744F48064B9696D1C0E98E9
:100FE00088478246761E6946600501D52D2000E0BF
:100FF0002B208DF8000001F1010B0DF1200809E014
:10100000B9696D1C0E98884782460F9844F40074A5
:10101000761E0560002E02DDBAF1300FF0D00B997C
:101020008A453ED144F0800406E00F99681CA9F17E
:10103000010944F400740860B9696D1C761E0E98AD
:10104000884782463028F0D02BE00B998A4505D19D
:10105000200603D444F08004761E18E050460FF0BA
:1010600087F808B30DF11301761E44F400748B4524
:1010700008D2AAF130000BF8010B200607D5A9F120
:10108000010003E0200602D409F101008146A00519
:1010900002D50F99681C0860B9696D1C0E988847C5
:1010A0008246002ED1DC53E0002E51DDBAF1650FEF
:1010B00002D0BAF1450F4BD1A00549D5B9696D1CD5
:1010C00024F44074761E0E9888478246002E0CDD6C
:1010D0002B2804D0BAF12D0F07D144F48074B969DC
:1010E0006D1C0E9888478246761EE00501D52D219D
:1010F00000E02B2108F8011BCDF82C8021E00DF138
:101100002901761E44F4007488450CD2AAF13000FF
:1011100010F0FF0088F8000002D10B99884509D92A
:1011200008F1010806E0E00501D5244801E042F29B
:101130000F708146B9696D1C0E98884782460F98DA
:101140000560002E04DD50460FF012F80028D6D1BD
:10115000F9690E988847FF208BF8000088F8000096
:101160000020069007904B466A4608A906A8FFF79C
:1011700077FEA00502D46FF001002AE714F0240FD7
:101180000AD0E00714D1DDE906123868031D3B6080
:101190000068C0E900120BE0DDE90601FFF7DCFBA7
:1011A0000146E00704D13868021D3A60006801601A
:1011B00028460EE7000014400000F03FF1D8FFFF82
:1011C00070B58C1810F8015B15F0070301D110F809
:1011D000013B2A1106D110F8012B03E010F8016B36
:1011E00001F8016B5B1EF9D12B0705D40023521EB9
:1011F0000DD401F8013BFAE710F8013BCB1A921C21
:1012000003E013F8015B01F8015B521EF9D5A1421E
:10121000D8D3002070BD21B1826842F00102826003
:1012200003E0826822F00102826070470021084AD0
:101230001168084A1140D0E900231A4383681A4311
:10124000C3681A431143044AC2F8041370470000EC
:1012500004230140E030FCFF0020014030B502468D
:10126000002000235068104C20400D790C6844EA9F
:1012700005242043506090680C4C2040D1E9035471
:101280002C438D682C434D7944EA450420439060FB
:10129000D06A20F470000C7D641EE4B2234340EA5F
:1012A0000350D06230BD0000FFFEFFFCFDF7FFC021
:1012B00038B10849096841F40001074AC2F804132B
:1012C00006E00449096821F40001034AC2F8041346
:1012D00070470000042301400020014000B58BB09E
:1012E0000121080208F00AFD0120FFF7E1FF0020BC
:1012F00007900A9009904FF48030089007A8FFF7F4
:1013000095FF002001908DF808008DF809000390EA
:10131000059001208DF8180001A90448FFF79EFFF1
:1013200001210248FFF777FF0BB000BD002001400C
:1013300010B5FF2000F02DF80446362C01D1002016
:1013400010BD3621FF2000F065F8FF2000F021F8E5
:101350000446362C01D10020F2E70120F0E710B559
:1013600007F076FC10BD2DE9F04107460C4600263B
:10137000002509E036023919491B491E88B200F0E0
:1013800008F80644681CC5B2A542F3DB3046BDE848
:10139000F08170B50446002607F0FAFC2546E117F7
:1013A00004EB11610912A02202EB4101C8B207F05F
:1013B000BDFC07F025FDE11704EB11610912A4EB58
:1013C0000121C8B207F0B2FC07F01AFD07F0E0FCFB
:1013D000A12007F0ABFC07F013FD002007F07AFC1A
:1013E000064607F0F1FC304670BD2DE9F041054698
:1013F0000E461746002409E0E20026FA02F2D1B2B6
:101400002A1990B200F006F8601CC4B2BC42F3DBAB
:10141000BDE8F08170B504460E4607F0B9FC2546DC
:10142000E11704EB11610912A02202EB4101C8B2DD
:1014300007F07CFC07F0E4FCE11704EB11610912F2
:10144000A4EB0121C8B207F071FC07F0D9FC3046CB
:1014500007F06CFC07F0D4FC07F0B6FC0A200FF094
:10146000D9FE70BD10B50548006828B14FF0FF31B6
:101470000248006815F06AFD10BD0000C40000209D
:1014800010B50548006830B100231A4619460248D5
:10149000006815F0ABFC10BDC400002010B50DF0C5
:1014A00059F84FF4165006F023FC04F0A9FB02F0A3
:1014B0003BFC00F091FE00F09BFC0CA00EF0DEFC6B
:1014C00018480268001F016817A00EF0D7FC2148D9
:1014D000007808B120A000E020A0014620480EF0CE
:1014E000CDFC20480EF0CAFC10BD00005B4A4554FC
:1014F000534F4E5D20555341525432205258207262
:10150000656164792C20657870656374696E672005
:1015100032342D62797465205633206672616D65B0
:101520000D0A0000046400405B43414E5D20496E9B
:10153000697420646F6E652C204D43523D307825D0
:10154000303858204D53523D3078253038580D0AE8
:1015500000000000BA0000204F4E00004F46460039
:1015600080E90308D4E9030810B50EF097FB08F0F2
:1015700035FB10BD10B5002007F02EFD4FF6FF70B3
:10158000094908800020094908800AF0CFFE04F0CC
:1015900003FB04460BF050F80AF0EEFF0BF026F9BF
:1015A00003A00EF06BFC10BD3201002034010020BE
:1015B0005B4C43445D2053656E736F722055492028
:1015C00072656164793B206C61796F75743D7072EE
:1015D000652D52544F53202B204750530D0A0000C5
:1015E0001CB528A00EF04AFC2C48062100238A01D5
:1015F000CDE900102AA12C4815F088FD2B480521C3
:1016000000234FF4C072CDE9001029A1294815F03C
:101610007DFD2948042100234FF4C072CDE900105C
:1016200026A1284815F072FD2748042100238A01CD
:10163000CDE9001025A1264815F068FD25480321B5
:101640000023CA01CDE9001023A1254815F05EFD55
:101650002448022100230A02CDE9001022A12348D8
:1016600015F054FD2248032100230A02CDE90010A1
:1016700020A1214815F04AFD1D48006808F0A8FA8D
:101680001CBD00005B52544F535D20437265617472
:10169000696E67207461736B730D0A00D4000020BB
:1016A0004D6F74696F6E0000CD650108D800002091
:1016B00043616E0031640108DC00002053656E73E5
:1016C0006F720000D9660108E00000204B657900C8
:1016D0005D650108E40000204A6574736F6E0000C8
:1016E000B5640108E80000204770730095640108A4
:1016F000EC00002055690000756A01082DE9FF5FC4
:101700002648448D858DC68D008E0390234890F821
:10171000320000F001000290204890F83200C0F33F
:10172000400001901D4890F83200C0F380071B482C
:1017300090F83200C0F3C008029818B1204600F0BB
:10174000A7FD00E001208146019818B1284600F06D
:101750009FFD00E0012000901FB1304600F098FD91
:1017600000E001208246B8F1000F03D0039800F09A
:101770008FFD00E001208346B9F1000F0BD00098E7
:1017800048B1BAF1000F06D0BBF1000F03D0012021
:1017900004B0BDE8F09F0020FAE70000301D0020F3
:1017A0002DE9FF4F87B014AD95E8E00F2A4CB4F94E
:1017B0000600002811DD1C9810BB1D9800BB0820F6
:1017C0002649087000F0F2FD0146069040F22260C2
:1017D00001F026FA0BB0BDE8F08FB4F9060000283E
:1017E0000EDA1E9860B91F9850B909201B4908707D
:1017F00000F0DCFD01460690194801F011FAE9E716
:10180000B4F90200002801DCE08830B18DE8E0077F
:1018100007A80FC800F0A6F81CE0B4F902000028E1
:1018200008DA1B988DE8E009059007A80FC800F0BA
:1018300019F80FE00D2009490870002001F0E2F9C5
:10184000372005491039C883E1880348103841849E
:101850000021018400BFBDE7401D00205002002090
:10186000DEF9FFFF2DE9F04F87B080468946154627
:101870001E46DDE912AB159F374CB4F90620022154
:1018800005A800F009FCB4F9020000F0F1FB029099
:1018900000F031FA0490B4F9020000F0E9FB029084
:1018A00000F006FA0390149888B987B907202B49ED
:1018B00008703146284600F039FD029001F0C4F965
:1018C000E188A4F11000418407B0BDE8F08FAEB10B
:1018D000A7B90498854211DD039885420EDC0720E4
:1018E0001E4908703146284600F020FD029001F0A4
:1018F000ABF9E188184810384184E5E7072017491B
:10190000087005A8CDE900AB029049464046DDE9E4
:10191000102301F02AF910B1012811D107E049463E
:10192000404600F029FD029001F08EF910E000F031
:101930003DFD0146029040F2226001F071F907E09E
:1019400000F034FD01460290054801F069F900BF3E
:1019500000BF00BFB8E70000401D0020500200207B
:10196000DEF9FFFF2DE9F04F87B005460E4617461A
:101970009846DDF848B0DDF840A0DDF854903B4CC7
:10198000B4F90620012105A800F086FBB4F9020095
:1019900000F06EFB029000F0AEF90490B4F9020082
:1019A00000F066FB029000F083F90390149898B958
:1019B000B9F1000F10D10C202D490870314628468E
:1019C00000F0DAFC029001F03FF9E188A4F1100088
:1019D000418407B0BDE8F08FBEB1B9F1000F14D15A
:1019E0000498854211DD039885420EDC0B202049C6
:1019F00008703146284600F0BFFC029001F024F93F
:101A0000E1881A4810384184E3E706201849087035
:101A100005A91398CDE900B00291524641463846D7
:101A2000119B01F07CF810B1012813D109E00F4996
:101A30001039888D414600F079FC029001F004F9DC
:101A400010E000F0B3FC0146029040F2226001F089
:101A5000E7F807E000F0AAFC01460290054801F013
:101A6000DFF800BF00BF00BFB3E70000401D00204B
:101A700050020020DEF9FFFF2DE9FE4F06460F461B
:101A800014461D46DDE90D9ADDF8308000F08EFC2D
:101A900002902548B0F916200321684600F0FCFAB0
:101AA000B8F1000F0CD1B9F1000F09D108201F497E
:101AB000087040F22260029901F0B2F8BDE8FE8F92
:101AC000BAF1000F09D10F9838B9092017490870E9
:101AD0001748029901F0A4F8F0E7BDF80020394654
:101AE000304602F023F88346BDF8022029462046FE
:101AF00002F01CF883450ADB0A200C4908703946BD
:101B0000304600F039FC834601F09EF809E00A20D7
:101B1000064908702946204600F008FC834601F07B
:101B200093F800BFCAE70000301D002050020020DB
:101B3000DEF9FFFF2DE9FE4F06460F4614461D460F
:101B4000DDE90D9ADDF8308000F030FC0290254888
:101B5000B0F916200421684600F09EFABAF1000F91
:101B60000AD10F9840B909201F4908701F480299EF
:101B700001F056F8BDE8FE8FB8F1000F0BD1B9F1B6
:101B8000000F08D108201849087040F2226002991D
:101B900001F046F8EEE7BDF800203946304601F086
:101BA000C5FF8346BDF802202946204601F0BEFF4E
:101BB00083450ADB0A200C4908703946304600F09C
:101BC000DBFB834601F040F809E00A200649087073
:101BD0002946204600F0AAFB834601F035F800BFF5
:101BE000C8E70000301D002050020020DEF9FFFF92
:101BF00010B50E4C022001F005F80020A4F11001F0
:101C0000C8830021A4F1100041840D200849087008
:101C1000FFF774FD20B10021A4F11000018403E05E
:101C2000A18802481038018410BD0000401D00202A
:101C30005002002010B5002000F0E4FF002006490B
:101C4000C883002104480184418480F825100020C5
:101C50000249087010BD0000301D00205002002015
:101C60002DE9F04104460F4690461FB14FF6FF7034
:101C7000844202D10020BDE8F081404600F03BF8EC
:101C80000546404600F014F80646B54201DB002048
:101C9000F1E7AC4201DC0020EDE7B44201DB642057
:101CA000E9E7601B64214843711B90FBF1F0E2E718
:101CB0002DE9F0410646304602F084FB05464FF41C
:101CC000AF7015FB00F04FF47A71B0FBF1F815FB23
:101CD00005F08900B0FBF1F708EB070000F16404A0
:101CE000FA2C00D2FA24B4F5487F01D94FF4487495
:101CF000A0B2BDE8F08170B506463046FFF7D8FFC8
:101D000004460320B4FBF0F53C2D00DA3C25C82D39
:101D100000DDC825A54205DB012C01D9601E00E0CD
:101D20003C2085B2284670BD10B50E4840680E496B
:101D300009680C1A0F2C11D30A48007A88B904EBF1
:101D40008400810009A00EF099F80120054908726D
:101D50000021044841828182C18202E000200149C1
:101D6000087210BD301D0020040100205B4172622A
:101D7000697465725D204865617274626561742082
:101D80006C6F7374212028256C75206D73290D0AE2
:101D9000000000000146B1F57A7F02DD4FF47A7051
:101DA000704711F57A7F01DA0148F9E70846F7E74D
:101DB00018FCFFFF38B5044600940122694640F242
:101DC000414002F04DF8214601A00EF057F838BD11
:101DD0005B417262697465725D20436C656172205B
:101DE0006572726F723A203078253032580D0A00D1
:101DF00010B5012001F056FD002001F0FDFC00208F
:101E000001F07AFD01A00EF039F810BD5B4172625D
:101E1000697465725D2043414E206D6F6465206575
:101E20006E61626C65642C20726561647920746FE8
:101E300020636F6E74726F6C206368617373697373
:101E40000D0A000070B504460D4616464FF6FF70A9
:101E5000844204D105A128460EF038F804E0224659
:101E600003A128460EF032F870BD00002D2D2D0084
:101E7000257500002DE9F84F04460D464FF0000A85
:101E8000002000901A48B0F91E60B0F92280B0F925
:101E9000209090F8250018B100BF002000901DE0B0
:101EA000B8F1000F09D0374607B937276A464146CF
:101EB000384602F08FFA82460FE00D48008C30B1B0
:101EC0004FF0030A484602F07DFA009005E06A46AA
:101ED0000021304602F07EFA824600BF0CB184F841
:101EE00000A015B1BDF900002880BDE8F88F000002
:101EF000301D00202DE9FC5F05460E464FF000091D
:101F0000002000903148B0F93CA0B0F93EB0B0F9E3
:101F1000400001902D4890F85280504602F052FA4D
:101F20000746584602F04EFA0446B8F1030F03D1B3
:101F300000BF002000903FE0244890F8250020B129
:101F40004FF000090020009036E0322F06DA322CE4
:101F500004DA4FF00009002000902DE0B8F1000FE6
:101F600019D0B8F1010F0ED0B8F1020F12D14FF015
:101F70000309322C01DB009404E0322F01DB0097CF
:101F800000E0009416E06A465046019902F080FA9B
:101F900081460FE000BF6A465046019902F049FAB7
:101FA0008146B9F1000F04D1322C02DB4FF0030956
:101FB000009400BF00BF00BF0DB185F8009016B1BE
:101FC000BDF900003080BDE8FC9F0000301D0020FE
:101FD00010B5264C00F072F908B1002010BD207A2F
:101FE000022801D10520F9E7207A01281AD1B4F995
:101FF0000600502801DB0320F0E7B4F9060010F1D9
:10200000500F01DC0420E9E7B4F90200002801DDEB
:102010000120E3E7B4F90200002801DA0220DDE73D
:102020000020DBE7B4F90200002801DD0120D5E73C
:10203000B4F90200002801DA0220CFE7B4F9040065
:10204000502804DCB4F9040010F1500F01DA052027
:10205000C4E7B4F90600502804DCB4F9060010F116
:10206000500F01DA0620B9E70020B7E7401D002035
:1020700070B50446204602F0A5F905460549B1F9B8
:102080003C0002F09FF90646B54201DB284670BDD0
:102090003046FCE7301D00200CB54FF47A73ADF8E4
:1020A0000030ADF80230ADF80430ADF80630072945
:1020B00074D2DFE801F073041220307340004FF453
:1020C0007A73ADF80030C823ADF802304FF41673C0
:1020D000ADF80430ADF8063061E0C823ADF800304B
:1020E0004FF47A73ADF802304FF41673ADF8043044
:1020F000ADF8063053E04FF46173ADF800304FF4A3
:102100009673ADF802304FF47A73ADF80430C823FB
:10211000ADF8063043E04FF46173ADF800304FF492
:102120009673ADF80230C823ADF804304FF47A73DB
:10213000ADF8063033E0002A10DD4FF46173ADF8DE
:1021400000304FF49673ADF802304FF47A73ADF867
:1021500004304FF49673ADF806301DE0002A0EDA15
:102160004FF46173ADF800304FF49673ADF8023060
:10217000ADF804304FF47A73ADF806300CE04FF44C
:102180007A73ADF80030C823ADF802304FF41673FF
:10219000ADF80430ADF8063001E0FFE700BF00BF46
:1021A000009B0360019B43600CBD000000B97047B9
:1021B0000849B1F84A1081800649B1F84C100180F5
:1021C0000449B1F84E1041800249B1F85010C18065
:1021D00000BFECE7301D002010B500201F4908703B
:1021E0001F48006848600020087248728872C86002
:1021F000012008740021194841828182C182017640
:1022000041768176C1760177417700201349C883F2
:10221000002112480184418480F8241080F82510A0
:102220004FF6FF700D49C884002081F828004FF652
:10223000FF704885014609488185C18501860020D7
:10224000064981F832000749087004480078064AB8
:1022500052F8201005A00DF011FE10BD301D002019
:1022600004010020510200203C0200205B41726208
:10227000697465725D20496E697469616C697A651B
:10228000642C206D6F64653A2025730D0A000000F0
:1022900001464FF6FF70814203D03C2901DC01204A
:1022A00070470020FCE701464FF6FF70814203D0E3
:1022B000B42901DC012070470020FCE71349087AAB
:1022C000032801D101207047488808B10020FAE7AF
:1022D000B1F90400502804DCB1F9040010F1500FEA
:1022E00001DA0020EFE7B1F90600502804DCB1F96B
:1022F000060010F1500F01DA0020E4E7087A022806
:1023000001D10020DFE70120DDE70000401D0020B3
:1023100001464FF6FF70814205D04EF65F208142A4
:1023200001D8012070470020FCE700002DE9F041B2
:1023300005460E460F48B0F91270002F05DB6FF00E
:102340004A0002F03FF8044603E0384602F03AF84B
:102350000446142C04DA6FF04A0002F033F8044605
:1023600032462946204601F060F9404200B2BDE8FD
:10237000F0810000301D00202DE9F04105460E4699
:102380000948B0F91270002F00DC6427384602F0CB
:1023900019F80446142C00DA6424324629462046F3
:1023A00001F043F9BDE8F081301D002010B5074968
:1023B000B1F9120002F006F80446142C01DA4FF4C9
:1023C000FA742046FFF7E6FC10BD0000301D002027
:1023D0002DE9F04F8DB004460D4616461F46DDE947
:1023E00018ABDDE916891648006816490968401AD5
:1023F000192802D20DB0BDE8F08F114800681149CC
:102400000860DDE91F201C99CDE9092ACDE90B10F0
:102410001E9ADDE91A10CDE90629059108901D984C
:102420008DE8C008CDE9030807480078074A52F84C
:1024300020102B46224606480DF020FD00BFD9E7AC
:102440000401002054020020301D00203C02002026
:10245000CCEB03082DE9F04180460D4616461F4699
:102460004FF6FF744046FFF753FF10B1A04500DA66
:1024700044462846FFF74CFF10B1A54200DA2C462F
:102480003046FFF745FF10B1A64200DA3446384621
:10249000FFF73EFF10B1A74200DA3C462046BDE8F8
:1024A000F0810000014606290ED2DFE801F00D039D
:1024B0000507090B05A0704706A0FCE707A0FAE78F
:1024C00008A0F8E708A0F6E709A0F4E74C45465451
:1024D0000000000052494748540000005350494E44
:1024E00000000000465744004241434B00000000FA
:1024F00053544F5000000000042900D07047027868
:10250000094B83F8E8204378074A82F8E93083785A
:1025100082F8EA30C37882F8EB300122024B83F86C
:10252000EC2000BFEAE70000301D0020082900D0A1
:1025300070470278114B83F8E02043780F4A82F805
:10254000E130C278837842EA03230C4AA2F8E230F1
:102550004279037942EA032213B2084AA2F8E4302E
:10256000C279837942EA032213B2044AA2F8E63020
:102570000122024B83F8EC2000BFD9E7301D002078
:10258000F0B589B004460F460026182F02D001206E
:1025900009B0F0BD2078AA2801D00120F8E76078C2
:1025A000012801D00120F3E7002503E0605D4640EB
:1025B000681CC5B2172DF9DBE07DB04206D0E27D84
:1025C000314655A00DF05AFC0120E1E7A1786148A1
:1025D0000177E0785F4908746179207901F09BFF09
:1025E0005C494882E179A07901F095FF59498882D8
:1025F000617A207A01F08FFF5649C882A17A554846
:102600000176E17A4176217B8176617BC176012179
:102610004177007C5049097888420DD04D48007CB4
:102620004D4908704B48007C012802D101F03AF96D
:1026300002E0002001F036F94648007E474909785B
:10264000884209D04348007E444908704149097EC8
:1026500001F0030001F050F93E48407E40490978FE
:10266000884205D13B48807E3E490978884217D090
:102670003848407E3A4908703648807E39490870AB
:10268000344A927E0AB1012200E000221146314A0A
:10269000527E0AB1012200E00022104601F0D6F875
:1026A0002C48C07E18B12B49C87EFFF783FB294810
:1026B000807A20B12748417A007F814207D025489F
:1026C000007F244948720120887201F023FA2648CD
:1026D0000078401C2449087008460078192818DB47
:1026E00000200870142104A807F01AF81948017E88
:1026F000B0F91400174AB2F91620CDE90020029172
:102700001448B0F91230027F04A918A00DF0B6FBEE
:1027100000BF00203CE700005B4172626974657293
:102720005D20436865636B73756D206661696C65D8
:10273000643A20657870656374656420307825306C
:1027400032582C20676F74203078253032580D0AAB
:1027500000000000301D0020580200205902002017
:102760005A0200205B0200205C02002025735B4AB5
:102770004554534F4E20434D445D207365713D25B4
:102780007520763D25642073746565723D2564204F
:102790006F6D6567613D2564206D6F74696F6E3D77
:1027A00025750D0A0000000070B504460D46082D81
:1027B00000D070BD6178207801F0ADFE09498887AE
:1027C000E178A07801F0A7FE0649C887E179A079F1
:1027D00001F0A1FE0349A1F84000012081F8EC00BE
:1027E00000BFE6E7301D0020032900D070470278C3
:1027F000074B83F852204378054A82F85330837898
:1028000082F854300122024B83F8EC2000BFEDE740
:10281000301D002030B51346082B03D1012801DB01
:10282000082800DD30BD441EE2B24C780D7844EA41
:10283000052425B2104C24F83250CC788D7844EA27
:10284000052425B20C4C04EBC20465800C792406E7
:102850004D7944EA05448D7944EA0524CD792C4329
:10286000054D05EBC2056C600124034D583D85F80C
:10287000EC4000BFD6E70000881D002070B503467D
:10288000082A03D1012B01DB082B00DD70BD5C1E83
:10289000E0B24C780D7844EA052500EB4006124C76
:1028A00024F81650CC788D7844EA052425B200EB44
:1028B00040060D4C04EB460465800C7965B200EBD4
:1028C0004006094C04EB460425714D7900EB4006A7
:1028D000054C04EB460465710124034D983D85F8D1
:1028E000EC4000BFD2E70000C81D0020082900D03E
:1028F000704702781206437842EA0342837842EA3C
:102900000322C3781A430A4BC3F8D0200279120677
:10291000437942EA0342837942EA0322C3791A43A4
:10292000034BC3F8D420012283F8EC2000BFDFE77B
:10293000301D0020082900D0704702781206437825
:1029400042EA0342837842EA0322C3781A430A4BDD
:10295000C3F8D82002791206437942EA0342837908
:1029600042EA0322C3791A43034BC3F8DC20012255
:1029700083F8EC2000BFDFE7301D0020082900D0DD
:1029800070470278104B83F8C820427853B20E4A41
:1029900082F8C930827853B20B4A82F8CA30C278C2
:1029A00053B2094A82F8CB30027953B2064A82F810
:1029B000CC30427953B2044A82F8CD300122024B26
:1029C00083F8EC2000BFDBE7301D0020082900D091
:1029D000704702780E4B83F8342043780C4A82F813
:1029E0003530C278837842EA0323094AD3860279D4
:1029F0001206437942EA0342837942EA0322C37909
:102A00001A43034B9A63012283F8EC2000BFDFE7EF
:102A1000301D0020082900D070474278037842EA30
:102A2000032212B2104BA3F84220C278837842EA04
:102A3000032213B20C4AA2F844304279037942EAE5
:102A4000032213B2084AA2F84630C279837942EAD7
:102A5000032213B2044AA2F848300122024B83F841
:102A6000EC2000BFD8E70000301D002070B5044600
:102A70000D46082D00D070BD6178207801F04BFD27
:102A80000E49A1F84A00E178A07801F044FD0B4915
:102A9000A1F84C006179207901F03DFD0749A1F8CA
:102AA0004E00E179A07901F036FD0449A1F850000B
:102AB000012081F8EC0000BFDDE70000301D0020A0
:102AC0002DE9FC5F82468B4615461E465946504608
:102AD00000F071F807463146284600F06CF8804651
:102AE000DDE90C0100F067F88146DDE90E0100F038
:102AF00062F80190002000903C46A04502DD44466B
:102B000001200090A14502DD4C4602200090019872
:102B1000A04201DD032000900098BDE8FC9F2DE954
:102B2000F05F82468B4615461E460C9C62885946CD
:102B3000504600F0FBFF0746A2883146284600F0C9
:102B4000F5FF8046E288DDE90A0100F0EFFF8146EB
:102B5000474504DB4F4502DB0020BDE8F09FC84538
:102B600001DB0120F9E70220F7E72DE9F05F82465B
:102B70008B4615461E460C9C22885946504600F04E
:102B8000D5FF0746A2883146284600F0CFFF804691
:102B9000E288DDE90A0100F0C9FF8146474504DB10
:102BA0004F4502DB0020BDE8F09FC84501DB012056
:102BB000F9E70220F7E7024619B14FF6FF708242AB
:102BC00001D1002070474EF65F20824201D90020DB
:102BD000F8E71046F6E7000010B50446002000F0C4
:102BE00011F800200549C88300210448418401846C
:102BF000012180F825100248047010BD301D00200E
:102C00005002002010B5044604480078A04204D0C9
:102C1000204600F071FE0148047010BD51020020F2
:102C200070B505460C462646142E01DA4FF4FA76A6
:102C30000120FFF7E7FF0348C68345840021018494
:102C400070BD0000301D002010B504460020FFF7C5
:102C5000D9FF0348C48300214184018410BD0000D2
:102C6000301D00202DE9F047A0B01AA8FFF79EFA0A
:102C7000BDF96810BDF96C20881800EBD0714910BF
:102C80000DB2BDF96A10BDF96E20881800EBD07145
:102C900049100EB2A81B07B2BDF96810BDF96A2031
:102CA0001144BDF96C201144BDF96E208818C1177C
:102CB00000EB917189100FFA81F8BDF9680001F0FD
:102CC00081FB8246BDF96A0001F07CFB8244BDF9BC
:102CD0006C0001F077FB8244BDF96E0001F072FBDD
:102CE0000AEB0004E01704EB907080100FFA80F9F3
:102CF000142115A806F014FD4449488D082213A993
:102D0000FFF7A0F84149888D082211A9FFF79AF82A
:102D10003E49C88D08220FA9FFF794F83B49088E59
:102D200008220DA9FFF78EF8384890F8520008A93C
:102D3000A1E881033548B0F94020B0F93C0033499F
:102D4000B1F95010314BB3F94E30CDE90431CDE932
:102D500006022E48B0F94C002C49B1F94A10BDF9D1
:102D60006E20BDF96C30CDE90032CDE90210BDF91D
:102D70006A30BDF9682015A925480DF07FF825486F
:102D800000780DA90FAA11ABCDE90332CDE90510EA
:102D900013AA1E480078204951F820001B49B1F9B8
:102DA0002210CDE9010200911848B0F92030B0F9A5
:102DB0001E2015A919480DF061F81DA91FA8FFF7DD
:102DC00099F81CA91EA8FFF755F89DF87800FFF7A1
:102DD00069FB04469DF87C00FFF764FB82460B48C4
:102DE00000780D4951F82000BDF97010CDE900417F
:102DF0000290BDF97430524615A909A00DF03EF8B5
:102E000000F024F820B0BDE8F0870000301D00205D
:102E10004CEC0308500200203C020020BCEC0308EC
:102E200025735B4D4F54494F4E5D2046423D2573FF
:102E3000202564207C20434D443D257320256420BB
:102E40007C204152423D25730D0A00002DE9F041DE
:102E500086B000261548C58E00240CE004EB440122
:102E60001248983000EB4100407900F0010000B1B9
:102E70000126601CC4B2082CF0DB142101A806F066
:102E80004FFC0A2095FBF0F100FB115795FBF0F881
:102E90000EB107A000E007A03B46424601A9009002
:102EA00006A00CF0EBFF06B0BDE8F081301D00205D
:102EB0004C6F77004E6F726D616C000025735B5034
:102EC00057525D20537973426174743D25752E25E8
:102ED000755620566C6F773D25730D0A0000000073
:102EE00010B5FEF721FF0F480078052813D2DFE860
:102EF00000F00306090C0F0000F0EEFA0FE000F0FE
:102F000049FB0CE000F05EF909E000F083F906E00F
:102F100000F012FB03E0002000F07CFD00BF00BFCA
:102F200010BD0000301D00203EB5694602A800F02B
:102F300073FF044604B93EBD40F262220298811A32
:102F4000904267D029DC40F25322A0EB020190426C
:102F500051D013DC40F24122A0EB0201904243D059
:102F600007DCA0F2112098B3102837D020286FD1A9
:102F700039E010293DD011297FD13BE004293ED012
:102F800006DC012938D0022937D0032975D135E074
:102F9000052935D00E2970D13BE00F2949D007DC37
:102FA00007296AD2DFE801F0693738393A3B3C003B
:102FB000B02953D006DC1F2940D02F2943D0AF2998
:102FC0005BD146E0FF294ED0B1F5807F55D14FE06F
:102FD000FFE721466846FFF7F9FC4FE021466846C7
:102FE000FFF7E2FB4AE049E021466846FFF7C6FCEE
:102FF00044E000BF00BF00BF00BF00BF00BF00BF74
:103000000299A1F51471C8B222466946FFF702FC85
:1030100034E000BF00BF00BF00BF00BF00BF00BF63
:103020000299A1F51871C8B222466946FFF726FC3D
:1030300024E021466846FFF7EDFC1FE02146684684
:10304000FFF714FD1AE021466846FFF7CDFB15E0B7
:1030500013E021466846FFF749FC0FE02146684629
:10306000FFF768FC0AE021466846FFF75FFA05E0D3
:1030700021466846FFF740FA00E000BF00BF00BFEE
:1030800059E700002DE9F04F89B04B48B0F82A808D
:10309000848DB0F82E90B0F830A090F8320000F097
:1030A0000105454890F83200C0F34006424890F8C8
:1030B0003200C0F3800B404890F83200C0F3C000EB
:1030C00008901DB14046FFF7EEF800E001200790A0
:1030D0001EB12046FFF7E7F800E001200690BBF1A3
:1030E000000F03D04846FFF7DEF800E0012005900E
:1030F000089818B15046FFF7D6F800E00120049078
:1031000000212D4880F825100184079868B10698A1
:1031100058B1059848B1049838B1FEF78BFD0120ED
:103120002649087009B0BDE8F08F0898334622465A
:103130002946CDE901BACDF8009003904046FFF74B
:10314000BFFC074627B1012F0ED0022F28D11DE06A
:103150000C201A4908702A464146642000F065FA9E
:103160000390FFF771FD24E00720144908706FF009
:103170004A0001F027F932462146029000F055FA44
:10318000404200B20390FFF75FFD12E008200B49B8
:1031900008704FF4FA7140F22260FFF741FD08E039
:1031A0000920064908704FF4FA710548FFF738FD09
:1031B00000BF00BF00BFB5E7301D00205002002057
:1031C000DEF9FFFF10B51148407F50B10F4840684D
:1031D0000F4909680C1A0F2C03D2042000F01AFCC6
:1031E00010BDFFF74FFF0949B1F91E00FEF7D2FDF0
:1031F0000649C8830221054880F8241090F825006C
:1032000010B1032000F006FC00BFE9E7301D0020EC
:103210000401002010B500200C49C88300210B4890
:1032200001844184032180F82410012180F82510B5
:10323000FEF764FA48B90548007A18B1022000F098
:10324000E9FB02E0042000F0E5FB10BD301D00208A
:103250002DE9F04F99B09F48468D878DC48D058E1E
:103260000146B1F91200FEF703FF18901898FEF717
:1032700042FD80461898FEF71BFD8146954890F860
:10328000320000F001001790924890F83200C0F32D
:10329000400016908F4890F83200C0F3800A8D48A5
:1032A00090F83200C0F3C00B00218A4880F8251046
:1032B0000184179848B14FF6FF70864203D04E45FF
:1032C00001DC012002E0002000E0012015901698AA
:1032D00048B14FF6FF70874203D04F4501DC012013
:1032E00002E0002000E001201490BAF1000F09D0A4
:1032F0004FF6FF70844203D04C4501DC012002E010
:10330000002000E001201390BBF1000F09D04FF620
:10331000FF70854203D04D4501DC012002E0002012
:1033200000E001201290179848B14FF6FF708642D6
:1033300003D0464501DC012002E0002000E001202E
:103340001190169848B14FF6FF70874203D0474559
:1033500001DC012002E0002000E001201090BAF121
:10336000000F09D04FF6FF70844203D0444501DCC2
:10337000012002E0002000E001200F90BBF1000FCF
:1033800009D04FF6FF70854203D0454501DC01208E
:1033900002E0002000E001200E900EA80BC8119A58
:1033A000CDE90723CDE9091012A80BC8159ACDE97C
:1033B0000074CDE90252CDE90431069033464A4605
:1033C00041461898FFF704F8424890F8320000F0A0
:1033D0000F0028B90120FFF7FFFB19B0BDE8F08FFF
:1033E000FEF78CF918B10120FFF7F6FBF5E7FEF7C1
:1033F00065FF10B1FEF71EFCEFE7FEF7E9FD0D904B
:103400000D9807285FD2DFE800F05E0413223140F8
:10341000430015991198CDE9025BCDE9004ACDE949
:1034200004103A463046DDE91631FEF79BFA4DE0CE
:1034300014991098CDE9025BCDE9004ACDE904105A
:103440003A463046DDE91631FEF70CFA3EE0DDE99A
:103450000E03DDE91212CDE90023CDE902103A4650
:103460003046DDE91631FEF707FB2FE0DDE90E03FC
:10347000DDE91212CDE90023CDE902103A463046CB
:10348000DDE91631FEF756FB20E0FEF7B1FB1DE04B
:10349000DDE90E03DDE91212CDE90823CDE90A10BA
:1034A000DDE91003DDE91412CDE9025BCDE9004A44
:1034B000CDE90423CDE906103A463046DDE9163160
:1034C000FEF76EF902E0FEF7B5FB00BF00BF00BFDC
:1034D00083E70000301D002010B51548007A18B1B0
:1034E000022000F097FA10BD114890F8280028B982
:1034F0000F4890F8320000F0010018B9012000F0E8
:1035000089FAF0E70A49B1F91200FEF743FC0849CD
:10351000C8830846818A0184C18A4184002180F8D9
:10352000241080F8251000200249087000BFDAE757
:10353000301D00205002002010B5FEF7DFF818B152
:10354000032000F067FA10BD1048007A18B102207D
:1035500000F060FAF7E70D48C0680D490968081ADD
:10356000322803D3002000F055FAECE70020074989
:10357000C8830021054801844184042180F8241077
:10358000002180F8251000BFDDE70000301D00207D
:103590000401002010B500211B4880F82510007A96
:1035A00018B1022000F036FA10BD174890F832002A
:1035B00000F0010038B1144890F8280018B9002034
:1035C00000F028FAF0E7FEF779FE30B1FEF732FBA3
:1035D00001210D4880F82410E6E7FFF739FE00F0DE
:1035E0005DFA0949B1F91E00FEF7D4FB0649C8830C
:1035F0000121054880F8241090F8250010B103201F
:1036000000F008FA00BFCFE7301D002001464FF65A
:10361000FF70814200D170474EF65F20814201D891
:103620000846F8E74FF6FF70F5E72DE9F047044646
:103630000D4616462046FEF71BFD81464A4631469A
:103640002846FEF70DFB074604FB07F0642190FBBC
:10365000F1F80FFA88F0FEF79DFBBDE8F087000057
:103660002DE9FC410020009001903F4890F8250092
:1036700018B100F0B5F8BDE8FC813B4890F8350082
:1036800003280ED13948007828B90120374908703D
:1036900037A00CF0F3FB00204149087000F0A0F8BF
:1036A000E9E70020314908702F4890F853000128BD
:1036B0000BD13B48007828B901203949087039A05E
:1036C0000CF0DCFB00F08CF8D5E7002034490870E2
:1036D0002548B0F91E60408C30B100252248B0F971
:1036E0002240AEB9372613E01F48008C70B11E4847
:1036F000B0F92070B7F5004F01DB47F6FF7717F5FB
:10370000004F00DA354F3DB2002401E000250024CF
:10371000B4F5004F01DB47F6FF7414F5004F00DAF3
:103720002E4C0FFA84F8300A8DF80000F0B28DF8B4
:103730000100280A8DF80200E8B28DF8030000208D
:103740008DF804008DF805004FEA18208DF806006A
:1037500008F0FF008DF807000822694640F21110BA
:1037600000F07EFB00BF86E7301D00205D020020D8
:103770005B417262697465725D2052656D6F74653C
:10378000206D6F646520283078323131292C20700B
:10379000617573652030783131310D0A0000000009
:1037A0005E0200205B417262697465725D204D6F3C
:1037B00074696F6E206D6F64656C207377697463D4
:1037C00068696E6720283078323931292C20706181
:1037D0007573652030783131310D0A000080FFFFAC
:1037E0001CB50020009001900822694640F211109B
:1037F00000F036FB1CBD000038B5044600940122E1
:10380000694640F2234000F02BFB0CB903A000E016
:1038100004A0014605A00CF031FB38BD43555252BF
:10382000454E5400564F4C54414745005B4172622F
:10383000697465725D2053657420647269766520D1
:103840006D6F64653A2025730D0A00007CB505464E
:103850000C460020009001908DF800508DF801403A
:103860000822694640F2211000F0FAFA2246294661
:1038700001A00CF003FB7CBD5B4172626974657250
:103880005D20536574206C696768743A20656E61C9
:10389000626C653D25642C206D6F64653D25640D6B
:1038A0000A00000038B5044600940122694640F23F
:1038B000214000F0D5FA0CB903A000E004A00146B5
:1038C00006A00CF0DBFA38BD5354414E4442590077
:1038D00043414E5F4354524C000000005B41726212
:1038E000697465725D20536574206D6F64653A205C
:1038F00025730D0A0000000038B50446009401222B
:10390000694640F2411000F0ABFA214601A00CF0EC
:10391000B5FA38BD5B417262697465725D205365AA
:1039200074206D6F74696F6E206D6F64653A202529
:10393000640D0A002DE9FC5F83460C4615461E46C1
:103940005846FEF7E5FC07462046FEF7E1FC8046B8
:103950002846FEF7DDFC01903046FEF7D9FC814693
:103960002B49B1F91200FEF783FB0090FEF7A0F996
:1039700082465846FFF74AFE254948852046FFF70C
:1039800045FE234988852846FFF740FE2049C88523
:103990003046FFF73BFE1E4908860FB1012000E0CC
:1039A0000020B8F1000F01D0022100E000210843FF
:1039B000019909B1042100E000210843B9F1000F89
:1039C00001D0082100E000210843114981F83200AC
:1039D0008C46BCF83030BCF82E20BCF82C10BCF85B
:1039E0002A00FEF737FD0A49C8840846C08C4FF606
:1039F000FF71884205D00648C08C504501DC01208B
:103A000000E00020024981F82800BDE8FC9F00008A
:103A1000301D002010B5044614480078A04224D080
:103A2000134850F8242011480078114B53F8201007
:103A300010A00CF023FA0D480470042C03D1164892
:103A400000680A49C860042C00D01CB9002107484E
:103A500080F82510022C08D100200449C8830021D9
:103A6000024801844184C182818210BD301D002042
:103A70003C0200205B417262697465725D204D6F8B
:103A80006465207377697463683A202573202D3E3E
:103A90002025730D0A000000040100202DE9F041EB
:103AA0001B48B0F912400CB9BDE8F081002C06DDCE
:103AB0001748478D90F8320000F0010605E01448E1
:103AC000878D90F83200C0F34006324639462046D2
:103AD000FFF7ABFD0546002C04DD0D48B0F91E00D4
:103AE000002806DC002C11DA0948B0F91E00002875
:103AF0000CDA0749B1F91E0000F064FC8046284644
:103B000000F060FC804501DA0148C58300BFCBE7C7
:103B1000301D0020034800680349486000200872F7
:103B20007047000004010020301D00202DE9F04105
:103B300005460E46144631462846FFF73CF88046B7
:103B400008FB04F04FF47A71B0FBF1F7B8B2BDE8AE
:103B5000F08100001CB50121202006F09FF8012013
:103B60008DF804000002009003208DF8050000206D
:103B70008DF8060001208DF8070069460E4803F015
:103B800047F84FF480710C4803F0B6F801200B4958
:103B9000087000200A4908700A4908804FF48071B3
:103BA000054803F0ABF864200DF034FB4FF480714E
:103BB000014803F0A1F81CBD00140240FE000020E3
:103BC000FF0000200001002010B54548007810B12A
:103BD0004448007828B94FF48071434803F08CF8CA
:103BE00010BD42480088401C404908803D4800788C
:103BF000142814DC08460088142190FBF1F201FB24
:103C00001200012805DA4FF48071374803F076F886
:103C100064E04FF48071344803F06EF85EE03148A0
:103C20000078282814DC314800880A2190FBF1F242
:103C300001FB1200032805DA4FF480712A4803F0D3
:103C40005DF84BE04FF48071274803F055F845E0EC
:103C5000244800783C2814DC24480088052190FB87
:103C6000F1F201FB1200032805DA4FF480711E48BF
:103C700003F044F832E04FF480711B4803F03CF845
:103C80002CE018480078502814DC184800880521DA
:103C900090FBF1F201FB1200042805DA4FF4807169
:103CA000114803F02BF819E04FF480710E4803F02F
:103CB00023F813E00D4800880A2190FBF1F201FB84
:103CC0001200092805DA4FF48071074803F016F84E
:103CD00004E04FF48071044803F00EF800BF7FE762
:103CE000FE000020FF000020001402400001002020
:103CF00010B504460848007800B910BD642C00DDFA
:103D000064240648047024B94FF48071044802F01A
:103D1000F3FF00BFF1E70000FE000020FF000020DD
:103D20000014024000BFFEE708B50020072305226B
:103D30000421009000F002F808BD00002DE9F041D8
:103D40008AB004460D4616461F46DDF84080012124
:103D5000084605F0A3FF0121480605F0BFFF092230
:103D60000B212B4802F09CFF09220C21284802F06D
:103D700097FF4FF4C050089002208DF824000020D7
:103D80008DF8260003208DF8250001208DF82700EE
:103D900008A91F4802F03CFF00208DF81A000120FE
:103DA0008DF81B0000208DF81C0001208DF81D00EF
:103DB00000208DF81E008DF81F008DF816808DF8FC
:103DC00017408DF818608DF81950ADF8147005A9DA
:103DD000104800F003F900208DF80E008DF80F0058
:103DE00001208DF810000020ADF80400ADF80600A9
:103DF000ADF80800ADF80A00ADF80C0001208DF810
:103E0000110001A800F066F80AB0BDE8F0810000DA
:103E1000000002400064004070B586B005460E46C2
:103E200000210E4800F064F910B9002006B070BD02
:103E300001AA0021094800F06AF9019828600024CD
:103E400004E00DF10F00005D3055641C9DF80E007C
:103E5000A042F6D89DF80E00E8E70000006400409C
:103E60002DE9F04186B007468846154600240197A3
:103E7000002002908DF80C008DF80D008DF80E508A
:103E800000BF06E018F804100DF10F000155601C8A
:103E900084B2AC42F6DB01A90D4800F0B0F9064649
:103EA000002401E0601C84B23146094800F03AFA6F
:103EB00018B940F6FF708442F4DB40F6FF7084428C
:103EC00003DB012006B0BDE8F0810020FAE7000026
:103ED0000064004010B50021837A012202FA03F148
:103EE0003D4A126842F001023B4B1A603A4A1C32CA
:103EF00012688A43384B1C331A60027BCAB9364AAF
:103F00000C3212688A43344B0C331A604288C388DF
:103F100042EA0343304A4032847A42F8343002881D
:103F2000838842EA03432C4A4032847A02EBC4027B
:103F30005360027B012A19D1274A0C3212680A43C6
:103F4000254B0C331A604288038842EA0343224A15
:103F50004032847A42F83430C288838842EA03438C
:103F60001D4A4032847A02EBC4025360C27A3AB9E5
:103F7000194A121D12688A43174B1B1D1A6006E06E
:103F8000154A121D12680A43134B1B1D1A60028941
:103F900032B9114A143212688A430F4B14331A6033
:103FA0000289012A06D10C4A143212680A430A4BCC
:103FB00014331A60427B012A06D1074A1C32126868
:103FC0000A43054B1C331A60034A126822F00102AF
:103FD000014B1A6010BD00000066004030B502467B
:103FE00000200023146824F002041460146844F0D4
:103FF0000104146000E05B1C546804F001041CB967
:104000004FF6FF74A342F6D1546804F001040CB9D2
:1040100000206CE08C79012C04D1146844F08004F9
:10402000146003E0146824F080041460CC79012C3F
:1040300004D1146844F04004146003E0146824F0D0
:10404000400414600C7A012C04D1146844F020045C
:10405000146003E0146824F0200414604C7A012CEE
:1040600004D1146844F01004146003E0146824F0D0
:10407000100414608C7A012C04D1146844F00804F4
:10408000146003E0146824F008041460CC7A012C56
:1040900004D1146844F00404146003E0146824F0AC
:1040A000040414608C78A407CD7844EA05640D7983
:1040B00044EA05444D7944EA05540D886D1E2C43AD
:1040C000D461146824F001041460002300E05B1C38
:1040D000546804F001041CB14FF6FF74A342F6D1FA
:1040E000546804F001040CB1002000E0012030BD50
:1040F0000246002019B9D36803F0030006E0012945
:1041000003D1136903F0030000E00020704710B5ED
:1041100000F5D87303EB01131B6803F0040313725B
:10412000137A53B900F5D87303EB01131B6840F2FF
:10413000FF7404EA5353136009E000F5D87303EBEE
:1041400001131B686FF0604404EAD303536000F569
:10415000D87303EB01131B6803F00203537200F5DD
:10416000D87303EB01135B6803F00F03937200F540
:10417000D87303EB01135B681B0AD37400F5D87383
:1041800003EB01139B68D37200F5D87303EB0113A3
:104190009B681C0A147300F5D87303EB01139B682A
:1041A0001C0C547300F5D87303EB01139B681B0EB2
:1041B000937300F5D87303EB0113DB68D37300F539
:1041C000D87303EB0113DB681C0A147400F5D87371
:1041D00003EB0113DB681C0C547400F5D87303EB7C
:1041E0000113DB681B0E937421B9C36843F02003ED
:1041F000C36003E0036943F02003036110BD10B501
:1042000002460020936803F08063B3F1806F00D111
:1042100010E0936803F00063B3F1006F01D1012057
:1042200008E0936803F08053B3F1805F01D102206E
:1042300000E00420042874D002F5C07303EB0013DF
:104240001B6803F0010402F5C07303EB00131C604C
:104250000B7A7BB94B7A0C8843EA445302F5C0745D
:1042600004EB00142468234302F5C07404EB00142B
:10427000236010E00B7A4C6843EAC4034C7A234372
:1042800002F5C07404EB00142468234302F5C074E3
:1042900004EB001423608B7A03F00F038B7202F59A
:1042A000C07303EB00135B6823F00F0402F5C073C7
:1042B00003EB00135C6002F5C07303EB00135B6853
:1042C0008C7A234302F5C07404EB001463608B7B8B
:1042D0001C064B7B44EA03440B7B44EA0323CC7A61
:1042E000234302F5C07404EB0014A3608B7C1C060E
:1042F0004B7C44EA03440B7C44EA0323CC7B2343FA
:1043000002F5C07404EB0014E36002F5C07303EB24
:1043100000131B6843F0010402F5C07303EB0013A4
:104320001C6010BD10B50246002321B1012907D041
:1043300002290FD109E090681D4C00EA04030BE04C
:1043400090681C4C00EA040306E090681A4C00EAEE
:10435000040301E0002300BF00BF184C181BA34258
:1043600016D007DC83B16FF08060184470B102286A
:1043700018D111E0B0F5007F10D0114C204448B1A5
:10438000B0F5003F0ED10BE002230DE000230BE05F
:10439000002309E0002307E0012305E0012303E0F7
:1043A000012301E0002300BF00BFD8B210BD000010
:1043B00003000004000300080000031000010008CF
:1043C0000001FFF70146002902DA484200B27047B7
:1043D0000846FCE72DE9F04107460D4614463846ED
:1043E000FFF7F0FF0646322F0EDD1E2D03DB268081
:1043F0000120BDE8F08115F11E0F02DC26800220AD
:10440000F7E727800420F4E717F1320F0DDA1E2DAD
:1044100002DB26800120ECE715F11E0F02DC26806E
:104420000220E6E726800520E3E70020208000BF89
:10443000DFE72DE9F04107460D4614463846FFF701
:10444000C1FF0646322F0EDD15F11E0F03DC26805C
:104450000120BDE8F0811E2D02DB26800220F8E756
:1044600027800420F5E717F1320F0DDA15F11E0F42
:1044700002DC26800120ECE71E2D02DB26800220D4
:10448000E7E726800520E4E70020208000BFE0E782
:104490002DE9F04106460C4615463046FFF792FFDF
:1044A00007462046FFF78EFF8046322E16DD2F800E
:1044B000B8F1C80F02DC0420BDE8F081B4F5966FB6
:1044C00001DB0120F8E714F5966F01DC0220F3E729
:1044D000C82C01DD0120EFE70220EDE716F1320FD5
:1044E00015DA2F80B8F1C80F01DC0520E4E7B4F538
:1044F000966F01DB0120DFE714F5966F01DC0220E7
:10450000DAE7C82C01DD0120D6E70220D4E700203D
:10451000288000BFD0E7024641EA022000B270477F
:1045200010B596B0FCF79EFF13A915A8FDF7E2FCA5
:1045300012A914A8FDF79EFC9DF85400FDF7B2FFE8
:1045400004461B48B0F93E001949B1F94010184A19
:10455000B2F93C20CDE900210290BDF94C30224651
:1045600014A104A80BF0B2FC04A9A02008F0D8F90B
:104570009DF85000FDF796FF04460D48B0F9201055
:10458000B0F922000A4AB2F91E20CDE900200291BA
:10459000BDF9483022460FA104A80BF097FC04A9EE
:1045A000B02008F0BDF9FCF76BFF16B010BD00009D
:1045B000301D0020526563763A252D357320253352
:1045C0006420762534642073253464207725346490
:1045D0000000000053656E643A252D3573202533A5
:1045E0006420762534642073253464207725346470
:1045F0000000000070B58CB0FFF792FF00F062F889
:10460000FCF730FF2048C08E0A2190FBF1F201FB3D
:1046100012061D48C08E90FBF1F51B4890F835003E
:1046200033462A4619A1009002A80BF04FFC02A9BC
:10463000E02008F075F9144890F8E00000281EDD2D
:104640001148B0F8E240B4F57A7F03DD0A2094FB0C
:10465000F0F084B20A2094FBF0F100FB114594FBCA
:10466000F0F60948009590F8E02033460EA102A824
:104670000BF02CFC02A94FF4807008F051F9FCF704
:10468000FFFE0CB070BD0000301D0020426174744C
:104690003A2532642E25316456204D6F64653A30D8
:1046A0007825303258000000424D5320534F433A92
:1046B000253264252520563A2532642E253164564C
:1046C0000000000000B593B0FCF7CCFE01A8FDF798
:1046D0006DFDBDF90630BDF904200CA10BA80BF04F
:1046E000F5FBBDF90A30BDF908200CA103A80BF0B9
:1046F000EDFBFCF7C5FE0BA9C02008F011F903A9DA
:10470000D02008F00DF913B000BD00004C463A254A
:10471000356420202052463A253564004C523A2513
:10472000356420202052523A2535640070B50025AA
:104730004FF4803404E0802006F0CCF800B103E0B0
:10474000201EA4F10104F6D100BF0CB9032070BDF6
:1047500040F2FF5006F094F82846F8E770B504469A
:1047600005E01648056805F0450000B100E0F8E7EF
:1047700000BF042006F0AEF820B1042006F080F857
:10478000032070BD012006F0A5F820B1012006F03D
:1047900077F80120F5E7094824380068A04201D0E5
:1047A0001020EEE740F2FF5006F06AF80348203888
:1047B000006808210840C0B2E3E70000342C014043
:1047C00070B500264FF4803505E01148046804F008
:1047D000450000B103E0281EA5F10105F5D100BF99
:1047E00015B104F0040028B10326042006F048F8AF
:1047F000304670BD012006F06DF818B10126012089
:1048000006F03EF840F2FF5006F03AF83046F0E786
:10481000342C014010B505E00B48046804F0450055
:1048200000B100E0F8E700BF042006F053F820B123
:10483000042006F025F8032010BD40F2FF5006F0DA
:104840001FF80020F8E70000342C01402DE9F0416A
:1048500005460E464FF0000805E02048076807F0BF
:10486000450000B100E0F8E700BF042006F032F890
:1048700028B1042006F004F80320BDE8F0810120EF
:1048800006F028F820B1012005F0FAFF0120F4E736
:10489000124824380068A84201D01020EDE740F209
:1048A000FF5005F0EDFF0D482038046804F4604027
:1048B00018B9200C30804046DFE704F4005008B1FE
:1048C0001320DAE704F4804008B11020D5E704F49F
:1048D000004008B10F20D0E74046CEE7342C01401D
:1048E00070B500264FF4803505E00F48046804F0E9
:1048F000450000B103E0281EA5F10105F5D100BF78
:1049000015B104F0040028B10326042005F0B8FF17
:10491000304670BD04F0400018B10026402005F07C
:10492000AFFF3046F5E70000342C014070B5064675
:104930000C4604F08000802808D104F07F0000EBD2
:10494000800106F58E7000EBC10505E004EB8401E3
:1049500006F55D7000EBC1050020A87004F07F0033
:104960002870C4F3C0106870294630460AF081FFF1
:10497000002070BD2DE9F04106460D4690461F46C9
:1049800005F08000802808D105F07F0000EB800151
:1049900006F58E7000EBC10407E005F07F0000EB28
:1049A000800106F55D7000EBC10405F07F0020700A
:1049B00005F08000C0096070C4F80880E770607876
:1049C00008B12078E080022F01D10020207121461B
:1049D00030460AF002FF0020BDE8F0812DE9F041E9
:1049E00005460E461746984606F07F0000EB80010C
:1049F00005F55D7000EBC104E760C4F81480002089
:104A0000A061607006F07F002070E878012800D176
:104A10002761207820B9214628460AF002FE03E0EB
:104A2000214628460AF07FFF0020BDE8F08108B546
:104A300000220092009A61F30A1200920269126841
:104A4000009B1A4303691A6008BD70B506460C4600
:104A500004F08000802808D104F07F0000EB800182
:104A600006F58E7000EBC10505E004EB840106F548
:104A70005D7000EBC1050120A87004F07F00287074
:104A8000C4F3C0106870294630460AF01AFF0020AF
:104A900070BD2DE9F04107460D461646984605F0D3
:104AA0007F0000EB800107F58E7000EBC104012050
:104AB000607005F07F002070E66026610020A06134
:104AC000C4F81480207820B9214638460AF0A9FDA0
:104AD00003E0214638460AF026FF0020BDE8F081B9
:104AE0001CB5044620460AF067FDE068C0680090E7
:104AF00020460BF03DF803280BD10020A0704FF4A6
:104B00000070A080009820F4705000F510500090C4
:104B100009E00120A0704020A080009820F470508F
:104B200000F5A05000900098E168C8600020019056
:104B3000019820F4005000F5005001900198E168C0
:104B4000486101201CBD0000F8B505460024002086
:104B5000009028460BF03FF8064690E006F0010072
:104B600000287DD0E1B2284600F0B4FA0090009809
:104B700000F0010030B3012000FA04F72869406B0F
:104B8000B8432969486300200090009820F0010094
:104B9000401C009005F1180050F824000099816035
:104BA000E1B239480068426828469047E878012811
:104BB00008D13CB940F21110405D042802D12846CA
:104BC0000AF0DAFD0098C0F3C00060B10020009048
:104BD000009820F008000830009005F1180050F807
:104BE0002400009981600098C0F3001060B100209B
:104BF0000090009820F010001030009005F118008F
:104C000050F82400009981600098C0F3801060B1D2
:104C100000200090009820F040004030009005F106
:104C2000180050F82400009981600098C0F34000FB
:104C300060B100200090009820F00200801C0090DD
:104C400005F1180050F82400009981600098C0F325
:104C5000C01028B12146284600F050FA002000E09C
:104C60000BE00090009820F080008030009005F16B
:104C7000180050F8240000998160641C7608002E0A
:104C80007FF46CAF0120F8BDE80200207CB504463B
:104C900000250020019020460AF0A5FF06466FE09F
:104CA00006F00100002869D0E9B220460AF0A3FF0F
:104CB0000190019800F00100C8B300200190019814
:104CC00020F00100401C019004F1540050F8250030
:104CD00001998160E078012817D104F1540050F85F
:104CE00025000069009005EB850104F55D7000EB7F
:104CF000C10080680099C1F31201411A05EB8502D9
:104D000004F55D7000EBC2008161E9B21E480068E5
:104D1000026820469047E078012808D13DB940F26A
:104D20001110005D052802D120460AF025FD0198EA
:104D3000C0F3400060B100200190019820F0020013
:104D4000801C019004F1540050F825000199816005
:104D50000198C0F3C00088B10B4800688168204604
:104D6000884700200190019820F008000830019049
:104D700004F1540050F82500019981606D1C7608FB
:104D8000002E8DD101207CBDE80200203EB50446F6
:104D9000A07A70B1D4F80C010090009820F00200C5
:104DA0000090009820F0010000900099D4F80C01C8
:104DB000016000200190019820F00100401C01904A
:104DC0002069406801998843216948600848006863
:104DD00081692046884700200290029820F0004018
:104DE00000F1004002900298E168486101203EBD58
:104DF000E80200207CB5044600200190019820F0D4
:104E0000100010300190E068806901998843E168E2
:104E10008861E068006A0090009800F00F0000EBE5
:104E2000800104F55D7000EBC1050098C0F34340BC
:104E300007282DD2DFE800F02C04051D1E2C1F00D2
:104E400027E00098C0F30A1090B10098C0F30A124E
:104E50002046E9680AF0D9FEE8680099C1F30A1112
:104E60000844E860A8690099C1F30A110844A861E0
:104E70000FE00EE00DE0082204F2CC5120460AF0CB
:104E8000C4FEA8690099C1F30A110844A86100E0B2
:104E900000BF00BFE068806901990843E16888614C
:104EA00001207CBD38B5044608480068C16820462A
:104EB000884700200090009820F0080008300090FB
:104EC0000098E1684861012038BD0000E802002038
:104ED0001FB50446002000904FF48970005D0090DB
:104EE000234800684169204688472069806801900E
:104EF00000200390039820F4006000F50060039008
:104F00000398E1684861A07A70B3019800F001004D
:104F100050B340F21510005D012825D19DF8000026
:104F2000032821D100200290029820F00100401CAB
:104F30000290D4F80C01006802990843D4F80C11CF
:104F40000860029820F00200801C0290D4F80C0146
:104F5000006802990843D4F80C11086005480068FD
:104F600040F0060003490860012004B010BD0000B5
:104F7000E802002010ED00E030B587B004460020C4
:104F8000029006900590049003900190029820F002
:104F90000100401C02902069406802998843216901
:104FA0004860002120460AF0B9FD00250BE0FF21F2
:104FB00004F1180050F82500816004F1540050F805
:104FC000250081606D1C6078A842F0D84FF0FF3159
:104FD0002069816106986FF30F00401C06900698C7
:104FE00080B200F58030069006992069C16105986D
:104FF00020F0080008300590059820F00100401CC2
:105000000590059820F00200801C05900599206904
:105010004161049820F00100401C0490049820F0A5
:10502000080008300490049820F00200801C0490CE
:10503000049920690161206900680390039820F4B5
:10504000FE60039003992069016020460AF094FBFA
:1050500000200190019820F4805000F580500190CC
:105060000198E16848610448006801692046884762
:10507000012007B030BD0000E802002038B504462A
:105080000020009007480068C169204688470098C2
:1050900020F4801000F5801000900098E1684861CD
:1050A000012038BDE802002038B5044600200090F9
:1050B00007480068016A20468847009820F40010DD
:1050C00000F5001000900098E1684861012038BDAB
:1050D000E802002030B5024615692B6915696C6B32
:1050E00024FA01F505F0010543EAC51302F118059C
:1050F00055F82150AD6805EA030030BD2DE9F843AD
:1051000007460E4600250020009006EB860107F5B5
:105110008E7000EBC104D4E90501451AA068A842CD
:1051200000D2A568E81C4FEA900807F1180050F873
:105130002600806900901BE0D4E90501451AA068AB
:10514000A84200D2A568E81C4FEA9008ABB2F2B2C0
:105150003846E1680AF06DFDE0682844E060A06927
:105160002844A06107F1180050F8260080690090DB
:10517000009880B2404506D9D4E90510884202D291
:1051800060690028D8D10120BDE8F8830149486151
:105190007047000000000550014600200022044B2B
:1051A0001B6903EA01020AB1012000E000207047F8
:1051B0000000055010B50120FFF7EEFF012811D1C6
:1051C0000EF068FD0120FFF7E1FF0748006808B90D
:1051D000012000E000200449086004480078401CD9
:1051E0000249087010BD0000A4824242040200205F
:1051F00010B50749074800F04BF9012806D10449CA
:10520000044800F03BF804480068804710BD0000E7
:1052100020800020706002400002002010B5074985
:10522000074800F013F9012806D10449044800F0AA
:105230000BF804480068804710BD0000000800100B
:1052400028640240080200200246094B9A4201D21B
:10525000084801E00648103801F000531BB1064B26
:105260000B40C36002E0044B0B40836070470000BA
:1052700010640240006002407D0F7D0F0246094B22
:105280009A4201D2084801E00648103801F0005364
:105290001BB1064B0B40C36002E0044B0B40836024
:1052A0007047000010640240006002407D0F7D0FD7
:1052B00021B1026842F00102026003E0026822F0BC
:1052C0000102026070470000016821F001010160E5
:1052D0000021016041608160C16001612121416163
:1052E0004A49884204D13D21484A103A91608CE0F5
:1052F00046491831884205D14FF47461434A103A47
:10530000916082E041493031884205D14FF47411F7
:105310003E4A103A916078E03C494831884205D1D4
:105320004FF07461394A103A91606EE0374960314C
:10533000884204D13649354A103AD16065E0334994
:105340007831884204D13349304A103AD1605CE068
:105350002E499031884204D12F492C4A103AD1600D
:1053600053E02A49A831884205D14FF03D51274AE0
:10537000103AD16049E02949884204D13D21274AA9
:10538000083A116041E025491831884205D14FF4AF
:105390007461224A083A116037E02049303188426E
:1053A00005D14FF474111D4A083A11602DE01B49D4
:1053B0004831884205D14FF07461184A083A1160AB
:1053C00023E016496031884204D11149134A121F63
:1053D00011601AE011497831884204D10D490F4A11
:1053E000121F116011E00D499031884204D10A4921
:1053F0000A4A121F116008E00849A831884204D106
:105400004FF03D51054A121F116070471060024075
:105410003D000020400F002000003D2010640240AD
:1054200021B1026842F02002026003E0026822F02B
:10543000200202607047014600200A6802F0010263
:105440000AB1012000E000207047000030B503469B
:105450000A46002000240B4DAB4201D20A4901E06C
:105460000849103902F000550DB14C6800E00C6895
:10547000064D2C4004EA02050DB1012000E0002099
:1054800030BD000010640240006002407D0F7D0FBF
:1054900070B50246002000240025124EB24201D20F
:1054A000114B01E00F4B103B104E0E4036B11E2643
:1054B00006EAD124166806EA040502E0566906F0F9
:1054C000800501F000560EB15C6800E01C68084ED3
:1054D000344004EA010616B10DB1012000E00020BD
:1054E00070BD000010640240006002403C0F3C0FA1
:1054F0007D0F7D0F10B500220268134B1A40CC6857
:105500000B6823434C6923438C692343CC692343B1
:105510000C6A23434C6A23438C6A23434C6B23431A
:105520008C6B23431A430260426922F00702D1E9DF
:105530000B3423431A4342610B6943604B68836019
:105540008B68C36010BD00003F801CF070470000F6
:105550002DE9F04104460D4617461E46DDF8188039
:1055600011F042F814B10D480088208015B10C48A4
:105570000088288017B10B480088388016B10A4887
:1055800000883080B8F1000F03D008480088A8F8E0
:10559000000011F04BF8BDE8F0810000B0000020E1
:1055A000B2000020B4000020B6000020B8000020A7
:1055B0002DE9F04104460D4616461F46DDF81880D9
:1055C00011F012F807480480074805800748068054
:1055D000074807800748A0F8008011F027F8BDE8C9
:1055E000F0810000B0000020B2000020B4000020D4
:1055F000B6000020B800002002468A4202DB501AA2
:1056000080B27047881A80B2FBE74EF6EE6398428C
:1056100004D102230B700023138019E038B14FF638
:10562000FF73984203D04EF66023984204D30123BF
:105630000B70002313800BE04EF65F23984204D9D1
:1056400001230B700023138002E000230B701080F5
:105650007047000000B585B00848007808B905B06B
:1056600000BD0020054908701421684604F058F870
:10567000694603A00AF002FC00BFF0E71402002014
:1056800025735B44535D2052582074696D656F75B6
:10569000742C2072657365740D0A000010B5044601
:1056A000204600F0D7F908B1002010BD1E2C03D30E
:1056B0004EF65F20844201D90020F6E70120F4E78E
:1056C0002DE9F0478146884617461C46012F02DA2D
:1056D0000020BDE8F0873946404600F01DF8054639
:1056E0002E464FF6FF7084420BD021464846FFF706
:1056F00083FF824629464846FFF77EFF824500DA4F
:10570000264631464846FFF777FFB0F5167F01D9A8
:105710000120DEE70020DCE77EB504460A4612B928
:105720004FF6FF707EBD002105E034F811002DF822
:105730001100481CC1B29142F7DB012115E03DF890
:1057400011000B4606E05D1E3DF815502DF8135074
:105750005D1EEBB2002B04DD5D1E3DF81550854249
:10576000F1DC2DF81300481CC1B29142E7DB15466D
:1057700002EBD57040103DF81000D3E710B50024BF
:1057800031E01A48005D50B9002019490855174802
:10579000093830F81410204600F02EF821E01448A3
:1057A000005DFF2804DA1248005D401C10490855CE
:1057B0000F48005D032814D3002004EB44010D4A78
:1057C00002EB011181F8280004EB440102EB011106
:1057D00081F82C004FF6FF7004EB440102EB01113D
:1057E0004885601CC4B2042CCBDB10BD51180020CE
:1057F00017020020601800202DE9FE4F80460E465B
:1058000008EB4800814901EB00140027BB46B8F1C2
:10581000040F01DBBDE8FE8F304600F01BF9824625
:10582000BAF1000F55D13046FFF738FF00B9F1E764
:1058300094F82C0068B1608D4FF6FF71884208D053
:10584000608DB04205DA608D301AB0F5FA6F00D97C
:10585000E0E794F82C00C8B1608D4FF6FF718842E4
:1058600014D0608DB04207DA608D301A962803D3C9
:10587000002084F8280009E0608DB04206DD608DCC
:10588000801B962802D3002084F8280000250DE014
:1058900034F83500FFF702FF30B134F835203846D0
:1058A000791CCFB22DF81020681CC5B294F82800DE
:1058B000A842EDDC94F82C0008B1608D01E04FF6B1
:1058C000FF7003463A4669463046FFF7F9FE00B1DD
:1058D000A0E794F82800052805D294F82800401C79
:1058E00084F828000CE0002508E004EBC501681CE2
:1058F00004EBC00205CA05C1681CC5B2042DF4D36F
:1059000094F82800401E24F830604148016894F85B
:105910002800401E04EBC000416014E0002508E0B0
:1059200004EBC501681C04EBC00205CA05C1681C74
:10593000C5B294F82800401EA842F1DC94F8280073
:10594000401E84F8280094F82800002805DD30491E
:1059500060680968081A6428E0D80027BB4600255B
:1059600018E034F83500FFF799FE38B134F83520E7
:105970003846791CCFB22DF8102009E034F83500F4
:1059800000F068F8012803D10BF1010000F0FF0BD3
:10599000681CC5B294F82800A842E2DC77B1394609
:1059A0006846FFF7B9FE8146A4F82A90012084F8E2
:1059B0002C004946404600F027FB2BE7012F0BD176
:1059C000BDF800006085012084F82C00BDF80010AF
:1059D000404600F019FB1DE7BBF1000F0AD04FB99C
:1059E00000206085012084F82C000021404600F052
:1059F0000BFB0FE794F8280028B9002084F82C004E
:105A00004FF6FF70608500BF04E7000060180020BB
:105A100010020020002017E0002100EB40020C4B98
:105A200003EB021282F828104FF6FF7100EB4002E0
:105A300003EB02125185002100EB400203EB02123E
:105A400082F82C10411CC8B20428E5DB7047000026
:105A50006018002001464FF6FF70814201D10220FC
:105A6000704709B90120FBE70020F9E72DE9F04173
:105A700005460E46174606B10FB9BDE8F081042D64
:105A800002DB00203070F8E71748007A78B116483A
:105A90000930405D012804D013480930405D0228D8
:105AA00005D13A463146284600F028F8E5E7284671
:105AB00000F08CF804464FF6FF70844205D10BA22B
:105AC000394630460AF0EAF90CE02CB908A239460A
:105AD00030460AF0E3F905E0234606A2394630468F
