:020000040800F2
:1000000018BD01209D0100081D750008915A0008C7
:10001000CD740008AD2C00083BD40008000000009F
:10002000000000000000000000000000259B000808
:10003000BD44000800000000C97500081DA20008AA
:10004000B7010008B7010008B7010008A17D00084A
:10005000B7010008B7010008B7010008B7010008A0
:10006000B7010008B7010008B7010008B701000890
:10007000B7010008B7010008B70100086141000896
:10008000B7010008B7010008B7010008B701000870
:10009000B7010008B7010008B7010008D5510008F2
:1000A000B7010008B7010008B7010008B701000850
:1000B000BDA6000805A8000831A80008B70100087F
:1000C000B7010008B7010008B7010008B701000830
:1000D000B701000801BA00083DBB0008FDBB0008DD
:1000E000B701000809780008B7010008B701000847
:1000F000B7010008B7010008B7010008B701000800
:10010000B7010008F5800008B7010008B701000832
:10011000B7010008B7010008D5A80008B70100081A
:10012000B70100088D410008B7010008B7010008B9
:10013000B701000811510008B7010008B701000815
:10014000B7010008B7010008B7010008AD75000845
:10015000B7010008B7010008B7010008B70100089F
:10016000B7010008B7010008B7010008B70100088F
:10017000B7010008B701000825410008B7010008D1
:10018000B7010008B7010008DFF80CD000F0B2FB9F
:10019000004800474D16010818BD01200648804759
:1001A00006480047FEE7FEE7FEE7FEE7FEE7FEE75C
:1001B000FEE7FEE7FEE7FEE75DA200088901000812
:1001C0002DE9F05F0546002092469B46884606468C
:1001D000814640241BE0284641464746224600F01F
:1001E000A0FA53465A46C01A914110D311461846F8
:1001F000224600F087FA2D1A67EB01084F46224687
:100200000120002100F07EFA17EB00094E41201E6C
:10021000A4F10104DFDC484631462A464346BDE8E6
:10022000F09F2DE9F0410024061B254671F10006E0
:1002300005DA01240027D0EB070067EB0101161E49
:1002400073F1000605DA0027D2EB0702012567EB00
:100250000303FFF7B5FF86460E4617469C46AC42A1
:1002600004D00025D0EB050E65EB010624B100207B
:10027000D2EB000760EB030C704631463A4663460A
:10028000BDE8F08140EA01039B0703D009E008C9FB
:10029000121F08C0042AFAD203E011F8013B00F84B
:1002A000013B521EF9D27047D2B201E000F8012B97
:1002B000491EFBD270470022F6E710B513460A46E6
:1002C00004461946FFF7F0FF204610BD421E12F803
:1002D000013F002BFBD111F8013B02F8013B002B41
:1002E000F9D17047034611F8012B00F8012B002AC1
:1002F000F9D1184670472DE9FE4F804681EA030088
:10030000C00F0C46009021F0004123F00045B8EBEF
:100310000200A94105D24046214690461C460B46A4
:10032000024623F00040104347D0270DC7F30A00D0
:10033000C3F30A510290401A019040286BDAC3F3CC
:10034000130040F4801B0098924620B10023D2EBAA
:10035000030A63EB0B0B01985946C0F1400250466B
:1003600000F0D0F906460D4650465946019A00F075
:10037000E8F910EB08006141002487EA115284EA91
:10038000E7731A4340D0009A62B3019A012A4FEAF8
:10039000075215DC001B61EB02014FF0004202EA3C
:1003A0000752CDE90042001C41F5801132462B4630
:1003B00000F0E8F903B0BDE8F08F40462146F9E7C8
:1003C000001B61EB0201001C41F5801300185B412A
:1003D0002018A2F5001747EB030140EAD570B619C3
:1003E0006D4111E06D084FEA360645EAC0754FEAE7
:1003F0000752001B61EB0201001C41F58011490806
:100400004FEA30000019514132462B4603B0BDE897
:10041000F04F00F0A8B90098012240000023D0EB73
:10042000020263EBE073009821464FEAE074B8EBF8
:10043000000061EB0401E9E783F000435BE781F032
:10044000004158E72DE9FE4F81EA030404F000441F
:1004500021F0004100944FF0000B23F0004350EADC
:1004600001045ED052EA03045BD0C3F30A54C1F323
:100470000A552C44A4F2F3340194A0FB0254C1F3B6
:10048000130141F48011C3F3130343F4801301FB00
:10049000024400FB034E840A970A44EA815447EA67
:1004A0008357A4FB076802958D0A05FB07854FEA71
:1004B000932C04FB0C542705029D4FEA065847EA8B
:1004C0001637B5EB08056EEB070C870E920E47EA60
:1004D000811742EA8312A7FB0201B6EB0B0164EB22
:1004E00000042B0D43EA0C335E1844EB1C50DA4633
:1004F0005146E7FB0201C5F313044FEA0B3343EA0D
:1005000014534FEA0432019C43EA0603A4F10C049D
:100510000294009CCDE900B400F034F903B0BDE8CA
:10052000F08F00200146F9E72DE9F04D81EA030440
:1005300004F0004B21F0004514464FF0000A23F070
:10054000004150EA050220D054EA01021DD0C5F353
:100550000A570246C5F31303C1F31300C1F30A5649
:1005600040F4801543F48013A7EB0608101BD64611
:1005700008F2FD3873EB050002D308F1010801E031
:1005800092185B41B8F1000F03DA00200146BDE884
:10059000F08D00204FF48011064684460EE0171BB4
:1005A00073EB050705D3121B63EB050306434CEA07
:1005B000010C49084FEA300092185B4150EA0107EC
:1005C000EDD152EA030012D082EA040083EA050169
:1005D000084305D0101BAB4106D20122002306E0E0
:1005E00000224FF0004302E06FF0010253101AEBBB
:1005F00006004CEB085110EB0A0041EB0B01BDE883
:10060000F04D00F0B0B80EB540F233410291002138
:10061000CDE900110A460B4600F0B4F803B000BD66
:10062000C1F30A5210B5C1F3130140F2FF3341F494
:1006300080119A4201DA002010BD40F233439A4201
:10064000A2F2334203DC524200F06BF810BD90403E
:1006500010BD00F0004230F000400AD0C10D01F59D
:100660006071C0F3160042EA0151C208400711430D
:10067000704700200146704730B5041E71F1000438
:1006800004DB4FF00044404264EB0101141E73F19F
:10069000000405DB1C464FF00043524263EB0403A9
:1006A0008B4208BF824230BD30B5041E71F1000498
:1006B00004DB4FF00044404264EB0101141E73F16F
:1006C000000405DB1C464FF00043524263EB040379
:1006D000994208BF904230BD30B50B46014600201C
:1006E0002022012409E021FA02F59D4205D303FAF4
:1006F00002F5491B04FA02F52844151EA2F1010275
:10070000F1DC30BD202A04DB203A00FA02F100209F
:1007100070479140C2F1200320FA03F3194390403F
:100720007047202A04DB203A21FA02F000217047AA
:1007300021FA02F3D040C2F1200291400843194649
:100740007047202A06DBCB17203A41FA02F043EA31
:10075000E07306E041FA02F3D040C2F1200291407A
:1007600008431946704710B5141E73F1000408DAE7
:10077000401C41F1000192185B411A4301D120F065
:10078000010010BD2DE9F04D92469B4611B1B1FA22
:1007900081F202E0B0FA80F220329046FFF7B2FF19
:1007A00004460F4640EA0A0041EA0B0153465A4606
:1007B000084313D0114653EA010019D0C8F1400292
:1007C0005046FFF7AEFF05460E4650465946424694
:1007D000FFF798FF084305D0012004E02046394682
:1007E000BDE8F08D0020054346EAE0762C43374310
:1007F0000A986305E40AA0EB08000022FD0A44EA17
:1008000047540A3002D500200146E9E701051019D6
:100810006941DDE9084500196941BDE8F04DA2E7ED
:100820002DE9F04D00231A461B1A8A4103DB0020F4
:100830000146BDE8F08DC1F30A52C1F3130141F442
:1008400080154FF0000BD10702D100186D41521EE8
:100850000027044640F2FF11384601EB620A3E468B
:100860008046024600204FF48011FFF75AFFC2195C
:100870007141BB1846EB0100B4EB030C75EB000CA7
:1008800004D3E41A65EB000517460E46241908F157
:1008900001006D4180463428E3DDF91946EB06007E
:1008A000091BA84103D24FF0FF32134601E000229A
:1008B00013461BEB070046EB0A51BDE8F04DFFF76E
:1008C00052BFC1F30A52C1F3130140F2FF3341F4A6
:1008D00080119A4202DA00200146704740F2334309
:1008E0009A42A2F2334202DC5242FFF71ABFFFF7EC
:1008F00009BF0000064C074D06E0E06840F0010328
:1009000094E8070098471034AC42F6D3FFF740FC58
:10091000C4A60308E4A6030870B58C1810F8015BA0
:1009200015F0070301D110F8013B2A1106D110F888
:10093000012B03E010F8016B01F8016B5B1EF9D18C
:100940002B0705D40023521E0DD401F8013BFAE712
:1009500010F8013BCB1A921C03E013F8015B01F87D
:10096000015B521EF9D5A142D8D3002070BD21B140
:10097000826842F00102826003E0826822F0010294
:10098000826070470021084A1168084A1140D0E986
:1009900000231A4383681A43C3681A431143044A65
:1009A000C2F804137047000004230140E030FCFF4C
:1009B0000020014030B50246002000235068104C52
:1009C00020400D790C6844EA05242043506090686B
:1009D0000C4C2040D1E903542C438D682C434D79B5
:1009E00044EA450420439060D06A20F470000C7DF6
:1009F000641EE4B2234340EA0350D06230BD0000DD
:100A0000FFFEFFFCFDF7FFC038B10849096841F45B
:100A10000001074AC2F8041306E00449096821F4FA
:100A20000001034AC2F80413704700000423014088
:100A30000020014000B58BB00121080206F0F6FD50
:100A40000120FFF7E1FF002007900A9009904FF482
:100A50008030089007A8FFF795FF002001908DF8DF
:100A600008008DF809000390059001208DF818000A
:100A700001A90448FFF79EFF01210248FFF777FF15
:100A80000BB000BD0020014010B5FF2000F02DF894
:100A90000446362C01D1002010BD3621FF2000F085
:100AA00065F8FF2000F021F80446362C01D1002023
:100AB000F2E70120F0E710B505F07AFE10BD2DE950
:100AC000F04107460C460026002509E03602391998
:100AD000491B491E88B200F008F80644681CC5B2DC
:100AE000A542F3DB3046BDE8F08170B50446002630
:100AF00005F0FEFE2546E11704EB11610912A02264
:100B000002EB4101C8B205F0C1FE05F029FFE11773
:100B100004EB11610912A4EB0121C8B205F0B6FE85
:100B200005F01EFF05F0E4FEA12005F0AFFE05F084
:100B300017FF002005F07EFE064605F0F5FE304664
:100B400070BD2DE9F04105460E461746002409E028
:100B5000E20026FA02F2D1B22A1990B200F006F8A9
:100B6000601CC4B2BC42F3DBBDE8F08170B5044642
:100B70000E4605F0BDFE2546E11704EB1161091292
:100B8000A02202EB4101C8B205F080FE05F0E8FEAC
:100B9000E11704EB11610912A4EB0121C8B205F0C1
:100BA00075FE05F0DDFE304605F070FE05F0D8FE5E
:100BB00005F0BAFE0A200DF089FE70BD2DE9FF5F39
:100BC0002648448D858DC68D008E0390234890F86D
:100BD000320000F001000290204890F83200C0F38B
:100BE000400001901D4890F83200C0F380071B4878
:100BF00090F83200C0F3C008029818B1204600F007
:100C00006DFC00E001208146019818B1284600F0F3
:100C100065FC00E0012000901FB1304600F05EFC52
:100C200000E001208246B8F1000F03D0039800F0E5
:100C300055FC00E001208346B9F1000F0BD000986D
:100C400048B1BAF1000F06D0BBF1000F03D001206C
:100C500004B0BDE8F09F0020FAE70000D81700209C
:100C60002DE9FF4F87B014AD95E8E00F2A4CB4F999
:100C70000600002811DD1C9810BB1D9800BB082041
:100C80002649087000F0B8FC0146069040F2226048
:100C900001F074F80BB0BDE8F08FB4F9060000283D
:100CA0000EDA1E9860B91F9850B909201B490870C8
:100CB00000F0A2FC01460690194801F05FF8E9E750
:100CC000B4F90200002801DCE08830B18DE8E007CB
:100CD00007A80FC800F08CF81CE0B4F90200002847
:100CE00008DA1B988DE8E009059007A80FC800F006
:100CF00019F80FE00D2009490870002001F030F8C4
:100D0000372005491039C883E188034810384184E9
:100D10000021018400BFBDE7E8170020A4010020E6
:100D2000DEF9FFFF2DE9FC5F8046894614461D462B
:100D3000DDE90FAB119E2B4FBBF1000F10D17EB937
:100D40000720294908702946204600F015FC01902B
:100D500001F026F8F988A7F110004184BDE8FC9F56
:100D60009DB196B93C2C10DDB42C0EDC07201E4939
:100D700008702946204600F0FFFB019001F010F8B2
:100D8000F988184810384184E8E7072016490870A8
:100D90000E98CDE9000A49464046DDE90C2300F0F3
:100DA00095FF10B1012811D107E04946404600F0F7
:100DB00009FC019000F0F4FF10E000F01DFC01467A
:100DC000019040F2226000F0D9FF07E000F014FC2F
:100DD00001460190054800F0D1FF00BF00BF00BFF1
:100DE000BCE70000E8170020A4010020DEF9FFFFA7
:100DF0002DE9FC5F04460D4616461F46DDE90CABA7
:100E0000DDF84480DFF8BC90109898B9B8F1000F75
:100E100010D10C202C4908702946204600F0D2FB46
:100E2000019000F0BDFFB9F80610A9F1100041844F
:100E3000BDE8FC9FB5B1B8F1000F13D13C2C11DD1A
:100E4000B42C0FDC0B20204908702946204600F006
:100E5000B9FB019000F0A4FFB9F80610194810384A
:100E60004184E5E7062018490870DDE90E015B467C
:100E70005246CDE900013946304600F003FF10B17B
:100E8000012813D109E00F491039888D394600F047
:100E900073FB019000F084FF10E000F0ADFB014611
:100EA000019040F2226000F069FF07E000F0A4FB2F
:100EB00001460190054800F061FF00BF00BF00BF80
:100EC000B6E70000E8170020A4010020DEF9FFFFCC
:100ED0002DE9F84F06460F4614461D46DDE90B9AEC
:100EE000DDF8288000F088FB0090B8F1000F0CD1ED
:100EF000B9F1000F09D108201B49087040F22260A7
:100F0000009900F03BFFBDE8F88FBAF1000F09D15E
:100F10000D9838B90920144908701448009900F058
:100F20002DFFF0E73946304600F0F4FE83462946AF
:100F3000204600F0EFFE83450ADB0A200A490870CC
:100F40003946304600F03EFB834600F029FF09E0B9
:100F50000A20054908702946204600F00DFB83460B
:100F600000F01EFF00BFCEE7A4010020DEF9FFFF66
:100F70002DE9F84F06460F4614461D46DDE90B9A4B
:100F8000DDF8288000F038FB0090BAF1000F0AD19C
:100F90000D9840B909201C4908701C48009900F0C0
:100FA000EDFEBDE8F88FB8F1000F0BD1B9F1000FDD
:100FB00008D108201449087040F22260009900F01E
:100FC000DDFEEEE73946304600F0A4FE83462946B2
:100FD000204600F09FFE83450ADB0A200A4908707C
:100FE0003946304600F0EEFA834600F0D9FE09E0BB
:100FF0000A20054908702946204600F0BDFA8346BC
:1010000000F0CEFE00BFCCE7A4010020DEF9FFFF18
:1010100010B50E4C022000F0A3FE0020A4F1100138
:10102000C8830021A4F1100041840D2008490870F4
:10103000FFF7C4FD20B10021A4F11000018403E0FA
:10104000A18802481038018410BD0000E817002074
:10105000A401002010B5002000F082FE0020064907
:10106000C883002104480184418480F825100020B1
:101070000249087010BD0000D8170020A40100200C
:10108000024619B14FF6FF70824201D1002070472D
:101090003C2A01DC0020FAE7B42A01DB6420F6E7F1
:1010A000A2F13C0064235843782390FBF3F0EEE771
:1010B00010B50E4840680E4909680C1A0F2C11D360
:1010C0000A48007A88B904EB8400810009A00CF07A
:1010D00087FA012005490872002104484182818273
:1010E000C18202E000200149087210BDD81700201B
:1010F000680000205B417262697465725D2048651A
:1011000061727462656174206C6F7374212028258C
:101110006C75206D73290D0A000000000146B1F5C1
:101120007A7F02DD4FF47A70704711F57A7F01DA29
:101130000148F9E70846F7E718FCFFFF38B5044611
:1011400000940122694640F2414001F04DFE2146E3
:1011500001A00CF045FA38BD5B417262697465729A
:101160005D20436C656172206572726F723A203047
:1011700078253032580D0A0010B5012001F044FBEB
:10118000002001F0EBFA002001F068FB01A00CF058
:1011900027FA10BD5B417262697465725D2043413C
:1011A0004E206D6F646520656E61626C65642C20F5
:1011B000726561647920746F20636F6E74726F6CF6
:1011C00020636861737369730D0A000070B504468B
:1011D0000D4616464FF6FF70844204D105A12846FD
:1011E0000CF00EFA04E0224603A128460CF008FA9F
:1011F00070BD00002D2D2D00257500002DE9F84F44
:1012000004460D464FF0000A002000901A48B0F93D
:101210001E60B0F92280B0F9209090F8250018B136
:1012200000BF002000901DE0B8F1000F09D0374644
:1012300007B937276A464146384602F08FF882469A
:101240000FE00D48008C30B14FF0030A484602F021
:101250007DF8009005E06A460021304602F07EF8F5
:10126000824600BF0CB184F800A015B1BDF90000A2
:101270002880BDE8F88F0000D81700202DE9FC5F1A
:1012800005460E464FF00009002000903148B0F9A5
:101290003CA0B0F93EB0B0F9400001902D4890F864
:1012A0005280504602F052F80746584602F04EF877
:1012B0000446B8F1030F03D100BF002000903FE0C7
:1012C000244890F8250020B14FF00009002000903C
:1012D00036E0322F06DA322C04DA4FF00009002013
:1012E00000902DE0B8F1000F19D0B8F1010F0ED029
:1012F000B8F1020F12D14FF00309322C01DB009438
:1013000004E0322F01DB009700E0009416E06A460B
:101310005046019902F080F881460FE000BF6A460E
:101320005046019902F049F88146B9F1000F04D105
:10133000322C02DB4FF00309009400BF00BF00BF56
:101340000DB185F8009016B1BDF900003080BDE800
:10135000FC9F0000D817002010B5264C00F0D4F8F0
:1013600008B1002010BD207A022801D10520F9E73C
:10137000207A01281AD1B4F90600502801DB032095
:10138000F0E7B4F9060010F1500F01DC0420E9E7A2
:10139000B4F90200002801DD0120E3E7B4F90200FE
:1013A000002801DA0220DDE70020DBE7B4F90200C3
:1013B000002801DD0120D5E7B4F90200002801DA98
:1013C0000220CFE7B4F90400502804DCB4F904008B
:1013D00010F1500F01DA0520C4E7B4F906005028D7
:1013E00004DCB4F9060010F1500F01DA0620B9E769
:1013F0000020B7E7E817002000B970470849B1F8A6
:101400004A1081800649B1F84C1001800449B1F8B6
:101410004E1041800249B1F85010C18000BFECE786
:10142000D817002010B500201F4908701F48006819
:1014300048600020087248728872C86001200874F1
:101440000021194841828182C182017641768176EC
:10145000C1760177417700201349C88300211248E3
:101460000184418480F8241080F825104FF6FF7025
:101470000D49C884002081F828004FF6FF70488588
:10148000014609488185C18501860020064981F809
:1014900032000749087004480078064A52F82010C4
:1014A00005A00CF09DF810BDD817002068000020A2
:1014B000A5010020900100205B4172626974657291
:1014C0005D20496E697469616C697A65642C206D70
:1014D0006F64653A2025730D0A00000001464FF63F
:1014E000FF70814203D03C2901DC012070470020BD
:1014F000FCE701464FF6FF70814203D0B42901DCBE
:10150000012070470020FCE71349087A032801D125
:1015100001207047488808B10020FAE7B1F90400BB
:10152000502804DCB1F9040010F1500F01DA00205A
:10153000EFE7B1F90600502804DCB1F9060010F11C
:10154000500F01DA0020E4E7087A022801D10020D8
:10155000DFE70120DDE70000E817002001464FF635
:10156000FF70814205D04EF65F20814201D80120F4
:1015700070470020FCE700002DE9F04105460E46CB
:101580000F48B0F91270002F05DB6FF04A0001F030
:10159000DDFE044603E0384601F0D8FE0446142C74
:1015A00004DA6FF04A0001F0D1FE044632462946C3
:1015B000204600F0F2FF404200B2BDE8F08100009A
:1015C000D81700202DE9F04105460E460948B0F92C
:1015D0001270002F00DC6427384601F0B7FE044685
:1015E000142C00DA642432462946204600F0D5FF48
:1015F000BDE8F081D817002010B50649B1F91200F6
:1016000001F0A4FE0446142C00DA46242046FFF71D
:1016100085FD10BDD81700202DE9F04180460D460C
:1016200016461F464FF6FF744046FFF797FF10B16E
:10163000A04500DA44462846FFF790FF10B1A542C6
:1016400000DA2C463046FFF789FF10B1A64200DAD7
:1016500034463846FFF782FF10B1A74200DA3C4615
:101660002046BDE8F0810000014606290ED2DFE8E1
:1016700001F00D030507090B05A0704706A0FCE764
:1016800007A0FAE708A0F8E708A0F6E709A0F4E742
:101690004C454654000000005249474854000000A1
:1016A0005350494E00000000465744004241434B0E
:1016B0000000000053544F5000000000042900D0E7
:1016C00070470278094B83F8E8204378074A82F88C
:1016D000E930837882F8EA30C37882F8EB3001226F
:1016E000024B83F8EC2000BFEAE70000D817002087
:1016F000082900D070470278114B83F8E020437826
:101700000F4A82F8E130C278837842EA03230C4A18
:10171000A2F8E2304279037942EA032213B2084A7E
:10172000A2F8E430C279837942EA032213B2044A70
:10173000A2F8E6300122024B83F8EC2000BFD9E783
:10174000D8170020F0B589B004460F460026182FA0
:1017500002D0012009B0F0BD2078AA2801D00120D4
:10176000F8E76078012801D00120F3E7002503E0C5
:10177000605D4640681CC5B2172DF9DBE07DB042C4
:1017800006D0E27D314655A00BF02AFF0120E1E7AB
:10179000A17861480177E0785F4908746179207920
:1017A00001F07DFE5C494882E179A07901F077FE85
:1017B00059498882617A207A01F071FE5649C882BF
:1017C000A17A55480176E17A4176217B8176617B69
:1017D000C17601214177007C5049097888420DD0BB
:1017E0004D48007C4D4908704B48007C012802D1CF
:1017F00001F00AF802E0002001F006F84648007EF9
:1018000047490978884209D04348007E4449087016
:101810004149097E01F0030001F020F83E48407E76
:1018200040490978884205D13B48807E3E49097885
:10183000884217D03848407E3A4908703648807E42
:1018400039490870344A927E0AB1012200E0002230
:101850001146314A527E0AB1012200E000221046B0
:1018600000F0A6FF2C48C07E18B12B49C87EFFF7B8
:1018700065FC2948807A20B12748417A007F81425F
:1018800007D02548007F244948720120887201F062
:10189000AFF826480078401C2449087008460078B4
:1018A000192818DB00200870142104A805F0E8FCB2
:1018B0001948017EB0F91400174AB2F91620CDE993
:1018C000002002911448B0F91230027F04A918A038
:1018D0000BF086FE00BF00203CE700005B41726217
:1018E000697465725D20436865636B73756D20660E
:1018F00061696C65643A206578706563746564201D
:101900003078253032582C20676F7420307825309D
:1019100032580D0A00000000D8170020A601002050
:10192000A7010020A8010020A9010020AA01002091
:1019300025735B4A4554534F4E20434D445D2073FD
:1019400065713D257520763D25642073746565724B
:101950003D2564206F6D6567613D2564206D6F7462
:10196000696F6E3D25750D0A0000000070B50446D4
:101970000D46082D00D070BD6178207801F08FFDF4
:1019800009498887E178A07801F089FD0649C88770
:10199000E179A07901F083FD0349A1F8400001201D
:1019A00081F8EC0000BFE6E7D8170020032900D03B
:1019B00070470278074B83F852204378054A82F833
:1019C0005330837882F854300122024B83F8EC20A4
:1019D00000BFEDE7D817002030B51346082B03D120
:1019E000012801DB082800DD30BD441EE2B24C783E
:1019F0000D7844EA052425B2104C24F83250CC78F6
:101A00008D7844EA052425B20C4C04EBC2046580B1
:101A10000C7924064D7944EA05448D7944EA05247D
:101A2000CD792C43054D05EBC2056C600124034DB7
:101A3000583D85F8EC4000BFD6E700003018002084
:101A400070B50346082A03D1012B01DB082B00DD0A
:101A500070BD5C1EE0B24C780D7844EA052500EBC1
:101A60004006124C24F81650CC788D7844EA0524B0
:101A700025B200EB40060D4C04EB460465800C7962
:101A800065B200EB4006094C04EB460425714D7924
:101A900000EB4006054C04EB460465710124034D40
:101AA000983D85F8EC4000BFD2E700007018002098
:101AB000082900D0704702781206437842EA0342B0
:101AC000837842EA0322C3781A430A4BC3F8D02032
:101AD00002791206437942EA0342837942EA0322F9
:101AE000C3791A43034BC3F8D420012283F8EC20B6
:101AF00000BFDFE7D8170020082900D07047027820
:101B00001206437842EA0342837842EA0322C3780A
:101B10001A430A4BC3F8D82002791206437942EAE5
:101B20000342837942EA0322C3791A43034BC3F881
:101B3000DC20012283F8EC2000BFDFE7D81700206B
:101B4000082900D070470278104B83F8C8204278EB
:101B500053B20E4A82F8C930827853B20B4A82F8E7
:101B6000CA30C27853B2094A82F8CB30027953B2F4
:101B7000064A82F8CC30427953B2044A82F8CD301A
:101B80000122024B83F8EC2000BFDBE7D8170020CE
:101B9000082900D0704702780E4B83F83420437830
:101BA0000C4A82F83530C278837842EA0323094A26
:101BB000D38602791206437942EA0342837942EAE4
:101BC0000322C3791A43034B9A63012283F8EC2062
:101BD00000BFDFE7D8170020082900D070474278FF
:101BE000037842EA032212B2104BA3F84220C278D3
:101BF000837842EA032213B20C4AA2F844304279B5
:101C0000037942EA032213B2084AA2F84630C279A5
:101C1000837942EA032213B2044AA2F8483001222F
:101C2000024B83F8EC2000BFD8E70000D817002053
:101C300070B504460D46082D00D070BD617820783F
:101C400001F02DFC0E49A1F84A00E178A07801F0DE
:101C500026FC0B49A1F84C006179207901F01FFCAA
:101C60000749A1F84E00E179A07901F018FC044978
:101C7000A1F85000012081F8EC0000BFDDE7000072
:101C8000D81700202DE9F05F81468A4614461D468C
:101C9000DDF828B05146484600F03CF80646294693
:101CA000204600F037F8074658460B9900F032F806
:101CB0008046BE4204DB464502DB0020BDE8F09FC3
:101CC000474501DB0120F9E70220F7E72DE9F05F46
:101CD00081468A4614461D46DDF828B051464846DE
:101CE00000F018F806462946204600F013F807468B
:101CF00058460B9900F00EF88046BE4204DB46457C
:101D000002DB0020BDE8F09F474501DB0120F9E739
:101D10000220F7E7024619B14FF6FF70824201D167
:101D2000002070474EF65F20824201D90020F8E77C
:101D30001046F6E710B50446002000F011F8002028
:101D40000549C8830021044841840184012180F8A9
:101D500025100248047010BDD8170020A4010020EF
:101D600010B5044604480078A04204D0204600F094
:101D700075FD0148047010BDA501002070B5054631
:101D80000C462646142E00DA46260120FFF7E8FF0F
:101D90000248C68345840021018470BDD817002005
:101DA00010B504460020FFF7DBFF0348C483002181
:101DB0004184018410BD0000D81700202DE9F047B0
:101DC000A0B01AA8FFF718FBBDF96810BDF96C2088
:101DD000881800EBD07149100DB2BDF96A10BDF939
:101DE0006E20881800EBD07149100EB2A81B07B204
:101DF000BDF96810BDF96A201144BDF96C20114489
:101E0000BDF96E208818C11700EB917189100FFA87
:101E100081F8BDF9680001F099FA8246BDF96A00BF
:101E200001F094FA8244BDF96C0001F08FFA82440B
:101E3000BDF96E0001F08AFA0AEB0004E01704EB2A
:101E4000907080100FFA80F9142115A805F018FA87
:101E50004449488D082213A9FFF7B8F94149888DF4
:101E6000082211A9FFF7B2F93E49C88D08220FA92F
:101E7000FFF7ACF93B49088E08220DA9FFF7A6F938
:101E8000384890F8520008A9A1E881033548B0F914
:101E90004020B0F93C003349B1F95010314BB3F94F
:101EA0004E30CDE90431CDE906022E48B0F94C00A0
:101EB0002C49B1F94A10BDF96E20BDF96C30CDE95D
:101EC0000032CDE90210BDF96A30BDF9682015A9CC
:101ED00025480BF085FB254800780DA90FAA11AB0A
:101EE000CDE90332CDE9051013AA1E480078204938
:101EF00051F820001B49B1F92210CDE901020091EF
:101F00001848B0F92030B0F91E2015A919480BF077
:101F100067FB1DA91FA8FFF7B1F91CA91EA8FFF7B1
:101F20006DF99DF87800FFF79FFB04469DF87C0053
:101F3000FFF79AFB82460B4800780D4951F82000C4
:101F4000BDF97010CDE900410290BDF974305246E0
:101F500015A909A00BF044FB00F024F820B0BDE85F
:101F6000F0870000D817002030A30308A401002048
:101F700090010020A0A3030825735B4D4F54494FE7
:101F80004E5D2046423D2573202564207C20434D34
:101F9000443D2573202564207C204152423D257319
:101FA0000D0A00002DE9F04186B000261548C58EC7
:101FB00000240CE004EB44011248983000EB41008F
:101FC000407900F0010000B10126601CC4B2082C69
:101FD000F0DB142101A805F053F90A2095FBF0F17C
:101FE00000FB115795FBF0F80EB107A000E007A029
:101FF0003B46424601A9009006A00BF0F1FA06B05C
:10200000BDE8F081D81700204C6F77004E6F726DDD
:10201000616C000025735B5057525D205379734209
:102020006174743D25752E25755620566C6F773D6D
:1020300025730D0A0000000010B5FFF739F80F48AE
:102040000078052813D2DFE800F00306090C0F0022
:1020500000F0FCF90FE000F057FA0CE000F0BEF8D9
:1020600009E000F0F1F806E000F020FA03E00020BB
:1020700000F07AFC00BF00BF10BD0000D8170020A0
:102080003EB5694602A800F08BFE044604B93EBD89
:1020900040F262220298811A904267D029DC40F215
:1020A0005322A0EB0201904251D013DC40F24122B6
:1020B000A0EB0201904243D007DCA0F2112098B3BC
:1020C000102837D020286FD139E010293DD01129B0
:1020D0007FD13BE004293ED006DC012938D002291B
:1020E00037D0032975D135E0052935D00E2970D1B7
:1020F0003BE00F2949D007DC07296AD2DFE801F06D
:10210000693738393A3B3C00B02953D006DC1F29E7
:1021100040D02F2943D0AF295BD146E0FF294ED0D4
:10212000B1F5807F55D14FE0FFE721466846FFF7C4
:102130002FFD4FE021466846FFF718FC4AE049E0D2
:1021400021466846FFF7FCFC44E000BF00BF00BF2B
:1021500000BF00BF00BF00BF0299A1F51471C8B253
:1021600022466946FFF738FC34E000BF00BF00BFDD
:1021700000BF00BF00BF00BF0299A1F51871C8B22F
:1021800022466946FFF75CFC24E021466846FFF7DB
:1021900023FD1FE021466846FFF74AFD1AE021466D
:1021A0006846FFF703FC15E013E021466846FFF799
:1021B0007FFC0FE021466846FFF79EFC0AE02146BF
:1021C0006846FFF795FA05E021466846FFF776FA7C
:1021D00000E000BF00BF00BF59E7000010B518487D
:1021E000407F50B116484068164909680C1A0F2CF8
:1021F00003D2042000F0B8FB10BDFFF785F910B939
:102200000F48407F30B9FEF725FF02210C4880F8C7
:102210002410F1E700F036F80949B1F91E00FEF785
:102220007DFF0749C8830221054880F8241090F8F3
:10223000250010B1032000F097FB00BFDCE7000091
:10224000D81700206800002010B500200C49C88372
:1022500000210B4801844184032180F824100121CE
:1022600080F82510FEF7AAFC48B90548007A18B195
:10227000022000F079FB02E0042000F075FB10BDA5
:10228000D81700202DE9F04F95B06F48408D14907D
:102290006D48808D13906C48C68D078E90F8320083
:1022A00000F00109684890F83200C0F34000129035
:1022B000654890F83200C0F38004634890F832001B
:1022C000C0F3C0050021604880F825100184B9F1F1
:1022D000000F03D01498FFF70CF900E001201190D3
:1022E000129818B11398FFF704F900E0012010903C
:1022F0001CB13046FFF7FDF800E0012082461DB119
:102300003846FFF7F6F800E001200F90B9F1000F12
:1023100003D01498FFF7E2F800E001200E90129825
:1023200018B11398FFF7DAF800E001200D901CB106
:102330003046FFF7D3F800E001200C901DB138467D
:10234000FFF7CCF800E0012083463F4890F83200C8
:1023500000F00F0028B90120FFF7ECFC15B0BDE834
:10236000F08FFEF72BFC18B10120FFF7E3FCF5E737
:10237000FFF7CAF810B1FEF76DFEEFE7FEF7ECFFCE
:102380008046B8F1070F59D2DFE808F0580413224D
:102390002F3C3F0011990E98CDE90275CDE90064FC
:1023A000CDE904104946DDE912321498FEF720FD0C
:1023B00047E010990D98CDE90275CDE90064CDE9AB
:1023C00004104946DDE912321498FEF7ABFC38E000
:1023D0000F990C98CDE9021BCDE900A04946DDE933
:1023E00012321498FEF774FD2BE00F990C98CDE98A
:1023F000021BCDE900A04946DDE912321498FEF730
:10240000B7FD1EE0FEF704FE1BE00F990C98CDE926
:102410000A1BCDE908A0DDE90D03DDE91012CDE9C5
:102420000275CDE90064CDE90423CDE906104946E3
:10243000DDE912321498FEF713FC02E0FEF70AFE03
:1024400000BF00BF00BF89E7D817002010B51548AE
:10245000007A18B1022000F087FA10BD114890F8F8
:10246000280028B90F4890F8320000F0010018B990
:10247000012000F079FAF0E70A49B1F91200FEF7FD
:102480004DFE0849C8830846818A0184C18A418477
:10249000002180F8241080F82510002002490870DF
:1024A00000BFDAE7D8170020A401002010B5FEF71E
:1024B00085FB18B1032000F057FA10BD1048007AD0
:1024C00018B1022000F050FAF7E70D48C0680D4936
:1024D0000968081A322803D3002000F045FAECE717
:1024E00000200749C8830021054801844184042154
:1024F00080F82410002180F8251000BFDDE70000DF
:10250000D81700206800002010B500211A4880F874
:102510002510007A18B1022000F026FA10BD1648E6
:1025200090F8320000F0010038B1134890F828000C
:1025300018B9002000F018FAF0E7FEF7E5FF30B117
:10254000FEF788FD01210C4880F82410E6E7FFF72C
:1025500099FE0949B1F91E00FEF7E0FD0649C8835E
:102560000121054880F8241090F8250010B10320BF
:1025700000F0FAF900BFD1E7D817002001464FF666
:10258000FF70814200D170474EF65F20814201D832
:102590000846F8E74FF6FF70F5E72DE9F0410446ED
:1025A0000D46164631462846FEF76AFD074604FBEF
:1025B00007F0642190FBF1F80FFA88F0FEF7AEFD0A
:1025C000BDE8F0812DE9FC410020009001903F48DA
:1025D00090F8250018B100F0B5F8BDE8FC813B4843
:1025E00090F8350003280ED13948007828B9012029
:1025F0003749087037A00AF0F3FF002041490870FE
:1026000000F0A0F8E9E70020314908702F4890F861
:10261000530001280BD13B48007828B901203949E3
:10262000087039A00AF0DCFF00F08CF8D5E7002034
:10263000344908702548B0F91E60408C30B100253F
:102640002248B0F92240AEB9372613E01F48008C6B
:1026500070B11E48B0F92070B7F5004F01DB47F6A6
:10266000FF7717F5004F00DA354F3DB2002401E047
:1026700000250024B4F5004F01DB47F6FF7414F584
:10268000004F00DA2E4C0FFA84F8300A8DF8000063
:10269000F0B28DF80100280A8DF80200E8B28DF83A
:1026A000030000208DF804008DF805004FEA182083
:1026B0008DF8060008F0FF008DF807000822694633
:1026C00040F2111000F090FB00BF86E7D817002001
:1026D000AB0100205B417262697465725D205265D6
:1026E0006D6F7465206D6F646520283078323131EC
:1026F000292C2070617573652030783131310D0AD5
:1027000000000000AC0100205B41726269746572D8
:102710005D204D6F74696F6E206D6F64656C207302
:102720007769746368696E67202830783239312997
:102730002C2070617573652030783131310D0A00BD
:102740000080FFFF1CB50020009001900822694620
:1027500040F2111000F048FB1CBD000038B50446E3
:1027600000940122694640F2234000F03DFB0CB981
:1027700003A000E004A0014605A00AF031FF38BD27
:1027800043555252454E5400564F4C544147450014
:102790005B417262697465725D2053657420647276
:1027A000697665206D6F64653A2025730D0A000017
:1027B0007CB505460C460020009001908DF8005035
:1027C0008DF801400822694640F2211000F00CFB10
:1027D0002246294601A00AF003FF7CBD5B417262DC
:1027E000697465725D20536574206C696768743A1A
:1027F00020656E61626C653D25642C206D6F64659B
:102800003D25640D0A00000038B5044600940122FD
:10281000694640F2214000F0E7FA0CB903A000E05D
:1028200004A0014606A00AF0DBFE38BD5354414E19
:102830004442590043414E5F4354524C0000000053
:102840005B417262697465725D20536574206D6FBF
:1028500064653A2025730D0A0000000038B504466F
:1028600000940122694640F2411000F0BDFA214671
:1028700001A00AF0B5FE38BD5B41726269746572F1
:102880005D20536574206D6F74696F6E206D6F6489
:10289000653A2025640D0A002DE9F05F83460C4659
:1028A00015461E465846FEF759FE07462046FEF7D7
:1028B00055FE80462846FEF751FE81463046FEF71B
:1028C0004DFE82465846FFF759FE26494885204668
:1028D000FFF754FE234988852846FFF74FFE21491C
:1028E000C8853046FFF74AFE1E4908860FB1012011
:1028F00000E00020B8F1000F01D0022100E000212B
:102900000843B9F1000F01D0042100E00021084381
:10291000BAF1000F01D0082100E00021084311495D
:1029200081F832008C46BCF83030BCF82E20BCF860
:102930002C10BCF82A00FEF76FFE0A49C88408462E
:10294000C08C4FF6FF71884205D00648C08CB42871
:1029500001DC012000E00020024981F82800BDE8E8
:10296000F09F0000D817002010B5044614480078E6
:10297000A04224D0134850F8242011480078114B6D
:1029800053F8201010A00AF02BFE0D480470042C00
:1029900003D1164800680A49C860042C00D01CB94D
:1029A0000021074880F82510022C08D10020044996
:1029B000C8830021024801844184C182818210BD04
:1029C000D8170020900100205B4172626974657223
:1029D0005D204D6F6465207377697463683A2025C4
:1029E00073202D3E2025730D0A0000006800002092
:1029F00003480068034948600020087270470000DF
:102A000068000020D81700201CB50121202004F008
:102A1000DDFD01208DF804000002009003208DF8F8
:102A2000050000208DF8060001208DF8070069469A
:102A30000E4802F09DFF4FF480710C4803F00CF833
:102A400001200B49087000200A4908700A490880D3
:102A50004FF48071054803F001F864200BF036FF55
:102A60004FF48071014802F0F7FF1CBD00140240D2
:102A700060000020610000206200002010B5454881
:102A8000007810B14448007828B94FF48071434869
:102A900002F0E2FF10BD42480088401C4049088017
:102AA0003D480078142814DC08460088142190FB67
:102AB000F1F201FB1200012805DA4FF4807137486A
:102AC00002F0CCFF64E04FF48071344802F0C4FFA0
:102AD0005EE031480078282814DC314800880A215B
:102AE00090FBF1F201FB1200032805DA4FF480712C
:102AF0002A4802F0B3FF4BE04FF48071274802F000
:102B0000ABFF45E0244800783C2814DC24480088CA
:102B1000052190FBF1F201FB1200032805DA4FF4C6
:102B200080711E4802F09AFF32E04FF480711B481A
:102B300002F092FF2CE018480078502814DC184866
:102B40000088052190FBF1F201FB1200042805DA50
:102B50004FF48071114802F081FF19E04FF4807149
:102B60000E4802F079FF13E00D4800880A2190FB1F
:102B7000F1F201FB1200092805DA4FF480710748D1
:102B800002F06CFF04E04FF48071044802F064FF2F
:102B900000BF7FE7600000206100002000140240B9
:102BA0006200002010B504460848007800B910BD46
:102BB000642C00DD64240648047024B94FF480714D
:102BC000044802F049FF00BFF1E700006000002068
:102BD000610000200014024010B5002003F05CFFEB
:102BE0000446032C1DD10F48007808B9012000E0ED
:102BF00000200C4908700846007810B90020FFF743
:102C0000D1FF0120084908700648007808B107A0E4
:102C100000E007A0014607A00AF0E2FCC8200BF084
:102C200055FE10BD1F0000202A0000204F4E00005E
:102C30004F4646005B424545505D204469737461D0
:102C40006E636520616C65727420257320284B4586
:102C5000593120746F67676C65290D0A0000000008
:102C600070B504461048007818B14FF6FF708442E2
:102C700003D10020FFF796FF70BDB42C01DB0025C7
:102C80000DE0782C01DA642509E0C4F1B400C0EB52
:102C9000001080003C2190FBF1F01430C5B22846B2
:102CA000FFF780FF00BFE7E71F00002000BFFEE73F
:102CB00008B50020072305220421009000F002F847
:102CC00008BD00002DE9F0418AB004460D461646C5
:102CD0001F46DDF840800121084604F077FC012101
:102CE000480604F093FC09220B212B4802F088FED1
:102CF00009220C21284802F083FE4FF4C0500890AE
:102D000002208DF8240000208DF8260003208DF885
:102D1000250001208DF8270008A91F4802F028FE91
:102D200000208DF81A0001208DF81B0000208DF87E
:102D30001C0001208DF81D0000208DF81E008DF86C
:102D40001F008DF816808DF817408DF818608DF8EB
:102D50001950ADF8147005A9104800F003F90020CF
:102D60008DF80E008DF80F0001208DF81000002066
:102D7000ADF80400ADF80600ADF80800ADF80A00A3
:102D8000ADF80C0001208DF8110001A800F066F8E4
:102D90000AB0BDE8F081000000000240006400407D
:102DA00070B586B005460E4600210E4800F064F965
:102DB00010B9002006B070BD01AA0021094800F03A
:102DC0006AF901982860002404E00DF10F00005D0D
:102DD0003055641C9DF80E00A042F6D89DF80E00F8
:102DE000E8E70000006400402DE9F04186B00746A6
:102DF0008846154600240197002002908DF80C00AB
:102E00008DF80D008DF80E5000BF06E018F8041084
:102E10000DF10F000155601C84B2AC42F6DB01A934
:102E20000D4800F0B0F90646002401E0601C84B2B1
:102E30003146094800F03AFA18B940F6FF7084426A
:102E4000F4DB40F6FF70844203DB012006B0BDE8EE
:102E5000F0810020FAE700000064004010B5002176
:102E6000837A012202FA03F13D4A126842F001021C
:102E70003B4B1A603A4A1C3212688A43384B1C3367
:102E80001A60027BCAB9364A0C3212688A43344B44
:102E90000C331A604288C38842EA0343304A403206
:102EA000847A42F834300288838842EA03432C4A09
:102EB0004032847A02EBC4025360027B012A19D1AA
:102EC000274A0C3212680A43254B0C331A60428899
:102ED000038842EA0343224A4032847A42F834307B
:102EE000C288838842EA03431D4A4032847A02EB57
:102EF000C4025360C27A3AB9194A121D12688A4351
:102F0000174B1B1D1A6006E0154A121D12680A4372
:102F1000134B1B1D1A60028932B9114A1432126810
:102F20008A430F4B14331A600289012A06D10C4AD6
:102F3000143212680A430A4B14331A60427B012A86
:102F400006D1074A1C3212680A43054B1C331A602B
:102F5000034A126822F00102014B1A6010BD000002
:102F60000066004030B5024600200023146824F0BB
:102F700002041460146844F00104146000E05B1C57
:102F8000546804F001041CB94FF6FF74A342F6D153
:102F9000546804F001040CB900206CE08C79012C19
:102FA00004D1146844F08004146003E0146824F031
:102FB00080041460CC79012C04D1146844F04004DE
:102FC000146003E0146824F0400414600C7A012CAF
:102FD00004D1146844F02004146003E0146824F061
:102FE000200414604C7A012C04D1146844F01004BD
:102FF000146003E0146824F0100414608C7A012C2F
:1030000004D1146844F00804146003E0146824F048
:1030100008041460CC7A012C04D1146844F0040430
:10302000146003E0146824F0040414608C78A4078E
:10303000CD7844EA05640D7944EA05444D7944EAC3
:1030400005540D886D1E2C43D461146824F00104CE
:103050001460002300E05B1C546804F001041CB100
:103060004FF6FF74A342F6D1546804F001040CB18A
:10307000002000E0012030BD0246002019B9D368CD
:1030800003F0030006E0012903D1136903F00300F4
:1030900000E00020704710B500F5D87303EB011372
:1030A0001B6803F004031372137A53B900F5D87345
:1030B00003EB01131B6840F2FF7404EA53531360DF
:1030C00009E000F5D87303EB01131B686FF060444F
:1030D00004EAD303536000F5D87303EB01131B68B4
:1030E00003F00203537200F5D87303EB01135B681E
:1030F00003F00F03937200F5D87303EB01135B68C1
:103100001B0AD37400F5D87303EB01139B68D372C9
:1031100000F5D87303EB01139B681C0A147300F5C8
:10312000D87303EB01139B681C0C547300F5D87320
:1031300003EB01139B681B0E937300F5D87303EB2D
:103140000113DB68D37300F5D87303EB0113DB685D
:103150001C0A147400F5D87303EB0113DB681C0C14
:10316000547400F5D87303EB0113DB681B0E9374E2
:1031700021B9C36843F02003C36003E0036943F04F
:103180002003036110BD10B502460020936803F0D0
:103190008063B3F1806F00D110E0936803F00063A7
:1031A000B3F1006F01D1012008E0936803F0805370
:1031B000B3F1805F01D1022000E00420042874D024
:1031C00002F5C07303EB00131B6803F0010402F562
:1031D000C07303EB00131C600B7A7BB94B7A0C882D
:1031E00043EA445302F5C07404EB001424682343FB
:1031F00002F5C07404EB0014236010E00B7A4C68F5
:1032000043EAC4034C7A234302F5C07404EB001470
:103210002468234302F5C07404EB001423608B7A06
:1032200003F00F038B7202F5C07303EB00135B68AE
:1032300023F00F0402F5C07303EB00135C6002F58A
:10324000C07303EB00135B688C7A234302F5C074F0
:1032500004EB001463608B7B1C064B7B44EA034445
:103260000B7B44EA0323CC7A234302F5C07404EBBE
:103270000014A3608B7C1C064B7C44EA03440B7C4B
:1032800044EA0323CC7B234302F5C07404EB00140F
:10329000E36002F5C07303EB00131B6843F0010405
:1032A00002F5C07303EB00131C6010BD10B502469D
:1032B000002321B1012907D002290FD109E090682C
:1032C0001D4C00EA04030BE090681C4C00EA040368
:1032D00006E090681A4C00EA040301E0002300BFF6
:1032E00000BF184C181BA34216D007DC83B16FF047
:1032F0008060184470B1022818D111E0B0F5007F49
:1033000010D0114C204448B1B0F5003F0ED10BE075
:1033100002230DE000230BE0002309E0002307E077
:10332000012305E0012303E0012301E0002300BFA6
:1033300000BFD8B210BD0000030000040003000865
:1033400000000310000100080001FFF701460029FA
:1033500002DA484200B270470846FCE72DE9F04126
:1033600007460D4614463846FFF7F0FF0646322F53
:103370000EDD1E2D03DB26800120BDE8F08115F156
:103380001E0F02DC26800220F7E727800420F4E7E6
:1033900017F1320F0DDA1E2D02DB26800120ECE73B
:1033A00015F11E0F02DC26800220E6E726800520AC
:1033B000E3E70020208000BFDFE72DE9F04107466A
:1033C0000D4614463846FFF7C1FF0646322F0EDD84
:1033D00015F11E0F03DC26800120BDE8F0811E2DB3
:1033E00002DB26800220F8E727800420F5E717F1AA
:1033F000320F0DDA15F11E0F02DC26800120ECE7FA
:103400001E2D02DB26800220E7E726800520E4E768
:103410000020208000BFE0E72DE9F04106460C4681
:1034200015463046FFF792FF07462046FFF78EFF0E
:103430008046322E16DD2F80B8F1C80F02DC042042
:10344000BDE8F081B4F5966F01DB0120F8E714F5D3
:10345000966F01DC0220F3E7C82C01DD0120EFE7C5
:103460000220EDE716F1320F15DA2F80B8F1C80F00
:1034700001DC0520E4E7B4F5966F01DB0120DFE70E
:1034800014F5966F01DC0220DAE7C82C01DD01207B
:10349000D6E70220D4E70020288000BFD0E702460C
:1034A00041EA022000B2704710B596B013A915A8E2
:1034B000FDF7E4FE12A914A8FDF7A0FE9DF8540044
:1034C000FEF7D2F804461A48B0F93E001849B1F99F
:1034D0004010174AB2F93C20CDE900210290BDF915
:1034E0004C30224613A104A80AF08AF804A9A020AF
:1034F00006F0F0FD9DF85000FEF7B6F804460C48C3
:10350000B0F92010B0F92200094AB2F91E20CDE925
:1035100000200291BDF9483022460EA104A80AF00D
:103520006FF804A9B02006F0D5FD16B010BD00005C
:10353000D8170020526563763A252D357320253340
:103540006420762534642073253464207725346420
:103550000000000053656E643A252D357320253335
:103560006420762534642073253464207725346400
:103570000000000070B58CB0FFF796FF00F05EF819
:103580001F48C08E0A2190FBF1F201FB12061C4875
:10359000C08E90FBF1F51A4890F8350033462A4664
:1035A00018A1009002A80AF02BF802A9E02006F06A
:1035B00091FD134890F8E00000281EDD1048B0F897
:1035C000E240B4F57A7F03DD0A2094FBF0F084B288
:1035D0000A2094FBF0F100FB114594FBF0F608483B
:1035E000009590F8E02033460DA102A80AF008F8F3
:1035F00002A94FF4807006F06DFD0CB070BD0000A4
:10360000D8170020426174743A2532642E25316443
:1036100056204D6F64653A307825303258000000EE
:10362000424D5320534F433A253264252520563AC4
:103630002532642E253164560000000000B593B099
:1036400001A8FDF7D9FEBDF90630BDF904200BA194
:103650000BA809F0D5FFBDF90A30BDF908200BA170
:1036600003A809F0CDFF0BA9C02006F033FD03A984
:10367000D02006F02FFD13B000BD00004C463A25C7
:10368000356420202052463A253564004C523A25B4
:10369000356420202052523A2535640070B500254B
:1036A0004FF4803404E0802004F010FD00B103E00A
:1036B000201EA4F10104F6D100BF0CB9032070BD97
:1036C00040F2FF5004F0D8FC2846F8E770B50446F5
:1036D00005E01648056805F0450000B100E0F8E790
:1036E00000BF042004F0F2FC20B1042004F0C4FC6C
:1036F000032070BD012004F0E9FC20B1012004F09A
:10370000BBFC0120F5E7094824380068A04201D03D
:103710001020EEE740F2FF5004F0AEFC03482038E2
:10372000006808210840C0B2E3E70000342C0140E3
:1037300070B500264FF4803505E01148046804F0A8
:10374000450000B103E0281EA5F10105F5D100BF39
:1037500015B104F0040028B10326042004F08CFC09
:10376000304670BD012004F0B1FC18B101260120E3
:1037700004F082FC40F2FF5004F07EFC3046F0E79B
:10378000342C014010B505E00B48046804F04500F6
:1037900000B100E0F8E700BF042004F097FC20B17E
:1037A000042004F069FC032010BD40F2FF5004F037
:1037B00063FC0020F8E70000342C01402DE9F041C3
:1037C00005460E464FF0000805E02048076807F060
:1037D000450000B100E0F8E700BF042004F076FCEB
:1037E00028B1042004F048FC0320BDE8F08101204A
:1037F00004F06CFC20B1012004F03EFC0120F4E751
:10380000124824380068A84201D01020EDE740F2A9
:10381000FF5004F031FC0D482038046804F4604087
:1038200018B9200C30804046DFE704F4005008B19E
:103830001320DAE704F4804008B11020D5E704F43F
:10384000004008B10F20D0E74046CEE7342C0140BD
:1038500070B500264FF4803505E00F48046804F089
:10386000450000B103E0281EA5F10105F5D100BF18
:1038700015B104F0040028B10326042004F0FCFB79
:10388000304670BD04F0400018B10026402004F01E
:10389000F3FB3046F5E70000342C014070B50646D6
:1038A0000C4604F08000802808D104F07F0000EB73
:1038B000800106F58E7000EBC10505E004EB840184
:1038C00006F55D7000EBC1050020A87004F07F00D4
:1038D0002870C4F3C01068702946304609F0ADFB6B
:1038E000002070BD2DE9F04106460D4690461F466A
:1038F00005F08000802808D105F07F0000EB8001F2
:1039000006F58E7000EBC10407E005F07F0000EBC8
:10391000800106F55D7000EBC10405F07F002070AA
:1039200005F08000C0096070C4F80880E770607816
:1039300008B12078E080022F01D1002020712146BB
:10394000304609F02EFB0020BDE8F0812DE9F04162
:1039500005460E461746984606F07F0000EB8001AC
:1039600005F55D7000EBC104E760C4F81480002029
:10397000A061607006F07F002070E878012800D117
:103980002761207820B92146284609F02EFA03E065
:103990002146284609F0ABFB0020BDE8F08108B5C0
:1039A00000220092009A61F30A12009202691268E2
:1039B000009B1A4303691A6008BD70B506460C46A1
:1039C00004F08000802808D104F07F0000EB800123
:1039D00006F58E7000EBC10505E004EB840106F5E9
:1039E0005D7000EBC1050120A87004F07F00287015
:1039F000C4F3C01068702946304609F046FB002029
:103A000070BD2DE9F04107460D461646984605F073
:103A10007F0000EB800107F58E7000EBC1040120F0
:103A2000607005F07F002070E66026610020A061D4
:103A3000C4F81480207820B92146384609F0D5F919
:103A400003E02146384609F052FB0020BDE8F08132
:103A50001CB50446204609F093F9E068C068009060
:103A6000204609F069FC03280BD10020A0704FF418
:103A70000070A080009820F4705000F51050009065
:103A800009E00120A0704020A080009820F4705030
:103A900000F5A05000900098E168C86000200190F7
:103AA000019820F4005000F5005001900198E16861
:103AB000486101201CBD0000F8B505460024002027
:103AC0000090284609F06BFC064690E006F00100E5
:103AD00000287DD0E1B2284600F0B4FA00900098AA
:103AE00000F0010030B3012000FA04F72869406BB0
:103AF000B8432969486300200090009820F0010035
:103B0000401C009005F1180050F8240000998160D5
:103B1000E1B239480068426828469047E8780128B1
:103B200008D13CB940F21110405D042802D128466A
:103B300009F006FA0098C0F3C00060B100200090C0
:103B4000009820F008000830009005F1180050F8A7
:103B50002400009981600098C0F3001060B100203B
:103B60000090009820F010001030009005F118002F
:103B700050F82400009981600098C0F3801060B173
:103B800000200090009820F040004030009005F1A7
:103B9000180050F82400009981600098C0F340009C
:103BA00060B100200090009820F00200801C00907E
:103BB00005F1180050F82400009981600098C0F3C6
:103BC000C01028B12146284600F050FA002000E03D
:103BD0000BE00090009820F080008030009005F10C
:103BE000180050F8240000998160641C7608002EAB
:103BF0007FF46CAF0120F8BD380200207CB504468C
:103C0000002500200190204609F0D1FB06466FE018
:103C100006F00100002869D0E9B2204609F0CFFB88
:103C20000190019800F00100C8B3002001900198B4
:103C300020F00100401C019004F1540050F82500D0
:103C400001998160E078012817D104F1540050F8FF
:103C500025000069009005EB850104F55D7000EB1F
:103C6000C10080680099C1F31201411A05EB850279
:103C700004F55D7000EBC2008161E9B21E48006886
:103C8000026820469047E078012808D13DB940F20B
:103C90001110005D052802D1204609F051F9019864
:103CA000C0F3400060B100200190019820F00200B4
:103CB000801C019004F1540050F8250001998160A6
:103CC0000198C0F3C00088B10B48006881682046A5
:103CD000884700200190019820F0080008300190EA
:103CE00004F1540050F82500019981606D1C76089C
:103CF000002E8DD101207CBD380200203EB5044647
:103D0000A07A70B1D4F80C010090009820F0020065
:103D10000090009820F0010000900099D4F80C0168
:103D2000016000200190019820F00100401C0190EA
:103D30002069406801998843216948600848006803
:103D400081692046884700200290029820F00040B8
:103D500000F1004002900298E168486101203EBDF8
:103D6000380200207CB5044600200190019820F024
:103D7000100010300190E068806901998843E16883
:103D80008861E068006A0090009800F00F0000EB86
:103D9000800104F55D7000EBC1050098C0F343405D
:103DA00007282DD2DFE800F02C04051D1E2C1F0073
:103DB00027E00098C0F30A1090B10098C0F30A12EF
:103DC0002046E96809F005FBE8680099C1F30A118B
:103DD0000844E860A8690099C1F30A110844A86181
:103DE0000FE00EE00DE0082204F2CC51204609F06D
:103DF000F0FAA8690099C1F30A110844A86100E02B
:103E000000BF00BFE068806901990843E1688861EC
:103E100001207CBD38B5044608480068C1682046CA
:103E2000884700200090009820F00800083000909B
:103E30000098E1684861012038BD00003802002088
:103E40001FB50446002000904FF48970005D00907B
:103E500023480068416920468847206980680190AE
:103E600000200390039820F4006000F500600390A8
:103E70000398E1684861A07A70B3019800F00100EE
:103E800050B340F21510005D012825D19DF80000C7
:103E9000032821D100200290029820F00100401C4C
:103EA0000290D4F80C01006802990843D4F80C1170
:103EB0000860029820F00200801C0290D4F80C01E7
:103EC000006802990843D4F80C110860054800689E
:103ED00040F0060003490860012004B010BD000056
:103EE0003802002010ED00E030B587B00446002015
:103EF000029006900590049003900190029820F0A3
:103F00000100401C029020694068029988432169A1
:103F100048600021204609F0E5F900250BE0FF216B
:103F200004F1180050F82500816004F1540050F8A5
:103F3000250081606D1C6078A842F0D84FF0FF31F9
:103F40002069816106986FF30F00401C0690069867
:103F500080B200F58030069006992069C16105980D
:103F600020F0080008300590059820F00100401C62
:103F70000590059820F00200801C059005992069A5
:103F80004161049820F00100401C0490049820F046
:103F9000080008300490049820F00200801C04906F
:103FA000049920690161206900680390039820F456
:103FB000FE600390039920690160204608F0C0FF6D
:103FC00000200190019820F4805000F5805001906D
:103FD0000198E16848610448006801692046884703
:103FE000012007B030BD00003802002038B504467B
:103FF0000020009007480068C16920468847009863
:1040000020F4801000F5801000900098E16848616D
:10401000012038BD3802002038B504460020009049
:1040200007480068016A20468847009820F400107D
:1040300000F5001000900098E1684861012038BD4B
:104040003802002030B5024615692B6915696C6B82
:1040500024FA01F505F0010543EAC51302F118053C
:1040600055F82150AD6805EA030030BD2DE9F8434D
:1040700007460E4600250020009006EB860107F556
:104080008E7000EBC104D4E90501451AA068A8426E
:1040900000D2A568E81C4FEA900807F1180050F814
:1040A0002600806900901BE0D4E90501451AA0684C
:1040B000A84200D2A568E81C4FEA9008ABB2F2B261
:1040C0003846E16809F099F9E0682844E060A069A1
:1040D0002844A06107F1180050F82600806900907C
:1040E000009880B2404506D9D4E90510884202D232
:1040F00060690028D8D10120BDE8F88301494861F2
:104100007047000000000550014600200022044BCB
:104110001B6903EA01020AB1012000E00020704798
:104120000000055010B50120FFF7EEFF012811D166
:104130000DF0F6F80120FFF7E1FF0748006808B925
:10414000012000E000200449086004480078401C79
:104150000249087010BD0000A4824242680100209C
:1041600010B50749074800F04BF9012806D104496A
:10417000044800F03BF804480068804710BD000088
:1041800020800020706002406401002010B50749C3
:10419000074800F013F9012806D10449044800F04B
:1041A0000BF804480068804710BD000000080010AC
:1041B000286402406C0100200246094B9A4201D259
:1041C000084801E00648103801F000531BB1064BC7
:1041D0000B40C36002E0044B0B408360704700005B
:1041E00010640240006002407D0F7D0F0246094BC3
:1041F0009A4201D2084801E00648103801F0005305
:104200001BB1064B0B40C36002E0044B0B408360C4
:104210007047000010640240006002407D0F7D0F77
:1042200021B1026842F00102026003E0026822F05C
:104230000102026070470000016821F00101016085
:104240000021016041608160C16001612121416103
:104250004A49884204D13D21484A103A91608CE095
:1042600046491831884205D14FF47461434A103AE7
:10427000916082E041493031884205D14FF4741198
:104280003E4A103A916078E03C494831884205D175
:104290004FF07461394A103A91606EE037496031ED
:1042A000884204D13649354A103AD16065E0334935
:1042B0007831884204D13349304A103AD1605CE009
:1042C0002E499031884204D12F492C4A103AD160AE
:1042D00053E02A49A831884205D14FF03D51274A81
:1042E000103AD16049E02949884204D13D21274A4A
:1042F000083A116041E025491831884205D14FF450
:104300007461224A083A116037E02049303188420E
:1043100005D14FF474111D4A083A11602DE01B4974
:104320004831884205D14FF07461184A083A11604B
:1043300023E016496031884204D11149134A121F03
:1043400011601AE011497831884204D10D490F4AB1
:10435000121F116011E00D499031884204D10A49C1
:104360000A4A121F116008E00849A831884204D1A6
:104370004FF03D51054A121F116070471060024016
:104380003D000020400F002000003D20106402404E
:1043900021B1026842F02002026003E0026822F0CC
:1043A000200202607047014600200A6802F0010204
:1043B0000AB1012000E000207047000030B503463C
:1043C0000A46002000240B4DAB4201D20A4901E00D
:1043D0000849103902F000550DB14C6800E00C6836
:1043E000064D2C4004EA02050DB1012000E000203A
:1043F00030BD000010640240006002407D0F7D0F60
:1044000070B50246002000240025124EB24201D2AF
:10441000114B01E00F4B103B104E0E4036B11E26E3
:1044200006EAD124166806EA040502E0566906F099
:10443000800501F000560EB15C6800E01C68084E73
:10444000344004EA010616B10DB1012000E000205D
:1044500070BD000010640240006002403C0F3C0F41
:104460007D0F7D0F10B500220268134B1A40CC68F7
:104470000B6823434C6923438C692343CC69234352
:104480000C6A23434C6A23438C6A23434C6B2343BB
:104490008C6B23431A430260426922F00702D1E980
:1044A0000B3423431A4342610B6943604B688360BA
:1044B0008B68C36010BD00003F801CF0704702464F
:1044C0008A4202DB501A80B27047881A80B2FBE73A
:1044D00000B585B00848007808B905B000BD0020D7
:1044E000054908701421684602F0CAFE694603A017
:1044F00009F076F800BFF0E78001002025735B44E7
:10450000535D2052582074696D656F75742C20724C
:10451000657365740D0A000010B50446204600F06E
:10452000ADF908B1002010BD1E2C03D340F6B83001
:10453000844201D90020F6E70120F4E72DE9F0419B
:1045400007460E4614461D46022C02DA0020BDE83E
:10455000F0814FF6FF70854203D0AF4201DD0020AD
:10456000F5E72146304600F00CF8804641463846D3
:10457000FFF7A5FFB0F5487F01D90120E7E700204C
:10458000E5E77EB504460A4612B94FF6FF707EBDD8
:10459000002105E034F811002DF81100481CC1B2CB
:1045A0009142F7DB012115E03DF811000B4606E0D2
:1045B0005D1E3DF815502DF813505D1EEBB2002B1B
:1045C00004DD5D1E3DF815508542F1DC2DF8130029
:1045D000481CC1B29142E7DB154602EBD570401092
:1045E0003DF81000D3E770B5002409E0204600F044
:1045F00025FA05462946204600F006F8601CC4B29C
:10460000042CF3DB70BD00002DE9FE4F80460E4602
:1046100008EB4800834901EB00140027BB46B8F1C2
:10462000040F01DBBDE8FE8F304600F027F982461B
:10463000BAF1000F55D13046FFF76EFF00B9F1E730
:1046400094F82C0068B1608D4FF6FF71884208D055
:10465000608DB04205DA608D301AB0F5966F00D9E2
:10466000E0E794F82C00C8B1608D4FF6FF718842E6
:1046700014D0608DB04207DA608D301A962803D3CB
:10468000002084F8280009E0608DB04206DD608DCE
:10469000801B962802D3002084F8280000250DE016
:1046A00034F83500FFF738FF30B134F8352038469C
:1046B000791CCFB22DF81020681CC5B294F82800E0
:1046C000A842EDDC94F82C0008B1608D01E04FF6B3
:1046D000FF7003463A4669463046FFF72FFF00B1A8
:1046E000A0E794F82800052805D294F82800401C7B
:1046F00084F828000CE0002508E004EBC501681CE4
:1047000004EBC00205CA05C1681CC5B2042DF4D370
:1047100094F82800401E24F830604348016894F85B
:104720002800401E04EBC000416014E0002508E0B2
:1047300004EBC501681C04EBC00205CA05C1681C76
:10474000C5B294F82800401EA842F1DC94F8280075
:10475000401E84F8280094F82800002805DD32491E
:1047600060680968081A6428E0D80027BB4600255D
:1047700018E034F83500FFF7CFFE38B134F83520B3
:104780003846791CCFB22DF8102009E034F83500F6
:1047900000F074F8012803D10BF1010000F0FF0BC9
:1047A000681CC5B294F82800A842E2DC022F0ED3A0
:1047B00039466846FFF7E5FE8146A4F82A900120B5
:1047C00084F82C004946404600F0C2FA2AE7012F3F
:1047D0000BD1BDF800006085012084F82C00BDF8E5
:1047E0000010404600F0B4FA1CE7BBF1020F0AD3F8
:1047F0004FB900206085012084F82C00002140463C
:1048000000F0A6FA0EE794F8280040B9002084F8DA
:104810002C004FF6FF706085044921F8180000BF96
:1048200000E70000E8160020740100207801002055
:1048300000201CE0002100EB40020E4B03EB0212B3
:1048400082F828104FF6FF7100EB400203EB0212D2
:104850005185002100EB400203EB021282F82C107C
:104860004FF6FF71044A22F81010411CC8B2042808
:10487000E0DB7047E81600207801002001464FF683
:10488000FF70814201D10220704709B90120FBE786
:104890000020F9E700B50346184600F01BF800BDFC
:1048A00000487047D016002030B54FF6FF75002342
:1048B0000CE0184600F00EF804464FF6FF708442F4
:1048C00002D0AC4200DA2546581CC3B2042BF0DB00
:1048D000284630BD0146042902DB4FF6FF707047C1
:1048E00001EB4100074A02EB001090F82C0010B9D0
:1048F0004FF6FF70F3E701EB4100024A02EB0010B4
:10490000408DECE7E816002000B587B001210220B9
:1049100002F05CFE0121880402F078FE07220A21E1
:10492000294801F06DF807220B21274801F068F8AB
:104930004FF44060059002208DF818008DF81900A2
:1049400000208DF81A0001208DF81B0005A91E48D3
:1049500001F00EF84FF4165001900020ADF8080059
:10496000ADF80A00ADF80C00ADF810000C20ADF861
:104970000E0001A9154807F037FC27208DF800002C
:1049800001208DF8010000208DF8020001208DF833
:104990000300684602F0C4FD012240F225510B4895
:1049A00007F0FDFB0121094807F0B6FB002008498C
:1049B0000870084908700849087208490860FFF73C
:1049C00037FF07B000BD000000040240004800406F
:1049D0007001002071010020D01600207401002019
:1049E00030B54FF6FF750C48007A08B9284630BD3F
:1049F00000230CE0184600F021F804464FF6FF7043
:104A0000844202D0AC4200DA2546581CC3B2042BC3
:104A1000F0DB2846EBE70000D016002010B5064872
:104A2000007830B1002004490870FFF7DCFD012058
:104A300010BD0020FCE700007101002001460429A0
:104A400002DB4FF6FF7070470C48007A10B94FF642
:104A5000FF70F8E709480930405C08B10020F2E730
:104A6000064830F811004EF65F22904201D900202E
:104A7000E9E7024830F81100E5E70000D016002011
:104A800030B58FB014210AA802F0FAFB4148007A31
:104A900028B90AA940A008F0A3FD0FB030BD00243A
:104AA0001FE03C480930005D012805D1621C0AA9BD
:104AB00041A008F095FD12E036480930005D02285B
:104AC00005D1621C0AA942A008F08AFD07E031481E
:104AD00030F81430621C0AA943A008F081FD601C64
:104AE000C4B2042CDDDB0020FFF7F4FE05464FF6D0
:104AF000FF70854204D142A108A808F081FD04E0BE
:104B00002A4640A108A808F07BFD0120FFF7E2FE3D
:104B100005464FF6FF70854204D139A106A808F07A
:104B20006FFD04E02A4637A106A808F069FD0220BF
:104B3000FFF7D0FE05464FF6FF70854204D130A145
:104B400004A808F05DFD04E02A462EA104A808F0A0
:104B500057FD0320FFF7BEFE05464FF6FF70854266
:104B600004D127A102A808F04BFD04E02A4625A1A4
:104B700002A808F045FD02A804A906AB08AACDE9E1
:104B800000100AA920A008F02BFD28A008F028FD9D
:104B900000BF82E7D016002025735B44535D205789
:104BA000616974696E6720666F7220646174612E3A
:104BB0002E2E0D0A0000000025735B44535D204932
:104BC0004625643A2054494D454F55540D0A00007E
:104BD00025735B44535D20494625643A2043484B86
:104BE000204552520D0A000025735B44535D204955
:104BF0004625643A202564206D6D0D0A00000000F2
:104C00002D2D2D002575000025735B44535D204636
:104C1000696C7420463D257320423D2573204C3D30
:104C2000257320523D25730D0A0000002D2D2D0DFA
:104C30000A0000001CB53D480068401C3B49086064
:104C40003B480068401C3A490860084600680C2848
:104C500004D30020086001203649087035480078E8
:104C600060B33548007848BB3448007830BB00203A
:104C70003049087032490870002240F2255131480D
:104C800007F08DFA4FF48060009001208DF8040049
:104C900000208DF8060002208DF8050000208DF818
:104CA00007006946284800F063FE4FF480612648FB
:104CB00000F0D2FE01202049087023E01E48007851
:104CC00000B307220A21204800F09AFE4FF48060CA
:104CD000009002208DF8040000208DF806000220CC
:104CE0008DF8050001208DF807006946164800F090
:104CF0003FFE002010490870012240F22551114862
:104D000007F04DFA0D48007800280EDD0C480078B9
:104D1000401C0B490870084600780A2805D9012074
:104D20000A4908700020054908701CBD7401002064
:104D300084010020890100208801002070010020EA
:104D40007201002000480040000402408001002061
:104D5000042803DA4FF6FF72914200D17047024AED
:104D600022F8101000BFF9E77801002010B500F01C
:104D700051F900F0E9F8002005490860C72004F067
:104D800069FE01200349C1F8B80200F0DDF810BD4A
:104D9000B88240420080404210B50446214610A02F
:104DA00008F01EFC240300F035F900F0CDF80020D7
:104DB0000D490860202004F04DFEC4F3074004F0C4
:104DC00049FEC4F3072004F045FEE0B204F042FEC1
:104DD00001200649C1F8B80200F0B6F810BD000085
:104DE00066653A25780D0A00B8824042008040424C
:104DF0001CB50121022002F0E9FB0121402002F054
:104E0000E5FB4FF48040009001208DF80400002065
:104E10008DF8060003208DF8050001208DF80700AD
:104E200069460F4800F0A4FD8020009069460D48B7
:104E300000F09EFD80210B4800F010FE01200A4981
:104E4000086004F0A5FD002004F020FE00F042F808
:104E5000064908800846018805A008F0C1FB1CBD72
:104E60000004024000180240B88240426400002062
:104E7000454E32355158585F545950453D25580DCF
:104E80000A0000002DE9F04106460C4617460020B6
:104E90000F490860032004F0DDFDC4F3074004F06F
:104EA000D9FDC4F3072004F0D5FDE0B204F0D2FD33
:104EB000002505E0FF2004F0CDFD7055681C85B28B
:104EC000BD42F7DB012002490860BDE8F081000027
:104ED000B882404210B5002400200E49086090209E
:104EE00004F0B8FD002004F0B5FD002004F0B2FD90
:104EF000002004F0AFFDFF2004F0ACFD44EA0024E4
:104F0000FF2004F0A7FD044301200349C1F8B802C3
:104F1000204610BDB88240420080404210B50024B7
:104F2000002007490860052004F094FDFF2004F0EC
:104F300091FD044601200349C1F8B802204610BD86
:104F4000B88240420080404210B500BFFFF7E6FF44
:104F500000F001000028F9D110BD00002DE9F05F3C
:104F600081460F461646DFF8A8B04FEA1738C7F358
:104F70000B0ACAF58054A64200DC344644E04FEAEE
:104F800008314FF480525846FFF77CFF002508E0B7
:104F90000AEB05001BF80000FF2800D003E0681CA6
:104FA00085B2A542F4DB00BFA54216DA4046FFF702
:104FB000F3FE002507E019F8050005EB0A010BF8E0
:104FC0000100681C85B2A542F5DB4FEA08314FF4B9
:104FD0008052584600F02EF804E0224639464846F2
:104FE00000F028F8A64200D10FE008F101084FF0C8
:104FF000000AA1442744301B86B2B6F5805F02DD6B
:105000004FF4805400E03446B9E700BFBDE8F09F9C
:10501000D803002010B5002004490860062004F0E1
:1050200019FD01200249C1F8B80210BDB882404202
:10503000008040422DE9F04107460E461446F0B28A
:10504000C0F58075AC4200DC254612E02A463146A8
:10505000384600F013F8AC4200D10BE02F442E4448
:10506000601B84B2B4F5807F02DD4FF4807500E0F0
:105070002546EBE700BFBDE8F08100002DE9F041D7
:1050800006460C461746FFF7C5FF00200F4908608B
:10509000022004F0DFFCC4F3074004F0DBFCC4F39F
:1050A000072004F0D7FCE0B204F0D4FC002504E0B3
:1050B000705D04F0CFFC681C85B2BD42F8DB0120B6
:1050C00002490860FFF740FFBDE8F081B882404226
:1050D000014948617047000000900240014608689D
:1050E000C0F30D40704700B502460023106800F081
:1050F000004058B9106800F4004038B9106800F456
:10510000807018B11046FFF7E9FF0346184600BD4E
:1051100010B501E00CF092FA06480068FFF7E3FFD3
:105120000028F7D14020FFF7D3FF4FF48030FFF77E
:10513000CFFF10BD4C0000201EB5002100220092C0
:1051400001920292214A1268126802F0004282B172
:10515000002200921E4A526902F0800222B180228F
:105160001B4B5A6100229A609DE81C0080E81C00DD
:105170001EBD164A1268126802F40042B2B9134A00
:105180001268126802F4807282B1104A12681268C2
:1051900002F4007252B10D4A12681268C2F30D4255
:1051A000111F0A4A12689268019200E000210091E2
:1051B000064A12680292054A1268D268034B1A60C6
:1051C0009DE81C0080E81C0000BFD1E74C000020D7
:1051D000009002402DE9F04100240026002530E037
:1051E0004FF480711B4800F02EFC012829D100F0FB
:1051F00037FC0446FA2C00DB24E0C82C03DBFA2C35
:1052000001DA01260AE03C2C03DB5A2C01DA0127E3
:1052100004E00A2C02DB322C00DA0027012E0ED12A
:105220000D48006840000C49086008460068384492
:105230000860202D03DB01200849087002E0681C8B
:10524000C5B2CDE700BF4FF4807000F009F8BDE8AB
:10525000F081000000000240900000209400002037
:105260000149086070470000143C014000212349B7
:105270008279002A3AD00A46126803689A430B469C
:105280001A600A1D126803689A430B1D1A6002799E
:1052900011440A6803681A430A60184A08321268FF
:1052A00003689A43154B08331A601A1D1268036885
:1052B0009A43124B0C331A604279102A0ED11A1FEE
:1052C000126803681A430D4B08331A601A1D1268DE
:1052D00003681A43094B0C331A600DE00749427901
:1052E00011440A6803681A430A6005E00279114410
:1052F0000A6803689A430A6070470000003C014056
:1053000010B500240EE04FF40D7100200CF020FECB
:10531000184941F82400084650F8240000B903E079
:10532000601CC4B2032CEEDB00BF4FF414710020EC
:105330000CF00EFE104908604FF4147100200CF0C0
:1053400007FE0E4908604FF4007100200CF000FECB
:105350000B490860032C0AD10748006838B1074898
:10536000006820B10846006808B1002010BD012087
:10537000FCE70000B0AC0120D8010020DC010020D7
:10538000E801002051B18200A2F1C042126842F04F
:1053900001038200A2F1C042136009E08200A2F181
:1053A000C0421268034B1A408300A3F1C0431A6045
:1053B00070470000FEFF0F0030B5002100220023DF
:1053C0000468A400A4F1C0442168444C2140D0E901
:1053D00001452C43C5682C4305692C4345692C4382
:1053E00085692C43C5692C43056A2C43456A2C43C7
:1053F000856A2C43C56A2C43056B2C432143046802
:10540000A400A4F1C04421608468082C0BD1046876
:10541000A400A4F1C044246844F040050468A4003A
:10542000A4F1C04425600468641CA400A4F1C04435
:10543000226802F04042446B2468456B6D6844EA80
:105440000514456BAD6844EA0524456BAD8944EA13
:105450000544456B2D8A44EA0554456B2D7D44EA8D
:105460000564456BAD692C4322430468641CA400A9
:10547000A4F1C0442260C46AB4F5804F24D104680A
:10548000A400A4F1C044D4F8043103F04043846B79
:105490002468856B6D6844EA0514856BAD6844EA41
:1054A0000524856B2D8A44EA0554856B2D7D44EADD
:1054B0000564856BAD692C4323430468A400A4F103
:1054C000C044C4F8043107E06FF070450468A400DC
:1054D000A4F1C044C4F8045130BD00008000F7FFBF
:1054E00000B599B001217A2002F070F80121084638
:1054F00002F07CF80C220021A74800F081FA0C226F
:105500000121A54800F07CFA0C220421A24800F0F9
:1055100077FA0C220521A04800F072FA0C2208212B
:105520009D4800F06DFA0C2209219B4800F068FAB2
:105530000C220A21984800F063FA0C220B219648AD
:1055400000F05EFA0C221146934800F059FA0C2242
:105550000D21914800F054FA0C220E218E4800F0E3
:105560004FFA0C220F218C4800F04AFA0C2200213D
:105570008A4800F045FA0C220121884800F040FAE0
:105580000C220721854800F03BFA0C2208218348B1
:1055900000F036FA0C220921804800F031FA0C2282
:1055A0000A217E4800F02CFA0C220B217B4800F0E7
:1055B00027FA0C221146794800F022FA0C220D211C
:1055C000764800F01DFA0C220E21744800F018FAFB
:1055D0000C220F21714800F013FA0C2200217048B0
:1055E00000F00EFA0C2201216D4800F009FA0C229D
:1055F00002216B4800F004FA0C220321684800F0F5
:10560000FFF90C220421664800F0FAF90C2205216A
:10561000634800F0F5F90C221146614800F0F0F9FA
:105620000C220D215E4800F0EBF90C220E215C48A3
:1056300000F0E6F90C220F21594800F0E1F90C22A4
:105640000021584800F0DCF90C220121554800F0F7
:10565000D7F90C220221534800F0D2F90C22032181
:10566000504800F0CDF90C2204214E4800F0C8F952
:105670000C2205214B4800F0C3F90C220A214948AD
:1056800000F0BEF94FF40040179001208DF8600043
:1056900000208DF8620002208DF8610001208DF855
:1056A000630017A9404800F063F94FF63370179074
:1056B00002208DF8600000208DF8620003208DF834
:1056C000610001208DF8630017A9334800F050F9FC
:1056D0004FF68370179002208DF8600000208DF83F
:1056E000620003208DF8610001208DF8630017A986
:1056F0002A4800F03DF94FF23F00179002208DF844
:10570000600000208DF8620003208DF86100012008
:105710008DF8630017A9224800F02AF940F23F40B3
:10572000179002208DF8600000208DF862000320A1
:105730008DF8610001208DF8630017A9194800F069
:1057400017F9002001900290182003900020049087
:1057500005900690079004200890002009900A9078
:1057600010200B9000200C900E900D900F90109038
:105770004FF480501190002012901390149001A8C3
:105780001590169008A8FFF717FE01210420FFF7D7
:10579000F9FD19B000BD0000000C024000100240ED
:1057A00000140240001802400004024006E04FF0DE
:1057B000D0435B5C00F8013B491C521E002AF6D125
:1057C000704710B506E010F8014B4FF0D0435C5421
:1057D000491C521E002AF6D110BD00002DE9FC41E3
:1057E00007460D4600260024002000900190082066
:1057F0005B49086010204860402088600020C86035
:105800004FF480600861084602F0ACFC1020FDF700
:105810005DFF044614B12046BDE8FC815148008874
:1058200000044F490860372048604020886000200D
:10583000C8604FF480600861084602F093FC37208E
:10584000FDF744FF04460CB12046E5E74FF0FF307A
:105850004549086008204860302088600220C86000
:105860000020086101204861084602F015FC002074
:105870003B49086033204860402088600020C860B1
:105880004FF480600861084602F06CFC3320FDF79D
:105890001DFF04460CB12046BEE70CE04FF400109B
:1058A00002F014FC38B1314800684DF82600761C2F
:1058B000022E00D307E02D484C38006840F22A61E0
:1058C00008400028EAD000BF082002F0FFFB20B10A
:1058D000082002F0D1FB04209EE7022002F0F6FB34
:1058E00020B1022002F0C8FB022095E7202002F040
:1058F000EDFB20B1202002F0BFFB06208CE74FF427
:10590000007002F0E3FB28B14FF4007002F0B4FB2A
:10591000072081E740F2FF5002F0AEFB009800063E
:10592000009901F47F4140EA0120009901F47F01D0
:1059300040EA1120009940EA116068600198000671
:10594000019901F47F4140EA0120019901F47F01AE
:1059500040EA1120019940EA1160286020465BE787
:1059600028140020840000203C140020802C0140DA
:10597000F0B50A4600210023002400BF3DE00125C8
:1059800005FA01F3156805EA03049C4234D1056861
:105990004F000326BE40B543056015794E00B54063
:1059A0000668354305601579012D02D01579022D61
:1059B00016D185684F000326BE40B54385605579F2
:1059C0004E00B540866835438560456801268E40A7
:1059D000B5434560456896798E40B6B2354345601B
:1059E000C5684F000326BE40B543C560D5794E005B
:1059F000B540C6683543C560491C1029BFD3F0BD0A
:105A0000F0B5002300244D07ED0E02FA05F3CE1089
:105A100000F1200555F826504E07F70E0F26BE4020
:105A2000B543CF1000F1200646F82750CE1000F104
:105A3000200555F8265045EA0304CE1000F1200554
:105A400045F82640F0BD0246002013690B400BB11B
:105A5000012000E0002070474183704701837047B8
:105A600010B5002408E0601CC4B2142008F070FFD8
:105A7000FA2C01DB204610BD4FF480710348FFF77C
:105A8000E2FF0128EFD02046F5E7000000000240C9
:105A900000BFFEE700B58FB0A2200E9000200D9051
:105AA0000C900B90079000BFA82004F0B9FB4FF4B6
:105AB000A06001F071FD4FF4E13005F0E5FF01F069
:105AC00095FB04F01BFDFCF79FFF00F0C3FFFFF701
:105AD00007FDFAF7F0FFFFF78BF901F0EFFBFAF79C
