:020000040800F2
:1000000090BD00205D02000815C600085D9900083B
:10001000D1C30008A1490008CF2301080000000057
:100020000000000000000000000000009D0100082A
:100030004162000800000000F90100081DF40008FA
:10004000770200087702000877020008B5CE0008A2
:10005000770200087702000877020008770200089C
:10006000770200087702000877020008770200088C
:100070007702000877020008770200086D5E00082A
:1000800077020008995E00087702000877020008EE
:10009000770200087702000877020008B57E0008A2
:1000A000770200087702000877020008770200084C
:1000B000EDF8000835FA0008BDFA000877020008DC
:1000C000770200087702000877020008770200082C
:1000D000770200088D0C0108F10D0108350E0108AA
:1000E000770200081DC9000877020008770200089F
:1000F00077020008770200087702000877020008FC
:1001000077020008A5D200087702000877020008ED
:10011000770200087702000861FB000877020008F8
:10012000770200080D5F00087702000877020008D8
:1001300077020008770200087702000877020008BB
:10014000770200087702000877020008A5C60008B9
:1001500077020008770200087702000849100108BA
:10016000770200087702000877020008770200088B
:100170007702000877020008315E00087702000865
:100180007702000877020008DFF80CD000F062FE6A
:10019000004800476D90010890BD00202C4B196865
:1001A0000868B0E8F04F80F30988BFF36F8F4FF015
:1001B000000080F3118870470000000008480068C4
:1001C000006880F308884FF0000080F3148862B65E
:1001D00061B6BFF34F8FBFF36F8F00DF00BF00BF6B
:1001E00008ED00E0DFF80C00016841F470010160E7
:1001F000704700BF88ED00E0EFF30980BFF36F8F19
:10020000134B1A681EF0100F08BF20ED108A20E96A
:10021000F04F106009B44FF0500080F31188BFF325
:100220004F8FBFF36F8F20F0EFF84FF0000080F397
:10023000118809BC19680868B0E8F04F1EF0100F6B
:1002400008BFB0EC108A80F30988BFF36F8F704746
:1002500054000020EFF305807047000006488047F7
:1002600006480047FEE7FEE7FEE7FEE7FEE7FEE79B
:10027000FEE7FEE7FEE7FEE78DF4000889010008CF
:100280002DE9F05F0546002092469B4688460646CB
:10029000814640241BE0284641464746224600F05E
:1002A000A8FB53465A46C01A914110D3114618462E
:1002B000224600F08FFB2D1A67EB01084F462246BD
:1002C0000120002100F086FB17EB00094E41201EA3
:1002D000A4F10104DFDC484631462A464346BDE826
:1002E000F09F2DE9F0410024061B254671F1000620
:1002F00005DA01240027D0EB070067EB0101161E89
:1003000073F1000605DA0027D2EB0702012567EB3F
:100310000303FFF7B5FF86460E4617469C46AC42E0
:1003200004D00025D0EB050E65EB010624B10020BA
:10033000D2EB000760EB030C704631463A46634649
:10034000BDE8F08140EA01039B0703D009E008C93A
:10035000121F08C0042AFAD203E011F8013B00F88A
:10036000013B521EF9D27047D2B201E000F8012BD6
:10037000491EFBD270470022F6E710B513460A4625
:1003800004461946FFF7F0FF204610BD421E12F842
:10039000013F002BFBD111F8013B02F8013B002B80
:1003A000F9D1704710B5044604E00B7800F8013B22
:1003B00003B1491C521EF8D2204610BDCAB2401EDD
:1003C00010F8011F8A4202D00029F9D1002070479D
:1003D000421C10F8011B0029FBD1801A704710B590
:1003E000002200E0521C835C8C5CA34201D1002BF4
:1003F000F8D1D8B2E1B2401A10BD30B504460020A1
:10040000034600E05B1C934203D2E05CCD5C401BE2
:10041000F8D030BD034611F8012B00F8012B002A5B
:10042000F9D11846704730B505460020034600E074
:100430005B1C934205D2EC5CC85C201A01D1002CF5
:10044000F6D130BD70B50F4D00B92868002412E018
:100450000A4602E09E4203D0521C1378002BF9D1C9
:10046000DAB2224305D02BB124B1002100F8011BE0
:1004700004E00446401C0678002EE9D1286020469E
:1004800070BD0000700500202DE9F05F93460F4617
:1004900080460446002612F0EFF8D0F8009082461D
:1004A00014F8015B2DB100F0C7FA0068405DC00789
:1004B000F6D12B2D02D02D2D1AD0641E0021CAF8A2
:1004C00000105A463946204600F0F1FA014627B19D
:1004D0003868A04201D1C7F80080DAF8000002288D
:1004E00009D0CAF80090700505D54842BDE8F09FD4
:1004F00046F48066E2E70846F8E770B5064612F073
:10050000BBF8046805460A220021304600F06CFB67
:100510002C6070BD2DE9FE4F804681EA0300C00FBC
:100520000C46009021F0004123F00045B8EB02009A
:10053000A94105D24046214690461C460B4602463C
:1005400023F00040104347D0270DC7F30A00C3F340
:100550000A510290401A019040286BDAC3F313004D
:1005600040F4801B0098924620B10023D2EB030A8E
:1005700063EB0B0B01985946C0F14002504600F066
:1005800029FA06460D4650465946019A00F041FAAE
:1005900010EB08006141002487EA115284EAE773F6
:1005A0001A4340D0009A62B3019A012A4FEA0752D7
:1005B00015DC001B61EB02014FF0004202EA07521A
:1005C000CDE90042001C41F5801132462B4600F077
:1005D00089FB03B0BDE8F08F40462146F9E7001BD8
:1005E00061EB0201001C41F5801300185B412018EB
:1005F000A2F5001747EB030140EAD570B6196D412B
:1006000011E06D084FEA360645EAC0754FEA075219
:10061000001B61EB0201001C41F5801149084FEA03
:1006200030000019514132462B4603B0BDE8F04F6F
:1006300000F049BB0098012240000023D0EB0202E9
:1006400063EBE073009821464FEAE074B8EB0000DA
:1006500061EB0401E9E783F000435BE781F00041CF
:1006600058E72DE9FE4F81EA030404F0004421F02D
:10067000004100944FF0000B23F0004350EA0104C6
:100680005ED052EA03045BD0C3F30A54C1F30A55A7
:100690002C44A4F2F3340194A0FB0254C1F31301DF
:1006A00041F48011C3F3130343F4801301FB0244AC
:1006B00000FB034E840A970A44EA815447EA8357B1
:1006C000A4FB076802958D0A05FB07854FEA932C6A
:1006D00004FB0C542705029D4FEA065847EA1637DB
:1006E000B5EB08056EEB070C870E920E47EA8117F3
:1006F00042EA8312A7FB0201B6EB0B0164EB000494
:100700002B0D43EA0C335E1844EB1C50DA4651467D
:10071000E7FB0201C5F313044FEA0B3343EA14531A
:100720004FEA0432019C43EA0603A4F10C0402944C
:10073000009CCDE900B400F0D5FA03B0BDE8F08F1D
:1007400000200146F9E72DE9F04D81EA030404F0A9
:10075000004B21F0004514464FF0000A23F0004101
:1007600050EA050220D054EA01021DD0C5F30A5711
:100770000246C5F31303C1F31300C1F30A5640F454
:10078000801543F48013A7EB0608101BD64608F229
:10079000FD3873EB050002D308F1010801E092185F
:1007A0005B41B8F1000F03DA00200146BDE8F08D8F
:1007B00000204FF48011064684460EE0171B73EBB1
:1007C000050705D3121B63EB050306434CEA010C36
:1007D00049084FEA300092185B4150EA0107EDD119
:1007E00052EA030012D082EA040083EA05010843BA
:1007F00005D0101BAB4106D20122002306E00022E7
:100800004FF0004302E06FF0010253101AEB0600B4
:100810004CEB085110EB0A0041EB0B01BDE8F04D29
:1008200000F051BA0EB5C10F80EAE0700844CA0763
:10083000002140F233438DE80E000A460B4600F0DB
:1008400051FA03B000BD0EB540F2334102910021D0
:10085000CDE900110A460B4600F044FA03B000BD92
:100860000EB540F2334202920022CDE90022134637
:1008700000F038FA03B000BD70B5C1F30A5201F0C0
:1008800000450024C1F3130140F2FF3341F480110D
:100890009A4201DA002070BD40F233439A42A2F23C
:1008A000334203DC524200F0A4F800E090402C43B5
:1008B000F1D0404270BDC1F30A5210B5C1F313012B
:1008C00040F2FF3341F480119A4201DA002010BD5A
:1008D00040F233439A42A2F2334203DC524200F028
:1008E00088F810BD904010BD00F0004230F000408C
:1008F0000AD0C10D01F56071C0F3160042EA015142
:10090000C2084007114370470020014670470000AD
:1009100030B5041E71F1000404DB4FF00044404286
:1009200064EB0101141E73F1000405DB1C464FF05B
:100930000043524263EB04038B4208BF824230BD46
:1009400030B5041E71F1000404DB4FF00044404256
:1009500064EB0101141E73F1000405DB1C464FF02B
:100960000043524263EB0403994208BF904230BDFA
:1009700001F0004330B421F0004150EA010206D0FA
:100980000A0DA2F56072C1F31301002A02DC30BC2B
:1009900000207047440F44EAC104C100E01830BC95
:1009A00000EBC25000F058B930B50B4601460020AC
:1009B0002022012409E021FA02F59D4205D303FA21
:1009C00002F5491B04FA02F52844151EA2F10102A2
:1009D000F1DC30BD202A04DB203A00FA02F10020CD
:1009E00070479140C2F1200320FA03F3194390406D
:1009F0007047202A04DB203A21FA02F000217047D8
:100A000021FA02F3D040C2F1200291400843194676
:100A10007047202A06DBCB17203A41FA02F043EA5E
:100A2000E07306E041FA02F3D040C2F120029140A7
:100A30000843194670470000004870470C840408BA
:100A400010B50446FFF7F8FF0068005D00F00100F4
:100A500010BD3A2800D2303820F02002412A01D3BC
:100A6000A2F13700884201D34FF0FF30704742684F
:100A700042B1016811F8013B23B1521EC0E90012D6
:100A8000184670470121C160881E704742685AB1FC
:100A9000C368016843B983688B4205D0491E521C64
:100AA000C0E90012002070474FF0FF3070472DE979
:100AB000F05F82460078002715468B460AF1010454
:100AC000B946302801D09DB113E014F8010B01277D
:100AD000782803D0582801D045B10AE00DB1102D77
:100AE00007D10027102514F8010B02E0082500E0CB
:100AF0000A250026B0460EE005FB080005FB06F1BE
:100B0000012701EB10461FFA80F8B6F5803F00D3AD
:100B1000B94614F8010B2946FFF79BFF0028EBDAD2
:100B2000BBF1000F05D00FB1641E00E05446CBF8B6
:100B30000040B9F1000F06D011F09EFD02210160C6
:100B4000C81EBDE8F09F48EA0640FAE70FB400234C
:100B500000B589B00CA900910B996FF00042CB60F1
:100B60001E4B06931E4B07930423CDE901321D4A09
:100B7000089202466B46002000F012FA09B05DF8B8
:100B800014FB70B586B006464FF0FF300091CDE9FA
:100B90000101002015460C4604903246694604A81F
:100BA000FFF7D4FF02460498211825B108B1084682
:100BB00000E020462860049800280DD0002A02DDBD
:100BC0000098884208D0081B0094CDE90104324601
:100BD000694604A8FFF7BAFF06B070BD6F0A0008A7
:100BE0008D0A0008410A00082DE9F04791460F469A
:100BF00080460446002614F8015B2DB1FFF71CFF68
:100C00000068405DC007F6D12B2D02D02D2D18D0E5
:100C1000641E4A4639462046FFF749FF27B1396826
:100C2000A14201D1C7F8008071054FF002040BD535
:100C30004042002803DD11F01FFD0460A007BDE85D
:100C4000F08746F48066E4E70028F8DA11F014FD36
:100C500004606FF00040F2E70029A8BF7047401C15
:100C6000490008BF20F00100704710B4B0FA80FCC2
:100C700000FA0CF050EA010404BF10BC704749B1FF
:100C8000CCF1200421FA04F411FA0CF118BF01216F
:100C900021430843A3EB0C01CB1D4FEA00614FEA4F
:100CA000102042BF002010BC704700EBC35010441E
:100CB0000029A4BF10BC7047401C490008BF20F0A9
:100CC000010010BC704710B5141E73F1000408DA5F
:100CD000401C41F1000192185B411A4301D120F000
:100CE000010010BD2DE9F04D92469B4611B1B1FABD
:100CF00081F202E0B0FA80F220329046FFF76AFEFD
:100D000004460F4640EA0A0041EA0B0153465A46A0
:100D1000084313D0114653EA010019D0C8F140022C
:100D20005046FFF766FE05460E4650465946424677
:100D3000FFF750FE084305D0012004E02046394665
:100D4000BDE8F08D0020054346EAE0762C433743AA
:100D50000A986305E40AA0EB08000022FD0A44EAB1
:100D600047540A3002D500200146E9E70105101971
:100D70006941DDE9084500196941BDE8F04DA2E788
:100D80002DE9F04D00231A461B1A8A4103DB00208F
:100D90000146BDE8F08DC1F30A52C1F3130141F4DD
:100DA00080154FF0000BD10702D100186D41521E83
:100DB0000027044640F2FF11384601EB620A3E4626
:100DC0008046024600204FF48011FFF712FEC21940
:100DD0007141BB1846EB0100B4EB030C75EB000C42
:100DE00004D3E41A65EB000517460E46241908F1F2
:100DF00001006D4180463428E3DDF91946EB060019
:100E0000091BA84103D24FF0FF32134601E0002234
:100E100013461BEB070046EB0A51BDE8F04DFFF708
:100E200052BFC1F30A52C1F3130140F2FF3341F440
:100E300080119A4202DA00200146704740F23343A3
:100E40009A42A2F2334202DC5242FFF7D2BDFFF7D0
:100E5000C1BD0000064C074D06E0E06840F001030C
:100E600094E8070098471034AC42F6D3FFF790F9A6
:100E7000208D0408408D04082DE9FF4F087883B0C9
:100E80009946FF2805D0491C2D2804D000240020B5
:100E900008E000200BE00124F9E700EB800003EB01
:100EA0004000491C0B78FF2BF7D104B140420023CE
:100EB0000293147819461D462D2C01D02B2C04D1F9
:100EC000521C2D2C13D000240294AA461478FF2C17
:100ED0000FD00A25A3FB057801FB05814FF0000C1C
:100EE00003FB0C11521CE3194AEB0101EEE701244C
:100EF000EAE7814453EA010002D019F5C87F06DA17
:100F000003980021C0E9001107B0BDE8F08F00256B
:100F1000AE4E2F46DFF8B8821846FFF7A1FCCDE9A8
:100F20000001B9F1000002DAC9F1000400E0044652
:100F30000023A74A1AEB030B42EB045A12E0E00726
:100F400007D02A46334638464146FFF78AFB074614
:100F500088462A46334610461946FFF782FB054667
:100F60000E466410002CEAD1DDE90001B9F1000F52
:100F70005A46534606DAFFF7E6FB3A464346FFF782
:100F8000E2FB05E0FFF76DFB3A464346FFF769FBDE
:100F9000029A0AB181F00041039AC2E90001B3E765
:100FA0002DE9FF4F1F468DB0D7E901464FF0FF38BE
:100FB0002E2045464FF000090B90B9696D1C0E9824
:100FC0008847396A824688470028F6D1BAF1FF3F40
:100FD0000AD024F4D064002E11DDBAF12B0F08D012
:100FE000BAF12D0F0BD102E0404611B08DE744F469
:100FF0008064B9696D1C0E9888478246761E6946E2
:10100000600501D52D2000E02B208DF8000001F1B6
:10101000010B0DF1200809E0B9696D1C0E98884795
:1010200082460F9844F40074761E0560002E02DD9F
:10103000BAF1300FF0D00B998A453ED144F08004CC
:1010400006E00F99681CA9F1010944F400740860D6
:10105000B9696D1C761E0E98884782463028F0D0FC
:101060002BE00B998A4505D1200603D444F0800477
:10107000761E18E0504611F03BFC08B30DF1130149
:10108000761E44F400748B4508D2AAF130000BF8A8
:10109000010B200607D5A9F1010003E0200602D4C8
:1010A00009F101008146A00502D50F99681C08606E
:1010B000B9696D1C0E9888478246002ED1DC53E03A
:1010C000002E51DDBAF1650F02D0BAF1450F4BD1B8
:1010D000A00549D5B9696D1C24F44074761E0E989C
:1010E00088478246002E0CDD2B2804D0BAF12D0F44
:1010F00007D144F48074B9696D1C0E988847824604
:10110000761EE00501D52D2100E02B2108F8011BFA
:10111000CDF82C8021E00DF12901761E44F40074F5
:1011200088450CD2AAF1300010F0FF0088F80000CA
:1011300002D10B99884509D908F1010806E0E005BC
:1011400001D5244801E042F20F708146B9696D1C57
:101150000E98884782460F980560002E04DD5046A1
:1011600011F0C6FB0028D6D1F9690E988847FF20F8
:101170008BF8000088F800000020069007904B468E
:101180006A4608A906A8FFF777FEA00502D46FF00B
:1011900001002AE714F0240F0AD0E00714D1DDE99A
:1011A00006123868031D3B600068C0E900120BE0BE
:1011B000DDE90601FFF7DCFB0146E00704D13868F2
:1011C000021D3A600068016028460EE700001440E6
:1011D0000000F03FF1D8FFFF70B58C1810F8015BEC
:1011E00015F0070301D110F8013B2A1106D110F8C0
:1011F000012B03E010F8016B01F8016B5B1EF9D1C4
:101200002B0705D40023521E0DD401F8013BFAE749
:1012100010F8013BCB1A921C03E013F8015B01F8B4
:10122000015B521EF9D5A142D8D3002070BD21B177
:10123000826842F00102826003E0826822F00102CB
:10124000826070470021084A1168084A1140D0E9BD
:1012500000231A4383681A43C3681A431143044A9C
:10126000C2F804137047000004230140E030FCFF83
:101270000020014030B50246002000235068104C89
:1012800020400D790C6844EA0524204350609068A2
:101290000C4C2040D1E903542C438D682C434D79EC
:1012A00044EA450420439060D06A20F470000C7D2D
:1012B000641EE4B2234340EA0350D06230BD000014
:1012C000FFFEFFFCFDF7FFC038B10849096841F493
:1012D0000001074AC2F8041306E00449096821F432
:1012E0000001034AC2F804137047000004230140C0
:1012F0000020014000B58BB0012108020BF020FA5C
:101300000120FFF7E1FF002007900A9009904FF4B9
:101310008030089007A8FFF795FF002001908DF816
:1013200008008DF809000390059001208DF8180041
:1013300001A90448FFF79EFF01210248FFF777FF4C
:101340000BB000BD0020014010B5FF2000F02DF8CB
:101350000446362C01D1002010BD3621FF2000F0BC
:1013600065F8FF2000F021F80446362C01D100205A
:10137000F2E70120F0E710B509F0F0F910BD2DE912
:10138000F04107460C460026002509E036023919CF
:10139000491B491E88B200F008F80644681CC5B213
:1013A000A542F3DB3046BDE8F08170B50446002667
:1013B00009F074FA2546E11704EB11610912A02225
:1013C00002EB4101C8B209F037FA09F09FFAE117C0
:1013D00004EB11610912A4EB0121C8B209F02CFA47
:1013E00009F094FA09F05AFAA12009F025FA09F057
:1013F0008DFA002009F0F4F9064609F06BFA304640
:1014000070BD2DE9F04105460E461746002409E05F
:10141000E20026FA02F2D1B22A1990B200F006F8E0
:10142000601CC4B2BC42F3DBBDE8F08170B5044679
:101430000E4609F033FA2546E11704EB1161091253
:10144000A02202EB4101C8B209F0F6F909F05EFAF8
:10145000E11704EB11610912A4EB0121C8B209F0F4
:10146000EBF909F053FA304609F0E6F909F04EFAC3
:1014700009F030FA0A2012F09BFA70BD10B5054849
:10148000006828B14FF0FF31024800681FF078FA79
:1014900010BD0000D400002010B50548006830B130
:1014A00000231A461946024800681FF0B9F910BD1A
:1014B000D400002070B504460D4614B103480068FE
:1014C000206015B10AF0B0FA287070BDBC00002091
:1014D000F0B585B040F2473140F2E7300EF0C0FA87
:1014E00047A011F08DF8002018F0D2FA06463146D8
:1014F00052A011F085F800257BE017F043FC04466C
:10150000002C6CD10120564908705648407A554944
:10151000097A544AD279534B9B79CDE90132CDE90E
:1015200003105048407B00904E48037BC27A817A7A
:101530004D4811F065F8012018F0AAFA064600207F
:1015400018F0A6FA07463246394648A011F058F876
:101550000AF06AFA38B10AF0D3F9064631464DA0CE
:1015600011F04EF802E058A011F04AF83D484179D8
:1015700000793C4AD278CDE900200291394883783D
:101580004278017860A011F03BF83648417B007B3F
:10159000344AD27A334B9B7ACDE90132CDE903014B
:1015A0003048407A00902F48037AC279817961A04F
:1015B00011F026F86EA011F023F806F01FFB0020B2
:1015C0007949886017F0D6FB06F000FC06463146E4
:1015D00076A011F015F809F00DFE05B0F0BD6A1CFB
:1015E00021467C4811F00CF8C82012F0E1F9681C83
:1015F000C5B2052D81DB78A011F002F800BFECE741
:101600005B4554485D20496E6974206C77495020D1
:1016100028706C7567206361626C65206265666F17
:10162000726520706F7765722D6F6E20696620700D
:101630006F737369626C65290D0A00005B4554483D
:101640005D206D656D3120757365642025752525D8
:10165000206265666F7265206C7749500D0A000044
:10166000B800002030AE0020048604085B455448D2
:101670005D206D656D313D25752525206D656D32CB
:101680003D25752525206166746572206C7749506B
:101690000D0A00005B4554485D20504859206C6994
:1016A0006E6B2055502C20737065656420636F64E9
:1016B000653D25752028362F31343D3130304D20A1
:1016C0004644290D0A0000005B4554485D205048FF
:1016D00059206C696E6B20444F574E202D206E6F41
:1016E000206361626C65206F722077726F6E672075
:1016F000706F7274212070696E672077696C6C203E
:101700006661696C0D0A00005B4554485D204D41DF
:101710004320253032583A253032583A2530325855
:101720003A253032583A253032583A253032580D61
:101730000A0000005B4554485D20506565722868CA
:101740006F7374292025752E25752E25752E257508
:101750002C20746573743A20686F73742070696EFE
:10176000672025752E25752E25752E25750D0A00E9
:101770005B4554485D20525820706F6C6C206D6F33
:1017800064653A204E65745461736B2064726169BC
:101790006E7320444D4120286E6F204554482049E7
:1017A0005251290D0A000000009002405B45544848
:1017B0005D20677261747569746F75732041525052
:1017C0002073656E742C2074785F6F6B3D256C758B
:1017D0000D0A0000E48404085B4554485D206C77E2
:1017E00049502064697361626C65643B2043414EDB
:1017F0002F52533233322F6D6F74696F6E20756EB6
:1018000061666665637465640D0A000001480078CE
:1018100070470000B800002010B51348007800B9E8
:1018200010BD0DE000BFEFF31080044672B617F054
:10183000E5FB04B962B60D480068401C0B4908601E
:101840000B48006805F003FF0028EBD100BFEFF361
:101850001080044672B606F0D1F917F0ABFB04B95C
:1018600062B600BFDCE70000B8000020BC0000202A
:101870003400002010B522A00FF0A6FA00214FF08E
:1018800080400EF082F90022012188070EF09AF9BB
:1018900009F0E8F94FF4165007F07EFF05F0D8F88C
:1018A00003F080F800F0AEFE00F0BAFC4CF25232C9
:1018B000511E15A010F0A4FE22480268001F016806
:1018C00021A010F09DFE2E4810F09AFE2D4810F039
:1018D00097FE2DA010F094FE3AA010F091FE49481A
:1018E00010F08EFEFFF7F4FD4FF4E1300FF012FA26
:1018F00045A00FF069FA464810F082FE10BD0000C6
:101900004D4F54494F4E00005B4A4554534F4E5D76
:101910002045746865726E65742055445020424CB1
:101920004F4220763220646F776E3A2575207570AD
:101930005F706565723A2575202830784142290D1F
:101940000A000000046400405B43414E315D2043C7
:1019500068617373697320504131312F31322069CE
:101960006E6974204F4B2C204D43523D307825300A
:101970003858204D53523D3078253038580D0A00E4
:1019800074850408A08404085B4A4554534F4E5D97
:101990002055534152543220444D41205458202B5D
:1019A00020627974652D49535220525820286E6F59
:1019B0006E2D626C6F636B696E67205458290D0A37
:1019C000000000005B4A4554534F4E5D20646F7722
:1019D0006E6C696E6B3A2030784142204D5347203F
:1019E000307830313B206C6F6720746167205B4A30
:1019F0004554534F4E20424C4F4220434D445D0DC1
:101A00000A000000288504084554484F4B00000098
:101A1000B885040810B510F005FD0AF0F1FD10BD01
:101A200010B500200AF00AF84FF6FF700949088047
:101A30000020094908800DF053F904F081FF0446A5
:101A40000DF0D4FA0DF072FA0DF0AAFB03A010F01D
:101A5000D7FD10BD84010020860100205B4C43446B
:101A60005D2053656E736F72205549207265616405
:101A7000793B206C61796F75743D7072652D52549D
:101A80004F53202B204750530D0A00001CB52EA0A9
:101A900010F0B6FD3248062100234FF40072CDE964
:101AA000001030A131481FF04BF8314805210023C8
:101AB0004FF4C072CDE900102EA12F481FF040F85E
:101AC0002E48042100234FF4C072CDE900102CA150
:101AD0002D481FF035F82D48042100238A01CDE957
:101AE00000102BA12B481FF02BF82B4803210023BB
:101AF0004FF48062CDE9001028A12A481FF020F899
:101B00002948022100234FF44072CDE9001027A19B
:101B100027481FF015F82748022100230A02CDE9C3
:101B2000001025A125481FF00BF8254803210023AC
:101B30000A02CDE9001023A123481FF001F8204834
:101B400000680AF057FD1CBD5B52544F535D2043A3
:101B500072656174696E67207461736B730D0A003E
:101B6000E40000204D6F74696F6E0000E9FE01080B
:101B7000E800002043616E0059FD0108EC000020E0
:101B800053656E736F7200006D000208F000002054
:101B90004B65790079FE0108F40000204A657473F2
:101BA0006F6E0000EDFD0108F80000204770730023
:101BB000BDFD0108000100204E65740005FF01080D
:101BC000FC00002055690000C10402080020704795
:101BD0002DE9FF4F87B014AD95E8E00F2A4CB4F91A
:101BE0000600002811DD1C9810BB1D9800BB0820C2
:101BF0002649087000F0E0FD0146069040F22260A0
:101C000001F0A2F80BB0BDE8F08FB4F9060000288F
:101C10000EDA1E9860B91F9850B909201B49087048
:101C200000F0CAFD01460690194801F08DF8E9E779
:101C3000B4F90200002801DCE08830B18DE8E0074B
:101C400007A80FC800F0A6F81CE0B4F902000028AD
:101C500008DA1B988DE8E009059007A80FC800F086
:101C600019F80FE00D2009490870002001F05EF816
:101C7000372005491039C883E1880348103841846A
:101C80000021018400BFBDE7502300208003002015
:101C9000DEF9FFFF2DE9F04F87B0804689461546F3
:101CA0001E46DDE912AB159F374CB4F90620022120
:101CB00005A800F007FCB4F9020000F0EFFB029069
:101CC00000F031FA0490B4F9020000F0E7FB029052
:101CD00000F006FA0390149888B987B907202B49B9
:101CE00008703146284600F027FD029001F040F8C8
:101CF000E188A4F11000418407B0BDE8F08FAEB1D7
:101D0000A7B90498854211DD039885420EDC0720AF
:101D10001E4908703146284600F00EFD029001F081
:101D200027F8E188184810384184E5E7072017496B
:101D3000087005A8CDE900AB029049464046DDE9B0
:101D4000102300F0A6FF10B1012811D107E0494689
:101D5000404600F017FD029001F00AF810E000F094
:101D60002BFD0146029040F2226000F0EDFF07E0FB
:101D700000F022FD01460290054800F0E5FF00BF9B
:101D800000BF00BFB8E70000502300208003002000
:101D9000DEF9FFFF2DE9F04F87B005460E461746E6
:101DA0009846DDF848B0DDF840A0DDF854903B4C93
:101DB000B4F90620012105A800F084FBB4F9020063
:101DC00000F06CFB029000F0AEF90490B4F9020050
:101DD00000F064FB029000F083F90390149898B926
:101DE000B9F1000F10D10C202D490870314628465A
:101DF00000F0C8FC029000F0BBFFE188A4F11000E5
:101E0000418407B0BDE8F08FBEB1B9F1000F14D125
:101E10000498854211DD039885420EDC0B20204991
:101E200008703146284600F0ADFC029000F0A0FF9B
:101E3000E1881A4810384184E3E706201849087001
:101E400005A91398CDE900B00291524641463846A3
:101E5000119B00F0F8FE10B1012813D109E00F49E1
:101E60001039888D414600F067FC029000F080FF39
:101E700010E000F0A1FC0146029040F2226000F068
:101E800063FF07E000F098FC01460290054800F06F
:101E90005BFF00BF00BF00BFB3E70000502300207E
:101EA00080030020DEF9FFFF2DE9FE4F06460F46B6
:101EB00014461D46DDE90D9ADDF8308000F07CFC0B
:101EC00002902548B0F916200321684600F0FAFA7E
:101ED000B8F1000F0CD1B9F1000F09D108201F494A
:101EE000087040F22260029900F02EFFBDE8FE8FDC
:101EF000BAF1000F09D10F9838B9092017490870B5
:101F00001748029900F020FFF0E7BDF8002039469D
:101F1000304601F0DDFC8346BDF80220294620460C
:101F200001F0D6FC83450ADB0A200C4908703946CB
:101F3000304600F027FC834600F01AFF09E00A2033
:101F4000064908702946204600F0F6FB834600F05B
:101F50000FFF00BFCAE700004023002080030020DD
:101F6000DEF9FFFF2DE9FE4F06460F4614461D46DB
:101F7000DDE90D9ADDF8308000F01EFC0290254866
:101F8000B0F916200421684600F09CFABAF1000F5F
:101F90000AD10F9840B909201F4908701F480299BB
:101FA00000F0D2FEBDE8FE8FB8F1000F0BD1B9F101
:101FB000000F08D108201849087040F222600299E9
:101FC00000F0C2FEEEE7BDF800203946304601F0D1
:101FD0007FFC8346BDF802202946204601F078FCAC
:101FE00083450ADB0A200C4908703946304600F068
:101FF000C9FB834600F0BCFE09E00A2006490870D0
:102000002946204600F098FB834600F0B1FE00BF51
:10201000C8E700004023002080030020DEF9FFFF16
:1020200010B50E4C022000F081FE0020A4F110013A
:10203000C8830021A4F1100041840D2008490870D4
:10204000FFF7C4FD20B10021A4F11000018403E0DA
:10205000A18802481038018410BD000050230020E0
:102060008003002010B5002000F060FE002006492B
:10207000C883002104480184418480F82510002091
:102080000249087010BD000040230020800300209A
:102090002DE9F04104460F4690461FB14FF6FF7000
:1020A000844202D10020BDE8F081404600F03BF8B8
:1020B0000546404600F014F80646B54201DB002014
:1020C000F1E7AC4201DC0020EDE7B44201DB642023
:1020D000E9E7601B64214843711B90FBF1F0E2E7E4
:1020E0002DE9F0410646304602F0AAFF05464FF4BE
:1020F000AF7015FB00F04FF47A71B0FBF1F815FBEF
:1021000005F08900B0FBF1F708EB070000F164046B
:10211000FA2C00D2FA24B4F5487F01D94FF4487460
:10212000A0B2BDE8F08170B506463046FFF7D8FF93
:1021300004460320B4FBF0F53C2D00DA3C25C82D05
:1021400000DDC825A54205DB012C01D9601E00E099
:102150003C2085B2284670BD10B50E4840680E4937
:1021600009680C1A0F2C11D30A48007A88B904EBBD
:102170008400810009A010F043FA0120054908728B
:102180000021044841828182C18202E0002001498D
:10219000087210BD40230020400100205B417262A4
:1021A000697465725D20486561727462656174204E
:1021B0006C6F7374212028256C75206D73290D0AAE
:1021C000000000000146B1F57A7F02DD4FF47A701D
:1021D000704711F57A7F01DA0148F9E70846F7E719
:1021E00018FCFFFF38B5044600940122694640F20E
:1021F000414002F073FC214601A010F001FA38BD05
:102200005B417262697465725D20436C6561722026
:102210006572726F723A203078253032580D0A009C
:1022200010B5012001F076FA002001F01DFA00201F
:1022300001F09AFA01A010F0E3F910BD5B4172625F
:10224000697465725D2043414E206D6F6465206541
:102250006E61626C65642C20726561647920746FB4
:1022600020636F6E74726F6C20636861737369733F
:102270000D0A00004EF65F200849488501460748D0
:102280008185C18501860F20044981F832004EF610
:102290005F20C884002081F8280070474023002078
:1022A0002DE9F84F04460D464FF0000A002000903B
:1022B0001A48B0F91E60B0F92280B0F9209090F869
:1022C000250018B100BF002000901DE0B8F1000FFC
:1022D00009D0374607B937276A464146384602F0E3
:1022E000B7FE82460FE00D48008C30B14FF0030A74
:1022F000484602F0A5FE009005E06A4600213046FF
:1023000002F0A6FE824600BF0CB184F800A015B111
:10231000BDF900002880BDE8F88F000040230020B0
:102320002DE9FC5F05460E464FF0000900200090A5
:102330003148B0F93CA0B0F93EB0B0F9400001908E
:102340002D4890F85280504602F07AFE07465846D3
:1023500002F076FE0446B8F1030F03D100BF00205F
:1023600000903FE0244890F8250020B14FF000098C
:102370000020009036E0322F06DA322C04DA4FF0DB
:102380000009002000902DE0B8F1000F19D0B8F13D
:10239000010F0ED0B8F1020F12D14FF00309322C09
:1023A00001DB009404E0322F01DB009700E0009491
:1023B00016E06A465046019902F0A8FE81460FE0F9
:1023C00000BF6A465046019902F071FE8146B9F19C
:1023D000000F04D1322C02DB4FF00309009400BF40
:1023E00000BF00BF0DB185F8009016B1BDF9000027
:1023F0003080BDE8FC9F00004023002010B5264C33
:1024000000F070F908B1002010BD207A022801D137
:102410000520F9E7207A01281AD1B4F906005028DE
:1024200001DB0320F0E7B4F9060010F1500F01DCE6
:102430000420E9E7B4F90200002801DD0120E3E708
:10244000B4F90200002801DA0220DDE70020DBE712
:10245000B4F90200002801DD0120D5E7B4F902003B
:10246000002801DA0220CFE7B4F90400502804DC88
:10247000B4F9040010F1500F01DA0520C4E7B4F9F3
:102480000600502804DCB4F9060010F1500F01DA00
:102490000620B9E70020B7E75023002070B50446B6
:1024A000204602F0CDFD05460549B1F93C0002F099
:1024B000C7FD0646B54201DB284670BD3046FCE745
:1024C000402300200CB54FF47A73ADF80030ADF81E
:1024D0000230ADF80430ADF80630072974D2DFE8D9
:1024E00001F073041220307340004FF47A73ADF89A
:1024F0000030C823ADF802304FF41673ADF8043045
:10250000ADF8063061E0C823ADF800304FF47A73BF
:10251000ADF802304FF41673ADF80430ADF8063064
:1025200053E04FF46173ADF800304FF49673ADF89B
:1025300002304FF47A73ADF80430C823ADF806309A
:1025400043E04FF46173ADF800304FF49673ADF88B
:102550000230C823ADF804304FF47A73ADF806307A
:1025600033E0002A10DD4FF46173ADF800304FF412
:102570009673ADF802304FF47A73ADF804304FF42F
:102580009673ADF806301DE0002A0EDA4FF4617341
:10259000ADF800304FF49673ADF80230ADF804306A
:1025A0004FF47A73ADF806300CE04FF47A73ADF85F
:1025B0000030C823ADF802304FF41673ADF8043084
:1025C000ADF8063001E0FFE700BF00BF009B0360ED
:1025D000019B43600CBD000000B970470849B1F889
:1025E0004A1081800649B1F84C1001800449B1F8C5
:1025F0004E1041800249B1F85010C18000BFECE795
:102600004023002010B500202249087022480068AD
:1026100048600020087248728872C86001200874FF
:1026200000211C4841828182C182017641768176F7
:10263000C1760177417700201649C88300211548EB
:102640000184418480F8241080F825104FF6FF7033
:102650001049C884002081F828004FF6FF70488593
:1026600001460C488185C18501860020094981F811
:102670003200FFF7FFFD0020084908700548007888
:10268000074A52F8201007A00FF0BAFF0E480FF0CB
:10269000B7FF10BD4023002040010020810300202F
:1026A0006C0300205B417262697465725D20496E43
:1026B000697469616C697A65642C206D6F64653A30
:1026C0002025730D0A000000E088040801464FF63B
:1026D000FF70814203D0B42901DC01207047002043
:1026E000FCE700001349087A032801D10120704754
:1026F000488808B10020FAE7B1F90400502804DC4A
:10270000B1F9040010F1500F01DA0020EFE7B1F940
:102710000600502804DCB1F9060010F1500F01DA70
:102720000020E4E7087A022801D10020DFE7012039
:10273000DDE70000502300202DE9F04105460E465C
:102740000F48B0F91270002F05DB6FF04A0002F05D
:1027500077FC044603E0384602F072FC0446142C71
:1027600004DA6FF04A0002F06BFC04463246294658
:10277000204600F093FE404200B2BDE8F081000028
:10278000402300202DE9F04105460E460948B0F9E6
:102790001270002F00DC6427384602F051FC04461A
:1027A000142C00DA642432462946204600F076FED6
:1027B000BDE8F0814023002010B50749B1F91200AF
:1027C00002F03EFC0446142C01DA4FF4FA74204661
:1027D000FFF7F8FC10BD0000402300202DE9F04F6A
:1027E0000DF1380898E8004F09AC94E8F010BDE806
:1027F000F08F0000014606290ED2DFE801F00D033C
:102800000507090B05A0704706A0FCE707A0FAE73B
:1028100008A0F8E708A0F6E709A0F4E74C454654FD
:102820000000000052494748540000005350494EF0
:1028300000000000465744004241434B00000000A6
:1028400053544F5000000000042900D07047027814
:10285000094B83F8E8204378074A82F8E930837807
:1028600082F8EA30C37882F8EB300122024B83F819
:10287000EC2000BFEAE7000040230020082900D038
:1028800070470278114B83F8E02043780F4A82F8B2
:10289000E130C278837842EA03230C4AA2F8E2309E
:1028A0004279037942EA032213B2084AA2F8E430DB
:1028B000C279837942EA032213B2044AA2F8E630CD
:1028C0000122024B83F8EC2000BFD9E7402300200F
:1028D00070B504460D46082D00D070BD6178207893
:1028E00002F057FC09498887E178A07802F051FC92
:1028F0000649C887E179A07902F04BFC0349A1F8A9
:102900004000012081F8EC0000BFE6E740230020F2
:10291000032900D070470278074B83F85220437890
:10292000054A82F85330837882F854300122024BF2
:1029300083F8EC2000BFEDE74023002030B51346BC
:10294000082B03D1012801DB082800DD30BD441E1F
:10295000E2B24C780D7844EA052425B2104C24F8F4
:102960003250CC788D7844EA052425B20C4C04EB27
:10297000C20465800C7924064D7944EA05448D79BA
:1029800044EA0524CD792C43054D05EBC2056C6066
:102990000124034D583D85F8EC4000BFD6E7000008
:1029A0009823002070B50346082A03D1012B01DBD0
:1029B000082B00DD70BD5C1EE0B24C780D7844EA57
:1029C000052500EB4006124C24F81650CC788D7883
:1029D00044EA052425B200EB40060D4C04EB460406
:1029E00065800C7965B200EB4006094C04EB4604A7
:1029F00025714D7900EB4006054C04EB46046571EA
:102A00000124034D983D85F8EC4000BFD2E700005B
:102A1000D8230020082900D0704702781206437896
:102A200042EA0342837842EA0322C3781A430A4BFC
:102A3000C3F8D02002791206437942EA034283792F
:102A400042EA0322C3791A43034BC3F8D42001227C
:102A500083F8EC2000BFDFE740230020082900D0E6
:102A6000704702781206437842EA0342837842EACA
:102A70000322C3781A430A4BC3F8D82002791206FE
:102A8000437942EA0342837942EA0322C3791A4333
:102A9000034BC3F8DC20012283F8EC2000BFDFE702
:102AA00040230020082900D070470278104B83F89B
:102AB000C820427853B20E4A82F8C930827853B2A5
:102AC0000B4A82F8CA30C27853B2094A82F8CB3036
:102AD000027953B2064A82F8CC30427953B2044AA2
:102AE00082F8CD300122024B83F8EC2000BFDBE7F7
:102AF00040230020082900D0704702780E4B83F84D
:102B0000342043780C4A82F83530C278837842EA20
:102B10000323094AD38602791206437942EA034223
:102B2000837942EA0322C3791A43034B9A63012251
:102B300083F8EC2000BFDFE740230020082900D005
:102B400070474278037842EA032212B2104BA3F88E
:102B50004220C278837842EA032213B20C4AA2F8D8
:102B600044304279037942EA032213B2084AA2F8B8
:102B70004630C279837942EA032213B2044AA2F8AA
:102B800048300122024B83F8EC2000BFD8E7000058
:102B90004023002070B504460D46082D00D070BDBE
:102BA0006178207802F0F5FA0E49A1F84A00E17840
:102BB000A07802F0EEFA0B49A1F84C006179207977
:102BC00002F0E7FA0749A1F84E00E179A07902F096
:102BD000E0FA0449A1F85000012081F8EC0000BFA0
:102BE000DDE70000402300202DE9FC5F82468B4694
:102BF00015461E465946504600F071F807463146C4
:102C0000284600F06CF88046DDE90C0100F067F81A
:102C10008146DDE90E0100F062F80190002000908D
:102C20003C46A04502DD444601200090A14502DD5E
:102C30004C46022000900198A04201DD0320009044
:102C40000098BDE8FC9F2DE9F05F82468B46154653
:102C50001E460C9C62885946504600F039FE0746D5
:102C6000A2883146284600F033FE8046E288DDE93E
:102C70000A0100F02DFE8146474504DB4F4502DB8B
:102C80000020BDE8F09FC84501DB0120F9E70220E4
:102C9000F7E72DE9F05F82468B4615461E460C9CF1
:102CA00022885946504600F013FE0746A288314656
:102CB000284600F00DFE8046E288DDE90A0100F0BA
:102CC00007FE8146474504DB4F4502DB0020BDE897
:102CD000F09FC84501DB0120F9E70220F7E7024633
:102CE00019B14FF6FF70824201D1002070474EF6B5
:102CF0005F20824201D90020F8E71046F6E7000085
:102D000010B50446002000F011F800200549C883E2
:102D10000021044841840184012180F825100248E3
:102D2000047010BD402300208003002010B504462D
:102D300004480078A04204D0204600F015FD014868
:102D4000047010BD8103002070B505460C46264670
:102D5000142E01DA4FF4FA760120FFF7E7FF03485B
:102D6000C68345840021018470BD000040230020FB
:102D700010B504460020FFF7D9FF0348C4830021A3
:102D80004184018410BD00004023002010B5FFF7EE
:102D9000E3F90F480078052813D2DFE800F00306B6
:102DA000090C0F0000F0EEFA0FE000F03BFB0CE026
:102DB00000F05EF909E000F083F906E000F004FBA2
:102DC00003E0002000F0F8FC00BF00BF10BD0000D1
:102DD000402300203EB5694602A801F05BFE044690
:102DE00004B93EBD40F262220298811A904267D037
:102DF00029DC40F25322A0EB0201904251D013DCB7
:102E000040F24122A0EB0201904243D007DCA0F245
:102E1000112098B3102837D020286FD139E010291D
:102E20003DD011297FD13BE004293ED006DC0129A9
:102E300038D0022937D0032975D135E0052935D09E
:102E40000E2970D13BE00F2949D007DC07296AD24F
:102E5000DFE801F0693738393A3B3C00B02953D0FC
:102E600006DC1F2940D02F2943D0AF295BD146E093
:102E7000FF294ED0B1F5807F55D14FE0FFE72146C5
:102E80006846FFF737FE4FE021466846FFF720FD12
:102E90004AE049E021466846FFF704FE44E000BFEF
:102EA00000BF00BF00BF00BF00BF00BF0299A1F577
:102EB0001471C8B222466946FFF740FD34E000BFF6
:102EC00000BF00BF00BF00BF00BF00BF0299A1F557
:102ED0001871C8B222466946FFF764FD24E0214616
:102EE0006846FFF72BFE1FE021466846FFF752FEBB
:102EF0001AE021466846FFF70BFD15E013E0214676
:102F00006846FFF787FD0FE021466846FFF7A6FDFC
:102F10000AE021466846FFF7B1FC05E02146684615
:102F2000FFF792FC00E000BF00BF00BF59E70000C0
:102F30002DE9F04F89B04B48B0F82A80848DB0F865
:102F40002E90B0F830A090F8320000F0010545480E
:102F500090F83200C0F34006424890F83200C0F3C7
:102F6000800B404890F83200C0F3C00008901DB1BB
:102F70004046FFF7ABFB00E0012007901EB1204662
:102F8000FFF7A4FB00E001200690BBF1000F03D087
:102F90004846FFF79BFB00E001200590089818B118
:102FA0005046FFF793FB00E00120049000212D48DC
:102FB00080F825100184079868B1069858B10598E3
:102FC00048B1049838B1FFF74DF801202649087040
:102FD00009B0BDE8F08F0898334622462946CDE96E
:102FE00001BACDF8009003904046FFF7FDFD07467B
:102FF00027B1012F0ED0022F28D11DE00C201A4935
:1030000008702A464146642000F048FA0390FFF712
:10301000AFFE24E00720144908706FF04A0002F068
:103020000FF832462146029000F038FA404200B2D2
:103030000390FFF79DFE12E008200B4908704FF443
:10304000FA7140F22260FFF77FFE08E0092006498E
:1030500008704FF4FA710548FFF776FE00BF00BF15
:1030600000BFB5E74023002080030020DEF9FFFF0A
:1030700010B51148407F50B10F4840680F490968AA
:103080000C1A0F2C03D2042000F096FB10BDFFF7A2
:103090004FFF0949B1F91E00FFF794F80649C883AC
:1030A0000221054880F8241090F8250010B1032073
:1030B00000F082FB00BFE9E7402300204001002030
:1030C00010B500200C49C88300210B4801844184BD
:1030D000032180F82410012180F82510FEF776FDE9
:1030E00048B90548007A18B1022000F065FB02E0FB
:1030F000042000F061FB10BD402300202DE9F04FBB
:1031000099B09F48468D878DC48D058E0146B1F9D3
:103110001200FFF7C3F918901898FFF704F88046DB
:103120001898FEF7DDFF8146954890F8320000F0D0
:1031300001001790924890F83200C0F340001690BA
:103140008F4890F83200C0F3800A8D4890F8320022
:10315000C0F3C00B00218A4880F82510018417981D
:1031600048B14FF6FF70864203D04E4501DC012086
:1031700002E0002000E001201590169848B14FF6BB
:10318000FF70874203D04F4501DC012002E00020A0
:1031900000E001201490BAF1000F09D04FF6FF7043
:1031A000844203D04C4501DC012002E0002000E015
:1031B00001201390BBF1000F09D04FF6FF7085423C
:1031C00003D04D4501DC012002E0002000E0012099
:1031D0001290179848B14FF6FF70864203D04645CB
:1031E00001DC012002E0002000E00120119016988F
:1031F00048B14FF6FF70874203D0474501DC0120FC
:1032000002E0002000E001201090BAF1000F09D088
:103210004FF6FF70844203D0444501DC012002E0F8
:10322000002000E001200F90BBF1000F09D04FF605
:10323000FF70854203D0454501DC012002E00020FB
:1032400000E001200E900EA80BC8119ACDE90723CB
:10325000CDE9091012A80BC8159ACDE90074CDE983
:103260000252CDE90431069033464A464146189849
:10327000FFF7B4FA424890F8320000F00F0028B986
:103280000120FFF73DFD19B0BDE8F08FFEF79EFC71
:1032900018B10120FFF734FDF5E7FFF723FA10B16D
:1032A000FEF7E0FEEFE7FFF7A9F80D900D9807286D
:1032B0005FD2DFE800F05E0413223140430015992D
:1032C0001198CDE9025BCDE9004ACDE904103A46F8
:1032D0003046DDE91631FEF75DFD4DE0149910989A
:1032E000CDE9025BCDE9004ACDE904103A4630460B
:1032F000DDE91631FEF7CEFC3EE0DDE90E03DDE947
:103300001212CDE90023CDE902103A463046DDE93C
:103310001631FEF7C9FD2FE0DDE90E03DDE91212DB
:10332000CDE90023CDE902103A463046DDE91631F9
:10333000FEF718FE20E0FEF773FE1DE0DDE90E0348
:10334000DDE91212CDE90823CDE90A10DDE9100309
:10335000DDE91412CDE9025BCDE9004ACDE9042391
:10336000CDE906103A463046DDE91631FEF730FC6D
:1033700002E0FEF777FE00BF00BF00BF83E700005A
:103380004023002010B50E48007A18B1022000F04A
:1033900013FA10BD0A49B1F91200FEF713FF0849EC
:1033A000C8830846818A0184C18A4184002180F84B
:1033B000241080F8251000200249087000BFE8E7BB
:1033C000402300208003002010B5FEF7FFFB18B15A
:1033D000032000F0F1F910BD1048007A18B1022066
:1033E00000F0EAF9F7E70D48C0680D490968081AC6
:1033F000322803D3002000F0DFF9ECE70020074972
:10340000C8830021054801844184042180F82410E8
:10341000002180F8251000BFDDE7000040230020D8
:103420004001002010B500211B4880F82510007ACB
:1034300018B1022000F0C0F910BD174890F8320012
:1034400000F0010038B1144890F8280018B90020A5
:1034500000F0B2F9F0E7FFF745F930B1FEF702FEF0
:1034600001210D4880F82410E6E7FFF747FE00F041
:10347000E7F90949B1F91E00FEF7A4FE0649C88321
:103480000121054880F8241090F8250010B1032090
:1034900000F092F900BFCFE7402300202DE9F0476C
:1034A00004460D4616462046FEF7F8FF81464A467A
:1034B00031462846FEF7ECFD074604FB07F0642181
:1034C00090FBF1F80FFA88F0FEF77CFEBDE8F0877C
:1034D0002DE9FC410020009001903F4890F8250024
:1034E00018B100F0B5F8BDE8FC813B4890F8350014
:1034F00003280ED13948007828B9012037490870CF
:1035000037A00FF07DF800204149087000F0A0F8C6
:10351000E9E70020314908702F4890F8530001284E
:103520000BD13B48007828B901203949087039A0EF
:103530000FF066F800F08CF8D5E7002034490870E9
:103540002548B0F91E60408C30B100252248B0F902
:103550002240AEB9372613E01F48008C70B11E48D8
:10356000B0F92070B7F5004F01DB47F6FF7717F58C
:10357000004F00DA354F3DB2002401E00025002461
:10358000B4F5004F01DB47F6FF7414F5004F00DA85
:103590002E4C0FFA84F8300A8DF80000F0B28DF846
:1035A0000100280A8DF80200E8B28DF8030000201F
:1035B0008DF804008DF805004FEA18208DF80600FC
:1035C00008F0FF008DF807000822694640F211104C
:1035D00001F084FA00BF86E7402300208703002023
:1035E0005B417262697465725D2052656D6F7465CE
:1035F000206D6F646520283078323131292C20709D
:10360000617573652030783131310D0A000000009A
:10361000880300205B417262697465725D204D6FA2
:1036200074696F6E206D6F64656C20737769746365
:1036300068696E6720283078323931292C20706112
:103640007573652030783131310D0A000080FFFF3D
:103650001CB50020009001900822694640F211102C
:1036600001F03CFA1CBD000038B50446009401226C
:10367000694640F2234001F031FA0CB903A000E0A2
:1036800004A0014605A00EF0BBFF38BD43555252C1
:10369000454E5400564F4C54414745005B417262C1
:1036A000697465725D205365742064726976652063
:1036B0006D6F64653A2025730D0A00007CB50546E0
:1036C0000C460020009001908DF800508DF80140CC
:1036D0000822694640F2211001F000FA22462946EC
:1036E00001A00EF08DFF7CBD5B4172626974657252
:1036F0005D20536574206C696768743A20656E615B
:10370000626C653D25642C206D6F64653D25640DFC
:103710000A00000038B5044600940122694640F2D0
:10372000214001F0DBF90CB903A000E004A0014640
:1037300006A00EF065FF38BD5354414E4442590077
:1037400043414E5F4354524C000000005B417262A3
:10375000697465725D20536574206D6F64653A20ED
:1037600025730D0A0000000038B5044600940122BC
:10377000694640F2411001F0B1F9214601A00EF076
:103780003FFF38BD5B417262697465725D205365AD
:1037900074206D6F74696F6E206D6F64653A2025BB
:1037A000640D0A002DE9F04104460D4616461F46F9
:1037B000FEF760FDBDE8F08110B5044614480078BE
:1037C000A04224D0134850F8242011480078114B0F
:1037D00053F8201010A00EF013FF0D480470042CB5
:1037E00003D1164800680A49C860042C00D01CB9EF
:1037F0000021074880F82510022C08D10020044938
:10380000C8830021024801844184C182818210BDA5
:10381000402300206C0300205B4172626974657272
:103820005D204D6F6465207377697463683A202565
:1038300073202D3E2025730D0A000000400100205A
:103840002DE9F0411B48B0F912400CB9BDE8F081F8
:10385000002C06DD1748478D90F8320000F0010675
:1038600005E01448878D90F83200C0F340063246D8
:1038700039462046FFF712FE0546002C04DD0D48B0
:10388000B0F91E00002806DC002C11DA0948B0F956
:103890001E0000280CDA0749B1F91E0001F0D0FB28
:1038A0008046284601F0CCFB804501DA0148C583FB
:1038B00000BFCBE74023002003480068034948606D
:1038C00000200872704700004001002040230020C3
:1038D0002DE9F04105460E46144631462846FFF7CD
:1038E000FEF9804608FB04F04FF47A71B0FBF1F763
:1038F000B8B2BDE8F08100000148007870470000D0
:103900003B0100201CB50121202008F0D9FE012038
:103910008DF804000002009003208DF805000020BF
:103920008DF8060001208DF8070069460E4804F066
:103930008FFE4FF480710C4804F0FEFE01200B490D
:10394000087000200A4908700A4908804FF4807105
:10395000054804F0F3FE642010F02AF84FF480715B
:10396000014804F0E9FE1CBD001402403A010020A9
:103970003B0100203C01002010B54548007810B103
:103980004448007828B94FF48071434804F0D4FECD
:1039900010BD42480088401C404908803D480078DE
:1039A000142814DC08460088142190FBF1F201FB76
:1039B0001200012805DA4FF48071374804F0BEFE8A
:1039C00064E04FF48071344804F0B6FE5EE03148A4
:1039D0000078282814DC314800880A2190FBF1F295
:1039E00001FB1200032805DA4FF480712A4804F025
:1039F000A5FE4BE04FF48071274804F09DFE45E0A2
:103A0000244800783C2814DC24480088052190FBD9
:103A1000F1F201FB1200032805DA4FF480711E4811
:103A200004F08CFE32E04FF480711B4804F084FEF9
:103A30002CE018480078502814DC1848008805212C
:103A400090FBF1F201FB1200042805DA4FF48071BB
:103A5000114804F073FE19E04FF480710E4804F031
:103A60006BFE13E00D4800880A2190FBF1F201FB88
:103A70001200092805DA4FF48071074804F05EFE51
:103A800004E04FF48071044804F056FE00BF7FE765
:103A90003A0100203B010020001402403C010020BC
:103AA00010B504460848007800B910BD642C00DD4C
:103AB00064240648047024B94FF48071044804F06B
:103AC0003BFE00BFF1E700003A0100203B0100206F
:103AD000001402402DE9F04704460D46A77A94F8F9
:103AE0000B8094F80C90667B4E4805770774042190
:103AF000204600F0BDF94B4948820621204600F0DF
:103B0000B7F9484988820821204600F0B1F94549B3
:103B1000C88208F00F014348017606F001014176A2
:103B2000C6F34001817680F81B9001214177007C2B
:103B30003D49097888420DD03A48007C3A490870DE
:103B40003848007C012802D1FFF7E4FD02E00020A4
:103B5000FFF7E0FD3348007E34490978884209D0F8
:103B60003048007E314908702E49097E01F003007B
:103B7000FFF7FAFD2B48407E2D490978884205D190
:103B80002848807E2B490978884217D02548407EF6
:103B9000274908702348807E26490870214A927E72
:103BA0000AB1012200E0002211461E4A527E0AB1EB
:103BB000012200E000221046FFF780FD1948C07E78
:103BC00018B11849C87EFEF70DFB1648807A18B167
:103BD0001448407AA84206D0124845720120114983
:103BE0008872FFF769FE14480088401C124908805B
:103BF00008460088322812DB002008800F48057034
:103C00000848408A0E4908800648007C0D49087023
:103C1000044800780C49087001200C490870BDE880
:103C2000F087000040230020620200206302002091
:103C30006402002065020020480200205902002092
:103C40005A0200205C0200205D0200205802002081
:103C500010B504460421204600F013F910BD70B5DC
:103C6000044600250CB9002070BD207A08B145F04B
:103C7000010594F83400022801D145F00205FFF750
:103C80003BFE002801DD45F004052846ECE730B591
:103C900002460AB9642030BD1078012801D06420A2
:103CA000F9E7D18C4FF6FF70814201D03C2901DC4D
:103CB0000020F0E7B42901DB6420ECE7A1F13C052A
:103CC00078246420684390FBF4F3002B00DA00238F
:103CD000642B00DD6423D8B2DDE700002DE9FE434C
:103CE0001CF04CF92D48067800202C4908702C480F
:103CF000077800202A4908702A4890F800800020A0
:103D0000284908701CF05CF98EB1274800880090A3
:103D10002648037826A2402130480EF081FC044654
:103D2000002C03DD2D492EA00EF06AFC00BFF7B178
:103D30002C480578042D00DD02252B4850F825007D
:103D40002A4909782A4AB2F90020CDE900210290D7
:103D50002848037828A2482133480EF061FC044625
:103D6000002C03DD30491EA00EF04AFC00BFB8F164
:103D7000000F10D00E2000902C4803882CA2382170
:103D800037480EF04DFC0446002C03DD344914A0E6
:103D90000EF036FC00BFBDE8FE8300005402002098
:103DA000580200205E02002056020020550200202A
:103DB0005B4A4554534F4E20424C4F422052585D6F
:103DC0002066697273742030783031207365713DDC
:103DD0002575206C656E3D25750D0A00761C00204A
:103DE000257300005D0200206C0300205C020020AF
:103DF0005A020020590200205B4A4554534F4E207E
:103E0000424C4F4220434D445D207365713D257502
:103E100020763D2564206D6F64653D2575204152F7
:103E2000423D25730D0A0000B61C002060020020F0
:103E30005B4A4554534F4E20424C4F422052585DEE
:103E4000203078303120626164206C656E3D2575CC
:103E5000206578706563743D25750D0A00000000CB
:103E6000FE1C002001480068704700004C02002042
:103E700070B504460D462946204600F002F800B20F
:103E800070BD0246481C105C535C40EA032070473A
:103E900010B5044604B910BD2078012802D01028BE
:103EA0002DD120E01A480068401C194908600846D6
:103EB0000068012808D160781649087060881649A2
:103EC000088001201549087060880E2804D16178A7
:103ED000201DFFF7FFFD05E06088114908800120E3
:103EE0001049087011E010480068401C0E49086035
:103EF0006088082802D1201DFFF7AAFE05E00A48C5
:103F00000068401C0849086000BF00BF00BFC2E74E
:103F10004C020020550200205602002054020020CE
:103F2000600200205E0200205002002001460529A8
:103F30000ED2DFE801F0030507090B0001207047EE
:103F40000220FCE70320FAE70420F8E70320F6E765
:103F50000320F4E710B51CF051FF10BD70B5064604
:103F60000C46154604F1580030F935200021304642
:103F700000F02FF804F1580000EBC500B0F9022062
:103F80000221304600F025F805EB450104F19800C8
:103F900030F811200421304600F046F805EB4501C9
:103FA00004F1980000EB41000079B07105EB450188
:103FB00004F1980000EB41004079F07104F15800E1
:103FC00000EBC500808882B20821304600F02CF852
:103FD00070BD70B505460E461446A2B2314628465D
:103FE00000F022F870BD70B504460D461646324604
:103FF0002946204600F01EF870BD2DE9F041064626
:104000000D4600240CE0204602F000FD074605EBBB
:10401000840081B23A46304600F00CF8601CC4B20D
:10402000042CF0DBBDE8F08110B5130A43544B1C9F
:10403000C25410BD10B5130E4354C2F307444B1CB9
:10404000C454C2F307248B1CC454CB1CC25410BDEF
:1040500010B58CB0044614B900200CB010BD04217A
:1040600001A8D4F8D020FFF7BEFFD42002590821C0
:1040700001A8FFF7B8FFD82002590C2101A8FFF7CB
:10408000B2FFDC200259102101A8FFF7ACFF94F821
:10409000E0008DF81800E120005D8DF81900E220A5
:1040A000025B162101A8FFF7BFFFB4F9E420182135
:1040B00001A8FFF78EFFB4F9E6201A2101A8FFF747
:1040C00088FF94F8E8008DF82000E920005D8DF865
:1040D0002100EA20005D8DF82200EB20005D8DF8C4
:1040E000230094F8C8008DF82400C920005D8DF8E5
:1040F0002500CA20005D8DF82600CB20005D8DF8DC
:104100002700CC20005D8DF82800CD20005D8DF8C3
:10411000290000208DF82A008DF82B008DF82C0046
:10412000054801780078401C034B1870292301AA28
:10413000082000F029F990E7400200202DE9F04F17
:104140002DED028B8BB004460025A946AA46AB464E
:1041500047F6FF70029024B90BB0BDEC028BBDE8AE
:10416000F08F94F8690008B145F0010594F86A00F1
:1041700008B145F0020594F86A0050B9A07850B132
:1041800094ED170ADFED790AB4EEE00AF1EE10FAC9
:1041900001DD012000E000208046B8F1000F01D0D1
:1041A00045F0040594F86800042804DB94F86900DD
:1041B00008B145F00805A07808B145F0100594F85D
:1041C0006900E0B394ED0E1BB0EE410AF0EE610A17
:1041D0009FED671B53EC112B51EC100BFCF741FAD0
:1041E00041EC180BFCF748FB814694ED101BB0EE38
:1041F000410AF0EE610A9FED5E1B53EC112B51EC6E
:10420000100BFCF72EFA41EC180BFCF735FB82463D
:1042100094ED160ADFED580AB4EEE00AF1EE10FA5A
:1042200016DD94ED160ADFED550AB4EEE00AF1EE64
:1042300010FA0DD294ED160AF2EE040A00E007E03F
:1042400020EE200ABDEEC00A10EE100A00B2029065
:10425000A078D8B194ED190AB5EEC00AF1EE10FAC3
:1042600014DD94ED190ADFED460AB4EEE00AF1EE32
:1042700010FA0BD294ED190ADFED410A20EE200A64
:10428000BCEEC00A10EE100A86B201E04FF6FF76CF
:1042900094F86A0040B9A07890B194ED170AB5EE91
:1042A000C00AF1EE10FA0BDB94ED170ADFED340AC9
:1042B00020EE200ABCEEC00A10EE100A87B200E021
:1042C0000027B8F1000F0BD094ED180ADFED2C0A8F
:1042D00020EE200ABDEEC00A10EE100A0FFA80FB95
:1042E0008DF8105094F868008DF8110032460621C0
:1042F00003A8FFF799FE3A46082103A8FFF794FEAA
:104300004A460A2103A8FFF76EFE52460E2103A873
:10431000FFF769FE5A46122103A8FFF75AFE14213F
:1043200003A8029AFFF755FE04F0E2FB02461621AD
:10433000019003A8FFF77EFE00208DF826008DF87F
:1043400027008DF828008DF829008DF82A008DF8B7
:104350002B000C4801780078401C0A4B1870202371
:1043600003AA052000F010F800BFF5E6CDCCCC3D47
:1043700000000000D01263410000FAC300401C4658
:104380000000C842400200202DE9F04105460E46DB
:1043900014461F46FFF7DEFD8046424600212046B8
:1043A000FFF748FE3B4622463146284607F030F8E4
:1043B000BDE8F0812DE9F0438BB004460D46174669
:1043C0001E46DDE912891CB900200BB0BDE8F08360
:1043D000294800788DF804002078FFF7A7FD8DF8B4
:1043E00005002046FFF73BFC8DF806002046FFF74E
:1043F0004EFC8DF80700B4F91E2008216846FFF72F
:10440000E8FDB4F920200A216846FFF7E2FDB4F97F
:1044100022200C216846FFF7DCFD2A460E21684663
:10442000FFF702FE3A4610216846FFF7FDFD3246CF
:1044300012216846FFF7F8FD424614216846FFF74F
:10444000F3FD16216846FFF7D8FD4A462621684647
:10445000FFF7EAFD607A8DF8280000208DF829002A
:10446000054801780078401C034B18702A236A46DF
:104470000320FFF789FFA8E74002002010B58AB0AB
:10448000044614B900200AB010BD94F834008DF829
:10449000040094F852008DF805005420005D00F0EF
:1044A0000F0194F8520061F31F108DF806000721E8
:1044B0006846A26BFFF7BEFDE28E0B216846FFF750
:1044C000B3FDB4F93C200D216846FFF782FDB4F935
:1044D0003E200F216846FFF77CFDB4F940201121F2
:1044E0006846FFF776FDB4F9422013216846FFF7CE
:1044F00070FDB4F9442015216846FFF76AFDB4F950
:10450000462017216846FFF764FDB4F948201921B9
:104510006846FFF75EFDB4F94A201B216846FFF7A5
:1045200058FDB4F94C201D216846FFF752FDB4F93F
:104530004E201F216846FFF74CFDB4F95020212181
:104540006846FFF746FD00208DF823008DF8240013
:104550008DF825008DF826008DF827000548017894
:104560000078401C034B187028236A460220FFF78E
:104570000BFF88E74002002070B58CB006460D4660
:1045800000240DE02919CAB204EB8401042303EBD3
:10459000410101ABC8180A49FFF7E0FC601CC4B236
:1045A000042CEFDB074801780078401C054B18709D
:1045B0002C2301AA3046FFF7E7FE0CB070BD0000C7
:1045C000402300204002002030B589B0054615B9CF
:1045D000002009B030BD00240CE005F1580000EBCC
:1045E000C4004268042000EB84016846FFF7FBFC2E
:1045F000601CC4B2082CF0DB054801780078401C30
:10460000034B187024236A460B20FFF7BDFEE0E73A
:1046100040020020F0B587B004460D4617461E46FE
:10462000224604216846FFF7FFFC2A460621684619
:10463000FFF7FAFC3A4608216846FFF7F5FC3246D8
:104640000A216846FFF7F0FC0C216846FFF7D5FC0D
:10465000064801780078401C044B18701C236A46F9
:104660000420FFF791FE07B0F0BD000040020020DB
:104670002DE9FC4705460E4617469846DDE90A49EE
:1046800034480068401C33490860287AE0B1284665
:10469000FFF7F4FE2F48007800F0010038B94346D8
:1046A0003A4631462846CDE90049FFF783FE2948BE
:1046B000007800F0030028B92346424639463046C8
:1046C000FFF7A8FFBDE8FC872846FFF7D7FE434663
:1046D0003A4631462846CDE90049FFF76BFE1D48B2
:1046E000007800F0010028B923464246394630469A
:1046F000FFF790FF1748007800F0070088B91648C8
:10470000007838B900210620FFF736FF0120124952
:10471000087006E004210720FFF72EFF00200E4955
:1047200008700C4800681421B0FBF1F201FB120084
:1047300010B92846FFF78CFC064800683221B0FB10
:10474000F1F201FB120010B92846FFF73DFF00BF50
:10475000B8E7000044020020410200200E49897899
:104760000E4A11700C49C97851700D490988518061
:10477000002008E000F10901074A525C0749091DC1
:104780000A54411C88B2064909888842F2DB01219B
:10479000044A117070470000081C0020421C0020D1
:1047A000280200202A02002010B515480078AB2806
:1047B00001D0002010BD12484078012801D000200F
:1047C000F8E70F48807908B10020F3E70C48007A39
:1047D00008B10020EEE70B48008818B109480088AE
:1047E000302801D90020E5E705498878054909887E
:1047F00000F0C6F808B90020DCE70120DAE7000085
:10480000081C002028020020014648780A7840EA67
:104810000220704710B5044633480078002837D18D
:10482000AB2C07D131480088002803DD204600F07A
:1048300073F810BD2D4801880088401C2B4A108059
:104840002B48445410460088092801D20020F0E784
:104850002748001DFFF7D8FF26490880FFF7A4FF6F
:1048600040B925480068401C2349086000F046F81C
:104870000120DEE71F48008828B9FFF76FFF00F02E
:104880003DF80120D5E70120174908700020D0E746
:10489000AB2C03D1204600F03FF8CAE7134801884B
:1048A0000088401C114A108011484454104600886A
:1048B000392808D310480068401C0F49086000F0F0
:1048C0001DF80120B5E70B480088093080B2074980
:1048D0000988884205DCFFF741FF00F00FF801204E
:1048E000A7E70020A5E70000240200202602002000
:1048F000081C0020280200202C0200200020034970
:10490000087003490880034908807047240200208A
:10491000260200202802002000B50246FFF7EEFF25
:1049200003480270012003490880002000BD0000F8
:10493000081C002026020020014611291ED2DFE8B3
:1049400001F01D090B0D0F111315171D1D191D1D4C
:104950001D1D1B000E2070472820FCE72A20FAE7C7
:104960001C20F8E72020F6E72C20F4E72C20F2E7C3
:104970002920F0E72420EEE70820ECE70020EAE712
:1049800010B504460A462046FFF7D6FF03460BB98A
:10499000002010BD9A4201D10120FAE70020F8E77B
:1049A00000BFFEE708B50020072305220421009080
:1049B00000F002F808BD00002DE9F0418AB004467D
:1049C0000D4616461F46DDF840800121084607F0D7
:1049D00077FE0121480607F0A3FE09220B212B4890
:1049E00003F07EFE09220C21284803F079FE4FF4E3
:1049F000C050089002208DF8240000208DF8260079
:104A000003208DF8250001208DF8270008A91F48F4
:104A100003F01EFE00208DF81A0001208DF81B0007
:104A200000208DF81C0001208DF81D0000208DF85D
:104A30001E008DF81F008DF816808DF817408DF838
:104A400018608DF81950ADF8147005A9104800F0E1
:104A500003F900208DF80E008DF80F0001208DF86D
:104A600010000020ADF80400ADF80600ADF8080015
:104A7000ADF80A00ADF80C0001208DF8110001A876
:104A800000F066F80AB0BDE8F081000000000240C6
:104A90000064004070B586B005460E4600210E4801
:104AA00000F064F910B9002006B070BD01AA002121
:104AB000094800F06AF901982860002404E00DF12B
:104AC0000F00005D3055641C9DF80E00A042F6D822
:104AD0009DF80E00E8E70000006400402DE9F04179
:104AE00086B00746884615460024019700200290AC
:104AF0008DF80C008DF80D008DF80E5000BF06E00B
:104B000018F804100DF10F000155601C84B2AC427E
:104B1000F6DB01A90D4800F0B0F90646002401E0DB
:104B2000601C84B23146094800F03AFA18B940F6E0
:104B3000FF708442F4DB40F6FF70844203DB012007
:104B400006B0BDE8F0810020FAE7000000640040F4
:104B500010B50021837A012202FA03F13D4A12685E
:104B600042F001023B4B1A603A4A1C3212688A43F7
:104B7000384B1C331A60027BCAB9364A0C321268B1
:104B80008A43344B0C331A604288C38842EA034399
:104B9000304A4032847A42F834300288838842EACC
:104BA00003432C4A4032847A02EBC4025360027BF6
:104BB000012A19D1274A0C3212680A43254B0C33BB
:104BC0001A604288038842EA0343224A4032847AC8
:104BD00042F83430C288838842EA03431D4A403297
:104BE000847A02EBC4025360C27A3AB9194A121DA0
:104BF00012688A43174B1B1D1A6006E0154A121DE6
:104C000012680A43134B1B1D1A60028932B9114AFC
:104C1000143212688A430F4B14331A600289012A36
:104C200006D10C4A143212680A430A4B14331A6034
:104C3000427B012A06D1074A1C3212680A43054BFF
:104C40001C331A60034A126822F00102014B1A60F9
:104C500010BD00000066004030B502460020002371
:104C6000146824F002041460146844F00104146011
:104C700000E05B1C546804F001041CB94FF6FF749B
:104C8000A342F6D1546804F001040CB900206CE092
:104C90008C79012C04D1146844F08004146003E082
:104CA000146824F080041460CC79012C04D11468B9
:104CB00044F04004146003E0146824F040041460DD
:104CC0000C7A012C04D1146844F02004146003E031
:104CD000146824F0200414604C7A012C04D1146868
:104CE00044F01004146003E0146824F0100414600D
:104CF0008C7A012C04D1146844F00804146003E099
:104D0000146824F008041460CC7A012C04D11468CF
:104D100044F00404146003E0146824F004041460F4
:104D20008C78A407CD7844EA05640D7944EA0544FB
:104D30004D7944EA05540D886D1E2C43D4611468E6
:104D400024F001041460002300E05B1C546804F0AC
:104D500001041CB14FF6FF74A342F6D1546804F06D
:104D600001040CB1002000E0012030BD024600200B
:104D700019B9D36803F0030006E0012903D11369D0
:104D800003F0030000E00020704710B500F5D87371
:104D900003EB01131B6803F004031372137A53B976
:104DA00000F5D87303EB01131B6840F2FF7404EAAB
:104DB0005353136009E000F5D87303EB01131B682C
:104DC0006FF0604404EAD303536000F5D87303EB3B
:104DD00001131B6803F00203537200F5D87303EB51
:104DE00001135B6803F00F03937200F5D87303EBB4
:104DF00001135B681B0AD37400F5D87303EB01132E
:104E00009B68D37200F5D87303EB01139B681C0AEF
:104E1000147300F5D87303EB01139B681C0C5473D7
:104E200000F5D87303EB01139B681B0E937300F519
:104E3000D87303EB0113DB68D37300F5D87303EB6E
:104E40000113DB681C0A147400F5D87303EB01131B
:104E5000DB681C0C547400F5D87303EB0113DB689A
:104E60001B0E937421B9C36843F02003C36003E0B1
:104E7000036943F02003036110BD10B50246002012
:104E8000936803F08063B3F1806F00D110E0936802
:104E900003F00063B3F1006F01D1012008E09368D3
:104EA00003F08053B3F1805F01D1022000E00420C1
:104EB000042874D002F5C07303EB00131B6803F0E1
:104EC000010402F5C07303EB00131C600B7A7BB97D
:104ED0004B7A0C8843EA445302F5C07404EB001487
:104EE0002468234302F5C07404EB0014236010E02F
:104EF0000B7A4C6843EAC4034C7A234302F5C0742E
:104F000004EB00142468234302F5C07404EB00147E
:104F100023608B7A03F00F038B7202F5C07303EBEF
:104F200000135B6823F00F0402F5C07303EB00135A
:104F30005C6002F5C07303EB00135B688C7A23435B
:104F400002F5C07404EB001463608B7B1C064B7B82
:104F500044EA03440B7B44EA0323CC7A234302F55F
:104F6000C07404EB0014A3608B7C1C064B7C44EAE9
:104F700003440B7C44EA0323CC7B234302F5C07437
:104F800004EB0014E36002F5C07303EB00131B682D
:104F900043F0010402F5C07303EB00131C6010BD65
:104FA00010B50246002321B1012907D002290FD1F3
:104FB00009E090681D4C00EA04030BE090681C4C6B
:104FC00000EA040306E090681A4C00EA040301E0DA
:104FD000002300BF00BF184C181BA34216D007DCEB
:104FE00083B16FF08060184470B1022818D111E0CD
:104FF000B0F5007F10D0114C204448B1B0F5003F0F
:105000000ED10BE002230DE000230BE0002309E0AA
:10501000002307E0012305E0012303E0012301E071
:10502000002300BF00BFD8B210BD00000300000481
:105030000003000800000310000100080001FFF752
:105040000146002902DA484200B270470846FCE7F0
:105050002DE9F04107460D4614463846FFF7F0FFAC
:105060000646322F0EDD1E2D03DB26800120BDE813
:10507000F08115F11E0F02DC26800220F7E7278061
:105080000420F4E717F1320F0DDA1E2D02DB268023
:105090000120ECE715F11E0F02DC26800220E6E776
:1050A00026800520E3E70020208000BFDFE72DE910
:1050B000F04107460D4614463846FFF7C1FF064645
:1050C000322F0EDD15F11E0F03DC26800120BDE816
:1050D000F0811E2D02DB26800220F8E727800420C5
:1050E000F5E717F1320F0DDA15F11E0F02DC2680FD
:1050F0000120ECE71E2D02DB26800220E7E7268058
:105100000520E4E70020208000BFE0E72DE9F04122
:1051100006460C4615463046FFF792FF07462046E6
:10512000FFF78EFF8046322E16DD2F80B8F1C80FB4
:1051300002DC0420BDE8F081B4F5966F01DB0120AC
:10514000F8E714F5966F01DC0220F3E7C82C01DDC7
:105150000120EFE70220EDE716F1320F15DA2F807C
:10516000B8F1C80F01DC0520E4E7B4F5966F01DB68
:105170000120DFE714F5966F01DC0220DAE7C82C86
:1051800001DD0120D6E70220D4E70020288000BFFF
:10519000D0E7024641EA022000B2704710B596B04F
:1051A000FCF76CF913A915A8FDF7BAF812A914A811
:1051B000FDF776F89DF85400FDF71CFB04461B48EC
:1051C000B0F93E001949B1F94010184AB2F93C2033
:1051D000CDE900210290BDF94C30224614A104A86B
:1051E0000DF036FA04A9A0200AF074F89DF85000DA
:1051F000FDF700FB04460D48B0F92010B0F922007D
:105200000A4AB2F91E20CDE900200291BDF94830CA
:1052100022460FA104A80DF01BFA04A9B0200AF041
:1052200059F8FCF739F916B010BD000040230020F2
:10523000526563763A252D35732025336420762513
:105240003464207325346420772534640000000022
:1052500053656E643A252D357320253364207625F9
:105260003464207325346420772534640000000002
:1052700070B58CB0FFF792FF00F062F8FCF7FEF813
:105280002048C08E0A2190FBF1F201FB12061D4856
:10529000C08E90FBF1F51B4890F8350033462A4646
:1052A00019A1009002A80DF0D3F902A9E0200AF09C
:1052B00011F8144890F8E00000281EDD1148B0F8FD
:1052C000E240B4F57A7F03DD0A2094FBF0F084B26B
:1052D0000A2094FBF0F100FB114594FBF0F609481D
:1052E000009590F8E02033460EA102A80DF0B0F929
:1052F00002A94FF4807009F0EDFFFCF7CDF80CB077
:1053000070BD000040230020426174743A2532646D
:105310002E25316456204D6F64653A307825303241
:1053200058000000424D5320534F433A2532642524
:105330002520563A2532642E25316456000000009F
:1053400000B593B0FCF79AF801A8FDF745F9BDF94F
:105350000630BDF904200CA10BA80DF079F9BDF9B8
:105360000A30BDF908200CA103A80DF071F9FCF773
:1053700093F80BA9C02009F0ADFF03A9D02009F0D4
:10538000A9FF13B000BD00004C463A25356420202B
:105390002052463A253564004C523A253564202087
:1053A0002052523A2535640070B500254FF4803400
:1053B00004E0802007F062FF00B103E0201EA4F1AA
:1053C0000104F6D100BF0CB9032070BD40F2FF50BC
:1053D00007F02AFF2846F8E770B5044605E01648AE
:1053E000056805F0450000B100E0F8E700BF0420C3
:1053F00007F044FF20B1042007F016FF032070BD22
:10540000012007F03BFF20B1012007F00DFF012034
:10541000F5E7094824380068A04201D01020EEE7E3
:1054200040F2FF5007F000FF0348203800680821D1
:105430000840C0B2E3E70000342C014070B50026FC
:105440004FF4803505E01148046804F0450000B1D0
:1054500003E0281EA5F10105F5D100BF15B104F048
:10546000040028B10326042007F0DEFE304670BD9C
:10547000012007F003FF18B10126012007F0D4FE38
:1054800040F2FF5007F0D0FE3046F0E7342C0140E8
:1054900010B505E00B48046804F0450000B100E0D9
:1054A000F8E700BF042007F0E9FE20B1042007F070
:1054B000BBFE032010BD40F2FF5007F0B5FE0020F8
:1054C000F8E70000342C01402DE9F04105460E4676
:1054D0004FF0000805E02048076807F0450000B1DC
:1054E00000E0F8E700BF042007F0C8FE28B1042060
:1054F00007F09AFE0320BDE8F081012007F0BEFE10
:1055000020B1012007F090FE0120F4E71248243872
:105510000068A84201D01020EDE740F2FF5007F0EC
:1055200083FE0D482038046804F4604018B9200C4C
:1055300030804046DFE704F4005008B11320DAE77A
:1055400004F4804008B11020D5E704F4004008B10D
:105550000F20D0E74046CEE7342C014070B500263E
:105560004FF4803505E00F48046804F0450000B1B1
:1055700003E0281EA5F10105F5D100BF15B104F027
:10558000040028B10326042007F04EFE304670BD0B
:1055900004F0400018B10026402007F045FE3046D8
:1055A000F5E70000342C014070B506460C4604F0C7
:1055B0008000802808D104F07F0000EB800106F510
:1055C0008E7000EBC10505E004EB840106F55D700B
:1055D00000EBC1050020A87004F07F002870C4F320
:1055E000C0106870294630460CF0F1FC002070BDF8
:1055F0002DE9F04106460D4690461F4605F0800015
:10560000802808D105F07F0000EB800106F58E7040
:1056100000EBC10407E005F07F0000EB800106F518
:105620005D7000EBC10405F07F00207005F0800084
:10563000C0096070C4F80880E770607808B120780D
:10564000E080022F01D100202071214630460CF06D
:1056500072FC0020BDE8F0812DE9F04105460E46C0
:105660001746984606F07F0000EB800105F55D7057
:1056700000EBC104E760C4F814800020A0616070F2
:1056800006F07F002070E878012800D1276120789B
:1056900020B9214628460CF072FB03E0214628463B
:1056A0000CF0EFFC0020BDE8F08108B5002200926C
:1056B000009A61F30A12009202691268009B1A4371
:1056C00003691A6008BD70B506460C4604F08000F8
:1056D000802808D104F07F0000EB800106F58E7071
:1056E00000EBC10505E004EB840106F55D7000EBFD
:1056F000C1050120A87004F07F002870C4F3C01019
:105700006870294630460CF08AFC002070BD2DE9F7
:10571000F04107460D461646984605F07F0000EB1F
:10572000800107F58E7000EBC1040120607005F068
:105730007F002070E66026610020A061C4F814801C
:10574000207820B9214638460CF019FB03E02146A9
:1057500038460CF096FC0020BDE8F0811CB50446EC
:1057600020460CF0D7FAE068C068009020460CF0A4
:10577000ADFD03280BD10020A0704FF40070A08075
:10578000009820F4705000F51050009009E00120BE
:10579000A0704020A080009820F4705000F5A05028
:1057A00000900098E168C86000200190019820F402
:1057B000005000F5005001900198E1684861012017
:1057C0001CBD0000F8B505460024002000902846C6
:1057D0000CF0AFFD064690E006F0010000287DD0F9
:1057E000E1B2284600F0B4FA0090009800F0010001
:1057F00030B3012000FA04F72869406BB8432969E7
:10580000486300200090009820F00100401C0090A8
:1058100005F1180050F8240000998160E1B2394880
:105820000068426828469047E878012808D13CB9CA
:1058300040F21110405D042802D128460CF04AFBCA
:105840000098C0F3C00060B100200090009820F0E4
:1058500008000830009005F1180050F82400009965
:1058600081600098C0F3001060B1002000900098A3
:1058700020F010001030009005F1180050F82400BE
:10588000009981600098C0F3801060B10020009002
:10589000009820F040004030009005F1180050F8CA
:1058A0002400009981600098C0F3400060B100209E
:1058B0000090009820F00200801C009005F1180074
:1058C00050F82400009981600098C0F3C01028B1FE
:1058D0002146284600F050FA002000E00BE000903E
:1058E000009820F080008030009005F1180050F8FA
:1058F000240000998160641C7608002E7FF46CAF50
:105900000120F8BDA00400207CB50446002500203D
:10591000019020460CF015FD06466FE006F00100F0
:10592000002869D0E9B220460CF013FD01900198DF
:1059300000F00100C8B300200190019820F00100A0
:10594000401C019004F1540050F825000199816039
:10595000E078012817D104F1540050F825000069BF
:10596000009005EB850104F55D7000EBC1008068D7
:105970000099C1F31201411A05EB850204F55D702F
:1059800000EBC2008161E9B21E480068026820464F
:105990009047E078012808D13DB940F21110005D30
:1059A000052802D120460CF095FA0198C0F340007A
:1059B00060B100200190019820F00200801C01904D
:1059C00004F1540050F82500019981600198C0F35A
:1059D000C00088B10B4800688168204688470020D5
:1059E0000190019820F008000830019004F1540063
:1059F00050F82500019981606D1C7608002E8DD12C
:105A000001207CBDA00400203EB50446A07A70B100
:105A1000D4F80C010090009820F00200009000984B
:105A200020F0010000900099D4F80C0101600020E2
:105A30000190019820F00100401C0190206940680D
:105A400001998843216948600848006881692046B7
:105A5000884700200290029820F0004000F10040AA
:105A600002900298E168486101203EBDA004002038
:105A70007CB5044600200190019820F01000103001
:105A80000190E068806901998843E1688861E06875
:105A9000006A0090009800F00F0000EB800104F510
:105AA0005D7000EBC1050098C0F3434007282DD27C
:105AB000DFE800F02C04051D1E2C1F0027E00098D5
:105AC000C0F30A1090B10098C0F30A122046E968AA
:105AD0000CF049FCE8680099C1F30A110844E86039
